:020000040800F2
:10000000D8460020F10100089F230008F5020008EF
:100010009D230008BB040008092A00080000000016
:1000200000000000000000000000000003020008C3
:10003000BD0400080000000043020008A1230008DE
:100040000B0200080B0200080B0200080B0200085C
:100050000B0200080B0200080B0200080B0200084C
:100060000B0200080B0200080B0200080B0200083C
:100070000B0200080B0200080B0200080B0200082C
:100080000B020008000000000B0200080B02000831
:100090000B0200080B0200080B0200080B0200080C
:1000A0000B0200080B0200080B0200080B020008FC
:1000B0000B0200080B0200080B0200080B020008EC
:1000C0000B0200080B0200080B0200080B020008DC
:1000D0000B0200080B0200080B0200080B020008CC
:1000E0000B0200080B0200080B0200080B020008BC
:1000F0000B0200080B0200080B02000800000000C1
:10010000000000000B020008000000000B020008C5
:100110000B02000800000000C92400080B020008C0
:100120000B0200080B0200080B0200080B0200087B
:100130000B02000800000000000000000B02000895
:100140000B0200080B020008000000000000000085
:10015000000000000000000000000000000000009F
:100160000000000000000000000000000B0200087A
:100170000B0200080000000000000000000000006A
:10018000000000000B02000800000000000000005A
:10019000000000000000000000000000000000005F
:1001A00000000000000000000B0200080B02000825
:1001B0000B0200080B0200080B0200080000000000
:1001C000000000000B02000800000000000000001A
:1001D0000B0200080B020008DFF810D000F056F9FF
:1001E00000480047B1040008AFF30080D846002063
:1001F0000648804706480047FEE7FEE7FEE7FEE7C1
:10020000FEE7FEE7FEE7FEE7FEE7FEE7B9240008AB
:10021000D9010008EFF3108072B6704780F31088A0
:100220007047424A1368012B04D04FF0010313605A
:100230003F4A10603F4A11603F484FF080510160D3
:100240007047EFF3108272B63848016851B34FF02F
:10025000000101603648016891B1EFF309811EF099
:10026000100F08BF21ED108B21E9F00F4FF00004B3
:100270001EF0100F08BF012441F8044D0068016012
:100280002C490968096808C9B1E8F00F002B18BFAC
:10029000B1EC108B81F309884EF0100E002B18BFC3
:1002A0002EF0100E82F310884EF0040E7047214994
:1002B0000860EFF3148222F0040282F314881C49D0
:1002C0004FF00000086019494FF0010008601B481A
:1002D0001B49D0F8002041EA0201016016484FF0A6
:1002E0008051016017480068006880F3088861B693
:1002F00062B670471EF0040F0CBFEFF30880EFF3F7
:10030000098020E9F00F40F804ED40F804ED1EF0FC
:10031000040F0CBF80F3088880F3098800B504F04F
:10032000EDF95DF804EB4EF0040E7047D4000020A8
:10033000CC000020D000002004ED00E020ED00E023
:100340000000FFFF08ED00E02DE9F05F054600200A
:1003500092469B4688460646814640241BE0284636
:1003600041464746224600F081F853465A46C01A95
:10037000914110D311461846224600F068F82D1A14
:1003800067EB01084F4622460120002100F05FF88C
:1003900017EB00094E41201EA4F10104DFDC4846A2
:1003A00031462A464346BDE8F09F40EA01039B07D9
:1003B00003D009E008C9121F08C0042AFAD203E0DA
:1003C00011F8013B00F8013B521EF9D27047D2B23E
:1003D00001E000F8012B491EFBD270470022F6E72E
:1003E00010B513460A4604461946FFF7F0FF2046AB
:1003F00010BD421E12F8013F002BFBD111F8013B4A
:1004000002F8013B002BF9D1704710B5044604E017
:100410000B7800F8013B03B1491C521EF8D220466C
:1004200010BD421C10F8011B0029FBD1801A704737
:1004300030B505460020034600E05B1C934205D220
:10044000EC5CC85C201A01D1002CF6D130BD202A0A
:1004500004DB203A00FA02F1002070479140C2F11B
:10046000200320FA03F3194390407047202A04DB4D
:10047000203A21FA02F00021704721FA02F3D0401D
:10048000C2F120029140084319467047064C074DBF
:1004900006E0E06840F0010394E807009847103454
:1004A000AC42F6D3FFF79CFE5C6200087C62000859
:1004B00010B505F00FFB002010BDFEE7704772B6C7
:1004C000FEE700002DE9F047044690F858009CB084
:1004D0000E464FF00009012815D0012084F858007D
:1004E00000251795189520684FF0A04840450ED17B
:1004F000284F0097384601F0D9FD8246206801F068
:10050000D5FD60B10EE002201CB0BDE8F087E06DC3
:1005100040F02000E06584F858500120F4E7BAF17B
:10052000000F09D0E06D40F02000E0654FF00109B8
:1005300084F858504846E7E71748326840F61F717C
:10054000002A826822F4604216D094F8383042EAD9
:10055000433273681A438260D8F80820BB6802F0FF
:10056000010203F001031A43E2D1B36832681A436F
:1005700083688B431A430BE08260D8F80820BB687D
:1005800002F0010203F001031A43D1D182688A43C9
:100590008260CDE700010050000300502DE9F84FC4
:1005A00000270446009790F85800DFF8E0930D46C6
:1005B000B846012811D0012684F85860206801F05F
:1005C00071FD60B1E06D40F02000E0655FF0010773
:1005D00084F858803846BDE8F88F0220FBE7D5E95B
:1005E00000210C23206803EA91131844036B01F0E7
:1005F0001F014FF01F0C0CFA01FCC2F3846223EAC6
:100600000C038A4013430363206801F04BFD8246CC
:10061000206801F043FD5AEA00003CD1AA6829682D
:100620002068B2F1004F37D001F044FD20684169E5
:1006300021F00041416120686969C268C2F3C102CA
:10064000520091402A69042A31D000EB82002B68C5
:10065000026EDFF83CC303F0F84302EA0C020B43DE
:100660001A4342F00041016620682A69A96900EB3B
:100670008200026E22F080720A430266297F22689D
:100680002869012910D0002102EB8000026E22F0BF
:1006900000720A4302667DE0002201F00BFD206833
:1006A000416941F00041C5E74FF00071ECE70021DE
:1006B00001F0EEFC400320684FF0000172D001F021
:1006C000E7FC90FAA0F0B0FA80F1286842036ED0FF
:1006D00090FAA0F0B0FA80F0814204D100221146D5
:1006E000206801F0F6FC0121206801F0D1FC4003F4
:1006F00020684FF001015DD001F0CAFC90FAA0F033
:10070000B0FA80F12868420359D090FAA0F0B0FA0C
:1007100080F0814204D100220121206801F0D9FC3F
:100720000221206801F0B4FC400320684FF0020170
:1007300048D001F0ADFC90FAA0F0B0FA80F1286842
:10074000420344D090FAA0F0B0FA80F0814204D184
:1007500000220221206801F0BCFC0321206801F086
:1007600097FC400320684FF0030133D001F090FC68
:1007700090FAA0F0B0FA80F1286842032FD090FAE6
:10078000A0F0B0FA80F0814204D100220321206859
:1007900001F09FFC2068816811F0010F22D0ACE0CD
:1007A00000E004E001F074FCC0F384618DE7C0F365
:1007B000846091E701F06CFCC0F38461A2E7C0F3B0
:1007C0008460A6E701F064FCC0F38461B7E7C0F37E
:1007D0008460BBE701F05CFCC0F38461CCE7C0F34C
:1007E0008460D0E72A7B296850F8B03FC1F3120C2F
:1007F00023EA0C0302F0180C664A22FA0CF20A40B3
:1008000013430360E968494577D1286841031CD048
:1008100090FAA0F1B1FA81F1491C01F01F010929F8
:100820004FEA403132D8002912D000BF90FAA0F12F
:10083000B1FA81F101F1010101F01F0106FA01F69F
:1008400009D100BFC0F3846109E0C0F38461E3E72C
:10085000C0F38461EEE790FAA0F1B1FA81F101F101
:10086000010101F01F0146EA816102D1C0F38460F9
:1008700003E090FAA0F0B0FA80F000F1010000F07F
:100880001F0000EB400041EA005132E000290ED089
:1008900090FAA0F1B1FA81F101F1010101F01F011B
:1008A00006FA01F606D100BFC0F3846106E0C0F38A
:1008B0008461F1E790FAA0F1B1FA81F101F101014F
:1008C00001F01F0146EA816102D1C0F3846003E0B8
:1008D00090FAA0F0B0FA80F000F1010000F01F00E3
:1008E0002D4A00EB400002EB005041EA000141F0CC
:1008F0000071AA68206801F0DDFB28482A680242DE
:100900003FF466AE26488168264B01F0E0719A42BA
:1009100002D0254B9A421CD10B021AD42268B2F1A4
:10092000A04F7FF455AE826841F4000122F0E072DE
:100930000A4382601D481E490068B0FBF1F0401C6C
:1009400000EB4000800000E0401E00900028FBD13A
:100950003EE6184D184BAA4207D1CD0105D42268B6
:100960009A42F5D041F0807109E0144DAA42EFD1CE
:100970004A02EDD422689A42EAD041F480018268AA
:1009800022F0E0720A43826022E6000000007F400D
:1009900000F0FF03FFFF0700000020FE00000880BA
:1009A00000030050000021C31000C090240000206C
:1009B000400D0300000052C700010050000084CB2E
:1009C000F8B54FF0000504002E46009502D0E06D0A
:1009D00010B107E00120F8BD204600F0EFF82666D0
:1009E00084F8586020688168C1F3407119B181684A
:1009F0006A4A1140816020688168C1F3007189B939
:100A00008168674A114041F08051816065486649BC
:100A10000068B0FBF1F04000801C00E0401E009038
:100A20000028FBD120688168C1F3007141B9E16DF4
:100A300041F01001E165216E41F0010121660125BF
:100A400001F030FBE16DC90600D430B1E06D40F03B
:100A50001000E06501252846F8BDE06D20F48070A7
:100A600040F00200E0652068806810F0010F11D1AD
:100A70004FF0A04080684D4900F00100896801F006
:100A80000101084306D14A486168826822F47C1259
:100A90000A438260E168E06B627F0843A16841EA33
:100AA0004231084394F8241040EA0140012904D15E
:100AB000218D404A02EB41410843E16A29B101F42A
:100AC0007871226B014342EA01002168CA683A4BFF
:100AD0001A400243CA6020680169626B21F04061DC
:100AE00011430161206801F0DDFA0646206801F03B
:100AF000D5FA30432ED1207F94F83810800340EA95
:100B000041022068C16844F2020399431143C16065
:100B100020690028206801690AD041F48031016110
:100B2000206850F8C01F22696FF30D01114307E0E0
:100B300021F480310161206850F8C01F6FF30D016E
:100B4000016094F8400001280CD02068016921F070
:100B500001010161606901282068016B21F00F012A
:100B600011D013E0D4E911010843D4E91312114361
:100B7000084321680A6940F2FC739A43104340F02D
:100B800001000861E6E7226A521E11430163E06D2D
:100B900020F0020040F00100E0655CE7C0FFFF5F6D
:100BA000C0FFFF7F24000020400D03000001005023
:100BB000000300500000FEFF0740F0FFF0B587B0D3
:100BC000044614216846FFF709FC214B26680024DF
:100BD0001A6803251F482049521CB6F1A04F06D0C1
:100BE0001E4FBE4231D11A60012A16D01DE01A6094
:100BF000012A07D1CA6C42F40052CA64CA6C02F4DA
:100C000000520592CA6C42F00202CA64C96C01F03B
:100C1000020105914FF4805111E0CA6C42F4005278
:100C2000CA64CA6C02F400520592CA6C42F0020215
:100C3000CA64C96C01F0020105914FF40041CDE98D
:100C400000150294694600F00BF807B0F0BD0000F3
:100C50001400002000040048001002400001005071
:100C60002DE9FC4FDFF8A0A1002301250AF1040BB8
:100C700003244FF00F0C0BF1040EBDE005FA03F650
:100C800032406FD04F68012F05D0022F03D0112FB3
:100C900001D0122F17D1D0F808905F0004FA07F89E
:100CA00029EA08090097D1F80C8008FA07F848EA01
:100CB0000908C0F808804768B7430E79C6F30016E4
:100CC0009E403E434660C6684FEA430804FA08F770
:100CD000BE4301978F6807FA08F73743C7604E682D
:100CE000022E01D0122E13D1DE0800EB86060096EC
:100CF000366A5F07FF0E0CFA07F926EA0906D1F8F3
:100D0000109009FA07F949EA0609009EC6F82090F2
:100D10000668019FBE430F7907F0030707FA08F73B
:100D2000374307604E68F60065D5384E376E47F09A
:100D300001073766366E23F0030706F001060096BA
:100D4000334E3E44B146B6689F074FEA17780CFA17
:100D500008F7BE43B0F1904F05D02E4FB84204D1F2
:100D6000012717E047E0002714E02B4FB84201D1DC
:100D700002270FE0294FB84201D103270AE0284F8C
:100D8000B84201D1042705E0264FB84201D105271A
:100D900000E0062707FA08F73743C9F80870DAF8C1
:100DA00000605746D1F8048096435FEAC83800D502
:100DB00016433E60DBF800605F46D1F8048096433E
:100DC0005FEA883800D516433E60DEF8006077465B
:100DD000D1F8048096435FEAC82800D516433E60E8
:100DE000094F0C373E68D1F8048096435FEA8828A3
:100DF00000D516433E605B1C0A6832FA03F67FF4A6
:100E00003DAFBDE8FC8F000000040140001002402F
:100E1000000001400004004800080048000C0048A1
:100E200000100048001400480069084000D001206C
:100E30007047426921EA02030A4043EA02418161A4
:100E400070470AB1816170478162704701488068CC
:100E5000704700001800002010B50024032000F0A7
:100E600073F8002000F008F808B1012401E000F058
:100E700025F8204610BD000070B50E4E0546002432
:100E8000706898B14FF47A71B1FBF0F00A490968C3
:100E9000B1FBF0F000F06AFD40B9102D06D200223F
:100EA0002946501E00F030F8356000E0012420464D
:100EB00070BD000018000020240000200A4882B005
:100EC000016E41F001010166016E01F00101009126
:100ED000816D41F080518165806D00F080500090FF
:100EE00002B000F0A1B8000000100240002809DBA9
:100EF00000F01F02012191404009800000F1E02034
:100F0000C0F8001170470000F0B40E4B1B680C468F
:100F1000C3F30223C3F10705042D00D90425191DCD
:100F2000072901D2002300E0DB1E012606FA05F1A5
:100F3000491E214099409E40761E16403143F0BC28
:100F400001F063BD0CED00E0064900F007020868FF
:100F50004FF6FF03184040EA0220034A104308609E
:100F6000704700000CED00E00000FA052B492C4B07
:100F70000A6832214A432B4940B1B0F5007F086826
:100F800029D020F4C06040F480602CE00868C0F3F1
:100F90004120022804D051F8800F20F4807022E014
:100FA000D1F8800020F48070C1F88000086820F437
:100FB000C06040F400700860B2FBF3F0401C00E039
:100FC000401E4A69520501D50028F9D148694005FB
:100FD0000AD503207047C0F34120022806D051F8FB
:100FE000800F40F48070086000207047D1F88000C6
:100FF00040F48070C1F88000086820F4C06040F4BC
:1010000000700860B2FBF3F0401C00E0401E4A692B
:101010005205DBD50028F9D1D8E7000024000020D4
:1010200040420F00007000400248816841F4804156
:1010300081607047007000402DE9F8430446006865
:1010400000269D4D00035ED5A86D0027C00008D482
:10105000A86D40F08050A865A86D012700F0805071
:101060000090DFF85892D9F8001041F48071C9F867
:101070000010FFF7EBFE804606E000BFFFF7E6FE3C
:10108000A0EB080002282BD8D9F80000C005F5D540
:10109000D5F8900010F4407014D0216C814211D02A
:1010A000D5F89000D5F8901020F4407041F48031CC
:1010B000C5F89010D5F8901021F48031C5F8901043
:1010C000C5F89000C00711D0FFF7C0FE804641F27E
:1010D000883907E0FFF7BAFEA0EB0801494501D9BE
:1010E00003260BE0D5F890008007F3D5D5F89000E3
:1010F000216C20F440700843C5F890001FB1A86D22
:1011000020F08050A8652078C00707D0D5F8880067
:10111000616820F003000843C5F888002078800744
:1011200007D5D5F88800A16820F00C000843C5F861
:1011300088002078400707D5D5F88800E16820F0BE
:1011400030000843C5F888002078000707D5D5F897
:101150008800216920F0C0000843C5F88800207885
:10116000800607D5D5F88800616920F440600843FF
:10117000C5F888002078400607D5D5F88800A16911
:1011800020F440500843C5F888002078000607D5B1
:10119000D5F88800E16920F440400843C5F888008C
:1011A0002088C00507D5D5F88800216A20F4403092
:1011B0000843C5F888002088800507D5D5F8880041
:1011C000616A20F440200843C5F888002088400563
:1011D0000FD5D5F88800A16A20F440100843C5F85F
:1011E0008800A06AB0F5801F03D1E86840F4801041
:1011F000E860208800050FD5D5F88800E16A20F462
:1012000040000843C5F88800E06AB0F5800F03D1BC
:10121000E86840F48010E8602088C0040FD5D5F855
:101220008800216B20F040700843C5F88800206BCF
:10123000B0F1807F03D1E86840F48010E860208836
:101240004FF0006180040ED5D5F88800626B20F065
:1012500040601043C5F88800606B884203D1E8689D
:1012600040F48010E860208840040ED5D5F888004E
:10127000A26B20F040601043C5F88800A06B884244
:1012800003D1E86840F48010E860208800040FD59E
:10129000D5F88800E16B20F040500843C5F888007D
:1012A000E06BB0F1805F03D1E86840F48030E86023
:1012B0003046BDE8F8830000001002400070004096
:1012C0002DE9F0470E4605004FF0000725D0DFF866
:1012D000AC81D8F8000000F00F00B0420CD2D8F872
:1012E000001021F00F013143C8F80010D8F80000B9
:1012F00000F00F00B04210D12968614CC80741F2DC
:10130000883A5AD06868DFF87C91032808D0022810
:1013100020682DD0400500282CDB0120BDE8F08797
:1013200020688001F9D5E06800F00302E068C0F3AE
:101330000310401C032A19D0534A00BFB2FBF0F03F
:10134000E268C2F306225043E268C2F34162521CD3
:101350005200B0FBF2F0484517D9A06810F0F00F2A
:101360000CD0880711D5A86840B10EE0474AE5E7E0
:101370008003D0E700F0BCF8484506D9A06820F00B
:10138000F00040F08000A0608027A068696820F02D
:1013900003000843A060FFF759FD814606E000BF47
:1013A000FFF754FDA0EB090151453AD8A0686968E0
:1013B00000F00C00B0EB810FF2D12868810714D542
:1013C000400703D5A06840F4E060A06028780007DB
:1013D00005D5A06820F4605040F4E060A060A068EB
:1013E000A96820F0F000084304E0802F03D1A06832
:1013F00020F0F000A060D8F80010404601F00F0186
:10140000B14216D9016821F00F0131430160FFF7A5
:101410001DFD074607E000BFFFF718FDC11B514542
:1014200001D903207AE7D8F8000000F00F00B0429D
:10143000F2D12878400705D5A068E96820F4E0607B
:101440000843A0602878000706D5A068296920F421
:10145000605040EAC100A06000F04AF8A1680C4A60
:10146000C1F30311515C01F01F01C8400949086034
:1014700009480068BDE8F047FFF7FEBC00200240C5
:101480000010024000B4C4040024F40000366E01D1
:10149000CA5C0008240000201800002001480068F1
:1014A000704700002400002005480649006889684C
:1014B000054AC1F30221515C01F01F01C840704789
:1014C0002400002000100240DA5C000805480649AC
:1014D00000688968054AC1F3C221515C01F01F010F
:1014E000C84070472400002000100240DA5C000869
:1014F000184910B58868C0F381021748012A0BD03B
:101500008A68164BC2F38102022A06D08A68C2F3A7
:101510008102032A03D0002010BD184610BDCA68FE
:1015200002F00304CA68C2F30312521C032C02D057
:10153000B0FBF2F001E0B3FBF2F0CA68C968C2F395
:1015400006225043C1F34161491C4900B0FBF1F050
:1015500010BD0000001002400024F40000366E01AF
:101560002DE9F84304007AD02078FA4DC00747D01F
:10157000A868E96800F00C0001F003010C2802D013
:10158000082817D001E0032914D06068B0F5803F27
:1015900017D0B0F5A02F286817D020F4803028602D
:1015A000286820F4802028606068E0B1FFF74EFCD6
:1015B000064614E02868800322D560680028D2D04F
:1015C0001EE0286840F48030EDE740F48020286079
:1015D000F7E700BFFFF73AFC801B642870D8286843
:1015E0008003F7D50CE0FFF731FC064605E000BFAD
:1015F000FFF72CFC801B6428F0D828688003F7D400
:10160000207880074CD5A868E96800F00C0001F04C
:1016100003010C2802D004280DD001E002290AD0D1
:10162000E068002828682BD040F480702860FFF71D
:101630000DFC064619E02868400502D5E068002840
:1016400091D06868217C20F0FE4040EA016068602B
:10165000C1480068FFF710FC002800D120E076E1C7
:10166000FFF7F4FB801B0228B8D828684005F7D59F
:101670006868217C20F0FE4040EA016068600FE06D
:1016800020F480702860FFF7E1FB064605E000BF0C
:10169000FFF7DCFB801B0228A0D828684005F7D4A0
:1016A0002078000729D560690028D5F8940013D068
:1016B00040F00100C5F89400FFF7C8FB064606E0BD
:1016C00090E000BFFFF7C2FB801B022886D8D5F848
:1016D00094008007F6D510E020F00100C5F89400D2
:1016E000FFF7B4FB064604E0FFF7B0FB801B0228BF
:1016F00078D8D5F894008007F6D42078400761D5D3
:10170000A86D0026C00008D4A86D40F08050A865E0
:10171000A86D012600F08050009090480168C9052E
:1017200011D40168804641F480710160FFF78EFB9F
:10173000074604E0FFF78AFBC01B022852D8D8F8FE
:101740000000C005F6D5A068012815D00528D5F8F9
:10175000900016D020F00100C5F89000D5F8900058
:1017600020F00400C5F89000A06841F28838B8B1B4
:10177000FFF76CFB07460EE0D5F8900040F0010043
:10178000F0E740F00400C5F89000F5E7FFF75EFBD6
:10179000C11B414526D8D5F890008007F6D50CE04E
:1017A000FFF754FB074604E0FFF750FBC11B414520
:1017B00018D8D5F890008007F6D41EB1A86D20F097
:1017C0008050A8652078800629D5A0690028D5F822
:1017D000980013D040F00100C5F89800FFF736FBE1
:1017E000064606E077E000BFFFF730FB801B0228CB
:1017F00077D8D5F898008007F6D510E020F00100E2
:10180000C5F89800FFF722FB064604E0FFF71EFB31
:10181000801B022865D8D5F898008007F6D4E069C7
:10182000F0B3A968C1F38101032961D002282868B7
:1018300020F0807028600BD0E86820F00300E8609A
:10184000E86847490840E860FFF700FB04464BE0C2
:10185000FFF7FCFA064604E0FFF7F8FA801B0228BF
:101860003FD828688001F7D4F4E908016FF00F022F
:1018700002EB01110843218A5204490802EB41514D
:10188000A26841EA02210843217D4FF07E424908C7
:1018900002EB41610843217B40EAC160E96800E056
:1018A00062E0304A11400843E860286840F08070E8
:1018B0002860E86840F08070E860FFF7C7FA0446E7
:1018C00005E000BFFFF7C2FA001B022809D828680C
:1018D0008001F7D548E004E0FFF7B8FA001B0228C2
:1018E00002D90320BDE8F88328688001F4D43BE0E6
:1018F0000128F7D0E868226A00F00301914226D15E
:10190000616A00F0F0020901103991421FD1A26A08
:1019100000F4FE41B1EB022F19D194F82C2000F015
:101920007841B1EBC26F12D1218E00F4C002490898
:101930004905A1F50011914209D194F8341000F045
:10194000C06049084906A1F1007181420CD0012014
:10195000C8E700000010024018000020007000409E
:10196000FFFFEEFE0C809F010020BBE710B5401E7C
:10197000B0F1807F01D3012010BD4FF0E024606101
:101980000F21601701F041F80020A06107202061BD
:10199000002010BD70477047704770477047704710
:1019A000F0B590F83C20012A3AD0012580F83C504F
:1019B000022280F83D2003685A689C68194E1A4F2D
:1019C000B34201D0BB4204D122F4700C4A6842EA0F
:1019D0000C02DFF858C002EA0C02D1F800C04CEA51
:1019E000020CC3F804C00268B2420DD0B2F1804FBD
:1019F0000AD00F4B9A4207D00E4B9A4204D0BA42FB
:101A000002D00D4B9A4204D1896824F08003194317
:101A1000916080F83D50002180F83C100846F0BDF0
:101A20000220F0BD002C0140003401408FFFFFFD7B
:101A3000000400400008004000400140704710B51D
:101A4000040003D094F83D0010B107E0012010BD60
:101A5000002084F83C00204600F022F8022084F8A0
:101A60003D00211D206800F035FD012084F848006C
:101A700084F83E0084F83F0084F8400084F8410078
:101A800084F8420084F8430084F8440084F8450058
:101A900084F8460084F8470084F83D00002010BD1B
:101AA00008B500680B49884212D10B48816D41F09E
:101AB00010018165806D002200F010000090114639
:101AC0003620FFF721FABDE808403620FFF70EBAAE
:101AD00008BD0000001000400010024090F83D10CA
:101AE000012901D001207047022180F83D100168D2
:101AF000CA6842F00102CA600068104988420ED0EC
:101B0000B0F1804F0BD00E49884208D00D49884271
:101B100005D00D49884202D00C49884207D181681E
:101B20000B4A1140062906D0B1F5803F03D0016869
:101B300041F001010160002070470000002C0140CD
:101B40000004004000080040003401400040014013
:101B500007000100704770B50446006801694FF046
:101B60000005C943890715D4C168C943890711D441
:101B7000E91E0161012020772068806980072046E6
:101B800002D0FFF7E7FF04E000F0E3F8204600F0A2
:101B9000E1F8257720680169C943490717D4C1686E
:101BA000C943490713D46FF0040101610220207773
:101BB0002068806910F4407F204602D0FFF7CAFFFA
:101BC00004E000F0C6F8204600F0C4F8257720684D
:101BD0000169C943090716D4C168C943090712D46A
:101BE0006FF008010161042020772068C069800738
:101BF000204602D0FFF7AEFF04E000F0AAF820462E
:101C000000F0A8F8257720680169C943C90617D4F0
:101C1000C168C943C90613D46FF0100101610820DF
:101C200020772068C06910F4407F204602D0FFF77B
:101C300091FF04E000F08DF8204600F08BF8257746
:101C400020680169C943C90708D1C168C943C907E8
:101C500004D1891E0161204600F07DF820680169E9
:101C6000C943090609D4C168C943090605D46FF000
:101C7000800101612046FFF78EFE20680169C9439B
:101C8000C90509D4C168C943090605D46FF4807138
:101C900001612046FFF77EFE20680169C9434906BD
:101CA00009D4C168C943490605D46FF040010161F8
:101CB000204600F051F820680169C943890609D41B
:101CC000C168C943890605D46FF02001016120462F
:101CD000FFF762FE20680169C943C90209D4C168DF
:101CE000C943C90205D46FF4801101612046FFF792
:101CF00055FE20680169C943890209D4C168C943F6
:101D0000890205D46FF4001101612046FFF745FEFA
:101D100020680169C943490209D4C168C94349021D
:101D200005D46FF4800101612046FFF738FE20687A
:101D30000169C94309020BD4C168C943090207D428
:101D40006FF4000101612046BDE87040FFF776BEE8
:101D500070BD704770477047704790F88010012938
:101D600018D0012180F880102421C0F8841050F888
:101D7000641B0A680B6823F001030B6022F000511A
:101D80000022026050F8643C196020210162027751
:101D9000104670470220704770B5044690F88000E6
:101DA00001281DD0012084F880002420C4F884007C
:101DB00020680568026822F00102026020688268DB
:101DC00022F060620A438260204600F0DBFB20685C
:101DD00005602020C4F88400002084F8800070BDD5
:101DE000022070BD70B5044690F8800001281DD017
:101DF000012084F880002420C4F88400206805684D
:101E0000026822F0010202602068826822F06042CB
:101E10000A438260204600F0B5FB20680560202060
:101E2000C4F88400002084F8800070BD022070BDDA
:101E300010B5040003D0D4F8840010B107E00120ED
:101E400010BD002084F88000204600F027F82420F0
:101E5000C4F884002068016821F001010160204677
:101E600000F046FC0128EBD0A06A10B1204600F03B
:101E7000ABFB2068416821F4904141602068816893
:101E800021F02A0181602068016841F001010160B0
:101E90002046BDE8104000F0FBBB000010B586B046
:101EA000044614216846FEF799FA134920688842CF
:101EB0001FD11248016E41F480410166016E01F4A8
:101EC00080410591C16C41F00101C164C06C69465B
:101ED00000F0010005904FF4C060009002200190D6
:101EE000002002900390072004904FF09040FEF7EE
:101EF000B7FE06B010BD00000038014000100240DF
:101F00002DE9F8430446D0F884001F4616460D46D6
:101F1000202851D1DDB1D6B194F8800001284BD0F2
:101F2000012084F880004FF00008C4F88C80212044
:101F3000C4F884001834FEF789FFA6878146E68737
:101F400054F8100C183CB0F5805F03D004E0012079
:101F5000BDE8F883206920B12E46002584F88080F2
:101F600010E00026FAE78021204600F0FBFCB8B91B
:101F7000C6B116F8010B21688862B4F85600401EFD
:101F8000A4F85600B4F856004B464FF000020097F4
:101F90000028E8D14FF04001204600F0E3FC30B1CA
:101FA0000320D5E735F8020BC0F30800E3E7202053
:101FB000C4F884000020CBE70220C9E7324D334C3F
:101FC0004FF090470026207820B1012819D0022830
:101FD00052D13CE001212846FEF726FF70B10221D4
:101FE0002846FEF721FF48B104212846FEF71CFFD2
:101FF00020B101213846FEF717FF38BB01202070C1
:102000003AE001212846FEF70FFF70B10221284671
:10201000FEF70AFF48B104212846FEF705FF20B16C
:1020200001213846FEF700FF28BB02202070012165
:102030002846FEF7F9FE4FF0020120B12846FEF7D0
:10204000F3FE18B90421E06802F024FA14E001213B
:102050002846FEF7E9FE98B102212846FEF7E4FE85
:1020600070B104212846FEF7DFFE48B10121384651
:10207000FEF7DAFE20B12670142003F07BF8A2E709
:1020800020690A302061F7E70004004800000020C2
:1020900000EB8100006E00F0F84070478068C0F3EC
:1020A000C00070478068C0F3800070478068C0F34C
:1020B00080007047042303EAD15310B518444369E4
:1020C000C1F3045107248C40A3438A401343436166
:1020D00010BD00EB8100016E21F00041114301664B
:1020E0007047000030B58BB000240894099420217B
:1020F00068460A94FEF772F91D484FF0A041042586
:1021000001604FF40031C0E90114C4600461C0E90A
:102110000545047744770121016280F82440C462B8
:10212000046380F83840C46380F84040FEF748FC00
:1021300008B1FEF7C4F908A90D480894FEF7C2F9E2
:1021400008B1FEF7BCF90B4800900620019007206B
:1021500002907F200594CDE9030569460448FEF707
:102160001DFA002801D0FEF7AAF90BB030BD00001F
:10217000F00000200008302E30B589B020216846DC
:10218000FEF72CF919481849002401604902C0E9FA
:102190000114C46004250461C0E90545047744774F
:1021A0000121016280F82440C462046380F8384051
:1021B000C46380F84040FEF703FC08B1FEF77FF9E6
:1021C0000B48009006200190072002907F20059484
:1021D000CDE9030569460548FEF7E0F9002801D07E
:1021E000FEF76DF909B030BD000100505C01002020
:1021F0000080F03E2DE9F04186B014216846FEF7DC
:10220000EDF83648C16C41F00401C164C16C01F0C5
:1022100004010591C16C41F02001C164C16C01F061
:1022200020010591C16C41F00101C164C16C01F054
:1022300001010591C16C41F00201C164C16C01F062
:1022400002010591C16C41F00801C164C06C244ECB
:1022500000F008004FF47F440590012221463046EB
:10226000FEF7EFFD1F4F012204213846FEF7E9FD7E
:10227000DFF87480012208214046FEF7E2FD0125C7
:10228000CDE9004500240294694630460394FEF7E8
:10229000E7FCCDE9005469464FF090400294FEF708
:1022A000DFFC0720CDE90004694640460294FEF7B2
:1022B000D7FC04200090CDE90154694638460394C8
:1022C000FEF7CEFC08200090CDE901546946404657
:1022D0000394FEF7C5FC06B0BDE8F0810010024093
:1022E00000080048000C0048000400483EB50024E7
:1022F0000F48009401940D49029401604F21C0E9F8
:10230000011442F20F718461C160FFF798FB08B1BC
:10231000FEF7D5F80094694605480294FFF740FBA4
:10232000002801D0FEF7CBF83EBD000000100040B1
:10233000C8010020184810B5164901604FF4E1317A
:102340004160002181600C22C160C0E904128161FA
:10235000C161016241628162FFF76AFD08B1FEF767
:10236000AEF800210C48FFF73DFD08B1FEF7A7F8D5
:1023700000210948FFF710FD08B1FEF7A0F8064854
:10238000FFF7EBFC002803D0BDE81040FEF797B83C
:1023900010BD00000038014014020020FEE7FEE7F7
:1023A00010B502F0DDFA03F073F8BDE8104002F05A
:1023B000E5BA10B5A4B038216846FEF70FF814212D
:1023C0001FA8FEF70BF844210EA8FEF707F84FF4FC
:1023D0000070FEF7CBFD0120009000040190022068
:1023E0000324CDE907041421CDE90A100C900D90C7
:1023F00009946846FFF7B4F808B172B6FEE70F20FB
:10240000CDE91F0400242194229402211FA82394C3
:10241000FEF756FF08B172B6FEE748F20100CDE9BB
:102420000E0440071D900EA8FEF706FE002801D0FE
:1024300072B6FEE724B010BD30B51A4881681A4B59
:1024400001F00C021949042A05D0194C082A04D0BD
:102450000C2A1BD103E00B6018E00C6016E0C26888
:1024600002F00305C268C2F30312521C022D16D0FB
:10247000B4FBF2F2C368C3F306235343C268C2F34A
:102480004162521C5200B3FBF2F20A608068094AB2
:10249000C0F30310105C0A68C2400A6030BDB3FB91
:1024A000F2F2E7E7001002400024F40024000020CC
:1024B00000366E01CA5C00080248016841F47001F0
:1024C0000160704788ED00E00148FFF744BB000061
:1024D000C80100202DE9F0430268234B234D244E10
:1024E000244C4FF08049984207D0484505D0A84277
:1024F00003D0B04201D0A04203D122F070074A6855
:102500003A431D4FDFF874C0DFF8748098420DD055
:1025100048450BD0A84209D0B04207D0A04205D010
:10252000B84203D0604501D0404503D122F4407544
:10253000CA682A434D6922F080022A4302608A68F1
:10254000C2620A688262984207D0A04205D0B842AF
:1025500003D0604501D0404501D1096901630121E3
:102560004161BDE8F0830000002C01400004004000
:102570000008004000340140004001400044014098
:102580000048014030B5416EB9B102689168926867
:10259000C1F342610B4B520F9C5CE50003F1080450
:1025A000A25CB5FBF2F2A0F86A205A5C615CD20032
:1025B000B2FBF1F1A0F8681030BD0121A0F86A105B
:1025C000F8E70000BA5C000890F82810C90706D0A8
:1025D00001684A68C36A22F400321A434A6090F8DC
:1025E0002810890706D501684A68036B22F48032F7
:1025F0001A434A6090F82810490706D501684A68CE
:10260000436B22F480221A434A6090F8281009078D
:1026100006D501684A68836B22F400421A434A6077
:1026200090F82810C90606D501688A68C36B22F4A1
:1026300080521A438A6090F82810890606D50168EE
:102640008A68036C22F400521A438A6090F82810BA
:10265000490611D501684A68436C22F480121A4376
:102660004A60416CB1F5801F06D101684A68836CED
:1026700022F4C0021A434A6090F82810090606D5D1
:1026800001684A68C06C22F4002202434A60704725
:10269000F8B500260446C0F88C60FEF7D7FB054667
:1026A000206800686FF07E47000708D52B4600229F
:1026B0004FF400112046009700F054F960B92068EB
:1026C000006840070AD52B4600224FF480012046BF
:1026D000009700F047F908B10320F8BD2020C4F8A6
:1026E0008400C4F8880044F86C6F00202675F8BD9B
:1026F0002DE9F0410446016880682269E3691043CE
:10270000626900251A431043DFF82CC20A688B4B1C
:102710001A4002430A6020684168E26821F440518F
:10272000114341602168A069614501D0226A1043CC
:102730008A68834B1A4002438A602068C16A626AD1
:1027400021F00F011143C1627E4923687E488B420C
:102750000DD1D0F8880010F0030006D0012855D024
:10276000022842D003283FD152E001203DE07749C2
:102770008B420BD1D0F8880010F00C0035D0042823
:1027800033D0082840D00C282ED141E070498B422C
:102790000BD1D0F8880010F0300026D0102835D0AA
:1027A000202831D030281FD132E06A498B420BD12A
:1027B000D0F8880010F0C00017D0402826D080281C
:1027C00022D0C02810D123E063450DD1D0F8880075
:1027D00010F4406009D0B0F5806F17D0B0F5006FED
:1027E00012D0B0F5406F13D010205B4A5B4F00262B
:1027F0004FF40041634539D160B102280DD004285F
:102800000DD0082831D10EE00220EEE70420ECE7DD
:102810000820EAE7FEF748FE03E0114603E0FEF772
:1028200067FE01007DD0606A37F810206768B1FB51
:10283000F2F007EB470383426CD8B0EB073F69D84F
:10284000002308461946FDF77FFD090241EA1061A1
:1028500002027808101871413A460023FDF774FD12
:102860003F4AA0F54071914259D953E0E3694FF6D0
:10287000EF788B422DD109284CD2DFE800F0050813
:102880000D4B274B4B4B0E00FEF70EFE01E0FEF703
:102890001DFE010001D144E01146606A37F81000C6
:1028A000B1FBF0F04100606801EB5001B1FBF0F0CA
:1028B00080B2A0F1100141452CD84FF6F0710140D3
:1028C000C0F3420001432068C1602AE0FEF710FE19
:1028D000DFE709281ED2DFE800F005080D1D1F1DE7
:1028E0001D1D0E00FEF7E0FD01E0FEF7EFFD01000B
:1028F00001D116E01146606A37F81000B1FBF0F123
:10290000606801EB5001B1FBF0F080B2A0F1100162
:10291000414504D9012504E0FEF7EAFDE7E7216817
:10292000C8600120A4F86A0024F8680F2846A66051
:10293000E660BDE8F081000000800040F369FFCF51
:10294000FFF4FF1100380140001002400044004035
:1029500000480040004C00400024F400A25C000845
:10296000FFFC0F002DE9F0479A4617460E46044635
:102970004FF000094FF02008089D39E0681C37D05F
:10298000FEF764FAA0EB0A00A84222D80DB3206833
:10299000016849072CD5C069C043000528D42168C7
:1029A0004FF4006008622068016821F4D071016072
:1029B0002068816821F001018160C4F88480C4F836
:1029C0008880C4F88C8000BF84F880900320BDE824
:1029D000F0872068016821F4D07101602068816867
:1029E00021F001018160C4F88480C4F88880EBE79D
:1029F0002068C06936EA000004D00020B842BDD08B
:102A00000020E4E70120F9E7FEE70907090E0028A6
:102A100004DB00F1E02080F80014704700F00F00A4
:102A200000F1E02080F8141D70470000002807D056
:102A30000F4910F0FF0F05D0C0B2085C401C704772
:102A40000020704710F47F4F04D0C0F30720085CCB
:102A50000930704710F47F0F04D0C0F30740085CC2
:102A60001130704701EB106000781930704700009A
:102A7000E25C000802E008C8121F08C1002AFAD16F
:102A800070477047002001E001C1121F002AFBD1EE
:102A90007047F0B589B004460D461646002100E0A7
:102AA000491C635C202B03D0092B01D0A942F7D32A
:102AB000C9B1204601F046FA0746C7B1002100918E
:102AC00001910291039104910591069107916A4643
:102AD0002946204601F0A4FA68B16946B84730603B
:102AE00009B00020F0BD09B04FF0FF30F0BD09B0D3
:102AF0004FF0FF30F0BD09B04FF0FF30F0BD0000E7
:102B000070B582B011469C46089E099D069B079AA7
:102B1000044604F11400406000602162C4F824C03F
:102B2000A362E2622321184602F023F8E16AA06A58
:102B3000104B0844021F616A206A01F0EFFEE06159
:102B400084F8366084F835600020A0636564A5646D
:102B5000206384F83400A067E0670090019023466A
:102B6000054A214604F14C0002F06FFD02B000203E
:102B700070BD000079510008BB530008DDF800C0AB
:102B80002CF0010C80F809C0C16102620021816251
:102B9000436200EBC102143252601260491C0129E9
:102BA000F7DB704770B50446FDF734FB0546A16FAF
:102BB00009B1204688472846BDE87040FDF72EBB86
:102BC00010B51DA001F020FF1E4C21781EA001F0C1
:102BD0001BFF207810F0010F02D021A001F014FF9C
:102BE000207810F0020F02D020A001F00DFF207815
:102BF00010F0040F02D020A001F006FF207810F0A2
:102C0000080F02D020A001F0FFFE207810F0100F76
:102C100002D020A001F0F8FE207810F0800F06D03E
:102C20001E480168BDE810401DA001F0EDBEBDE8E2
:102C300010401FA001F0E8BE627573206661756CDC
:102C4000743A0A0029ED00E05343425F4346535271
:102C50005F424653523A3078253032582000000007
:102C600049425553455252200000000050524543FE
:102C70004953455252200000494D50524543495353
:102C80004552522000000000554E53544B455252BD
:102C90002000000053544B455252200038ED00E014
:102CA0005343422D3E424641523A253038580A009D
:102CB0000A00000010B500F069FC002010BD10B53E
:102CC00000F090FE002010BD2DE9FC411BA001F09A
:102CD0009BFE24A001F098FE2AA001F095FE0021A1
:102CE0002DA001F049FB2F4CE06010B12EA001F0A7
:102CF0008BFE14250320CDE900054FF48076334682
:102D000000222E492EA002F008FA4FF0FF37606033
:102D100080B102F01BFB0220CDE900053346002202
:102D20002A492BA002F0F9F9A06018B1BDE8FC41D6
:102D300002F00CBB3846BDE8FC810000D5E2CAC7F2
:102D4000D2BBB8F65254542DB0B4BCFCCAC2BCFEBF
:102D5000B1EAD6BED7E9CDACB2BDCAB5D1E9A3A11F
:102D60000A000000C0FBD3C3CAC2BCFEB1EABCC7A4
:102D7000B0B4BCFCCAC2BCFEB5C4B7A2C9FAA3A118
:102D80000A000000D7BCB1B8B4B4BDA8B0B4BCFC54
:102D9000CAC2BCFEA3A10A006B65795F6576656E49
:102DA0007400000000000020B0B4BCFCCAC2BCFE2D
:102DB000B4B4BDA8B3C9B9A6A3A10A00553200088E
:102DC0006B65795F7468726561640000BD1F0008FF
:102DD0004B65795363616E5F74687265616400006E
:102DE00070B51448144C4FF00005416991F821105A
:102DF00011F0020F07D0016941B180222046FDF792
:102E000004FB204670BD25700B4870BD01F006F92B
:102E100020B10AA000682060257105E009A00168C2
:102E200021608088A080A57108A10348FDF7E1FA20
:102E3000014870BDD8000020544200206D73682006
:102E40000000000066696E73682000003E0000000C
:102E500001F01CBC0449496991F8212060F341024A
:102E600081F8212070470000D8000020014A10603E
:102E700051607047D800002030B583B0164917481C
:102E8000FFF7F4FF7821012001F03AFA144D686150
:102E9000D8B10A201521009101904FF480630022DF
:102EA000104911A002F039F9044600231A4610A176
:102EB000686901F0AFFF0120FFF7CCFF14B1204695
:102EC00002F044FA03B0002030BD0BA001F09CFDDD
:102ED00003B04FF0FF3030BD5C6200086061000855
:102EE000D8000020112F0008747368656C6C000016
:102EF00073687278000000006E6F206D656D6F72F0
:102F00007920666F72207368656C6C0A000000009F
:102F10009F4E706990F8211041F0010180F8211056
:102F2000FFF75EFF01F070FD01274FF0020800255A
:102F3000FFF78EFF04462000FAD41B2C07D07369DC
:102F400093F82000012806D002280CD015E0706903
:102F500080F82070ECE75B2C02D083F820500CE066
:102F600083F82080E4E783F82050412CE0D0422C05
:102F7000DED0442C46D0432C52D0002CD8D0FF2C8D
:102F8000D6D0092C5FD07F2C7CD0082C7AD00D2C89
:102F900076D00A2C74D0B3F87200502801D3A3F86D
:102FA0007250B3F87400B3F87210884269D20A1AEA
:102FB00003F1220101442333184401F0BFFD70697D
:102FC000B0F8741022300C54706990F8211011F090
:102FD000010F06D0B0F87410223001446DA001F04A
:102FE00013FD7069B0F87440B0F87200A0427DDD46
:102FF00069A001F009FD641C7069B0F87200A0427C
:10300000F6DCB1E0B3F87400002891D062A001F0C2
:10301000FBFC7069B0F87410491EA0F8741087E7C3
:10302000B3F87400B3F87210884281D203F1220120
:10303000415C5AA001F0E8FC7069B0F87410491CBA
:10304000A0F8741074E70024B3F87400002808DDB9
:1030500051A001F0D9FC641C7069B0F87400A04262
:10306000F6DC7069223002F04BFD70692230FDF70A
:10307000D8F97169A1F87200A1F8740058E701E06D
:1030800043E064E0B3F8740000283FF451AFB3F8B4
:103090007210491E89B2A3F87210401E80B2A3F8C4
:1030A0007400814228D90A1A03F123010144223312
:1030B000184401F043FD7069B0F8721022300D54CD
:1030C0007069B0F874102230014435A001F09CFC06
:1030D0007069B0F87440B0F87200A042FFF628AFF3
:1030E0002DA001F091FC641C706900E03CE0B0F898
:1030F0007200A042F4DA1BE72BA001F085FC706996
:10310000B0F8721022300D5412E700F087FF01284A
:103110000ED1706990F8210010F0010F02D023A0A9
:1031200001F072FC7069B0F87210223000F0D8FE25
:10313000FFF756FE01F068FC706950212230FDF760
:103140004DF97069A0F87250A0F87450F0E603F1E0
:1031500022000C54706990F8210010F0010F03D088
:1031600021460EA001F050FC7069B0F87210491CA5
:1031700089B2A0F87210B0F87420521CA0F8742024
:103180005029FFF4D5AEA0F87250A0F87450CFE6E5
:10319000D80000202573000008000000256300000F
:1031A0000825732020080000082008000A000000FD
:1031B00010B5124C206810F0020F02D010A001F0E0
:1031C00023FC206810F0804F0ED01348007808B11F
:1031D000FFF7F6FC1148007808B100F0BBFD10487D
:1031E000008808B102F0EAFC206810F0004F04D01B
:1031F000BDE810400BA001F007BC10BD2CED00E0B5
:103200006661696C656420766563746F72206665BB
:103210007463680A0000000029ED00E028ED00E07A
:103220002AED00E06465627567206576656E740A54
:103230000000000010B502A001F0E6FB002010BD68
:1032400048656C6C6F2052542D546872656164211E
:103250000A0000001CB5164DDFF8588001AC4FF095
:10326000FF364FF480774FF480690622009433468E
:103270001146E86801F090F80FA001F0C5FB019835
:10328000022808D004280BD00EA001F0BDFB1420AA
:1032900001F070FFE9E70EA001F0B6FB394603E04C
:1032A00017A001F0B1FB49464046FDF7C2FDEEE72D
:1032B0000000002000080048BBF1C8A1CAC2BCFE43
:1032C0000A000000CAC2BCFEB4EDCEF3A3A10A00FE
:1032D000B0B4BCFC31B0B4CFC2A3ACBBF1C8A1B098
:1032E000B4BCFC31CAC2BCFEB3C9B9A6A3A10A20B2
:1032F000B7ADD7AA4C454431B5C4B5E7C6BD0A0041
:10330000B0B4BCFC32B0B4CFC2A3ACBBF1C8A1B066
:10331000B4BCFC32CAC2BCFEB3C9B9A6A3A10A2080
:10332000B7ADD7AA4C454433B5C4B5E7C6BD0A000E
:1033300070B50DA001F068FB10480468104D2868B6
:1033400084420ED202220FA12068FDF771F820B14D
:103350000DA06268216801F057FB0C342868844294
:10336000F0D3002070BD00002D2D46756E6374698A
:103370006F6E204C6973743A0A000000D800002078
:10338000DC0000205F5F0000252D313673202D2DDD
:103390002025730A000000002DE9F04190B00027BD
:1033A00034A4082302AA04210AA800F0A1F84FF0CF
:1033B00008082246414631A001F026FB0724384880
:1033C00001F022FB641EFAD236A001F01DFB02AE12
:1033D0000AA9384600F09EF8074600250E980028F6
:1033E00026DD56F82500A0F10C04FCF713FF217A26
:1033F0009DF8302021F08001914202D0FCF70EFFB1
:1034000012E0FCF70BFF04F114000168814201D1C6
:10341000012000E0002088B1E069009023460822E6
:10342000414628A001F0F0FA6D1C0E98A842D8DCA5
:10343000002FCDD110B00020BDE8F08104F1140CB4
:1034400000236246914204D012685B1C10686045FC
:10345000FAD1E069019300902346082241461EA05C
:1034600001F0D2FA04F1140002F066FB0BA001F0A7
:10347000CBFAD9E76576656E74000000252D2A2EFB
:103480007320202020202073657420202020737555
:103490007370656E64207468726561640A00000070
:1034A000103B000820202D2D2D2D2D2D2D2D2D2DC7
:1034B000202D2D2D2D2D2D2D2D2D2D2D2D2D2D0A6C
:1034C00000000000252D2A2E2A7320203078253078
:1034D000387820300A000000252D2A2E2A7320205B
:1034E00030782530387820253033643A00000000E9
:1034F0002DE9F04104460D4616461F46284601F0C8
:10350000BDFB001D206025726660E7600020206121
:10351000BDE8F0812DE9F0410D460026002129612A
:10352000E968002909D0297A39B12F6840B10446E9
:10353000FCF770FE014636B113E00020BDE8F081D3
:103540003C460126F4E7A4F10C002A7A007A20F028
:103550008000904205D00846FCF760FE0020BDE8E0
:10356000F081002668682468BC4201D1002405E08F
:10357000761C40F8044BEA68B242F4D10846FCF7E6
:103580004DFE2E612046BDE8F081000010B5074CCD
:1035900007A0E16801F038FA0AA0216901F034FAC5
:1035A0006169BDE810400CA001F02EBA3000002087
:1035B000746F74616C206D656D6F72793A2025644B
:1035C0000A00000075736564206D656D6F72792067
:1035D0003A2025640A0000006D6178696D756D20E0
:1035E000616C6C6F6361746564206D656D6F727979
:1035F0003A2025640A0000002DE9F04190B0002730
:103600003BA4082302AA06210AA8FFF771FF4FF086
:1036100008082246414639A001F0F6F907243E4841
:1036200001F0F2F9641EFAD23CA001F0EDF902AE0D
:103630000AA93846FFF76EFF074600250E980028B6
:1036400033DD56F82500A0F10C04FCF7E3FD217AE8
:103650009DF8302021F08001914202D0FCF7DEFD80
:103660001FE0FCF7DBFD04F11400D0F800C0844536
:1036700001D1012000E00020E8B104F11401002094
:103680000A468C4504D01268401C13688B42FAD15C
:10369000A18C0091019023460822414625A001F00B
:1036A000B3F96D1C0E98A842CBDC002FC0D110B02E
:1036B0000020BDE8F08104F1140000230246844597
:1036C00004D012685B1C11688142FAD1A08C01936E
:1036D00000902346082241461BA001F095F904F111
:1036E000140002F029FA1DA001F08EF9D9E70000BC
:1036F0006D7367717565756500000000252D2A2EB4
:103700007320656E7472792073757370656E6420B2
:103710007468726561640A00103B0008202D2D2D2D
:103720002D20202D2D2D2D2D2D2D2D2D2D2D2D2DE3
:103730002D0A0000252D2A2E2A73202530346420DE
:103740002025640A00000000252D2A2E2A7320253A
:10375000303464202025643A000000000A00000094
:103760002DE9F04391B000272DA4082304AA0321DA
:103770000CA8FFF7BDFE4FF00808224641462AA0DC
:1037800001F042F907240826304801F03DF9641E93
:10379000FAD22FA001F038F904AD0CA93846FFF792
:1037A000B9FE074600241098002832DD55F82400A1
:1037B000A0F10C09FCF72EFD99F808109DF83820AF
:1037C00021F08001914202D0FCF728FD1DE0FCF7BA
:1037D00025FD4B4603F114004FF0000C0246104645
:1037E0001168814205D012680CF1010C1168814208
:1037F000F9D1D87F196A019102900822CDF80CC046
:10380000009641461AA001F0FFF8641C1098A042EF
:10381000CCDC002FC1D111B00020BDE8F083000046
:103820006D75746578000000252D2A2E73202020E8
:103830006F776E65722020686F6C6420737573708B
:10384000656E64207468726561640A00103B00084C
:10385000202D2D2D2D2D2D2D2D202D2D2D2D202DBF
:103860002D2D2D2D2D2D2D2D2D2D2D2D2D0A000005
:10387000252D2A2E2A7320252D382E2A7320253017
:1038800034642025640A00002DE9F04190B000273F
:103890003BA4082302AA02210AA8FFF729FE4FF041
:1038A00008082246414639A001F0AEF807243E48F8
:1038B00001F0AAF8641EFAD23CA001F0A5F802AE0D
:1038C0000AA93846FFF726FE074600250E9800286D
:1038D00033DD56F82500A0F10C04FCF79BFC217A9F
:1038E0009DF8302021F08001914202D0FCF796FC37
:1038F0001FE0FCF793FC04F11400D0F800C08445ED
:1039000001D1012000E00020E8B104F11401002001
:103910000A468C4504D01268401C13688B42FAD1C9
:10392000A18B0091019023460822414625A001F079
:103930006BF86D1C0E98A842CBDC002FC0D110B0E4
:103940000020BDE8F08104F1140000230246844504
:1039500004D012685B1C11688142FAD1A08B0193DC
:1039600000902346082241461AA001F04DF804F1C8
:10397000140002F0E1F80BA001F046F8D9E70000CE
:1039800073656D6170686F7265000000252D2A2EC9
:1039900073207620202073757370656E64207468C0
:1039A000726561640A000000103B0008202D2D2D77
:1039B000202D2D2D2D2D2D2D2D2D2D2D2D2D2D0A67
:1039C00000000000252D2A2E2A7320253033642084
:1039D00025640A00252D2A2E2A73202530336420E1
:1039E00025643A002DE9F043AFB0002745A4082331
:1039F00022AA01212AA8FFF77BFD4FF008082246E2
:103A00004146424801F000F8072441A000F0FCFFC5
:103A1000641EFAD23FA000F0F7FF22AE2AA9384672
:103A2000FFF778FD074600252E98002864DD56F83C
:103A30002500A0F10C04FCF7EDFB8146207A9DF8EF
:103A4000B01020F08000884203D04846FCF7E6FB27
:103A50004EE08022214602A8FCF7A7FC4846FCF76E
:103A6000DDFB94F83500009023460822414639A03A
:103A700000F0CAFF94F8340000F00F01012907D0CC
:103A8000022909D061B104290ED0032910D012E017
:103A900033A000F0B9FF0EE034A000F0B5FF0AE05B
:103AA00035A000F0B1FF06E036A000F0ADFF02E067
:103AB00037A000F0A9FFA16A8C469CF800002328DB
:103AC00003D11CF8010F2328FBD0E26AACEB010004
:103AD000101A64235843B0FBF2FC236BA06C0193D3
:103AE0000090E0696346081A81182CA000F08CFF52
:103AF0006D1C2E98A8429ADC002F8FD12FB0002089
:103B0000BDE8F0837468726561640000045E0008BB
:103B10002D000000202D2D2D20202D2D2D2D2D2D83
:103B20002D202D2D2D2D2D2D2D2D2D2D202D2D2DDF
:103B30002D2D2D2D2D2D2D20202D2D2D2D2D2D20DC
:103B4000202D2D2D2D2D2D2D2D2D2D202D2D2D0AE2
:103B500000000000252D2A2E2A7320253364200022
:103B60002072656164792020000000002073757365
:103B700070656E640000000020696E69742020206A
:103B80000000000020636C6F7365202000000000BF
:103B90002072756E6E696E67000000002030782517
:103BA0003038782030782530387820202020253093
:103BB00032642525202020307825303878202530A3
:103BC00033640A002DE9F04190B000272BA40823AC
:103BD00002AA0A210AA8FFF78BFC4FF00808224628
:103BE000414628A000F010FF0724304800F00CFFE9
:103BF000641EFAD22EA000F007FF02AE0AA93846D2
:103C0000FFF788FC074600240E9800282ADD56F8A6
:103C10002400A0F10C05FCF7FDFA297A9DF830206C
:103C200021F08001914202D0FCF7F8FA16E0FCF78F
:103C3000F5FAA96A686A019100902B46082241466C
:103C400024A000F0E1FE687A10F0010F03D027A055
:103C500000F0DAFE02E028A000F0D6FE641C0E9808
:103C6000A042D4DC002FC9D101F00CFC014626A0F3
:103C700000F0CAFE10B00020BDE8F08174696D65E7
:103C800072000000252D2A2E732020706572696F46
:103C900064696320202074696D656F75742020202D
:103CA00020202020666C61670A000000103B00089D
:103CB000202D2D2D2D2D2D2D2D2D2D202D2D2D2D4E
:103CC0002D2D2D2D2D2D202D2D2D2D2D2D2D2D2D31
:103CD0002D2D0A00252D2A2E2A73203078253038E4
:103CE00078203078253038782000000061637469CE
:103CF00076617465640A0000646561637469766165
:103D00007465640A0000000063757272656E742049
:103D10007469636B3A3078253038780A0000000007
:103D200010B5FEF767FAFEF7E1FAFEF703FBFEF7C0
:103D3000D9F9FEF721FA0248FDF7D0FE002010BDA8
:103D4000C801002010B500F0F9FABDE81040FFF7F7
:103D5000E7BF000010B51AA000F056FE1D4C2178F8
:103D60001DA000F051FE207810F0010F02D020A01D
:103D700000F04AFE207810F0020F02D01FA000F0E1
:103D800043FE207810F0080F02D01FA000F03CFE88
:103D9000207810F0100F02D01EA000F035FE207821
:103DA00010F0800F06D01E480168BDE810401DA02D
:103DB00000F02ABEBDE810401EA000F025BE0000A5
:103DC0006D656D206D616E616765206661756C74EF
:103DD0003A0A000028ED00E05343425F4346535245
:103DE0005F4D4653523A307825303258200000005B
:103DF0004941434356494F4C20000000444143434E
:103E000056494F4C200000004D554E53544B4552DF
:103E1000522000004D53544B4552522000000000E8
:103E200034ED00E05343422D3E4D4D41523A253092
:103E300038580A000A0000002DE9F04781460025A5
:103E4000002699F8000000280ED020480468DFF80A
:103E50008080D8F8000084422DD206221DA120685F
:103E6000FCF7E6FA10BB05E0BDE8F0470021084684
:103E700000F096B82068871D4846FCF7D2FA024643
:103E800039464846FCF7D4FA80B925B93E46304653
:103E9000FCF7C7FA05463946304601F065FEA842F0
:103EA00000DA054639460DA000F0AEFD0C34D8F816
:103EB00000008442D1D3002E06D02A46314648461F
:103EC000BDE8F04701F07CB8BDE8F087D8000020DD
:103ED000DC0000205F5F636D645F000025730A00F3
:103EE00038B5054601E06D1C491E21B1287820280F
:103EF000F9D00928F7D031B16A462846FEF7C9FD46
:103F000018B12C4604E0002038BD009838BD641C70
:103F10002078202801D00028F9D1002020702946DF
:103F200002A000F071FD4FF0FF3038BD25733A203C
:103F3000636F6D6D616E64206E6F7420666F756E59
:103F4000642E0A002DE9F047814688460026104875
:103F50000468104F3868844215D208F1060506221D
:103F60000DA12068FCF764FA48B920684246801D1C
:103F70004946FCF75DFA10B92068405D30B10C3459
:103F800038688442EBD33046BDE8F087A668FAE78C
:103F9000D8000020DC0000205F5F636D645F0000DC
:103FA00070B50FA000F030FD14480468144D286867
:103FB00084420FD2062213A12068FCF739FA28B9EF
:103FC00020686268811D11A000F01EFD0C34286875
:103FD0008442EFD310A000F017FD002070BD000058
:103FE00052542D546872656164207368656C6C204E
:103FF000636F6D6D616E64733A0A0000D800002033
:10400000DC0000205F5F636D645F0000252D3136AA
:1040100073202D2025730A000A000000012070473C
:1040200070B5154600230024002950D9002602E06F
:104030000670401C5B1C90F800C0BCF1200F02D041
:10404000BCF1090F01D18B42F2D3082C0FD321A070
:1040500000F0DAFC002627A055F8261000F0D4FC6A
:10406000761CA642F7D322A000F0CEFC2FE08B42B4
:104070002DD20278222A03D045F82400641C1BE0CC
:10408000401C5B1C45F82400641C08E05C2A04D139
:104090004278222A01D1401C5B1C401C5B1C027828
:1040A000222A01D08B42F1D38B4210D20670401CE1
:1040B0005B1C0AE0401C5B1C0278202A03D0092A02
:1040C00001D08B42F6D38B4201D28B42B3D3204630
:1040D00070BD0000546F6F206D616E792061726752
:1040E000732021205765206F6E6C79205573653AD7
:1040F0000A0000002573200010B4DFF860C041689A
:10410000DCF80020114402F10803884210D04C88EA
:1041100074B9DCF80440A1420AD0DCF808408C42B3
:1041200001D1CCF808004C6844604968841ACC502E
:104130008168114481420FD04C88002C0CD1DCF8EE
:104140000840844201D1CCF80810D0F804C0C1F86E
:1041500004C04068891AC15010BC7047300000206C
:104160002DE9F04F86B0DDF83CC0109D119CA846AB
:10417000CDF800C014F0400F02D0DFF848A101E0F4
:10418000DFF844A114F0100F01D024F0010414F062
:10419000010F02D04FF0300901E04FF02009002656
:1041A00014F0020F0DD0002A02DA2D26524208E048
:1041B00014F0040F01D02B2603E014F0080F00D0F8
:1041C00020264FF0000C0DF1040B2AB930224FF0DD
:1041D000010C8DF804200DE00A2B16D002F00F0719
:1041E00012091AF807E067460CF1010C0BF807E01A
:1041F000002AF1D1AC4500DD6546009A521B14F04F
:10420000110F4FF020070DD01CE0304FA7FB02E745
:104210004FEAD70ECEF1000707EB870702EB4707FF
:104220007246DEE716B1002A00DD521E131EA2F10F
:10423000010207DD884200D20770401C131EA2F164
:104240000102F7DC26B1884200D20670521E401CE3
:1042500014F0100F0CD1131EA2F1010208DD8842E8
:1042600001D280F80090401C131EA2F10102F6DC7E
:104270006B1E65450FDD3024884200D20470401C5F
:104280001D465B1E6545F7DC05E0884202D21BF83F
:104290000C300370401CBCF10003ACF1010C02DDDA
:1042A000B8F1000FF1D1531E002A07DD884200D279
:1042B0000770401C1A1EA3F10103F7DC06B0BDE82D
:1042C000F08F0000F35D0008E25D0008CDCCCCCC9F
:1042D00000B583B014200A21009101904FF480634F
:1042E0000022044904A000F018FF03B05DF804EBBD
:1042F00001F02CB8453D00086D61696E00000000BA
:1043000070B54843044600F091FB0546280003D0F1
:104310002246002100F02DFC284670BD70B5054CEA
:10432000054DAC4204D220688047241DAC42FAD32C
:1043300070BD00004C6100085461000870B5054C68
:10434000054DAC4204D220688047241DAC42FAD30C
:1043500070BD0000546100085C61000810B5FBF7F7
:1043600059FF04494A88521C4A80BDE81040FBF7B7
:1043700055BF0000A800002010B50C4601460420DF
:1043800000F022FC002806D0447200F114014960BC
:1043900009600021C16110BD2DE9FF470546DDF828
:1043A00030800E461746002E11D04FF0FF3900F036
:1043B000A5FF044600202063FBF72CFF824617F080
:1043C000010F0CD0E86936EA000005D00FE04FF08D
:1043D000FF3004B0BDE8F0874FF0000907E017F0A8
:1043E000020F04D0E869304201D04FF00009B9F162
:1043F000000F2FD00398E8B3E66384F840706A7A20
:10440000214605F1140000F0C7FA0398002809DDE1
:1044100003AA002104F14C0001F0CAF804F14C0099
:1044200001F028F95046FBF7F9FE00F06FFC206B15
:104430000028CED1FBF7EEFE8246B8F1000F02D085
:10444000E06BC8F800005046FBF7E8FE206B04B0B4
:10445000BDE8F087B8F1000F03D0E8693040C8F834
:104460000000E8693040E06384F8407017F0040F02
:10447000E9D000E003E0E869B043E861E3E76FF00A
:10448000010020635046FBF7C9FE04B06FF0010045
:10449000BDE8F0872DE9F04104460D46002D0DD012
:1044A0000026FBF7B7FE8046E0692843E06104F18F
:1044B00014000568854205D1012004E04FF0FF306B
:1044C000BDE8F081002098BB04F11407BD422FD055
:1044D000A5F114004FF0FF3190F8402012F0010FC9
:1044E00005D0C26BE3699A430AD1002108E012F0BB
:1044F000020F08D0C26BE3691A4001D0C2630021E9
:104500002D6839B112E04046FBF788FE6FF00900D4
:10451000BDE8F08190F8401011F0040F03D0E1697C
:10452000C26B9143E16100F0C5FE0126BD42CFD1CF
:104530004046FBF773FE012E01D100F0E7FB00209F
:10454000BDE8F08110B5FBF765FE0B4C6188491E94
:1045500009B2618000290ADC00216180FBF75EFE60
:104560006068002807D0BDE8104000F0CFBBBDE870
:104570001040FBF753BE10BDA800002070B5002806
:1045800034D01B4D2968884230D3696888422DD2C7
:10459000A0F10C044FF0FF31164800F078FC608861
:1045A00018B12088B0F5F55F08D013A000F02CFA00
:1045B00023886288214617A000F026FA0020608038
:1045C0004FF4F5502080A868844200D2AC6029687E
:1045D0006068611A401A2969081A28612046FFF7A5
:1045E0008BFDBDE87040034800F025BC70BD0000A5
:1045F00030000020A4040020746F206672656520DE
:104600006120626164206461746120626C6F636B1D
:104610003A0A00006D656D3A203078253038782CE4
:10462000207573656420666C61673A2025642C20D0
:104630006D6167696320636F64653A203078253067
:1046400034780A0000487047C405002000487047CD
:10465000C441002010B5FCF7FFFBFDF7AAFEFDF7F3
:10466000EBFEFCF71BFF4FF47A71B0FBF1F0FDF7A6
:104670007DF9FFF753FEFFF7E9FF0446FFF7E2FF7E
:104680002146BDE8104000F0B1BC000010B54FF06D
:10469000FF3407480068C16911F0200F02D0406A5A
:1046A000C4B202E00A2000F0FEFDE0B210BD00003E
:1046B000C4410020F8B5054600240D2000900E49A5
:1046C000002081F88000284600F072FC0646300089
:1046D00011D0285D0A2805D101231A4669460648EB
:1046E000FDF70EFC012329191A460348FDF708FCC3
:1046F000641CB442EDD3F8BDC441002070B505463A
:1047000005F128002C1D31490968002902D088478D
:10471000002859D02EA0216C00F076F930A0616AF3
:1047200000F072F932A0A16A00F06EF934A0E16ADB
:1047300000F06AF936A0216B00F066F938A06168D4
:1047400000F062F93AA0A16800F05EF93CA0E168CF
:1047500000F05AF93EA0216900F056F940A06169C5
:1047600000F052F942A0A16900F04EF944A0E169BD
:1047700000F04AF946A0216A00F046F948A0616BB2
:1047800000F042F94AA0A16B00F03EF94CA0E16BA9
:1047900000F03AF9287810F0040F08D000F0AEFDD0
:1047A00001464BA000F030F9FFF71CF902E050A0E1
:1047B00000F02AF9287810F0100F02D153A000F071
:1047C00023F9FEF7F5FCFEE770BD0000C8000020ED
:1047D0007073723A203078253038780A0000000073
:1047E0007230303A203078253038780A00000000E6
:1047F0007230313A203078253038780A00000000D5
:104800007230323A203078253038780A00000000C3
:104810007230333A203078253038780A00000000B2
:104820007230343A203078253038780A00000000A1
:104830007230353A203078253038780A0000000090
:104840007230363A203078253038780A000000007F
:104850007230373A203078253038780A000000006E
:104860007230383A203078253038780A000000005D
:104870007230393A203078253038780A000000004C
:104880007231303A203078253038780A0000000044
:104890007231313A203078253038780A0000000033
:1048A0007231323A203078253038780A0000000022
:1048B000206C723A203078253038780A00000000E9
:1048C0002070633A203078253038780A00000000E4
:1048D00068617264206661756C74206F6E20746804
:1048E000726561643A2025730D0A0D0A000000000C
:1048F00068617264206661756C74206F6E206861F7
:104900006E646C65720D0A0D0A0000004650552059
:10491000616374697665210D0A00000030B40546B4
:10492000101D20F00700A0F1440420460022DFF80B
:104930002CC040F822C0521C112AFAD34162002137
:104940008162C162016341638363C5634FF080721A
:1049500002640160204630BC70470000EFBEADDE4F
:1049600010B5FBF757FC04490A78521C0A70BDE8E1
:104970001040FBF753BC00002C00002010B5FBF7E3
:1049800049FC04490A78521E0A70BDE81040FBF742
:1049900045BC00002C00002070B504460D461646AC
:1049A000284600F0E8FC16B1012E2BD108E005F1F5
:1049B000140061680860616841606060046021E023
:1049C0002068A04214D095F83510A0F1140292F896
:1049D0003530994209D2143205F1140351680B6045
:1049E0005168596053601A6002E00068A042ECD13F
:1049F000A04207D105F11400616808606168416058
:104A000060600460002070BD0FB408B503AB009374
:104A10007F210548029A00F0BFFE0348FFF74AFED7
:104A200001B05DF814FB0000240400202DE9F047DC
:104A3000002809D0C01C20F003053E4EF0688542D6
:104A400005D90020BDE8F0870020BDE8F0870C2DD7
:104A500000D20C254FF0FF31374800F018FAD6F895
:104A600008C03168ACEB0100F7687B1B83425BD95F
:104A70000C186288002A54D16268121A0C3AAA42B1
:104A80004FD3626805F11803121A0C3A4FF001096E
:104A90004FF4F5589A4223D3421902F10C03CA1875
:104AA000A2F800804FF0000AA2F802A0D4F804A0F7
:104AB000C2F804A090606360A4F80290506807F107
:104AC0000C02904202D001F1080283503069324654
:104AD00028440C303061536983420DD250610BE0A1
:104AE000A4F802906068621A801A3269104430613A
:104AF0007269824200D27061A4F80080644503D0DC
:104B000008E040680844B060B068428812B172683A
:104B10009042F6D1084800F08EF904F10C00BDE88F
:104B2000F08760688342A3D8034800F084F900202E
:104B3000BDE8F08730000020A4040020034618469A
:104B400081420DD201EB020C9C4509D99918521EE5
:104B500005D31CF8013D01F8013D521EF9D2704702
:104B6000521EFCD311F801CB03F801CB521EF9D22F
:104B70007047034601F0FF0C042A1CD310F0030F0A
:104B800019D101464CEA0C2343EA0343102A0AD305
:104B900041F8043B41F8043B41F8043B41F8043B35
:104BA000103A102AF4D2042A04D341F8043B121F0D
:104BB000042AFAD20B46511E05D30CF0FF0203F86B
:104BC000012B491EFBD270472DE9F04106460F46E6
:104BD000304600F053F80546E868FFF727FF044623
:104BE000E4B100212046EA68FFF7C3FF26720020E7
:104BF000607208223946204600F0E2F9FBF70AFB12
:104C0000291D04F10C020B685A600B6813600A60DE
:104C10005160FBF703FB2046BDE8F0810020BDE8B2
:104C2000F08110B5044600202072FBF7F3FA04F17E
:104C30000C010B684A685A604B680A681A60496040
:104C40000960FBF7EBFA2046BDE81040FFF796BC81
:104C500010B5044600202072FBF7DCFA014604F18F
:104C60000C00036842685A60436802681A6040603A
:104C70000060BDE810400846FBF7D0BA0021074AA3
:104C800002EB01131B78834202D102EB0110704743
:104C9000491C0629F4DB0020704700004800002072
:104CA0002DE9F04105460E4617463046FFF7E6FF70
:104CB0000446FFF753FB6068211D884202D000685C
:104CC0008842FCD1FFF73EFC46F0800028720822A3
:104CD0003946284600F074F9FBF79CFA0246201D7D
:104CE00005F10C010368596003680B6001604860BE
:104CF000BDE8F0411046FBF791BA007A10F0800F42
:104D000001D00120704700207047000070B5FBF70C
:104D100081FA0546134C6088A8B9A068FDF786FEA5
:104D2000421E114850F83200A0F114016368994204
:104D300009D0227061600D48007848B11C3103F140
:104D40001C00FBF76EFA2846BDE87040FBF766BA18
:104D50001C3103F11C00FBF764FA2846BDE87040E3
:104D6000FBF75CBAA8000020C40400202C0000203F
:104D700010B50446FBF74EFA024694F8340020F0D2
:104D80000F0040F0010084F8340094F835000A491F
:104D900001EBC00104F114004B6818604B684360DC
:104DA000486001600548A16B836819438160BDE8D4
:104DB00010401046FBF732BAC4040020A8000020BF
:104DC00010B50446FBF726FA024604F114010B68FD
:104DD000486858604B68086818604960096094F832
:104DE00035000A4901EBC0000168814201D1012070
:104DF00000E0002028B10648A16B836823EA010186
:104E00008160BDE810401046FBF708BAC4040020DA
:104E1000A800002070B5044615461E460A46022129
:104E20002046FFF73DFF04F1140149600960A583A6
:104E30006672002070BD70B504460025FBF7EAF9E4
:104E4000064604F114000168814201D1012000E00E
:104E5000002038B1A08B4FF6FF7188420DD2401C64
:104E6000A08304E0A1F1140000F024FA01253046EB
:104E7000FBF7D4F9012D06D007E03046FBF7CEF959
:104E80006FF0020070BDFFF741FF002070BD73B5E9
:104E90000446FBF7BFF90646A08B28B1401EA0834D
:104EA0003046FBF7BBF921E0019810B300F026FA79
:104EB000054600202863627A294604F11400FFF7B2
:104EC0006BFD0198002809DD01AA002105F14C00C5
:104ED00000F06EFB05F14C0000F0CCFB3046FBF718
:104EE0009DF9FFF713FF286B002800D1002002B0C6
:104EF00070BD3046FBF792F902B06FF0010070BD53
:104F000008B509A0FFF780FD0AA0FFF77DFD12A0FC
:104F1000009005230122032112A0FFF775FDBDE8D3
:104F2000084018A0FFF770BD0A205C207C202F0AE3
:104F3000000000002D205254202D2020202020543D
:104F40006872656164204F7065726174696E672074
:104F500053797374656D0A004D61792031352032C3
:104F600030323300202F207C205C20202020202580
:104F7000642E25642E2564206275696C6420257377
:104F80000A0000002032303036202D2032303230FE
:104F900020436F7079726967687420627920727437
:104FA0002D746872656164207465616D0A0000008B
:104FB000014600E0491C0A78002AFBD1081A704714
:104FC000002A09D0034611F801CB03F801CBBCF14C
:104FD000000F02D0521EF6D17047511EFCD00022A5
:104FE00003F8012B491EFBD17047000010B50A469B
:104FF000C11C21F0030122F00303182B22D9A3F1D5
:10500000180C8C451ED3124C581A1838E0602160D9
:105010004FF4F5530B8000F10C024A6000208860C9
:1050200048804868084460600380012141804260F4
:1050300082600023012207A10848FFF7EBFE2068E9
:10504000A06010BD0146BDE8104005A0FFF7DCBC24
:10505000300000206865617000000000A40400209A
:105060006D656D20696E69742C206572726F722097
:10507000626567696E20616464726573732030785D
:1050800025782C20616E6420656E642061646472F2
:1050900065737320307825780A0000000B4B4FF0C1
:1050A000000CA3F802C00020094A02EBC0014960CD
:1050B0000960401C2028F8DB1F201870C3F804C0CA
:1050C000C3F808C00348406000607047A800002093
:1050D000C4040020B400002010B5074CA068FDF700
:1050E000A5FC401E054951F8300014386060BDE849
:1050F00010401C30FBF7DBB8A8000020C4040020DF
:105100000020044A02EBC00149600960401C0028ED
:10511000F8D07047C000002070472DE9F04784B0F8
:1051200080460D9D0C9C894692461E4641460120B4
:10513000FFF74AFD0746380011D03046FFF776FCEE
:1051400088B1009053464A46414601960395029421
:105150003846FDF7D5FC04B03846BDE8F08704B00A
:105160000020BDE8F0873846FFF75BFD04B0002063
:10517000BDE8F08700F0C8B870B515480468FBF7C3
:1051800049F805462046FDF70DFD2046FFF718FEBD
:10519000042084F8340004F14C0000F033FA204677
:1051A000FFF7ABFD01280FD00A4904F114000A688B
:1051B00050600A68026008604160FFF7A7FD28465A
:1051C000BDE87040FBF72AB82046FFF741FDF4E741
:1051D000AC000020B400002000F002F8FCE7000062
:1051E00070B5134C17E0012100E00021D9B121680E
:1051F000A1F114060A68486850604A68086810609F
:1052000049600960B06AFFF7B9F93046FFF709FD58
:105210002846FBF703F8FAF7FDFF0546044908683E
:105220008842E2D0DFE72846BDE87040FAF7F6BFD3
:10523000B400002000B585B02020C2001F21084B1B
:1052400000930192029103900023064A06A10848A8
:1052500000F010F805B006485DF804EB00F076B8F1
:1052600024030020D95100087469646C65000000B3
:10527000A40200202DE9F04F85B00EAC8146F0CCA1
:10528000884692469B46424601214846FFF708FD64
:105290008DE8F0005B46524641464846FDF730FC3B
:1052A00005B0BDE8F08F10B500F0D2F8BDE81040B1
:1052B00000F02AB870B5044694F8340000F00F00EE
:1052C000022802D04FF0FF3070BDFAF7A3FF054669
:1052D00004F114010A68486850604A680868106060
:1052E0004960096004F14C0000F02CFA2846FAF7F6
:1052F00095FF2046FFF73CFD002070BD0148006887
:1053000070470000AC00002031B5FAF783FF054676
:105310000D480468204600F02EF86A46002104F18A
:105320004C0000F045F904F14C0000F0A3F92846C8
:10533000FAF774FFFFF7EAFC206B10F1020F01D1BE
:1053400000202063002038BDAC00002010B590F88C
:10535000361080F83510012202FA01F18163022132
:1053600080F83410FFF7A6FFFFF7C8FF08B1FFF77A
:10537000CDFC002010BD70B5044694F8340000F058
:105380000F00012802D04FF0FF3070BDFAF742FF46
:1053900005462046FFF714FD94F8340020F00F0076
:1053A00040F0020084F8340004F14C0000F0CAF927
:1053B0002846FAF733FF002070BD10B56FF00101E9
:1053C000016300F114010B684A685A604B680A686F
:1053D0001A6049600960FFF7CBFCBDE81040FFF799
:1053E00095BC000010B5FAF715FF1749096891F848
:1053F000342002F00F02012A21D1D1F814C08B69A8
:105400009C451CD001F11402CCF80430D2F804C041
:105410001368CCF800305260126091F835200B4BC5
:10542000143103EBC2025368196053684B6051603A
:105430000A60FAF7F3FEFFF769FC002010BDFAF7E7
:10544000EDFE002010BD0000AC000020C4040020D0
:10545000002802DA4FF0FF3070474FF47A7190FB6A
:10546000F1F24A4390FBF1F301FB130000EB400320
:10547000C3EBC0104B1E03EBC00090FBF1F01044D7
:1054800070470000014800687047000028000020B5
:1054900010B509480168491C0160FFF72FFF816CB6
:1054A000491E816419B9416C8164FFF79BFFBDE817
:1054B000104000F003B80000280000202DE9F04162
:1054C00082B0684601900090FFF7DCFF8046FAF753
:1054D000A1FE074635480168814201D1012000E064
:1054E000002000285CD1314D6FF000462868A0F103
:1054F0001404A06AA8EB0000B04251D2224600205A
:1055000002EBC0011431D1F800C04B68CCF8043074
:10551000D1F804C00B68CCF8003049600960401C29
:105520000128EDDB607A10F0020F02D120F00100BB
:105530006072694604F11400009A5060009A02609B
:1055400000904160E169206A8847FFF79BFF804631
:1055500068460099814201D1012000E00020B0B9E5
:1055600004F11400026841685160426801681160EA
:1055700040600060607A10F0020F08D010F0010F58
:1055800005D020F001006072204600F073F8074853
:105590000168814201D1012000E000200028A5D04F
:1055A0003846FAF73BFE02B0BDE8F081C0000020AB
:1055B00070B504460E461546FAF72CFE052E1DD290
:1055C000DFE806F00603090E1300616A296015E0A2
:1055D0002968616212E0617A21F0020161720DE0D6
:1055E000617A41F00201617208E0617A11F0010F05
:1055F00002D00121296001E000212960FAF70EFEA6
:10560000002070BD70B50546FAF704FE2C46002256
:1056100004EBC2011431D1F800C04B68CCF804305F
:10562000D1F804C00B68CCF8003049600960521C06
:10563000012AEDDB697A21F001016972FAF7EEFDCA
:105640002846FFF705FB002070BD2DE9F843804692
:10565000089D099C16461F460A460A214046FFF748
:105660001FFB2B463A46314640460094FDF786FA2A
:10567000BDE8F8832DE9F8430446FAF7CBFD05466B
:105680002246002002EBC0011431D1F800C04B6863
:10569000CCF80430D1F804C00B68CCF80030496075
:1056A0000960401C0128EDDB607A20F00100607287
:1056B000FFF7E8FE616A00EB010CC4F828C01F4F39
:1056C000009700216FF00048684607EBC10350F8CF
:1056D00021205E68B2420FD050F821201268A2EB60
:1056E000C1035B69634503D0A3EB0C03434503D3BC
:1056F00040F82120B242EFD129B150F821200832E0
:105700004B1C40F82320491C0029DED00C480168BE
:10571000491C0160009804F114010268516002689C
:105720000A6001604860607A40F0010060722846BB
:10573000FAF774FD0020BDE8F8830000C0000020E7
:10574000BC00002070B50446607A10F0010F1FD035
:10575000FAF760FD03462046002200EBC201143137
:105760000D68D1F804C0C5F804C04D68D1F800C078
:10577000C5F800C049600960521C012AEDDB607A5F
:1057800020F0010060721846FAF748FD002070BD55
:105790004FF0FF3070BD00002DE9FF4F83B006468B
:1057A0000F461446F5193046854203D24FF0FF35B7
:1057B000C6F1FF372178002900F05C816FF02F09D6
:1057C0004FF020084FF0250A2178252905D0A8425E
:1057D00000D20170401C00F048B90021641C2378FD
:1057E0002D2B1ED02B2B1FD0202B20D0232B21D0B4
:1057F000302B22D04FF0FF3294F800C0ACF1300CC7
:10580000BCF10A0F1CD20022234602EB82021B7855
:1058100009EB4202641C1A442378303B0A2BF3D371
:105820001AE041F01001D9E741F00401D6E741F058
:105830000801D3E741F02001D0E741F00101CDE7B5
:105840002A2B09D1641C069B53F8042B0693002ACB
:1058500002DA524241F010014FF0FF3B23782E2B29
:1058600022D1641C2378A3F1300CBCF10A0F0FD2B3
:105870004FF0000B23460BEB8B0C1B7809EB4C0C09
:10588000641C03EB0C0B2378303B0A2BF2D306E0AD
:105890002A2B04D1641C069B53F804BB0693BBF16E
:1058A000000F01DA4FF0000B4FF0000E2378682B49
:1058B00001D06C2B01D19E46641C0A2394F800C0D1
:1058C000BCF16F0F7ED011DCBCF1630F27D006DC7A
:1058D000BCF1250F77D0BCF1580F13D1ABE0BCF170
:1058E000640F71D0BCF1690F0CD1A8E0BCF1700F4E
:1058F0006BD0BCF1730F35D0BCF1750F66D0BCF125
:10590000780F7BD0A84201D280F800A0401C2178FB
:10591000002974D0A84200D20170401CA5E011F00B
:10592000100F0AD1521E002A07DDA84201D280F8CA
:105930000080401C521E002AF7DC069911F8043B37
:105940000691D9B2A84200D20170401C511E002914
:1059500053DDA84201D280F80080401C491E002976
:10596000F7DC82E0DDF818C05CF8043BCDF818C025
:1059700003B952A34FF0000C01E00CF1010C944567
:1059800004D013F80CE0BEF1000FF6D1BBF1000F0C
:1059900002DDDC4500DDDC4611F0100F0CD11146B4
:1059A000521E614508DDA84201D280F80080401CEB
:1059B0001146521E6145F6DC0021BCF1000F10DDDE
:1059C000A84204E035E02EE039E019E039E003D2E6
:1059D00093F800B080F800B0401C5B1C491C614586
:1059E000EEDB511E624540DDA84201D280F8008006
:1059F000401C0A46491E6245F6DC36E01DE03FE0E9
:105A0000B2F1FF3F02D1082241F00101CDF804B00C
:105A1000029106990092102351F8042B0691294611
:105A2000FEF79EFB21E0A84201D280F800A0401CB6
:105A30001BE0082305E041F04001102301E041F0A4
:105A40000201BEF16C0F1DD0BEF1680F21D0DDF850
:105A500018E05EF804CBCDF818E000920291CDF882
:105A600004B062462946FEF77BFB641C21780029BE
:105A70007FF4AAAEEFB10021A84218D2017018E05D
:105A8000641EF2E7DDF818E05EF804CBCDF818E00C
:105A9000E3E7DDF818C03CF804EBCDF818C01FFAB6
:105AA0008EFC11F0020FD8D00FFA8CFCD5E705F868
:105AB000011C07B0801BBDE8F08F0000284E554C3C
:105AC0004C290000002070470020704700207047DC
:105AD0000020704710B5FAF79DFBFEF7BBFDFFF7FE
