:020000040800F2
:10000000F04B00207902000897300008990300089F
:1000100095300008F5090008793700080000000055
:100020000000000000000000000000008B0200083B
:10003000F709000800000000E702000899300008F6
:10004000930200089302000893020008930200083C
:10005000930200089302000893020008930200082C
:10006000930200089302000893020008930200081C
:10007000930200089302000893020008930200080C
:100080009302000800000000930200089302000899
:1000900093020008930200089302000893020008EC
:1000A00093020008930200089302000893020008DC
:1000B00093020008930200089302000893020008CC
:1000C00093020008930200089302000893020008BC
:1000D000930200086D37000893020008930200089D
:1000E000930200089302000893020008930200089C
:1000F0009302000893020008930200080000000029
:1001000000000000930200080000000093020008B5
:100110009302000800000000A131000893020008CB
:10012000930200089302000893020008930200085B
:100130009302000800000000000000009302000885
:100140009302000893020008000000000000000075
:10015000000000000000000000000000000000009F
:1001600000000000000000000000000093020008F2
:1001700093020008000000000000000000000000E2
:1001800000000000930200080000000000000000D2
:10019000000000000000000000000000000000005F
:1001A0000000000000000000930200089302000815
:1001B0009302000893020008930200080000000068
:1001C0000000000093020008000000000000000092
:1001D000930200089302000800F002F800F03CF8D7
:1001E0000AA090E8000C82448344AAF10107DA4592
:1001F00001D100F031F8AFF2090EBAE80F0013F0A8
:10020000010F18BFFB1A43F001031847C471000027
:10021000E4710000103A24BF78C878C1FAD85207B8
:1002200024BF30C830C144BF04680C607047000070
:100230000023002400250026103A28BF78C1FBD8EF
:10024000520728BF30C148BF0B6070471FB506F08A
:10025000C0FD1FBD10B510BD00F082FA1146FFF7BA
:10026000F5FF00F0B6FA00F0A0FA03B4FFF7F2FFD2
:1002700003BC00F0A7FA000009488047094800477E
:10028000FEE7FEE7FEE7FEE7FEE7FEE7FEE7FEE746
:10029000FEE7FEE704480549054A064B70470000A3
:1002A00091310008D9010008F0450020F04B0020F2
:1002B000F0470020F0470020EFF3108072B670473F
:1002C00080F310887047424A1368012B04D04FF026
:1002D000010313603F4A10603F4A11603F484FF0EE
:1002E000805101607047EFF3108272B638480168A0
:1002F00051B34FF0000101603648016891B1EFF34E
:1003000009811EF0100F08BF21ED108B21E9F00FBD
:100310004FF000041EF0100F08BF012441F8044DF7
:10032000006801602C490968096808C9B1E8F00F44
:10033000002B18BFB1EC108B81F309884EF0100E22
:10034000002B18BF2EF0100E82F310884EF0040E12
:10035000704721490860EFF3148222F0040282F30F
:1003600014881C494FF00000086019494FF0010043
:1003700008601B481B49D0F8002041EA02010160D7
:1003800016484FF08051016017480068006880F3FC
:10039000088861B662B670471EF0040F0CBFEFF319
:1003A0000880EFF3098020E9F00F40F804ED40F8F1
:1003B00004ED1EF0040F0CBF80F3088880F3098859
:1003C00000B504F095FF5DF804EB4EF0040E7047A5
:1003D00008010020000100200401002004ED00E0DD
:1003E00020ED00E00000FFFF08ED00E053EA020C02
:1003F00000F069802DE9F04B4FF00006002B1FBF85
:10040000B3FA83F503FA05F424FA05F65E4012BF49
:100410001643B2FA82F502FA05F4C5F120051EBFB3
:1004200022FA05FC44EA0C04203556EA044C4FEA53
:10043000144418BF641C4FF000084FF000099042AC
:1004400071EB030C39D3002919BFB1FA81F701FA16
:1004500007F6B0FA80F700FA07F6C7F120071EBFCB
:1004600020FA07FC46EA0C062037B6FBF4FCA7EBA3
:100470000507103F07F01F0BCBF120060CFA0BFB12
:100480002CFA06F644BFB3460026202FA4BF5E46D2
:100490004FF0000B5BEA060C08BF4FF0010B19EBA5
:1004A0000B09ABFB027C48EB0608C01B06FB02CC29
:1004B0000BFB03CC71EB0C01C1E70B460246414636
:1004C0004846BDE8F08B13B54FF000004FF0000137
:1004D000AFF30080BDE81C40704740EA01030246CC
:1004E00030B59B0710D14FF0013400E008C208C9B5
:1004F0001D1B9D4315EAC41FF8D013F0FF0102F83D
:10050000011B0DD01B0AF8E711F8013B002B02F884
:10051000013B05D011F8013B002B02F8013BF3D160
:1005200030BD10B5431C02E010F8011B71B181070A
:10053000FAD14FF0013202C88C1A8C4314EAC2116E
:10054000F9D0C01A0A0603D0C01E10BDC01A10BDD3
:100550000A0401D0801E10BD0902FCD0401E10BD4F
:1005600040EA010370B59B072ED14FF00136042AF3
:100570002AD308C810C99D1B9D43121F15EAC61532
:1005800017D0D8B2E1B2401A50EA056110D198B242
:10059000A1B2401A50EA05410AD123F07F4024F06D
:1005A0007F41401A50EA052102D1180EA0EB1460D9
:1005B00070BDA342DBD018BA21BA884201D901200C
:1005C00070BD4FF0FF3070BD0AB9002070BD10F84B
:1005D000013B11F8014B63B1A3420AD1521E08D06E
:1005E00010F8013B11F8014B1BB1A34201D1521E7F
:1005F000EDD1181B70BD421E12F8013F002BFBD13C
:1006000011F8013B002B02F8013BF9D1704710B5FE
:10061000203AC0F00B80B1E81850203AA0E81850FA
:10062000B1E81850A0E81850BFF4F5AF5FEA027CBB
:1006300024BFB1E81850A0E8185044BF18C918C02A
:10064000BDE810405FEA827C24BF51F8043B40F8CB
:10065000043B08BF7047D20728BF31F8023B48BFB0
:1006600011F8012B28BF20F8023B48BF00F8012BEE
:1006700070474FF000020429C0F0128010F0030C04
:1006800000F01B80CCF1040CBCF1020F18BF00F885
:10069000012BA8BF20F8022BA1EB0C0100F00DB834
:1006A0005FEAC17C24BF00F8012B00F8012B48BF92
:1006B00000F8012B70474FF0000200B51346944636
:1006C0009646203922BFA0E80C50A0E80C50B1F1AA
:1006D0002001BFF4F7AF090728BFA0E80C5048BFBE
:1006E0000CC05DF804EB890028BF40F8042B08BF5C
:1006F000704748BF20F8022B11F0804F18BF00F858
:10070000012B704710B5044610F0030F08BF11F01D
:10071000030F40F015804FF0013E121FC0F20E8013
:1007200051F8043BA3EB0E0C2CEA030C1CEACE1C84
:1007300008BF40F8043BF0D0A1F1040102F104022B
:10074000521E08DB11F8013B002B00F8013BF7D1EA
:100750001146FFF78EFF204610BD70477047704767
:10076000754600F02BF8AE4605006946534620F06A
:100770000700854618B020B5FFF78CFDBDE8204086
:100780004FF000064FF000074FF000084FF0000B4D
:1007900021F00701AC46ACE8C009ACE8C009ACE800
:1007A000C009ACE8C0098D46704710B50446AFF3E8
:1007B00000802046BDE81040FFF757BD0048704755
:1007C0008C45002001491820ABBEFEE72600020040
:1007D000704710B506F0A8F9002010BD2DE9F041D2
:1007E000044600270D46006802F0D0FA064620684D
:1007F00002F0C8FA30435DD02068C1682E4E8901EE
:1008000005D5617F012902D1217F01290BD0022D5D
:100810001DD0206802F0BAFAB8B120688168C1F32F
:10082000400169B111E00125244902E08F4232D232
:100830007F1C0268D2435206F8D440210160E8E7E9
:100840008168314041F010018160012D11D0206894
:1008500002F098FA48B120688168C1F3400121B9DB
:100860008168314041F020018160022D08D0032DC4
:1008700004D0042500F064FF064617E00C25F9E7D4
:100880000825F7E700F05CFF801B05280ED92068DB
:10089000806828420AD0E06D40F01000E065206ECC
:1008A00040F0010020660120BDE8F08120688068EA
:1008B0002842E7D10020F7E7C0FFFF7F000040A3F8
:1008C00070B50446006881688268C1F3400112F087
:1008D000010F28D039BB816801F00D01012914D125
:1008E0008168124A1140891C8160216803200860D8
:1008F00000F026FF054612E000F022FF401B022810
:100900000DD920688068C00709D0E06D40F0100064
:10091000E065206E40F001002066012070BD206877
:100920008068C007E8D1002070BD0000C0FFFF7FD5
:1009300070B504460068816811F0010F2DD18168FF
:10094000174A11421AD18168D5432940491C816058
:1009500000F0F6FE06461BE0816811F0010F03D19E
:1009600081682940491C816000F0EAFE801B022852
:100970000ED920680068C043C00709D0E06D40F080
:100980001000E065206E40F001002066012070BD7F
:1009900020680168C943C907DED1002070BD00008E
:1009A0003F00008010B5114800F092FC02210F4872
:1009B00000F010FC0D4800F099FA0D4C60800B48D7
:1009C00000F000FD09486C3000F082FC074802216D
:1009D0006C3000F0FFFB05486C3000F087FA208097
:1009E0000248BDE810406C3000F0ECBC240100204F
:1009F00028000020FEE7704772B6FEE72DE9F047B9
:100A0000044690F858009CB00E464FF000090128AB
:100A100015D0012084F858000025179518952068F6
:100A20004FF0A04840450ED1284F0097384602F0BD
:100A3000B1F98246206802F0ADF960B10EE0022003
:100A40001CB0BDE8F087E06D40F02000E06584F860
:100A500058500120F4E7BAF1000F09D0E06D40F0E2
:100A60002000E0654FF0010984F858504846E7E758
:100A70001748326840F61F71002A826822F46042EB
:100A800016D094F8383042EA433273681A438260D1
:100A9000D8F80820BB6802F0010203F001031A43F2
:100AA000E2D1B36832681A4383688B431A430BE080
:100AB0008260D8F80820BB6802F0010203F001034D
:100AC0001A43D1D182688A438260CDE70001005089
:100AD000000300502DE9F84F00270446009790F8D6
:100AE0005800DFF8D8930D46B846012811D00126EA
:100AF00084F85860206802F049F960B1E06D40F078
:100B00002000E0655FF0010784F858803846BDE8B2
:100B1000F88F0220FBE7D5E900210C23206803EAC7
:100B200091131844036B01F01F014FF01F0C0CFAD6
:100B300001FCC2F3846223EA0C038A40134303637B
:100B4000206802F023F98246206802F01BF95AEA75
:100B500000003CD1AA6829682068B2F1004F37D064
:100B600002F024F92068416921F0004141612068C8
:100B70006969C268C2F3C102520091402A69042A1D
:100B800031D000EB82002B68026EDFF834C303F033
:100B9000F84302EA0C020B431A4342F0004101669B
:100BA00020682A69A96900EB8200026E22F0807237
:100BB0000A430266297F22682869012910D0002192
:100BC00002EB8000026E22F000720A4302667DE0B2
:100BD000002202F0EBF82068416941F00041C5E7CE
:100BE0004FF00071ECE7002102F0C6F840032068E6
:100BF0004FF0000172D002F0BFF890FAA0F0B0FA06
:100C000080F1286842036ED090FAA0F0B0FA80F02C
:100C1000814204D100221146206802F0D6F8012159
:100C2000206802F0A9F8400320684FF001015DD070
:100C300002F0A2F890FAA0F0B0FA80F1286842031E
:100C400059D090FAA0F0B0FA80F0814204D100228D
:100C50000121206802F0B9F80221206802F08CF826
:100C6000400320684FF0020148D002F085F890FA66
:100C7000A0F0B0FA80F12868420344D090FAA0F0C6
:100C8000B0FA80F0814204D100220221206802F0F3
:100C90009CF80321206802F06FF8400320684FF0B1
:100CA000030133D002F068F890FAA0F0B0FA80F1B6
:100CB000286842032FD090FAA0F0B0FA80F0814269
:100CC00004D100220321206802F07FF820688168A7
:100CD00011F0010F22D0A8E000E004E002F04CF88F
:100CE000C0F384618DE7C0F3846091E702F044F8BB
:100CF000C0F38461A2E7C0F38460A6E702F03CF889
:100D0000C0F38461B7E7C0F38460BBE702F034F856
:100D1000C0F38461CCE7C0F38460D0E7EB68296856
:100D20004B4550F8B03FC1F3120101D10B4300E035
:100D30008B430360E868484577D1286841031CD09D
:100D400090FAA0F1B1FA81F1491C01F01F010929C3
:100D50004FEA403132D8002912D000BF90FAA0F1FA
:100D6000B1FA81F101F1010101F01F0106FA01F66A
:100D700009D100BFC0F3846109E0C0F38461E3E7F7
:100D8000C0F38461EEE790FAA0F1B1FA81F101F1CC
:100D9000010101F01F0146EA816102D1C0F38460C4
:100DA00003E090FAA0F0B0FA80F000F1010000F04A
:100DB0001F0000EB400041EA005132E000290ED054
:100DC00090FAA0F1B1FA81F101F1010101F01F01E6
:100DD00006FA01F606D100BFC0F3846106E0C0F355
:100DE0008461F1E790FAA0F1B1FA81F101F101011A
:100DF00001F01F0146EA816102D1C0F3846003E083
:100E000090FAA0F0B0FA80F000F1010000F01F00AD
:100E10002C4A00EB400002EB005041EA000141F097
:100E20000071AA68206801F0C1FF27482A680242C1
:100E30003FF46AAE25488168254B01F0E0719A4283
:100E400002D0244B9A421CD10B021AD42268B2F170
:100E5000A04F7FF459AE826841F4000122F0E072A5
:100E60000A4382601C481D490068B0FBF1F0401C39
:100E700000EB4000800000E0401E00900028FBD105
:100E800042E6174D174BAA4207D1CD0105D422687F
:100E90009A42F5D041F0807109E0134DAA42EFD19A
:100EA0004A02EDD422689A42EAD041F48001826875
:100EB00022F0E0720A43826026E6000000007F40D4
:100EC00000F0FF03000020FE000008800003005037
:100ED000000021C31000C0903C000020400D030022
:100EE000000052C700010050000084CB0068006C75
:100EF00070470000F8B54FF0000504002E4600953D
:100F000002D0E06D10B107E00120F8BD204600F0EE
:100F1000EFF8266684F8586020688168C1F3407154
:100F200019B181686A4A1140816020688168C1F303
:100F3000007189B98168674A114041F08051816030
:100F4000654866490068B0FBF1F04000801C00E095
:100F5000401E00900028FBD120688168C1F3007119
:100F600041B9E16D41F01001E165216E41F00101EF
:100F70002166012501F00AFFE16DC90600D430B1F8
:100F8000E06D40F01000E06501252846F8BDE06DF9
:100F900020F4807040F00200E0652068806810F066
:100FA000010F11D14FF0A04080684D4900F00100C1
:100FB000896801F00101084306D14A4861688268E6
:100FC00022F47C120A438260E168E06B627F08438E
:100FD000A16841EA4231084394F8241040EA0140F4
:100FE000012904D1218D404A02EB41410843E16AC5
:100FF00029B101F47871226B014342EA01002168B2
:10100000CA683A4B1A400243CA6020680169626BA1
:1010100021F0406111430161206801F0B7FE0646EE
:10102000206801F0AFFE30432ED1207F94F83810B5
:10103000800340EA41022068C16844F202039943F8
:101040001143C16020690028206801690AD041F479
:1010500080310161206850F8C01F22696FF30D01D3
:10106000114307E021F480310161206850F8C01F6E
:101070006FF30D01016094F8400001280CD0206846
:10108000016921F001010161606901282068016B9B
:1010900021F00F0111D013E0D4E911010843D4E984
:1010A00013121143084321680A6940F2FC739A4302
:1010B000104340F001000861E6E7226A521E114326
:1010C0000163E06D20F0020040F00100E0655CE7A4
:1010D000C0FFFF5FC0FFFF7F3C000020400D03000A
:1010E00000010050000300500000FEFF0740F0FF29
:1010F0002DE9F04397B00446142111A8FFF7DBFA5D
:1011000044216846FFF7D7FA4FF0005021682D4D73
:101110000327DFF8B49086132C4C4FF00008B1F190
:10112000A04F10D02A4A914248D100960F906846AD
:1011300000F0FCFB08B1FFF75FFC6868401C6860CA
:10114000012824D02BE000960F90684600F0EEFBBB
:1011500008B1FFF751FC6868401C6860012807D19E
:10116000E06C40F40050E064E06C00F40050169035
:10117000E06C40F00200E064E06C11A900F00200B5
:1011800016904FF4805081E88101484614E0E06CED
:1011900040F40050E064E06C00F400501690E06C05
:1011A00040F00200E064E06C11AA00F0020016902A
:1011B00082E8C00111A9484600F094F917B0BDE8D3
:1011C000F0830000280000200004004800100240C6
:1011D000000100502DE9F04104463B480F4681686C
:1011E00001F01F05A16908290FD085B1052D0ED08A
:1011F000092D0CD0806800F4604060B1E06D40F0D3
:101200002000E0650120BDE8F081082604E02068A8
:10121000C068C007F1E7042600F092FA804615E0A6
:10122000781C13D000F08CFAA0EB0800B84200D86C
:1012300067B920680068304208D1E06D40F00400D2
:10124000E065002084F858000320DCE7206800688F
:101250003042E5D0E06D40F40070E065206801F0B8
:101260009DFD80B1607F70B92068006800070AD5D5
:10127000E06D20F48070E065E06DC00403D4E06DA3
:1012800040F00100E065114A20684FF0A041904213
:1012900001D10B4600E00346834210D07DB1052DFD
:1012A0000DD0092D0BD0904200D00146C968082E00
:1012B00007D0490401D40C2101600020A3E7C168D4
:1012C000F5E70821F8E70000000300500001005096
:1012D0002DE9F04104463848806800F01F05206879
:1012E00001F054FD18B102210846BDE8F08194F8E0
:1012F000580001280CD0012084F858002046FFF740
:1013000017FB01004FF0000304D084F85830EBE7DE
:101310000220EAE7E06D40F60162904340F48070FD
:10132000E065264A20684FF0A046904201D137463A
:1013300000E00746874200D01DB9E76D27F480170B
:10134000E765E76DFF0404D5276E27F006072766DB
:1013500000E023661C27076084F85830206890421C
:1013600001D1334600E00346834215D0A5B1052DD7
:1013700012D0092D10D0E36D43F48013E365904241
:1013800000D13046C0688001AED5E06D20F4005039
:1013900040F48050E065A7E7C268920105D5E26D90
:1013A00022F4005242F48052E2658268044B1A40F3
:1013B000121D826098E700000003005000010050F9
:1013C000C0FFFF7F10B5044690F85800012808D0F0
:1013D000012084F8580003212046FFF7FFF910B1DF
:1013E0000BE0022010BD2046FFF76AFA28B9E16D34
:1013F00021F4885141F00101E165002184F8581081
:1014000010BD10B590F8253000210122022B03D029
:101410000421C163012122E003681C6824F00E044A
:101420001C60836C1C6824F480741C6003681C6856
:1014300024F001041C6090F84430046C03F01F0396
:1014400002FA03F36360D0E913345C60436D33B197
:101450001C6824F480741C60D0E916345C6080F849
:101460002520002280F82420084610BD70B590F891
:101470002520002401212346022A07D00422C2632A
:1014800080F8251080F82430012429E002681568CE
:1014900025F00E0515600268156825F00105156038
:1014A000826C156825F48075156090F84420056CF1
:1014B00002F01F0201FA02F26A60D0E913255560BA
:1014C000426D32B1156825F480751560D0E9162596
:1014D000556080F8251080F82430816B01B1884771
:1014E000204670BD2DE9F04FDFF820920023012641
:1014F0000324A9F1040B85B00F2709F1040AABF10D
:10150000040EFAE006FA03F52A407CD091F804C0F4
:101510000CF0030CBCF1010F02D0BCF1020F26D17C
:10152000D0F808C0CDF800C04FEA430C04FA0CF81C
:10153000CDF810C0DDF800C02CEA080CCDF800C0D2
:10154000D1F80C80DDF810C008FA0CF8DDF800C006
:1015500048EA0C08C0F80880D0F804C02CEA050C52
:101560000D79C5F300159D4045EA0C0545600D79E0
:10157000ED43AD070ED0C5684FEA430804FA08FCF6
:1015800025EA0C05D1F808C00CFA08FC4CEA050C59
:10159000C0F80CC00D7905F00305022D16D1DD0849
:1015A00000EB850CCDF808C0DCF820805D074FEA21
:1015B000D56C07FA0CF528EA05080D6905FA0CF553
:1015C000DDF808C045EA0805CCF8205005684FEA68
:1015D000430CCDF808C004FA0CFC25EA0C0591F880
:1015E00004C00CF00308DDF808C008FA0CF848EA5B
:1015F0000508C0F800804D6815F4403F7CD0444D8C
:10160000D5F860C000E077E04CF0010CC5F860C090
:101610002D6E23F0030C05F0010500953D4D65444A
:101620000295AD684FEA837C4FEA1C7807FA08FC04
:1016300025EA0C05B0F1904F06D0DFF8DCC060451C
:1016400005D14FF0010C20E04FF0000C1DE0DFF859
:10165000CCC0604502D14FF0020C16E0DFF8C0C0EC
:10166000604502D14FF0030C0FE0DFF8B8C06045D1
:1016700002D14FF0040C08E0DFF8ACC0604502D1A5
:101680004FF0050C01E04FF0060C0CFA08FC4CEA98
:10169000050C029DC5F808C0D9F80050CC46D1F819
:1016A000048095435FEAC82800D51543CCF8005064
:1016B000DAF80050D446D1F8048095435FEA8828D0
:1016C00000D51543CCF80050DBF80050DC46D1F8CB
:1016D000048095435FEA883800D51543CCF8005064
:1016E000DEF80050F446D1F8048095435FEAC8382C
:1016F00000D51543CCF800505B1C0A6832FA03F59C
:101700007FF400AF05B0BDE8F08F00000804014091
:10171000001002400000014000040048000800489A
:10172000000C004800100048001400480069084000
:1017300000D0012070470AB1816170478162704713
:1017400001488068704700003000002010B5002478
:10175000032000F073F8002000F008F808B101241D
:1017600001E000F025F8204610BD000070B50E4ED7
:1017700005460024706898B14FF47A71B1FBF0F01F
:101780000A490968B1FBF0F000F06AFD40B9102D7C
:1017900006D200222946501E00F030F8356000E0E5
:1017A0000124204670BD0000300000203C000020D5
:1017B0000A4882B0016E41F001010166016E01F03C
:1017C00001010091816D41F080518165806D00F0D3
:1017D0008050009002B000F0A1B80000001002405C
:1017E000002809DB00F01F02012191404009800020
:1017F00000F1E020C0F8001170470000F0B40E4B7B
:101800001B680C46C3F30223C3F10705042D00D95E
:101810000425191D072901D2002300E0DB1E012643
:1018200006FA05F1491E214099409E40761E164059
:101830003143F0BC01F0A1BF0CED00E0064900F01F
:10184000070208684FF6FF03184040EA0220034AE7
:1018500010430860704700000CED00E00000FA053E
:101860002B492C4B0A6832214A432B4940B1B0F531
:10187000007F086829D020F4C06040F480602CE02C
:101880000868C0F34120022804D051F8800F20F4EA
:10189000807022E0D1F8800020F48070C1F88000D0
:1018A000086820F4C06040F400700860B2FBF3F0F8
:1018B000401C00E0401E4A69520501D50028F9D1BC
:1018C000486940050AD503207047C0F3412002282B
:1018D00006D051F8800F40F48070086000207047F7
:1018E000D1F8800040F48070C1F88000086820F4CE
:1018F000C06040F400700860B2FBF3F0401C00E0F0
:10190000401E4A695205DBD50028F9D1D8E700000E
:101910003C00002040420F000070004002488168F7
:1019200041F4804181607047007000402DE9F84328
:101930000446006800269D4D00035ED5A86D002773
:10194000C00008D4A86D40F08050A865A86D01279C
:1019500000F080500090DFF85892D9F8001041F460
:101960008071C9F80010FFF7EBFE804606E000BF6B
:10197000FFF7E6FEA0EB080002282BD8D9F80000FC
:10198000C005F5D5D5F8900010F4407014D0216C46
:10199000814211D0D5F89000D5F8901020F4407015
:1019A00041F48031C5F89010D5F8901021F48031C1
:1019B000C5F89010C5F89000C00711D0FFF7C0FE21
:1019C000804641F2883907E0FFF7BAFEA0EB080134
:1019D000494501D903260BE0D5F890008007F3D5DF
:1019E000D5F89000216C20F440700843C5F89000B1
:1019F0001FB1A86D20F08050A8652078C00707D0DF
:101A0000D5F88800616820F003000843C5F8880015
:101A10002078800707D5D5F88800A16820F00C0051
:101A20000843C5F888002078400707D5D5F8880016
:101A3000E16820F030000843C5F8880020780007EE
:101A400007D5D5F88800216920F0C0000843C5F803
:101A500088002078800607D5D5F88800616920F4D1
:101A600040600843C5F888002078400607D5D5F8BF
:101A70008800A16920F440500843C5F88800207808
:101A8000000607D5D5F88800E16920F440400843F6
:101A9000C5F888002088C00507D5D5F88800216AD8
:101AA00020F440300843C5F888002088800507D519
:101AB000D5F88800616A20F440200843C5F8880002
:101AC000208840050FD5D5F88800A16A20F4401081
:101AD0000843C5F88800A06AB0F5801F03D1E86804
:101AE00040F48010E860208800050FD5D5F8880004
:101AF000E16A20F440000843C5F88800E06AB0F5C8
:101B0000800F03D1E86840F48010E8602088C004AA
:101B10000FD5D5F88800216B20F040700843C5F838
:101B20008800206BB0F1807F03D1E86840F480101A
:101B3000E86020884FF0006180040ED5D5F8880059
:101B4000626B20F040601043C5F88800606B8842EB
:101B500003D1E86840F48010E860208840040ED586
:101B6000D5F88800A26B20F040601043C5F88800CB
:101B7000A06B884203D1E86840F48010E8602088B8
:101B800000040FD5D5F88800E16B20F040500843E1
:101B9000C5F88800E06BB0F1805F03D1E86840F4DD
:101BA0008030E8603046BDE8F88300000010024055
:101BB000007000402DE9F0470E4605004FF0000789
:101BC00025D0DFF8AC81D8F8000000F00F00B0425B
:101BD0000CD2D8F8001021F00F013143C8F80010E2
:101BE000D8F8000000F00F00B04210D12968614C15
:101BF000C80741F2883A5AD06868DFF87C91032818
:101C000008D0022820682DD0400500282CDB0120B8
:101C1000BDE8F08720688001F9D5E06800F0030294
:101C2000E068C0F30310401C032A19D0534A00BFD8
:101C3000B2FBF0F0E268C2F306225043E268C2F35E
:101C40004162521C5200B0FBF2F0484517D9A0681F
:101C500010F0F00F0CD0880711D5A86840B10EE045
:101C6000474AE5E78003D0E700F0BCF8484506D9CD
:101C7000A06820F0F00040F08000A0608027A068FD
:101C8000696820F003000843A060FFF759FD814612
:101C900006E000BFFFF754FDA0EB090151453AD81B
:101CA000A068696800F00C00B0EB810FF2D12868E1
:101CB000810714D5400703D5A06840F4E060A06018
:101CC0002878000705D5A06820F4605040F4E06053
:101CD000A060A068A96820F0F000084304E0802F0D
:101CE00003D1A06820F0F000A060D8F800104046B2
:101CF00001F00F01B14216D9016821F00F01314303
:101D00000160FFF71DFD074607E000BFFFF718FD64
:101D1000C11B514501D903207AE7D8F8000000F033
:101D20000F00B042F2D12878400705D5A068E968D5
:101D300020F4E0600843A0602878000706D5A0687A
:101D4000296920F4605040EAC100A06000F04AF820
:101D5000A1680C4AC1F30311515C01F01F01C84096
:101D60000949086009480068BDE8F047FFF7FEBC74
:101D7000002002400010024000B4C4040024F4001B
:101D800000366E01046E00083C0000203000002088
:101D900001480068704700003C00002005480649E3
:101DA00000688968054AC1F30221515C01F01F01F6
:101DB000C84070473C00002000100240146E00082C
:101DC0000548064900688968054AC1F3C221515C8B
:101DD00001F01F01C84070473C0000200010024085
:101DE000146E0008184910B58868C0F381021748BE
:101DF000012A0BD08A68164BC2F38102022A06D050
:101E00008A68C2F38102032A03D0002010BD18465D
:101E100010BDCA6802F00304CA68C2F30312521C60
:101E2000032C02D0B0FBF2F001E0B3FBF2F0CA6881
:101E3000C968C2F306225043C1F34161491C4900FD
:101E4000B0FBF1F010BD0000001002400024F400CF
:101E500000366E012DE9F84304007AD02078FA4D5F
:101E6000C00747D0A868E96800F00C0001F0030142
:101E70000C2802D0082817D001E0032914D060688C
:101E8000B0F5803F17D0B0F5A02F286817D020F408
:101E900080302860286820F4802028606068E0B1E5
:101EA000FFF74EFC064614E02868800322D56068E0
:101EB0000028D2D01EE0286840F48030EDE740F4DE
:101EC00080202860F7E700BFFFF73AFC801B6428FA
:101ED00070D828688003F7D50CE0FFF731FC064680
:101EE00005E000BFFFF72CFC801B6428F0D82868B1
:101EF0008003F7D4207880074CD5A868E96800F003
:101F00000C0001F003010C2802D004280DD001E0E0
:101F100002290AD0E068002828682BD040F480709D
:101F20002860FFF70DFC064619E02868400502D539
:101F3000E068002891D06868217C20F0FE4040EAEB
:101F400001606860C1480068FFF710FC002800D1FC
:101F500020E076E1FFF7F4FB801B0228B8D8286860
:101F60004005F7D56868217C20F0FE4040EA01601A
:101F700068600FE020F480702860FFF7E1FB064600
:101F800005E000BFFFF7DCFB801B0228A0D8286813
:101F90004005F7D42078000729D560690028D5F8D6
:101FA000940013D040F00100C5F89400FFF7C8FB7F
:101FB000064606E090E000BFFFF7C2FB801B022848
:101FC00086D8D5F894008007F6D510E020F00100FF
:101FD000C5F89400FFF7B4FB064604E0FFF7B0FB3A
:101FE000801B022878D8D5F894008007F6D4207892
:101FF000400761D5A86D0026C00008D4A86D40F048
:102000008050A865A86D012600F08050009090488F
:102010000168C90511D40168804641F480710160EE
:10202000FFF78EFB074604E0FFF78AFBC01B022880
:1020300052D8D8F80000C005F6D5A068012815D000
:102040000528D5F8900016D020F00100C5F89000C2
:10205000D5F8900020F00400C5F89000A06841F287
:102060008838B8B1FFF76CFB07460EE0D5F8900052
:1020700040F00100F0E740F00400C5F89000F5E7FB
:10208000FFF75EFBC11B414526D8D5F890008007BD
:10209000F6D50CE0FFF754FB074604E0FFF750FBD2
:1020A000C11B414518D8D5F890008007F6D41EB161
:1020B000A86D20F08050A8652078800629D5A069F9
:1020C0000028D5F8980013D040F00100C5F898001A
:1020D000FFF736FB064606E077E000BFFFF730FB70
:1020E000801B022877D8D5F898008007F6D510E035
:1020F00020F00100C5F89800FFF722FB064604E037
:10210000FFF71EFB801B022865D8D5F898008007D2
:10211000F6D4E069F0B3A968C1F38101032961D065
:102120000228286820F0807028600BD0E86820F032
:102130000300E860E86847490840E860FFF700FBF3
:1021400004464BE0FFF7FCFA064604E0FFF7F8FA16
:10215000801B02283FD828688001F7D4F4E90801E1
:102160006FF00F0202EB01110843218A5204490863
:1021700002EB4151A26841EA02210843217D4FF060
:102180007E42490802EB41610843217B40EAC1607D
:10219000E96800E062E0304A11400843E8602868DE
:1021A00040F080702860E86840F08070E860FFF7D9
:1021B000C7FA044605E000BFFFF7C2FA001B022879
:1021C00009D828688001F7D548E004E0FFF7B8FA9D
:1021D000001B022802D90320BDE8F883286880018B
:1021E000F4D43BE00128F7D0E868226A00F003014C
:1021F000914226D1616A00F0F00209011039914242
:102200001FD1A26A00F4FE41B1EB022F19D194F85C
:102210002C2000F07841B1EBC26F12D1218E00F476
:10222000C00249084905A1F50011914209D194F86D
:10223000341000F0C06049084906A1F100718142E4
:102240000CD00120C8E70000001002403000002040
:1022500000700040FFFFEEFE0C809F010020BBE7F6
:1022600010B5401EB0F1807F01D3012010BD4FF0AA
:10227000E02460610F21601701F07FFA0020A06167
:1022800007202061002010BD7047704770477047DD
:1022900070477047F0B590F83C20012A3AD00125EC
:1022A00080F83C50022280F83D2003685A689C6800
:1022B000194E1A4FB34201D0BB4204D122F4700C24
:1022C0004A6842EA0C02DFF858C002EA0C02D1F870
:1022D00000C04CEA020CC3F804C00268B2420DD040
:1022E000B2F1804F0AD00F4B9A4207D00E4B9A4260
:1022F00004D0BA4202D00D4B9A4204D1896824F02E
:1023000080031943916080F83D50002180F83C1013
:102310000846F0BD0220F0BD002C01400034014011
:102320008FFFFFFD00040040000800400040014016
:10233000704710B5040003D094F83D0010B107E0D9
:10234000012010BD002084F83C00204600F022F857
:10235000022084F83D00211D206800F027FF0120A5
:1023600084F8480084F83E0084F83F0084F8400078
:1023700084F8410084F8420084F8430084F8440063
:1023800084F8450084F8460084F8470084F83D004E
:10239000002010BD08B500680B49884212D10B48D7
:1023A000816D41F010018165806D002200F0100008
:1023B000009011463620FFF721FABDE8084036208C
:1023C000FFF70EBA08BD00000010004000100240E8
:1023D000704770B50446006801694FF00005C943B5
:1023E000890715D4C168C943890711D4E91E016161
:1023F00001202077206880698007204602D0FFF7FF
:10240000E7FF04E000F0E3F8204600F0E1F825776C
:1024100020680169C943490717D4C168C9434907FE
:1024200013D46FF0040101610220207720688069D5
:1024300010F4407F204602D0FFF7CAFF04E000F00E
:10244000C6F8204600F0C4F8257720680169C94322
:10245000090716D4C168C943090712D46FF00801EF
:102460000161042020772068C0698007204602D0DF
:10247000FFF7AEFF04E000F0AAF8204600F0A8F84D
:10248000257720680169C943C90617D4C168C943C3
:10249000C90613D46FF0100101610820207720686D
:1024A000C06910F4407F204602D0FFF791FF04E09E
:1024B00000F08DF8204600F08BF825772068016940
:1024C000C943C90708D1C168C943C90704D1891ED6
:1024D0000161204600F07DF820680169C9430906C2
:1024E00009D4C168C943090605D46FF080010161B0
:1024F0002046FFF7CAFE20680169C943C90509D40F
:10250000C168C943090605D46FF480710161204692
:10251000FFF7BAFE20680169C943490609D4C168BA
:10252000C943490605D46FF040010161204600F01F
:1025300051F820680169C943890609D4C168C943B3
:10254000890605D46FF0200101612046FFF79EFE49
:1025500020680169C943C90209D4C168C943C902D5
:1025600005D46FF4801101612046FFF791FE2068C9
:102570000169C943890209D4C168C943890205D4E4
:102580006FF4001101612046FFF781FE20680169A8
:10259000C943490209D4C168C943490205D46FF44B
:1025A000800101612046FFF774FE20680169C9437C
:1025B00009020BD4C168C943090207D46FF40001B2
:1025C00001612046BDE87040FFF7B2BE70BD7047A4
:1025D00070477047704790F88010012918D001218A
:1025E00080F880102421C0F8841050F8641B0A6819
:1025F0000B6823F001030B6022F0005100220260FF
:1026000050F8643C1960202101620277104670473F
:10261000022070477047704770B5044690F88000FC
:1026200001281DD0012084F880002420C4F88400F3
:1026300020680568026822F0010202602068826852
:1026400022F060620A438260204600F007FE2068A4
:1026500005602020C4F88400002084F8800070BD4C
:10266000022070BD70B5044690F8800001281DD08E
:10267000012084F880002420C4F8840020680568C4
:10268000026822F0010202602068826822F0604243
:102690000A438260204600F0E1FD206805602020AA
:1026A000C4F88400002084F8800070BD022070BD52
:1026B00070477047704700002DE9F04103680446F9
:1026C000D86919689A6840F60F0528424FF000054E
:1026D00009D186067ED501F0200602F080573E43E0
:1026E00078D0216F27E1A94EA94F16400F403743FC
:1026F00070D0C70709D0CF0507D501271F62D4F8CE
:102700008C3043F00103C4F88C3083070AD5D3071B
:1027100008D0276802233B62D4F88C3043F00403CE
:10272000C4F88C3043070AD5D30708D027680423A0
:102730003B62D4F88C3043F00203C4F88C300307BA
:102740000CD501F02003334308D0266808233362F8
:10275000D4F88C3043F00803C4F88C3003050BD553
:102760004B0109D526684FF400633362D4F88C30EE
:1027700043F02003C4F88C30D4F88C30002B3AD0CE
:10278000800609D501F0200002F08051084303D0F3
:10279000216F09B120468847D4F88C0021688968E8
:1027A000490602D410F0280F27D0204600F016FE6C
:1027B0002068806840061BD52068083050E8001F5C
:1027C00021F0400140E80012002AF5D1E06F78B115
:1027D000704900E017E08163E06FFEF747FE0028D4
:1027E00009D0E06F816B00E02046BDE8F04108476A
:1027F0002046FFF75FFFBDE8F0812046FFF75AFF54
:10280000C4F88C50F7E7E76E2026012F7ED1C7066B
:102810007CD5CF067AD510201862206880684006E3
:1028200042D5E16F086840680004000CE3D0B4F8BA
:102830005C208242DFD9A4F85E0008680068800648
:102840002BD4206850E8001F21F4807140E800126A
:10285000002AF6D12068083050E8001F21F001015D
:1028600040E80012002AF5D12068083050E8001F27
:1028700021F0400140E80012002AF5D1C4F8886038
:10288000E566216851E8000F20F0100041E80002E1
:10289000002AF6D1E06FFEF7B4FDB4F85C00B4F89E
:1028A0005E10401A81B22CE0B4F85C00B4F85E10FF
:1028B000401A81B2B4F85E0000289CD000299AD05A
:1028C000226852E8000F20F4907042E80003002BC9
:1028D000F6D12E4BDB432068083050E8002F1A4019
:1028E00040E80027002FF6D1C4F88860E566256728
:1028F000226852E8000F20F0100042E80003002B8D
:10290000F6D12046FFF786FE75E7FFE7C70209D537
:10291000570207D54FF4801018622046BDE8F041F9
:10292000FFF7C7BE03060AD501F0800302F40002D8
:10293000134304D0616F00297FF456AF5BE7420672
:1029400011D54A060FD52046016851E8002F22F024
:10295000400241E80023002BF6D1C0F884604567AF
:1029600000F0F4F847E7020206D54A0004D52046F5
:10297000BDE8F041FFF79CBEC001C5D50029C3DA10
:102980002046BDE8F041FFF746BE00000100001000
:1029900020010004C933000810B5040003D0D4F8A6
:1029A000840010B107E0012010BD002084F88000F1
:1029B000204600F027F82420C4F88400206801682D
:1029C00021F001010160204600F032FD0128EBD02A
:1029D000A06A10B1204600F063FC2068416821F431
:1029E000904141602068816821F02A01816020685F
:1029F000016841F0010101602046BDE8104000F08F
:102A0000B3BC000010B598B00446142111A8FDF71E
:102A100052FE44216846FDF74EFE1B49206888425D
:102A200030D101200024CDE900046846FEF77EFF86
:102A300008B1FDF7E1FF1548016E41F480410166E0
:102A4000016E01F480411691C16C41F00101C16435
:102A5000C06C11A900F0010016904FF4C0601190F5
:102A60000220CDE912040720CDE914404FF0904038
:102A7000FEF738FD002211462520FEF7BFFE252077
:102A8000FEF7AEFE18B010BD003801400010024045
:102A90002DE9F8430446D0F884001F4616460D463B
:102AA000202851D1DDB1D6B194F8800001284BD057
:102AB000012084F880004FF00008C4F88C802120A9
:102AC000C4F884001834FEF73BFEA6878146E687EB
:102AD00054F8100C183CB0F5805F03D004E00120DE
:102AE000BDE8F883206920B12E46002584F8808057
:102AF00010E00026FAE78021204600F0D3FDB8B9A7
:102B0000C6B116F8010B21688862B4F85600401E61
:102B1000A4F85600B4F856004B464FF00002009758
:102B20000028E8D14FF04001204600F0BBFD30B155
:102B30000320D5E735F8020BC0F30800E3E72020B7
:102B4000C4F884000020CBE70220C9E770470000EA
:102B50003E4D3F4C4FF09047207820B1012828D0BF
:102B600002286FD144E001212846FEF7DFFDC0B105
:102B7000002602212846FEF7D9FDA0B10020064319
:102B800004212846FEF7D2FD78B10020064301213A
:102B90003846FEF7CBFD50B10020064352D001204D
:102BA0004FE00126E5E70120E9E70120EEE70120FB
:102BB000F3E701212846FEF7B9FD4FF0020190B17D
:102BC0002846FEF7B3FD4FF0040160B12846FEF73A
:102BD000ADFD28B101213846FEF7A8FD10B105E092
:102BE000082100E01021206A02F05EFA022028E0AD
:102BF00001212846FEF79AFDD0B100260221284681
:102C0000FEF794FDB0B10020064304212846FEF7EC
:102C10008DFD88B10020064301213846FEF786FD70
:102C200060B1002006430BD060680A30606009E0A4
:102C30000126E3E70120E7E70120ECE70120F1E7C7
:102C4000002020700A2003F0FEFA85E70004004807
:102C50000000002010B501224FF47F410748FEF725
:102C60006AFD074C012204212046FEF764FD204640
:102C70000022BDE810400421FEF75DBD00080048B9
:102C8000000C0048431E4FF4807202FA03F1C0F1B9
:102C90001100C2400A4810B511434288114389B25D
:102CA000418008480160084C012204212046FEF7BB
:102CB00042FD20460022BDE810400421FEF73BBD46
:102CC0000000002014080048000C0048431E4FF686
:102CD000FF6202FA03F1C0F11100C2400A4810B5C8
:102CE000114342881140418008480160084C01228C
:102CF00004212046FEF71FFD20460022BDE81040BB
:102D00000421FEF718BD0000000000201408004850
:102D1000000C00481CB5174D01AC4FF0FF36009475
:102D200033460622E021286A02F056F9019820284D
:102D300004D040280AD080280BD016E00220FFF7EC
:102D4000C5FF642003F07FFA022009E0FFF782FF4D
:102D50000BE00320FFF7BAFF642003F074FA0320AE
:102D6000FFF790FF642003F06EFA0A2003F06BFA7D
:102D7000D5E700000000002000EB8100006E00F0AD
:102D8000F84070478068C0F3C00070478068C0F3A7
:102D9000800070478068C0F380007047C06810F4FE
:102DA000406F01D00020704701207047042303EAE0
:102DB000D15310B518444369C1F3045107248C4022
:102DC000A3438A401343436110BD00EB8100016EB1
:102DD00021F00041114301667047000030B58BB00F
:102DE000002408940994202168460A94FDF763FCA6
:102DF0001D484FF0A041042501604FF40031C0E9A7
:102E00000114C4600461C0E90545047744770121D9
:102E1000016280F82440C462046380F83840C463CF
:102E200080F84040FEF766F808B1FDF7E5FD08A917
:102E30000D480894FDF7E2FD08B1FDF7DDFD0B48F4
:102E4000009006200190072002907F200594CDE994
:102E5000030569460448FDF73DFE002801D0FDF753
:102E6000CBFD0BB030BD0000240100200008302E47
:102E700030B589B020216846FDF71DFC1948184976
:102E8000002401604902C0E90114C4600425046102
:102E9000C0E90545047744770121016280F82440A8
:102EA000C462046380F83840C46380F84040FEF791
:102EB00021F808B1FDF7A0FD0B4800900620019015
:102EC000072002907F200594CDE903056946054857
:102ED000FDF700FE002801D0FDF78EFD09B030BDE2
:102EE00000010050900100200080F03E2DE9F041EB
:102EF00086B014216846FDF7DEFB3648C16C41F010
:102F00000401C164C16C01F004010591C16C41F080
:102F10002001C164C16C01F020010591C16C41F038
:102F20000101C164C16C01F001010591C16C41F066
:102F30000201C164C16C01F002010591C16C41F054
:102F40000801C164C06C244E00F008004FF47F44B7
:102F50000590002221463046FEF7EDFB1F4F01226F
:102F600004213846FEF7E7FBDFF8748001220821D0
:102F70004046FEF7E0FB0125CDE900450024029420
:102F8000694630460394FEF7ADFACDE90054694630
:102F90004FF090400294FEF7A5FA0720CDE9000417
:102FA000694640460294FEF79DFA04200090CDE960
:102FB0000154694638460394FEF794FA08200090BD
:102FC000CDE90154694640460394FEF78BFA06B0FA
:102FD000BDE8F0810010024000080048000C0048E5
:102FE000000400483EB500240F48009401940D49A8
:102FF000029401604F21C0E9011442F20F71846113
:10300000C160FFF796F908B1FDF7F6FC0094694638
:1030100005480294FFF73EF9002801D0FDF7ECFCCB
:103020003EBD000000100040FC010020184810B513
:10303000164901604FF4E1314160002181600C22AA
:10304000C160C0E904128161C161016241628162B3
:10305000FFF7A2FC08B1FDF7CFFC00210C48FFF7F9
:1030600001FB08B1FDF7C8FC00210948FFF7D4FABD
:1030700008B1FDF7C1FC0648FFF7ADFA002803D000
:10308000BDE81040FDF7B8BC10BD0000003801409D
:1030900048020020FEE7FEE710B502F053FA03F005
:1030A000B7FABDE8104002F05BBA10B594B0382111
:1030B0006846FDF700FB14210EA8FDF7FCFA4FF45B
:1030C0000070FEF7CDFB012000900004019002206B
:1030D0000324CDE907041421CDE90A100C900D90CA
:1030E00009946846FEF7B6FE08B172B6FEE70F20F7
:1030F000CDE90E04002010901190129002210EA82C
:10310000FEF758FD002801D072B6FEE714B010BDDE
:1031100030B51A4881681A4B01F00C021949042A8B
:1031200005D0194C082A04D00C2A1BD103E00B60EF
:1031300018E00C6016E0C26802F00305C268C2F332
:103140000312521C022D16D0B4FBF2F2C368C3F373
:1031500006235343C268C2F34162521C5200B3FBC0
:10316000F2F20A608068094AC0F30310105C0A6832
:10317000C2400A6030BDB3FBF2F2E7E70010024044
:103180000024F4003C00002000366E01046E0008AC
:103190000248016841F470010160704788ED00E069
:1031A0000148FFF716B90000FC0100202DE9F043AB
:1031B0000268234B234D244E244C4FF08049984203
:1031C00007D0484505D0A84203D0B04201D0A04264
:1031D00003D122F070074A683A431D4FDFF874C0EC
:1031E000DFF8748098420DD048450BD0A84209D032
:1031F000B04207D0A04205D0B84203D0604501D00C
:10320000404503D122F44075CA682A434D6922F033
:1032100080022A4302608A68C2620A688262984217
:1032200007D0A04205D0B84203D0604501D0404548
:1032300001D10969016301214161BDE8F08300000A
:10324000002C014000040040000800400034014010
:1032500000400140004401400048014030B5416E4B
:10326000B9B1026891689268C1F342610B4B520F89
:103270009C5CE50003F10804A25CB5FBF2F2A0F847
:103280006A205A5C615CD200B2FBF1F1A0F86810D0
:1032900030BD0121A0F86A10F8E70000F46D0008C5
:1032A00090F82810C90706D001684A68C36A22F45A
:1032B00000321A434A6090F82810890706D5016841
:1032C0004A68036B22F480321A434A6090F828104F
:1032D000490706D501684A68436B22F480221A43E5
:1032E0004A6090F82810090706D501684A68836B80
:1032F00022F400421A434A6090F82810C90606D505
:1033000001688A68C36B22F480521A438A6090F87D
:103310002810890606D501688A68036C22F40052D9
:103320001A438A6090F82810490611D501684A6846
:10333000436C22F480121A434A60416CB1F5801F3D
:1033400006D101684A68836C22F4C0021A434A60BD
:1033500090F82810090606D501684A68C06C22F466
:10336000002202434A607047F8B500260446C0F8C0
:103370008C60FEF7E5F90546206800686FF07E472F
:10338000000708D52B4600224FF400112046009775
:1033900000F088F960B92068006840070AD52B461C
:1033A00000224FF480012046009700F07BF908B11D
:1033B0000320F8BD2020C4F88400C4F8880044F835
:1033C0006C6F00202675F8BD10B5806A0021A0F84A
:1033D0005E10A0F85610FFF76DF910BD10B5026829
:1033E00052E8001F21F4907142E80013002BF6D13F
:1033F0000E4B0268083252E8001F194042E80014E0
:10340000002CF6D1C16E012908D1016851E8002FC6
:1034100022F0100241E80023002BF6D12021C0F851
:1034200088100021C166016710BD0000FEFFFFEF9C
:103430002DE9F0410446016880682269E369104380
:10344000626900251A431043DFF82CC20A688B4BCF
:103450001A4002430A6020684168E26821F4405142
:10346000114341602168A069614501D0226A10437F
:103470008A68834B1A4002438A602068C16A626A84
:1034800021F00F011143C1627E4923687E488B42BF
:103490000DD1D0F8880010F0030006D0012855D0D7
:1034A000022842D003283FD152E001203DE0774975
:1034B0008B420BD1D0F8880010F00C0035D00428D6
:1034C00033D0082840D00C282ED141E070498B42DF
:1034D0000BD1D0F8880010F0300026D0102835D05D
:1034E000202831D030281FD132E06A498B420BD1DD
:1034F000D0F8880010F0C00017D0402826D08028CF
:1035000022D0C02810D123E063450DD1D0F8880027
:1035100010F4406009D0B0F5806F17D0B0F5006F9F
:1035200012D0B0F5406F13D010205B495B4F0026DE
:103530004FF4004263453BD160B1022813D0042808
:103540000BD0082872D10DE00220EEE70420ECE752
:103550000820EAE7FEF722FC01E0FEF743FC010049
:1035600001D17CE01146606A37F810206768B1FB32
:10357000F2F007EB4703834270D8B0EB073F6DD8FA
:10358000002308461946FCF731FF090241EA1061A1
:1035900002027808101871413A460023FCF726FF12
:1035A0003F4AA0F54071914258D82168C86056E062
:1035B000E3694FF6EF7893422CD109284ED2DFE829
:1035C00000F00508114D0D4D4D4D1000FEF7E6FBC6
:1035D00001E0FEF7F5FB010004D140E0FEF702FC3C
:1035E000F9E71146606A37F81000B1FBF0F04100CE
:1035F000606801EB5001B1FBF0F0A0F11001414512
:103600002CD84FF6F0710140C0F34200014320680E
:10361000C16024E0092821D2DFE800F0050912206A
:103620000E2020201100FEF7B9FB02E016E0FEF7A5
:10363000C7FB010004D112E0FEF7D4FBF9E7114605
:10364000606A37F81000B1FBF0F1606801EB5001DF
:10365000B1FBF0F0A0F1100141450AD9012501208C
:10366000A4F86A0024F8680F2846A660E660BDE862
:10367000F08180B299E7000000800040F369FFCF3D
:10368000FFF4FF11003801400010024000440040E8
:1036900000480040004C00400024F400DC6D0008AD
:1036A000FFFC0F002DE9F0479A4617460E460446E8
:1036B0004FF000094FF02008089D4AE0681C48D0F0
:1036C000FEF73EF8A0EB0A00A8422AD84DB32068C6
:1036D000016849073DD5C069C043000539D4216858
:1036E0004FF400600862206850E8001F21F4D07198
:1036F00040E80012002AF6D12068083050E8001F88
:1037000021F0010140E80012002AF5D144F8848F2D
:10371000C4F80480C4F8088004F8049C0320BDE8C1
:10372000F087216851E8000F20F4D07041E80002D2
:10373000002AF6D12068083050E8001F21F001016E
:1037400040E80012002AF5D144F8848FC4F80480C0
:10375000E2E72068C06936EA000004D00020B842E1
:10376000ACD00020DBE70120F9E700000148FEF7BC
:10377000A3BF000048020020FEE70907090E002849
:1037800004DB00F1E02080F80014704700F00F0027
:1037900000F1E02080F8141D70470000002807D0D9
:1037A0000E4910F0FF0F04D051FA80F00078401C51
:1037B000704710F47F4F04D0C0F30720085C093035
:1037C000704710F47F0F04D0C0F30740085C11303D
:1037D000704701EB10600078193070471C6E0008CC
:1037E0002DE9F04F89B092468B460646002400E052
:1037F000641C305D202803D0092801D05C45F7D334
:103800004FF0FF387CB3194804F10609184F0568DA
:1038100011E0062217A12868FCF7A2FE50B928681B
:1038200022463146801DFCF79BFE18B9296811F825
:10383000090020B10C3538688542EAD314E0AC6841
:103840008CB120216846FCF736FF6A46594630465F
:1038500001F02EFA38B16946A047CAF800000020EE
:1038600009B0BDE8F08FFFE74046F9E70C01002002
:10387000100100205F5F636D645F00002DE9FC4173
:103880001F460446DDE90831DDE90A651430406071
:103890000060C4E90827C4E90A310A462321184612
:1038A0001C3401F0A5FFD4E903014218D4E9010159
:1038B0000D4B121F01F028FE2060A67666760020D0
:1038C000A562E061E56260612076E06520661C3CEF
:1038D000009023460190054A194604F14C0002F07D
:1038E00042FF0020BDE8FC81F9620008176500086E
:1038F00010B5029C24F001044472C0E907120021B3
:10390000C0E9093114304060006010BD143001F08E
:10391000AEBE70B50546FCF7CFFCA96F044609B1F1
:10392000284688472046BDE87040FCF7C9BC000027
:1039300010B51BA001F054FE1C4C21781CA001F016
:103940004FFE2078C00702D01FA001F049FE20786A
:10395000800702D51FA001F043FE2078400702D562
:103960001FA001F03DFE2078000702D520A001F045
:1039700037FE2078C00602D520A001F031FE207865
:10398000000607D509480F300168BDE810401DA0AA
:1039900001F026BEBDE810401EA001F021BE0000CF
:1039A000627573206661756C743A0A0029ED00E057
:1039B0005343425F434653525F424653523A307834
:1039C00025303258200000004942555345525220BC
:1039D0000000000050524543495345525220000018
:1039E000494D505245434953455252200000000072
:1039F000554E53544B4552522000000053544B45F2
:103A0000525220005343422D3E424641523A253005
:103A100038580A000A00000010B500F021FC002010
:103A200010BD10B500F0F0FD002010BD104810B51D
:103A3000416991F82110890703D40E4900200870CC
:103A400013E0016921B180220A48FCF75BFE0CE01B
:103A500001F02CF908B108A100E009A10548FCF724
:103A60003CFD09A10348FCF7C6FD024810BD00005B
:103A70000C010020084500206D7368200000000044
:103A800066696E73682000003E00000003494969C2
:103A900011F8212F60F341020A7070470C010020D9
:103AA000014AC2E9000170470C0100207CB51649AB
:103AB0001648FFF7F5FF7821012001F045FA144C74
:103AC0006061D0B10A211520CDE900014FF4806377
:103AD0000022104910A002F092FB054600231A466E
:103AE0000FA1606902F074F90120FFF7CFFF15B153
:103AF000284602F0D9FC00207CBD0BA001F070FD2F
:103B00004FF0FF307CBD0000D0730008C872000881
:103B10000C010020413B0008747368656C6C000068
:103B200073687278000000006E6F206D656D6F72B3
:103B30007920666F72207368656C6C0A0000000063
:103B4000984D686910F8211F41F001010170FFF7DD
:103B50006DFF01F045FD002601F092FB0400FBD44F
:103B60001B2C07D0686990F82010012907D0022982
:103B70000ED017E06969012081F82000ECE75B2C8A
:103B800002D080F820600DE0022180F82010E3E7E9
:103B900080F82060412CDFD0422CDDD0442C38D07E
:103BA000432C43D0002CD7D0FF2CD5D0092C4ED09D
:103BB0007F2C75D0082C73D00D2C70D00A2CFCD023
:103BC000B0F87210502901D3A0F87260B0F87430C8
:103BD000B0F872108B427DD2CA1A00F12201233054
:103BE0001944184401F0EAFD6869B0F874102230F5
:103BF0000C54686990F82110C90706D0B0F8741009
:103C00002230014468A001F0EBFC6869B0F8744010
:103C1000A5E0B0F8740000289ED064A001F0E0FC9C
:103C2000686930F8741F491E018095E7B0F8741078
:103C3000B0F8722091428FD22230095C5CA001F072
:103C4000CFFC696931F8740F401C088084E70024B8
:103C500003E056A001F0C4FC641C6869B0F874006D
:103C6000A042F6DC6C6953A0223401F0B9FC01F0EB
:103C70001DF8012802D1204600F054FFFFF7D6FEC0
:103C8000014622464CA001F0ABFC68692230FCF7EB
:103C900048FC696921F8720F48805DE700E03DE06B
:103CA000B0F87420002AC0D0B0F87210521E491E1D
:103CB00089B293B2A0F87210A0F87430994224D956
:103CC000CA1A00F1230122301944184401F076FD8C
:103CD000686900E049E0B0F8721022300E5468695B
:103CE000B0F874102230014435A001F079FC686905
:103CF000B0F8744003E02DA001F072FC641C686908
:103D0000B0F87200A04290DBF5E72FA001F068FC4C
:103D10006869B0F8721022300E541DE700F0C6FF3B
:103D200001280DD1686990F82100C00702D021A0B8
:103D300001F056FC6869B0F87210223000F048FFBC
:103D4000FFF774FE01F04CFC686950212230FCF74B
:103D500090FC686922E015A001F042FC641C6869CF
:103D6000B0F87200A042F6DC0AE022300C54686918
:103D700090F82100C00703D021460DA001F030FCCF
:103D80006869B0F87210491C89B2A0F87210B0F8D6
:103D90007420521CA0F874205029BED320F8726FF2
:103DA0004680D9E60C0100202573000008000000C1
:103DB000256300000A000000257325730000000041
:103DC00008257320200800000820080010B5124CB8
:103DD0002068800702D511A001F002FC2068400095
:103DE00011D50D48C01E007808B1FFF7A1FD0A48A3
:103DF000001F007808B100F029FE0748801E0088E7
:103E000008B102F079FF2068002804DABDE810400C
:103E100008A001F0E5BB10BD2CED00E06661696C07
:103E2000656420766563746F722066657463680AE2
:103E3000000000006465627567206576656E740A2F
:103E40000000000010B502A001F0CAFB002010BD68
:103E500048656C6C6F2052542D5468726561642102
:103E60000A0000001CB51B4C1B4F01AD4FF0FF3684
:103E70000095334606221E21206A01F0ADF8019814
:103E8000022822D0042804D0082817D0102817D0E0
:103E90001BE00A21E06901F038FEE069C07FFF28DD
:103EA00013D2C00705D00DA001F09AFB012060706D
:103EB0000BE00EA001F094FB0020F8E7002200E0E8
:103EC000012208213846FDF736FC0A2002F0BBF932
:103ED000CEE700000000002000040048BDE7C3E674
:103EE00032A3BAE3D0D6B50A00000000BDE7C3E6AE
:103EF00031A3BAB5E7D1B90A0000000070B50CA033
:103F000001F06EFB0F48104D04680BE002220FA178
:103F10002068FCF725FB20B1D4E900120CA001F0C9
:103F20005FFB0C3428688442F0D3002070BD000091
:103F30002D2D46756E6374696F6E204C6973743AEB
:103F40000A0000000C010020100100205F5F00004B
:103F5000252D313673202D2D2025730A00000000F9
:103F60002DE9F04194B000262BA408230BAA0421CC
:103F700005A800F08DF8082080460146224628A0BA
:103F800001F02EFB404600F0FBFE2EA001F028FBC6
:103F900005A9304600F08EF80646002533E00BA850
:103FA00050F825400C3CFCF787F9217A9DF81C203D
:103FB00021F08001914202D0FCF782F922E0FCF767
:103FC0007FF904F1140061690746814212D0384636
:103FD00001F032FBE169CDE9001023460822414699
:103FE00020A001F0FDFA384602F0D6FD14A001F041
:103FF000F7FA07E0E06900902346082241461FA037
:1040000001F0EEFA6D1C0998A842C8DC002EBFD161
:1040100014B00020BDE8F0816576656E7400000084
:10402000252D2A2E73202020202020736574202027
:10403000202073757370656E6420746872656164A6
:104040000A00000020202D2D2D2D2D2D2D2D2D2D64
:10405000202D2D2D2D2D2D2D2D2D2D2D2D2D2D0AC0
:1040600000000000252D2A2E2A73202030782530CC
:10407000387820253033643A00000000252D2A2EA0
:104080002A73202030782530387820300A0000004C
:104090002DE9F04104461E4617460D46084601F03C
:1040A000DDFD001D2060257200206760C4E903600B
:1040B000BDE8F0812DE9F0410D4600212961E96854
:1040C00091B1297A81B12E6888B10446FCF7F4F8E1
:1040D0000146A4F10C002A7A007A20F08000904278
:1040E00009D00846FCF7ECF80020BDE8F081344622
:1040F000FCF7E2F80146686800272468B44201D161
:10410000002404E010C0EA687F1CBA42F5D10846DA
:10411000FCF7D6F820462F61E7E700002DE9F041D3
:1041200096B000262FA408230CAA052106A8FFF7A5
:10413000AFFF08208046014622462CA001F050FA2D
:10414000404600F01DFE32A001F04AFA06A93046B2
:10415000FFF7B0FF064600253BE00CA850F82540CD
:104160000C3CFCF7A9F80146207A9DF8202020F0AD
:1041700080009042084602D0FCF7A2F828E0FCF745
:104180009FF8606904F11407B842384613D001F073
:1041900053FA228C618C0091CDE90120234608223C
:1041A000414622A001F01CFA384602F0F5FC25A099
:1041B00001F016FA0CE001F03FFA218C628CCDE997
:1041C000002102902346082241461FA001F008FA70
:1041D0006D1C0A98A842C0DC002EB7D116B0002092
:1041E000BDE8F0816D61696C626F7800252D2A2E23
:1041F0007320656E7472792073697A6520737573A4
:1042000070656E64207468726561640A0000000065
:10421000202D2D2D2D20202D2D2D2D202D2D2D2D02
:104220002D2D2D2D2D2D2D2D2D2D0A00252D2A2E18
:104230002A732025303464202025303464202564FE
:104240003A0000000A000000252D2A2E2A7320259E
:104250003034642020253034642025640A000000B6
:1042600010B5074C07A0E16801F0BAF90AA021696E
:1042700001F0B6F96169BDE810400CA001F0B0B9D9
:1042800048000020746F74616C206D656D6F7279E9
:104290003A2025640A00000075736564206D656D21
:1042A0006F7279203A2025640A0000006D617869F8
:1042B0006D756D20616C6C6F6361746564206D65F4
:1042C0006D6F72793A2025640A0000002DE9F041F3
:1042D00094B000262CA408230BAA062105A8FFF7FA
:1042E000D7FE08208046014622462AA001F078F930
:1042F000404600F045FD2EA001F072F905A93046B8
:10430000FFF7D8FE0646002535E00BA850F82540FB
:104310000C3CFBF7D1FF217A9DF81C2021F0800195
:10432000914202D0FBF7CCFF24E0FBF7C9FF6069A4
:1043300004F11407B842384611D001F07DF9A18C80
:10434000CDE900102346082241461FA001F048F99C
:10435000384602F021FC21A001F042F90AE001F008
:104360006BF9A18CCDE900102346082241461CA020
:1043700001F036F96D1C0998A842C6DC002EBDD1AB
:1043800014B00020BDE8F0816D73677175657565C7
:1043900000000000252D2A2E7320656E747279208E
:1043A00073757370656E64207468726561640A0069
:1043B000202D2D2D2D20202D2D2D2D2D2D2D2D2D54
:1043C0002D2D2D2D2D0A0000252D2A2E2A73202576
:1043D000303464202025643A000000000A00000008
:1043E000252D2A2E2A732025303464202025640AA6
:1043F00000000000F0B595B0002623A408230DAA04
:10440000032107A8FFF744FE08272246394620A0CB
:1044100001F0E6F8384600F0B3FC26A001F0E0F821
:1044200007A93046FFF746FE0646002523E00DA803
:1044300050F825400C3CFBF73FFF217A9DF82420E3
:1044400021F08001914202D0FBF73AFF12E0FBF726
:1044500037FF04F1140001F0EFF8E17F226A08232E
:10446000CDE90032CDE9021023460822394619A0D1
:1044700001F0B6F86D1C0B98A842D8DC002ECFD105
:1044800015B00020F0BD00006D7574657800000067
:10449000252D2A2E732020206F776E6572202068CC
:1044A0006F6C642073757370656E642074687265D8
:1044B00061640A00202D2D2D2D2D2D2D2D202D2D2B
:1044C0002D2D202D2D2D2D2D2D2D2D2D2D2D2D2D29
:1044D0002D0A0000252D2A2E2A7320252D382E2A5C
:1044E0007320253034642025640A00002DE9F04152
:1044F00094B000262CA408230BAA022105A8FFF7DC
:10450000C7FD08208046014622462AA001F068F82F
:10451000404600F035FC2EA001F062F805A93046B7
:10452000FFF7C8FD0646002535E00BA850F82540EA
:104530000C3CFBF7C1FE217A9DF81C2021F0800184
:10454000914202D0FBF7BCFE24E0FBF7B9FE6069A4
:1045500004F11407B842384611D001F06DF8A18B70
:10456000CDE900102346082241461FA001F038F88B
:10457000384602F011FB15A001F032F80AE001F014
:104580005BF8A18BCDE900102346082241461AA012
:1045900001F026F86D1C0998A842C6DC002EBDD19A
:1045A00014B00020BDE8F08173656D6170686F72B2
:1045B00065000000252D2A2E73207620202073759B
:1045C0007370656E64207468726561640A0000002F
:1045D000202D2D2D202D2D2D2D2D2D2D2D2D2D2D25
:1045E0002D2D2D0A00000000252D2A2E2A732025AE
:1045F0003033642025643A00252D2A2E2A73202585
:104600003033642025640A002DE9F041B6B000265D
:104610003CA408232EAA012128A8FFF739FD082071
:10462000804601462246394800F0DAFF404600F055
:10463000A7FB37A000F0D4FF28A93046FFF73AFDCA
:104640000646002554E02EA850F825400C3CFBF708
:1046500033FE0746207A9DF8A81020F0800088429B
:1046600003D03846FBF72CFE41E08022214604A807
:10467000FBF7CDFF3846FBF723FE94F8350000909A
:1046800023460822414632A000F0AAFF94F83400E5
:1046900000F00F00012807D0022807D040B10428FD
:1046A00008D0032808D00AE02CA006E02EA004E0E1
:1046B00030A002E032A000E034A000F091FFA06A38
:1046C000014600E0401C0278232AFBD0E26A401A2F
:1046D000101A64235843B0FBF2F3276BA06CCDE9AA
:1046E0000007E069081A81182BA000F079FF6D1C03
:1046F0002C98A842A7DC002E9ED136B00020BDE841
:10470000F08100007468726561640000406F000809
:10471000202D2D2D20202D2D2D2D2D2D2D202D2DFD
:104720002D2D2D2D2D2D2D2D202D2D2D2D2D2D2DC6
:104730002D2D2D20202D2D2D2D2D2D20202D2D2DDD
:104740002D2D2D2D2D2D2D202D2D2D0A000000007D
:10475000252D2A2E2A7320253364200020726561BE
:1047600064792020000000002073757370656E640A
:104770000000000020696E69742020200000000005
:1047800020636C6F73652020000000002072756E3E
:104790006E696E6700000000203078253038782080
:1047A00030782530387820202020253032642525A7
:1047B00020202030782530387820253033640A00D6
:1047C000F0B593B0002626A408230BAA0A2104A85A
:1047D000FFF75EFC08272246394623A000F000FFC1
:1047E000384600F0CDFA2AA000F0FAFE04A93046BF
:1047F000FFF760FC0646002524E00BA850F8254092
:104800000C3CFBF759FD217A9DF8182021F080011E
:10481000914202D0FBF754FD13E0FBF751FDD4E9C0
:104820000901CDE9000123460822394621A000F004
:10483000D7FE607AC00701D024A000E026A000F0D7
:10484000CFFE6D1C0898A842D7DC002ECED101F017
:10485000D9FE014624A000F0C3FE13B00020F0BD35
:1048600074696D6572000000252D2A2E732020705A
:104870006572696F64696320202074696D656F7566
:104880007420202020202020666C61670A00000030
:10489000202D2D2D2D2D2D2D2D2D2D202D2D2D2D62
:1048A0002D2D2D2D2D2D202D2D2D2D2D2D2D2D2D45
:1048B0002D2D0A00252D2A2E2A73203078253038F8
:1048C00078203078253038782000000061637469E2
:1048D00076617465640A0000646561637469766179
:1048E0007465640A0000000063757272656E74205E
:1048F0007469636B3A3078253038780A000000001C
:104900002DE9FC41FCF722FFFEF7CFFBFEF7EEFAA4
:10491000FEF768FBFEF78AFBFEF760FAFEF7A8FADF
:10492000FEF798F900231422282128A000F083FF25
:10493000284C0021A06128A000F03EFB0421206249
:1049400000F0B2FB002127A001F0CAF8E0611425B5
:104950000326CDE900654FF480773B4600222449C9
:1049600024A001F04CFCE06001F09EFDCDE9006563
:104970003B460022234924A001F041FCA06001F045
:1049800093FDCDE900653B460022224922A001F0BB
:1049900036FC206101F088FD062000904FF47A7308
:1049A00000221F491FA001F0B3FE606201F0FEFE6D
:1049B000CDE900653B4600221F490EA001F01FFC17
:1049C000606101F071FD0020BDE8FC816164635FFE
:1049D0006D710000000000206B65795F6576656E83
:1049E00074000000746573745F6D75746578000001
:1049F000512B00084B65795363616E5F7468726573
:104A000061640000653E00086B65795F74687265DB
:104A100061640000556B000873656E64000000005F
:104A2000F16B00087377746D725F6164635F63613B
:104A30006C6C6261636B0000152D000810B500F00E
:104A40009FFABDE81040FFF75BBF000010B518A04B
:104A500000F0C6FD1B4C21781BA000F0C1FD2078A2
:104A6000C00702D01EA000F0BBFD2078800702D551
:104A70001EA000F0B5FD2078000702D51EA000F0B2
:104A8000AFFD2078C00602D51EA000F0A9FD207859
:104A9000000607D50B480C300168BDE810401CA08B
:104AA00000F09EBDBDE810401D4800F099BD00001B
:104AB0006D656D206D616E616765206661756C74F2
:104AC0003A0A000028ED00E05343425F4346535248
:104AD0005F4D4653523A307825303258200000005E
:104AE0004941434356494F4C200000004441434351
:104AF00056494F4C200000004D554E53544B4552E3
:104B0000522000004D53544B4552522000000000EB
:104B10005343422D3E4D4D41523A253038580A00FC
:104B2000686D00082DE9F0478046002500782C4686
:104B300018B12248224F066831E0BDE8F047002155
:104B4000084600F077B806221EA13068FBF708FD82
:104B500020BB306800F106094046FBF7E2FC024644
:104B600049464046FBF7FCFCC0B925B94C464846CF
:104B7000FBF7D7FC05464946204601E0401C491C8E
:104B800002781AB10B780BB19A42F7D0001BA842F9
:104B900000DA054649460DA000F022FD0C363868C3
:104BA0008642D0D3002C06D02A4621464046BDE896
:104BB000F04701F029BABDE8F08700000C010020A1
:104BC000100100205F5F636D645F000025730A00C1
:104BD00038B5044601E0491E641C59B120782028EC
:104BE000F9D00928F7D06A462046FEF7F9FD18B13A
:104BF000204604E0002038BD009838BD401C0178F4
:104C0000202901D00029F9D100210170214603A0FB
:104C100000F0E6FC4FF0FF3038BD000025733A206D
:104C2000636F6D6D616E64206E6F7420666F756E5C
:104C3000642E0A0070B50EA000F0D2FC1348144D8B
:104C400004680CE0062213A12068FBF789FC28B950
:104C5000D4E9001211A0891D00F0C2FC0C342868B0
:104C60008442EFD310A000F0BBFC002070BD000018
:104C700052542D546872656164207368656C6C20B1
:104C8000636F6D6D616E64733A0A00000C01002061
:104C9000100100205F5F636D645F0000252D3136D9
:104CA00073202D2025730A000A00000001207047A0
:104CB00070B5002315461C461A464BE000F8012B40
:104CC0005B1C0678202E01D0092E01D18B42F5D332
:104CD000082C11D321A000F083FC002606E000BFC1
:104CE00055F8261025A000F07BFC761CA642F7D3D1
:104CF00021A000F075FC2FE08B422DD2F6B2222EBF
:104D000003D045F82400641C1BE0401C45F8240037
:104D10005B1C641C08E05C2E04D14678222E01D175
:104D2000401C5B1C401C5B1C0678222E01D08B4271
:104D3000F1D38B4210D200F8012B5B1C0AE0401C1F
:104D40005B1C0678202E03D0092E01D08B42F6D3AF
:104D50008B4201D28B42B4D3204670BD546F6F207A
:104D60006D616E7920617267732021205765206F15
:104D70006E6C79205573653A0A0000002573200097
:104D800010B5044602E003A000F02AFC641EFAD22B
:104D900010BD00002D00000030B5134943680A68BB
:104DA000134402F1080498420DD05D885DB94D6846
:104DB000AB4208D08D689D4200D188605D68456037
:104DC0005B68851A1D518368134483420BD05D884C
:104DD000002D08D18D68854200D18B6041685960F3
:104DE0004068991A015130BD480000202DE9F04F6C
:104DF00085B09946DDE90EA5109CAB46630602D549
:104E0000DFF814C103E0DFF810C1ACF1110CE306C8
:104E100001D524F00104E30701D0302300E0202372
:104E200000260493A3070BD5002A02DA2D2652424E
:104E300006E0630701D52B2602E0230700D52026D4
:104E40000023EE4622B930228DF8002001230CE029
:104E5000B9F10A0F14D002F00F0812091CF80880EB
:104E60000EF803805B1C002AF2D1AB4200DD1D4628
:104E7000AAEB050214F0110F4FF0200708D015E03F
:104E80000A27B2FBF7F807FB1828B2FBF7F2E5E7B1
:104E90003EB1002A05DD521E03E0884200D20770B1
:104EA000401CB2F1000CA2F10102F6DC26B18842EE
:104EB00000D20670401C521EE40605D508E0884268
:104EC00001D2049C0470401C141EA2F10102F6DC05
:104ED00030242E466D1E9E420ADD884200D20470A8
:104EE000401CF6E7884201D2E55C0570401C00E0FA
:104EF00074461D1EA3F1010307DDBBF1000FF1D1C4
:104F000003E0884200D20770401C131EA2F1010288
:104F1000F7DC05B0BDE8F08F2D6F00081CB514213B
:104F20000A20CDE900014FF480630022034904A068
:104F300001F065F9BDE81C4001F0B6BA3D4A000831
:104F40006D61696E0000000070B54843044600F0D2
:104F500097FB050003D02246002100F049FC2846BB
:104F600070BD000070B5044C044D02E0206880471D
:104F7000241DAC42FAD370BDB4720008BC720008A4
:104F800070B5044C044D02E020688047241DAC42FB
:104F9000FAD370BDBC720008C472000810B5FBF7EC
:104FA0008BF9044A5188491C5180BDE81040FBF739
:104FB00087B90000D000002010B50C46014604203F
:104FC00000F001FE002806D0447200F11401816156
:104FD00041610021C16110BD2DE9FF470546DDF8A3
:104FE000308017460E004FF0FF3052D001F036FAF5
:104FF000044600202063FBF75FF98146F80704D0E0
:10500000E86936EA000005D016E0B80714D5E8696B
:10501000304211D0B8F1000F03D0E8693040C8F831
:105020000000E8693040E06384F8407078072CD5D0
:10503000E869B043E86128E0039868B3E66384F860
:1050400040706A7A214605F1140000F09FFA039837
:10505000002809DD04F14C0003AA0021054601F0F7
:1050600033FB284601F0A2FB4846FBF729F900F084
:1050700037FE206B00280CD1FBF71EF98146B8F1F2
:10508000000F02D0E16BC8F800104846FBF718F992
:10509000206B04B0BDE8F0876FF00105484625633A
:1050A000FBF70EF92846F4E72DE9F04105460C0020
:1050B0004FF0FF302BD00027FBF7FEF88046E86961
:1050C00005F114062043E8616C69B44216D130E062
:1050D00094F82C10A4F11400CA071AD0C16BEA6925
:1050E000914324D190F840102468490703D5E96919
:1050F000C26B9143E96101F092F90127B442E7D113
:105100004046FBF7DDF80FB100F0EAFD0020BDE8F6
:10511000F081890705D5C16BEA69114007D0C163E9
:10512000E0E74046FBF7CCF86FF00900EFE72468B2
:10513000E4E74046FBF7C4F8E8E7000010B5FBF7EA
:10514000BBF80B4C6188491E09B2618000290ADC5A
:1051500000216180FBF7B4F86068002807D0BDE843
:10516000104000F0BDBDBDE81040FBF7A9B810BD70
:10517000D000002070B5002833D01A4D296888422D
:105180002FD3696888422CD2A0F10C044FF0FF3174
:10519000154800F053FE60884FF4F55610B1208892
:1051A000B04208D011A000F01BFA23886288214683
:1051B00015A000F015FA002060802680A8688442BF
:1051C00000D2AC6029686068611A401A2969081A1F
:1051D00028612046FFF7E0FDBDE87040024800F07E
:1051E00009BE70BD48000020D8040020746F2066FE
:1051F000726565206120626164206461746120626F
:105200006C6F636B3A0A00006D656D3A203078254B
:105210003038782C207573656420666C61673A209D
:1052200025642C206D6167696320636F64653A2093
:105230003078253034780A0000487047780800201C
:10524000004870477844002010B5FCF77FFAFDF75E
:105250002CFFFDF75DFFFCF79BFD4FF47A71B0FB6F
:10526000F1F0FCF7FDFFFFF77DFEFFF7E9FF0446D5
:10527000FFF7E2FF2146BDE8104000F0D9BE000074
:10528000084810B500684FF0FF34C169C94389066A
:1052900002D4406AC4B202E00A2001F0B9F8E0B2D8
:1052A00010BD000078440020F8B506460D200F49D7
:1052B0008DF80000002481F88040304600F09CFE0C
:1052C00005460FE0305D0A2805D101231A466946DC
:1052D0000648FDF7DDFB012331191A460348FDF7A7
:1052E000D7FB641CAC42EDD3F8BD0000784400202D
:1052F00070B531490546283009682C1D11B1884721
:10530000002857D02DA0216C00F06AF92FA0616A07
:1053100000F066F931A0A16A00F062F933A0E16AF9
:1053200000F05EF935A0216B00F05AF937A06168F2
:1053300000F056F939A0A16800F052F93BA0E168ED
:1053400000F04EF93DA0216900F04AF93FA06169E3
:1053500000F046F941A0A16900F042F943A0E169DB
:1053600000F03EF945A0216A00F03AF947A0616BD0
:1053700000F036F949A0A16B00F032F94BA0E16BC7
:1053800000F02EF92878400708D501F067F80146AB
:105390004AA000F025F9FFF737F902E04FA000F02E
:1053A0001FF92878C00602D453A000F019F9FEF7BF
:1053B0000DFDFEE770BD0000FC0000207073723A26
:1053C000203078253038780A000000007230303AFA
:1053D000203078253038780A000000007230313AE9
:1053E000203078253038780A000000007230323AD8
:1053F000203078253038780A000000007230333AC7
:10540000203078253038780A000000007230343AB5
:10541000203078253038780A000000007230353AA4
:10542000203078253038780A000000007230363A93
:10543000203078253038780A000000007230373A82
:10544000203078253038780A000000007230383A71
:10545000203078253038780A000000007230393A60
:10546000203078253038780A000000007231303A58
:10547000203078253038780A000000007231313A47
:10548000203078253038780A000000007231323A36
:10549000203078253038780A00000000206C723AFD
:1054A000203078253038780A000000002070633AF8
:1054B000203078253038780A000000006861726476
:1054C000206661756C74206F6E207468726561640B
:1054D0003A2025730D0A0D0A00000000686172640D
:1054E000206661756C74206F6E2068616E646C65F7
:1054F000720D0A0D0A000000465055206163746960
:105500007665210D0A00000070B50446121D22F0D8
:10551000070000220A4D443840F82250521C112A3C
:10552000FAD3416200218162C16200F13402016359
:1055300082E81A004FF080730364016070BD0000C0
:10554000EFBEADDE10B5FAF7B7FE044A1178491C7C
:105550001170BDE81040FAF7B3BE0000440000200F
:1055600010B5FAF7A9FE044A1178491E1170BDE87A
:105570001040FAF7A5BE00004400002010B50068F6
:10558000143800F04CFF002010BD00002DE9F04160
:10559000064614460D46084600F09CFF05F1140728
:1055A000B4B1012C18D134680EE000BF95F8351065
:1055B00094F82120A4F11400914204D23946143009
:1055C00000F033F802E02468B442EFD1B44203D1D2
:1055D0003946304600F029F80020BDE8F08100008F
:1055E0000FB47F2110B503AB0448029A01F052F9C1
:1055F0000248FFF759FE10BC5DF814FB5804002068
:105600000268516002680A60016048607047026881
:10561000516002680A60016048607047026851602A
:1056200002680A6001604860704742681160426821
:105630004A604160086070470246002100E0491C52
:1056400000689042FBD108467047D0E900124A60DA
:10565000D0E900121160406000607047D0E900128C
:105660004A60D0E900121160406000607047D0E9E4
:1056700000124A60D0E9001211604060006070477B
:105680002DE9F047002807D0374CC01C20F0030656
:10569000E068864202D90020BDE8F0870C2E00D2D7
:1056A0000C264FF0FF31314800F0C8FBD4F808C099
:1056B0002168E768ACEB0100BA1B4FE00D186B885E
:1056C000E3BB6B681B1A0C3BB34246D36A6806F116
:1056D0001803121A0C3A4FF001094FF4F55A9A4286
:1056E0002DD383190C33CA184FF00008A2F800A07C
:1056F000A2F80280D5F80480C2E901806B60A5F8A9
:10570000029050680C37B84202D001F10802835071
:10571000206930440C3020616269824200D26061AD
:10572000A5F800A0654512D1A06842887AB16268E8
:1057300090420CD040680844A060F6E70DE0A5F860
:10574000029068686A1A801A22691044E3E70748E1
:1057500000F050FB05F10C009EE768688242ADD86E
:10576000024800F047FB96E748000020D8040020DC
:1057700010B50346102A1DD341EA0304A40719D12A
:1057800010C9103A10C310C9102A10C351F8084BA1
:1057900043F8084B51F8044C43F8044CF0D202E0B3
:1057A00010C9121F10C3042AFAD203E011F8014BEA
:1057B00003F8014B521EF9D210BD000010B503468C
:1057C000994211D28C189C420ED9811804E000BF76
:1057D00014F8013D01F8013D521EF9D210BD00BF81
:1057E00011F8014B03F8014B521EF9D210BD000015
:1057F00010B50346CCB2042A1AD3810718D1194632
:1058000044EA042343EA034306E008C1103A08C10E
:1058100041F8083B41F8043C102AF6D201E008C1E7
:10582000121F042AFBD20B4602E000BF03F8014B13
:10583000521EFBD210BD2DE9F0410D4601461F4618
:105840001646062000F0BFF904001BD0677204F171
:105850001400A06160614FF6FC70ED1C0540B1B210
:105860002584281D61844843FFF70AFFE06128B1C1
:105870000021A162E162084621630EE0204600F0AB
:10588000CAF90020BDE8F081228CE369121D00FBFB
:105890000232236B1360401C2263628C8242F3DC71
:1058A000A18404F13400A06360632046EAE70000AD
:1058B0002DE9FF5F164604464FF0000A00F0CEFDCA
:1058C0000546FAF7F9FC0746A08C03996FF0010929
:1058D00008434FF000083BD13846FAF7F1FC484640
:1058E00004B0BDE8F09F00BFC5F8308003980028E1
:1058F0005BD0627A294604F11400FFF747FE039853
:1059000000280CDD00F07EFE824605F14C0003AA63
:105910000021834600F0D8FE584600F047FF384685
:10592000FAF7CEFC00F0DCF9286B0028D8D1FAF7A2
:10593000C3FC0746039800280ADD00F063FEA0EBD5
:105940000A0A0398B0EB0A00039001D5CDF80C8049
:10595000A08C0028C8D0A56A2868A062E06AA84286
:1059600001D1C4F82C80A08C401EA0843846FAF7E0
:10597000A7FC208CB04200D206463246291D019871
:10598000FFF7F6FEFAF798FC0646206B28602563C1
:10599000616B04F1340081420ED0FFF7EFFD304619
:1059A000FAF78EFC00F09CF909E03846FAF788FC1B
:1059B0004846C5F8309093E73046FAF781FC00205E
:1059C0008EE70023AFF300802DE9FF4F018C934653
:1059D00081B00446594504D24FF0FF3005B0BDE810
:1059E000F08F4FF0000800F039FD0646FAF764FC2E
:1059F0000746206B04996FF0020A0843414618D00D
:105A00008946256BBDB1286820633846FAF758FCF3
:105A1000C5F800905A46281D0299FFF7A9FEFAF72B
:105A20004BFC0646E06A00B10560E562A06AB8B3C7
:105A300038E038464BE0C6F8309004984D460028D0
:105A4000F7D0627A314604F13400FFF79FFD0498E5
:105A500000280CDD00F0D6FD804606F14C0004AABB
:105A60000021009000F030FE009800F09FFE3846C4
:105A7000FAF726FC00F034F9306B0028AED1FAF7C3
:105A80001BFC074604980028BBDD00F0BBFDA0EB23
:105A900008080498B0EB08000490B2D50495B0E76C
:105AA000FFE7A562A08C4FF6FF7188420ED2401C22
:105AB000A084616904F1140081420CD0FFF75EFDFF
:105AC0003046FAF7FDFB00F00BF907E03046FAF735
:105AD000F7FB504682E73046FAF7F2FB00207DE7FD
