:020000040800F2
:1000000028450020F1010008C71A0008F502000881
:10001000C51A0008B50400082921000800000000E6
:1000200000000000000000000000000003020008C3
:10003000B70400080000000043020008C91A0008C5
:100040000B0200080B0200080B0200080B0200085C
:100050000B0200080B0200080B0200080B0200084C
:100060000B0200080B0200080B0200080B0200083C
:100070000B0200080B0200080B0200080B0200082C
:100080000B020008000000000B0200080B02000831
:100090000B0200080B0200080B0200080B0200080C
:1000A0000B0200080B0200080B0200080B020008FC
:1000B0000B0200080B0200080B0200080B020008EC
:1000C0000B0200080B0200080B0200080B020008DC
:1000D0000B0200080B0200080B0200080B020008CC
:1000E0000B0200080B0200080B0200080B020008BC
:1000F0000B0200080B0200080B02000800000000C1
:10010000000000000B020008000000000B020008C5
:100110000B02000800000000E91B00080B020008A9
:100120000B0200080B0200080B0200080B0200087B
:100130000B02000800000000000000000B02000895
:100140000B0200080B020008000000000000000085
:10015000000000000000000000000000000000009F
:100160000000000000000000000000000B0200087A
:100170000B0200080000000000000000000000006A
:10018000000000000B02000800000000000000005A
:10019000000000000000000000000000000000005F
:1001A00000000000000000000B0200080B02000825
:1001B0000B0200080B0200080B0200080000000000
:1001C000000000000B02000800000000000000001A
:1001D0000B0200080B020008DFF810D000F016F93F
:1001E0000048004731040008AFF300802845002094
:1001F0000648804706480047FEE7FEE7FEE7FEE7C1
:10020000FEE7FEE7FEE7FEE7FEE7FEE7D91B000894
:10021000D9010008EFF3108072B6704780F31088A0
:100220007047424A1368012B04D04FF0010313605A
:100230003F4A10603F4A11603F484FF080510160D3
:100240007047EFF3108272B63848016851B34FF02F
:10025000000101603648016891B1EFF309811EF099
:10026000100F08BF21ED108B21E9F00F4FF00004B3
:100270001EF0100F08BF012441F8044D0068016012
:100280002C490968096808C9B1E8F00F002B18BFAC
:10029000B1EC108B81F309884EF0100E002B18BFC3
:1002A0002EF0100E82F310884EF0040E7047214994
:1002B0000860EFF3148222F0040282F314881C49D0
:1002C0004FF00000086019494FF0010008601B481A
:1002D0001B49D0F8002041EA0201016016484FF0A6
:1002E0008051016017480068006880F3088861B693
:1002F00062B670471EF0040F0CBFEFF30880EFF3F7
:10030000098020E9F00F40F804ED40F804ED1EF0FC
:10031000040F0CBF80F3088880F3098800B502F051
:10032000B5FA5DF804EB4EF0040E7047A000002013
:10033000980000209C00002004ED00E020ED00E08B
:100340000000FFFF08ED00E02DE9F05F054600200A
:1003500092469B4688460646814640241BE0284636
:1003600041464746224600F041F853465A46C01AD5
:10037000914110D311461846224600F028F82D1A54
:1003800067EB01084F4622460120002100F01FF8CC
:1003900017EB00094E41201EA4F10104DFDC4846A2
:1003A00031462A464346BDE8F09FD2B201E000F84C
:1003B000012B491EFBD270470022F6E710B5134609
:1003C0000A4604461946FFF7F0FF204610BD202AD2
:1003D00004DB203A00FA02F1002070479140C2F19C
:1003E000200320FA03F3194390407047202A04DBCE
:1003F000203A21FA02F00021704721FA02F3D0409E
:10040000C2F120029140084319467047064C074D3F
:1004100006E0E06840F0010394E8070098471034D4
:10042000AC42F6D3FFF7DCFEF43D0008143E0008B2
:1004300010B503F0F3FB002010BD00000C4D4FF48D
:10044000967400220821284600F021F909A002F044
:1004500067FB204602F032FF01220821284600F007
:1004600016F90CA002F05CFB204602F027FFE8E73B
:100470000004004842555A5A5F74687265616420EE
:1004800072756E6E696E672C2042555A5A206F6ED7
:100490000D0A000042555A5A5F7468726561642003
:1004A00072756E6E696E672C2042555A5A206F66BF
:1004B000660D0A00FEE7704772B6FEE72DE9FC4FB5
:1004C000DFF8A0A1002301250AF1040B03244FF05B
:1004D0000F0C0BF1040EBDE005FA03F632406FD0AD
:1004E0004F68012F05D0022F03D0112F01D0122FFA
:1004F00017D1D0F808905F0004FA07F829EA080934
:100500000097D1F80C8008FA07F848EA0908C0F803
:1005100008804768B7430E79C6F300169E403E43F5
:100520004660C6684FEA430804FA08F7BE430197DD
:100530008F6807FA08F73743C7604E68022E01D06C
:10054000122E13D1DE0800EB86060096366A5F078E
:10055000FF0E0CFA07F926EA0906D1F8109009FAFD
:1005600007F949EA0609009EC6F820900668019F2F
:10057000BE430F7907F0030707FA08F73743076010
:100580004E68F60065D5384E376E47F0010737667E
:10059000366E23F0030706F001060096334E3E4404
:1005A000B146B6689F074FEA17780CFA08F7BE43C2
:1005B000B0F1904F05D02E4FB84204D1012717E07B
:1005C00047E0002714E02B4FB84201D102270FE08B
:1005D000294FB84201D103270AE0284FB84201D180
:1005E000042705E0264FB84201D1052700E0062781
:1005F00007FA08F73743C9F80870DAF80060574679
:10060000D1F8048096435FEAC83800D516433E60AF
:10061000DBF800605F46D1F8048096435FEA8838D3
:1006200000D516433E60DEF800607746D1F80480BE
:1006300096435FEAC82800D516433E60094F0C3741
:100640003E68D1F8048096435FEA882800D51643B7
:100650003E605B1C0A6832FA03F67FF43DAFBDE8EA
:10066000FC8F000000040140001002400000014027
:100670000004004800080048000C00480010004832
:10068000001400480069084000D0012070470AB1FA
:10069000816170478162704701488068704700003F
:1006A0001400002010B50024032000F073F800208F
:1006B00000F008F808B1012401E000F025F8204618
:1006C00010BD000070B50E4E05460024706898B14C
:1006D0004FF47A71B1FBF0F00A490968B1FBF0F010
:1006E00000F06AFD40B9102D06D200222946501EA6
:1006F00000F030F8356000E00124204670BD0000B5
:1007000014000020200000200A4882B0016E41F051
:1007100001010166016E01F001010091816D41F05E
:1007200080518165806D00F08050009002B000F033
:10073000A1B8000000100240002809DB00F01F02F1
:10074000012191404009800000F1E020C0F8001133
:1007500070470000F0B40E4B1B680C46C3F3022335
:10076000C3F10705042D00D90425191D072901D25D
:10077000002300E0DB1E012606FA05F1491E214098
:1007800099409E40761E16403143F0BC01F0CDBC2E
:100790000CED00E0064900F0070208684FF6FF0381
:1007A000184040EA0220034A1043086070470000E6
:1007B0000CED00E00000FA052B492C4B0A683221B1
:1007C0004A432B4940B1B0F5007F086829D020F496
:1007D000C06040F480602CE00868C0F3412002282B
:1007E00004D051F8800F20F4807022E0D1F880000E
:1007F00020F48070C1F88000086820F4C06040F4E4
:1008000000700860B2FBF3F0401C00E0401E4A6933
:10081000520501D50028F9D1486940050AD50320C1
:100820007047C0F34120022806D051F8800F40F4F1
:100830008070086000207047D1F8800040F480701C
:10084000C1F88000086820F4C06040F400700860BF
:10085000B2FBF3F0401C00E0401E4A695205DBD5B4
:100860000028F9D1D8E700002000002040420F0006
:10087000007000400248816841F480418160704707
:10088000007000402DE9F8430446006800269D4DA5
:1008900000035ED5A86D0027C00008D4A86D40F005
:1008A0008050A865A86D012700F080500090DFF807
:1008B0005892D9F8001041F48071C9F80010FFF780
:1008C000EBFE804606E000BFFFF7E6FEA0EB080067
:1008D00002282BD8D9F80000C005F5D5D5F890002E
:1008E00010F4407014D0216C814211D0D5F89000E2
:1008F000D5F8901020F4407041F48031C5F8901084
:10090000D5F8901021F48031C5F89010C5F890000A
:10091000C00711D0FFF7C0FE804641F2883907E0DA
:10092000FFF7BAFEA0EB0801494501D903260BE009
:10093000D5F890008007F3D5D5F89000216C20F40D
:1009400040700843C5F890001FB1A86D20F080509A
:10095000A8652078C00707D0D5F88800616820F026
:1009600003000843C5F888002078800707D5D5F82C
:100970008800A16820F00C000843C5F888002078A2
:10098000400707D5D5F88800E16820F0300008431B
:10099000C5F888002078000707D5D5F888002169B8
:1009A00020F0C0000843C5F888002078800607D5ED
:1009B000D5F88800616920F440600843C5F88800D4
:1009C0002078400607D5D5F88800A16920F440506A
:1009D0000843C5F888002078000607D5D5F88800B8
:1009E000E16920F440400843C5F888002088C0052C
:1009F00007D5D5F88800216A20F440300843C5F8AF
:100A000088002088800507D5D5F88800616A20F421
:100A100040200843C5F88800208840050FD5D5F848
:100A20008800A16A20F440100843C5F88800A06A35
:100A3000B0F5801F03D1E86840F48010E86020889A
:100A400000050FD5D5F88800E16A20F4400008437E
:100A5000C5F88800E06AB0F5800F03D1E86840F47B
:100A60008010E8602088C0040FD5D5F88800216B7D
:100A700020F040700843C5F88800206BB0F1807FFB
:100A800003D1E86840F48010E86020884FF00061EE
:100A900080040ED5D5F88800626B20F040601043CA
:100AA000C5F88800606B884203D1E86840F4801084
:100AB000E860208840040ED5D5F88800A26B20F0AD
:100AC00040601043C5F88800A06B884203D1E868F5
:100AD00040F48010E860208800040FD5D5F8880025
:100AE000E16B20F040500843C5F88800E06BB0F19E
:100AF000805F03D1E86840F48030E8603046BDE8AC
:100B0000F883000000100240007000402DE9F0471B
:100B10000E4605004FF0000725D0DFF8AC81D8F86D
:100B2000000000F00F00B0420CD2D8F8001021F005
:100B30000F013143C8F80010D8F8000000F00F0092
:100B4000B04210D12968614CC80741F2883A5AD0A6
:100B50006868DFF87C91032808D0022820682DD02F
:100B6000400500282CDB0120BDE8F08720688001CB
:100B7000F9D5E06800F00302E068C0F30310401C00
:100B8000032A19D0534A00BFB2FBF0F0E268C2F367
:100B900006225043E268C2F34162521C5200B0FB8D
:100BA000F2F0484517D9A06810F0F00F0CD0880774
:100BB00011D5A86840B10EE0474AE5E78003D0E7C9
:100BC00000F0BCF8484506D9A06820F0F00040F0DD
:100BD0008000A0608027A068696820F003000843B7
:100BE000A060FFF759FD814606E000BFFFF754FD06
:100BF000A0EB090151453AD8A068696800F00C00E3
:100C0000B0EB810FF2D12868810714D5400703D5D6
:100C1000A06840F4E060A0602878000705D5A068CF
:100C200020F4605040F4E060A060A068A96820F063
:100C3000F000084304E0802F03D1A06820F0F0000A
:100C4000A060D8F80010404601F00F01B14216D95B
:100C5000016821F00F0131430160FFF71DFD0746D8
:100C600007E000BFFFF718FDC11B514501D9032064
:100C70007AE7D8F8000000F00F00B042F2D12878EF
:100C8000400705D5A068E96820F4E0600843A0604B
:100C90002878000706D5A068296920F4605040EA4A
:100CA000C100A06000F04AF8A1680C4AC1F303112A
:100CB000515C01F01F01C8400949086009480068FB
:100CC000BDE8F047FFF7FEBC0020024000100240E4
:100CD00000B4C4040024F40000366E01A43C0008F3
:100CE0002000002014000020014800687047000028
:100CF000200000200548064900688968054AC1F3BC
:100D00000221515C01F01F01C84070472000002003
:100D100000100240B43C0008054806490068896894
:100D2000054AC1F3C221515C01F01F01C840704760
:100D30002000002000100240B43C0008184910B503
:100D40008868C0F381021748012A0BD08A68164BC5
:100D5000C2F38102022A06D08A68C2F38102032A02
:100D600003D0002010BD184610BDCA6802F003046D
:100D7000CA68C2F30312521C032C02D0B0FBF2F07B
:100D800001E0B3FBF2F0CA68C968C2F3062250431F
:100D9000C1F34161491C4900B0FBF1F010BD0000F6
:100DA000001002400024F40000366E012DE9F843E3
:100DB00004007AD02078FA4DC00747D0A868E968C7
:100DC00000F00C0001F003010C2802D0082817D015
:100DD00001E0032914D06068B0F5803F17D0B0F56A
:100DE000A02F286817D020F480302860286820F4CD
:100DF000802028606068E0B1FFF74EFC064614E0F2
:100E00002868800322D560680028D2D01EE02868B8
:100E100040F48030EDE740F480202860F7E700BF21
:100E2000FFF73AFC801B642870D828688003F7D548
:100E30000CE0FFF731FC064605E000BFFFF72CFC95
:100E4000801B6428F0D828688003F7D420788007B6
:100E50004CD5A868E96800F00C0001F003010C28EB
:100E600002D004280DD001E002290AD0E068002851
:100E700028682BD040F480702860FFF70DFC0646F0
:100E800019E02868400502D5E068002891D068681C
:100E9000217C20F0FE4040EA01606860C1480068A3
:100EA000FFF710FC002800D120E076E1FFF7F4FB0B
:100EB000801B0228B8D828684005F7D56868217CCF
:100EC00020F0FE4040EA016068600FE020F480708E
:100ED0002860FFF7E1FB064605E000BFFFF7DCFBFB
:100EE000801B0228A0D828684005F7D42078000786
:100EF00029D560690028D5F8940013D040F001008E
:100F0000C5F89400FFF7C8FB064606E090E000BF76
:100F1000FFF7C2FB801B022886D8D5F89400800713
:100F2000F6D510E020F00100C5F89400FFF7B4FBFF
:100F3000064604E0FFF7B0FB801B022878D8D5F8FE
:100F400094008007F6D42078400761D5A86D00266C
:100F5000C00008D4A86D40F08050A865A86D012697
:100F600000F08050009090480168C90511D40168D4
:100F7000804641F480710160FFF78EFB074604E074
:100F8000FFF78AFBC01B022852D8D8F80000C00522
:100F9000F6D5A068012815D00528D5F8900016D000
:100FA00020F00100C5F89000D5F8900020F0040072
:100FB000C5F89000A06841F28838B8B1FFF76CFB23
:100FC00007460EE0D5F8900040F00100F0E740F051
:100FD0000400C5F89000F5E7FFF75EFBC11B414533
:100FE00026D8D5F890008007F6D50CE0FFF754FB23
:100FF000074604E0FFF750FBC11B414518D8D5F860
:1010000090008007F6D41EB1A86D20F08050A8652E
:101010002078800629D5A0690028D5F8980013D03B
:1010200040F00100C5F89800FFF736FB064606E0E1
:1010300077E000BFFFF730FB801B022877D8D5F898
:1010400098008007F6D510E020F00100C5F8980060
:10105000FFF722FB064604E0FFF71EFB801B022879
:1010600065D8D5F898008007F6D4E069F0B3A96890
:10107000C1F38101032961D00228286820F0807023
:1010800028600BD0E86820F00300E860E868474972
:101090000840E860FFF700FB04464BE0FFF7FCFA6E
:1010A000064604E0FFF7F8FA801B02283FD82868BC
:1010B0008001F7D4F4E908016FF00F0202EB01118F
:1010C0000843218A5204490802EB4151A26841EACF
:1010D00002210843217D4FF07E42490802EB416125
:1010E0000843217B40EAC160E96800E062E0304AE1
:1010F00011400843E860286840F080702860E86884
:1011000040F08070E860FFF7C7FA044605E000BFD2
:10111000FFF7C2FA001B022809D828688001F7D51A
:1011200048E004E0FFF7B8FA001B022802D90320C8
:10113000BDE8F88328688001F4D43BE00128F7D0AB
:10114000E868226A00F00301914226D1616A00F04A
:10115000F0020901103991421FD1A26A00F4FE4148
:10116000B1EB022F19D194F82C2000F07841B1EBAB
:10117000C26F12D1218E00F4C00249084905A1F5C1
:101180000011914209D194F8341000F0C060490870
:101190004906A1F1007181420CD00120C8E700008E
:1011A000001002401400002000700040FFFFEEFE1F
:1011B0000C809F010020BBE710B5401EB0F1807F7E
:1011C00001D3012010BD4FF0E02460610F216017B2
:1011D00000F0ABFF0020A06107202061002010BDBF
:1011E000704770477047704770477047F0B590F888
:1011F0003C20012A3AD0012580F83C50022280F898
:101200003D2003685A689C68194E1A4FB34201D0BA
:10121000BB4204D122F4700C4A6842EA0C02DFF8A7
:1012200058C002EA0C02D1F800C04CEA020CC3F824
:1012300004C00268B2420DD0B2F1804F0AD00F4B09
:101240009A4207D00E4B9A4204D0BA4202D00D4BBC
:101250009A4204D1896824F080031943916080F890
:101260003D50002180F83C100846F0BD0220F0BD42
:10127000002C0140003401408FFFFFFD00040040BE
:101280000008004000400140704710B5040003D042
:1012900094F83D0010B107E0012010BD002084F853
:1012A0003C00204600F022F8022084F83D00211D79
:1012B000206800F09FFC012084F8480084F83E007C
:1012C00084F83F0084F8400084F8410084F842002C
:1012D00084F8430084F8440084F8450084F846000C
:1012E00084F8470084F83D00002010BD08B5006870
:1012F0000B49884212D10B48816D41F01001816584
:10130000806D002200F01000009011463620FFF79B
:1013100021FABDE808403620FFF70EBA08BD0000EC
:10132000001000400010024090F83D10012901D04B
:1013300001207047022180F83D100168CA6842F020
:101340000102CA600068104988420ED0B0F1804F97
:101350000BD00E49884208D00D49884205D00D496E
:10136000884202D00C49884207D181680B4A11405B
:10137000062906D0B1F5803F03D0016841F0010194
:101380000160002070470000002C01400004004074
:101390000008004000340140004001400700010007
:1013A000704770B50446006801694FF00005C943F5
:1013B000890715D4C168C943890711D4E91E0161A1
:1013C00001202077206880698007204602D0FFF73F
:1013D000E7FF04E000F0E3F8204600F0E1F82577AD
:1013E00020680169C943490717D4C168C94349073F
:1013F00013D46FF004010161022020772068806916
:1014000010F4407F204602D0FFF7CAFF04E000F04E
:10141000C6F8204600F0C4F8257720680169C94362
:10142000090716D4C168C943090712D46FF008012F
:101430000161042020772068C0698007204602D01F
:10144000FFF7AEFF04E000F0AAF8204600F0A8F88D
:10145000257720680169C943C90617D4C168C94303
:10146000C90613D46FF010010161082020772068AD
:10147000C06910F4407F204602D0FFF791FF04E0DE
:1014800000F08DF8204600F08BF825772068016980
:10149000C943C90708D1C168C943C90704D1891E16
:1014A0000161204600F07EF820680169C943090601
:1014B00009D4C168C943090605D46FF080010161F0
:1014C0002046FFF78EFE20680169C943C90509D48B
:1014D000C168C943090605D46FF4807101612046D3
:1014E000FFF77EFE20680169C943490609D4C16837
:1014F000C943490605D46FF040010161204600F060
:101500005BF820680169C943890609D4C168C943E9
:10151000890605D46FF0200101612046FFF762FEC5
:1015200020680169C943C90209D4C168C943C90215
:1015300005D46FF4801101612046FFF755FE206845
:101540000169C943890209D4C168C943890205D424
:101550006FF4001101612046FFF745FE2068016924
:10156000C943490209D4C168C943490205D46FF48B
:10157000800101612046FFF738FE20680169C943F8
:1015800009020BD4C168C943090207D46FF40001F2
:1015900001612046BDE87040FFF776BE70BD704720
:1015A00070470000034900680968884201D100F0D3
:1015B00035B97047A4000020704790F880100129C9
:1015C00018D0012180F880102421C0F8841050F830
:1015D000641B0A680B6823F001030B6022F00051C2
:1015E0000022026050F8643C1960202101620277F9
:1015F000104670470220704770B5044690F880008E
:1016000001281DD0012084F880002420C4F8840023
:1016100020680568026822F0010202602068826882
:1016200022F060620A438260204600F03BFB2068A3
:1016300005602020C4F88400002084F8800070BD7C
:10164000022070BD70B5044690F8800001281DD0BE
:10165000012084F880002420C4F8840020680568F4
:10166000026822F0010202602068826822F0604273
:101670000A438260204600F015FB206805602020A8
:10168000C4F88400002084F8800070BD022070BD82
:1016900010B5040003D0D4F8840010B107E0012095
:1016A00010BD002084F88000204600F027F8242098
:1016B000C4F884002068016821F00101016020461F
:1016C00000F0A6FB0128EBD0A06A10B1204600F084
:1016D0000BFB2068416821F49041416020688168DB
:1016E00021F02A0181602068016841F00101016058
:1016F0002046BDE8104000F05BBB000010B586B08E
:10170000044614216846FEF757FE134920688842B4
:101710001FD11248016E41F480410166016E01F44F
:1017200080410591C16C41F00101C164C06C694602
:1017300000F0010005904FF4C0600090022001907D
:10174000002002900390072004904FF09040FEF795
:10175000B5FE06B010BD0000003801400010024088
:101760002DE9F8430446D0F884001F4616460D467E
:10177000202851D1DDB1D6B194F8800001284BD09A
:10178000012084F880004FF00008C4F88C802120EC
:10179000C4F884001834FEF77FFFA6878146E687E9
:1017A00054F8100C183CB0F5805F03D004E0012021
:1017B000BDE8F883206920B12E46002584F880809A
:1017C00010E00026FAE78021204600F05BFCB8B963
:1017D000C6B116F8010B21688862B4F85600401EA5
:1017E000A4F85600B4F856004B464FF0000200979C
:1017F0000028E8D14FF04001204600F043FC30B112
:101800000320D5E735F8020BC0F30800E3E72020FA
:10181000C4F884000020CBE70220C9E72DE9F0419D
:101820003C4C3D4D012660784FF0904800B30027B6
:10183000012834D0022819D101212846FEF722FFC1
:10184000002862D002212846FEF71CFF00285CD049
:1018500004212846FEF716FF002856D001214046F5
:10186000FEF710FF002850D06770A670BDE8F08129
:1018700001212846FEF706FF78B102212846FEF72F
:1018800001FF50B104212846FEF7FCFE28B10121DA
:101890004046FEF7F7FE0028E8D16670E6E7012132
:1018A0002846FEF7EFFE80B102212846FEF7EAFE49
:1018B00058B104212846FEF7E5FE30B1012140462B
:1018C000FEF7E0FE08B16770D0E7022767700121DC
:1018D0002846FEF7D7FE90B102212846FEF7D2FE39
:1018E00078B104212846FEF7CDFE60B101214046C3
:1018F000FEF7C8FE0028B9D104202070B6E7267094
:10190000B4E72770B2E70320F7E720690A302061C7
:10191000ACE7000000000020000400482DE9F04181
:1019200086B014216846FEF747FD3648C16C41F089
:101930000401C164C16C01F004010591C16C41F066
:101940002001C164C16C01F020010591C16C41F01E
:101950000101C164C16C01F001010591C16C41F04C
:101960000201C164C16C01F002010591C16C41F03A
:101970000801C164C06C244E00F008004FF47F449D
:101980000590012221463046FEF781FE1F4F0122BD
:1019900004213846FEF77BFEDFF87480012208211F
:1019A0004046FEF774FE0125CDE90045002402946F
:1019B000694630460394FEF781FDCDE9005469463F
:1019C0004FF090400294FEF779FD0720CDE9000426
:1019D000694640460294FEF771FD04200090CDE96F
:1019E0000154694638460394FEF768FD08200090CC
:1019F000CDE90154694640460394FEF75FFD06B009
:101A0000BDE8F0810010024000080048000C0048CA
:101A1000000400483EB500240F48009401940D498D
:101A2000029401604F21C0E9011442F20F718461F8
:101A3000C160FFF72AFC08B1FEF73EFD009469463D
:101A400005480294FFF7D2FB002801D0FEF734FDD1
:101A50003EBD000000100040A4000020184810B552
:101A6000164901604FF4E1314160002181600C2290
:101A7000C160C0E904128161C16101624162816299
:101A8000FFF706FE08B1FEF717FD00210C48FFF72F
:101A9000D9FD08B1FEF710FD00210948FFF7ACFDA4
:101AA00008B1FEF709FD0648FFF787FD002803D0BF
:101AB000BDE81040FEF700BD10BD00000038014039
:101AC000F0000020FEE7FEE710B501F00DF801F090
:101AD00083FDBDE8104001F015B830B5A5B0382140
:101AE0006846FEF769FC14211FA8FEF765FC442137
:101AF0000EA8FEF761FC4FF40070FEF75DFE0125B5
:101B00002804CDE9005002200324CDE90704142164
:101B1000CDE90A100C900D9009946846FFF746F93C
:101B200008B172B6FEE70F20CDE91F04002421940E
:101B3000229402211FA82394FEF7E8FF08B172B691
:101B4000FEE7CDE90E540EA8FEF79CFE002801D05A
:101B500072B6FEE725B030BD30B51A4881681A4B21
:101B600001F00C021949042A05D0194C082A04D0A6
:101B70000C2A1BD103E00B6018E00C6016E0C26871
:101B800002F00305C268C2F30312521C022D16D0E4
:101B9000B4FBF2F2C368C3F306235343C268C2F333
:101BA0004162521C5200B3FBF2F20A608068094A9B
:101BB000C0F30310105C0A68C2400A6030BDB3FB7A
:101BC000F2F2E7E7001002400024F40020000020B9
:101BD00000366E01A43C00080248016841F470011F
:101BE0000160704788ED00E00148FFF7DABB0000B4
:101BF000A40000202DE9F0430268234B234D244E1E
:101C0000244C4FF08049984207D0484505D0A8425F
:101C100003D0B04201D0A04203D122F070074A683D
:101C20003A431D4FDFF874C0DFF8748098420DD03E
:101C300048450BD0A84209D0B04207D0A04205D0F9
:101C4000B84203D0604501D0404503D122F440752D
:101C5000CA682A434D6922F080022A4302608A68DA
:101C6000C2620A688262984207D0A04205D0B84298
:101C700003D0604501D0404501D1096901630121CC
:101C80004161BDE8F0830000002C014000040040E9
:101C90000008004000340140004001400044014081
:101CA0000048014030B5416EB9B102689168926850
:101CB000C1F342610B4B520F9C5CE50003F1080439
:101CC000A25CB5FBF2F2A0F86A205A5C615CD2001B
:101CD000B2FBF1F1A0F8681030BD0121A0F86A1044
:101CE000F8E70000943C000890F82810C90706D0D7
:101CF00001684A68C36A22F400321A434A6090F8C5
:101D00002810890706D501684A68036B22F48032DF
:101D10001A434A6090F82810490706D501684A68B6
:101D2000436B22F480221A434A6090F82810090776
:101D300006D501684A68836B22F400421A434A6060
:101D400090F82810C90606D501688A68C36B22F48A
:101D500080521A438A6090F82810890606D50168D7
:101D60008A68036C22F400521A438A6090F82810A3
:101D7000490611D501684A68436C22F480121A435F
:101D80004A60416CB1F5801F06D101684A68836CD6
:101D900022F4C0021A434A6090F82810090606D5BA
:101DA00001684A68C06C22F4002202434A6070470E
:101DB000F8B500260446C0F88C60FEF76DFC0546B9
:101DC000206800686FF07E47000708D52B46002288
:101DD0004FF400112046009700F054F960B92068D4
:101DE000006840070AD52B4600224FF480012046A8
:101DF000009700F047F908B10320F8BD2020C4F88F
:101E00008400C4F8880044F86C6F00202675F8BD83
:101E10002DE9F0410446016880682269E3691043B6
:101E2000626900251A431043DFF82CC20A688B4B05
:101E30001A4002430A6020684168E26821F4405178
:101E4000114341602168A069614501D0226A1043B5
:101E50008A68834B1A4002438A602068C16A626ABA
:101E600021F00F011143C1627E4923687E488B42F5
:101E70000DD1D0F8880010F0030006D0012855D00D
:101E8000022842D003283FD152E001203DE07749AB
:101E90008B420BD1D0F8880010F00C0035D004280C
:101EA00033D0082840D00C282ED141E070498B4215
:101EB0000BD1D0F8880010F0300026D0102835D093
:101EC000202831D030281FD132E06A498B420BD113
:101ED000D0F8880010F0C00017D0402826D0802805
:101EE00022D0C02810D123E063450DD1D0F888005E
:101EF00010F4406009D0B0F5806F17D0B0F5006FD6
:101F000012D0B0F5406F13D010205B4A5B4F002613
:101F10004FF40041634539D160B102280DD0042847
:101F20000DD0082831D10EE00220EEE70420ECE7C6
:101F30000820EAE7FEF7DEFE03E0114603E0FEF7C5
:101F4000FDFE01007DD0606A37F810206768B1FBA4
:101F5000F2F007EB470383426CD8B0EB073F69D838
:101F6000002308461946FEF7EFF9090241EA10611D
:101F700002027808101871413A460023FEF7E4F98E
:101F80003F4AA0F54071914259D953E0E3694FF6B9
:101F9000EF788B422DD109284CD2DFE800F00508FC
:101FA0000D4B274B4B4B0E00FEF7A4FE01E0FEF756
:101FB000B3FE010001D144E01146606A37F8100019
:101FC000B1FBF0F04100606801EB5001B1FBF0F0B3
:101FD00080B2A0F1100141452CD84FF6F0710140BC
:101FE000C0F3420001432068C1602AE0FEF7A6FE6C
:101FF000DFE709281ED2DFE800F005080D1D1F1DD0
:102000001D1D0E00FEF776FE01E0FEF785FE0100C5
:1020100001D116E01146606A37F81000B1FBF0F10B
:10202000606801EB5001B1FBF0F080B2A0F110014B
:10203000414504D9012504E0FEF780FEE7E7216869
:10204000C8600120A4F86A0024F8680F2846A6603A
:10205000E660BDE8F081000000800040F369FFCF3A
:10206000FFF4FF110038014000100240004400401E
:1020700000480040004C00400024F4007C3C000874
:10208000FFFC0F002DE9F0479A4617460E4604461E
:102090004FF000094FF02008089D39E0681C37D048
:1020A000FEF7FAFAA0EB0A00A84222D80DB3206886
:1020B000016849072CD5C069C043000528D42168B0
:1020C0004FF4006008622068016821F4D07101605B
:1020D0002068816821F001018160C4F88480C4F81F
:1020E0008880C4F88C8000BF84F880900320BDE80D
:1020F000F0872068016821F4D07101602068816850
:1021000021F001018160C4F88480C4F88880EBE785
:102110002068C06936EA000004D00020B842BDD073
:102120000020E4E70120F9E7FEE70907090E00288F
:1021300004DB00F1E02080F80014704700F00F008D
:1021400000F1E02080F8141D70470000002807D03F
:102150000F4910F0FF0F05D0C0B2085C401C70475B
:102160000020704710F47F4F04D0C0F30720085CB4
:102170000930704710F47F0F04D0C0F30740085CAB
:102180001130704701EB1060007819307047000083
:10219000BC3C000802E008C8121F08C1002AFAD19E
:1021A00070477047002001E001C1121F002AFBD1D7
:1021B0007047000070B582B011469C46089E099D8C
:1021C000069B079A044604F11400406000602162F7
:1021D000C4F824C0A362E2622321184600F03AFD4D
:1021E000E16AA06A104B0844021F616A206A00F08D
:1021F00059FCE06184F8366084F835600020A06303
:10220000E5632564206384F83400206760670090EC
:1022100001902346054A214604F1440001F0B9FA31
:1022200002B0002070BD0000C13200080335000874
:10223000DDF800C02CF0010C80F809C0C161026219
:1022400000218162436200EBC102143252601260CD
:10225000491C0129F7DB704770B50446FDF7DAFF2A
:102260000546216F09B1204688472846BDE87040E1
:10227000FDF7D4BF1A4CA078012829D10020A07006
:102280002078012802D0022817D021E015A000F004
:1022900047FC606801F013F905000CD040F6B83037
:1022A00001F00CF8294613A000F03AFC606801F038
:1022B00006F90500F6D118A00FE01CA000F030FCD4
:1022C000606801F09BF8010006D01CA000F028FC1B
:1022D000142001F08CF8CEE721A000F021FCF7E7F4
:1022E00000000020B9D2C6F04C454431CFDFB3CC5A
:1022F000A3A10A00B9D2C6F04C454431CFDFB3CC1C
:10230000CAA7B0DCA3A1CAA7B0DCB4FAC2EBA3BAD7
:102310002030782531780A00B9D2C6F04C454431D6
:10232000CFDFB3CCB3C9B9A6A3A10A00BBD6B8B45A
:102330004C454431CFDFB3CCA3A10A00BBD6B8B41F
:102340004C454431CFDFB3CCCAA7B0DCA3A1CAA7A8
:10235000B0DCB4FAC2EBA3BA2030782531780A0099
:10236000BBD6B8B44C454431CFDFB3CCB3C9B9A662
:10237000A3A10A000D4C4FF480764FF4967500220D
:1023800031462046FEF783F909A000F0C9FB284634
:1023900000F094FF012231462046FEF778F90CA0A8
:1023A00000F0BEFB284600F089FFE8E7000800487F
:1023B0006C65645F7468726561642072756E6E69C5
:1023C0006E672C206C656431206F6E0D0A00000072
:1023D0006C65645F7468726561642072756E6E69A5
:1023E0006E672C206C656431206F66660D0A0000F4
:1023F0002DE9FC41FFF792FAFFF70CFBFFF72EFBEC
:102400001748FEF791FF14250326CDE900654FF428
:1024100000773B460022134913A000F022FF144C22
:102420003B4600226060CDE90065124912A000F031
:1024300018FFA0600220CDE900053B4600221049AC
:1024400010A000F00EFFE060606801F023F8A068C3
:1024500001F020F8E06801F01DF80020BDE8FC81E3
:10246000A4000020752300086C65643100000000A2
:10247000000000203D04000842555A5A00000000A8
:10248000752200086B65790010B500F019F9BDE8F8
:102490001040FFF7ADBF000010B4DFF860C0416826
:1024A000DCF80020114402F10803884210D04C8867
:1024B00074B9DCF80440A1420AD0DCF808408C4230
:1024C00001D1CCF808004C6844604968841ACC50AB
:1024D0008168114481420FD04C88002C0CD1DCF86B
:1024E0000840844201D1CCF80810D0F804C0C1F8EB
:1024F00004C04068891AC15010BC70472C000020ED
:102500002DE9F04F86B0DDF83CC0109D119CA84627
:10251000CDF800C014F0400F02D0DFF848A101E070
:10252000DFF844A114F0100F01D024F0010414F0DE
:10253000010F02D04FF0300901E04FF020090026D2
:1025400014F0020F0DD0002A02DA2D26524208E0C4
:1025500014F0040F01D02B2603E014F0080F00D074
:1025600020264FF0000C0DF1040B2AB930224FF059
:10257000010C8DF804200DE00A2B16D002F00F0795
:1025800012091AF807E067460CF1010C0BF807E096
:10259000002AF1D1AC4500DD6546009A521B14F0CB
:1025A000110F4FF020070DD01CE0304FA7FB02E7C2
:1025B0004FEAD70ECEF1000707EB870702EB47077C
:1025C0007246DEE716B1002A00DD521E131EA2F18C
:1025D000010207DD884200D20770401C131EA2F1E1
:1025E0000102F7DC26B1884200D20670521E401C60
:1025F00014F0100F0CD1131EA2F1010208DD884265
:1026000001D280F80090401C131EA2F10102F6DCFA
:102610006B1E65450FDD3024884200D20470401CDB
:102620001D465B1E6545F7DC05E0884202D21BF8BB
:102630000C300370401CBCF10003ACF1010C02DD56
:10264000B8F1000FF1D1531E002A07DD884200D2F5
:102650000770401C1A1EA3F10103F7DC06B0BDE8A9
:10266000F08F0000CD3D0008BC3D0008CDCCCCCCA7
:1026700000B583B014200A21009101904FF48063CB
:102680000022044904A000F0ECFD03B05DF804EB67
:1026900000F000BF892400086D61696E0000000031
:1026A00070B5054C054DAC4204D220688047241D0E
:1026B000AC42FAD370BD0000E43D0008EC3D0008D8
:1026C00070B5054C054DAC4204D220688047241DEE
:1026D000AC42FAD370BD0000EC3D0008F03D0008AC
:1026E00010B5FDF797FD04494A88521C4A80BDE8A1
:1026F0001040FDF793BD00007400002010B5FDF7F9
:1027000089FD0B4C6188491E09B2618000290ADCF1
:1027100000216180FDF782FD6068002807D0BDE8D8
:10272000104000F065BBBDE81040FDF777BD10BD5F
:102730007400002070B5002834D01B4D29688842F1
:1027400030D3696888422DD2A0F10C044FF0FF31DC
:10275000164800F00EFC608818B12088B0F5F55FCF
:1027600008D013A000F0DCF923886288214617A066
:1027700000F0D6F9002060804FF4F5502080A86862
:10278000844200D2AC6029686068611A401A2969E5
:10279000081A28612046FFF77FFEBDE87040034815
:1027A00000F0BBBB70BD00002C00002078030020AF
:1027B000746F2066726565206120626164206461C7
:1027C000746120626C6F636B3A0A00006D656D3A4C
:1027D000203078253038782C207573656420666C3D
:1027E00061673A2025642C206D6167696320636FFF
:1027F00064653A203078253034780A000048704704
:1028000098040020004870479840002010B5FDF75C
:1028100049FFFFF762F9FFF79FF9FEF765FA4FF4FA
:102820007A71B0FBF1F0FEF7C7FCFFF739FFFFF755
:10283000E9FF0446FFF7E2FF2146BDE8104000F043
:1028400079BC0000F8B5054600240D2000900E4923
:10285000002081F88000284600F04EFC064630003B
:1028600011D0285D0A2805D101231A466946064879
:10287000FEF776FF012329191A460348FEF770FF79
:10288000641CB442EDD3F8BD9840002070B50546F5
:1028900005F128002C1D2F490968002902D088471E
:1028A000002855D02CA0216C00F03AF92EA0616AC6
:1028B00000F036F930A0A16A00F032F932A0E16AE6
:1028C00000F02EF934A0216B00F02AF936A06168DF
:1028D00000F026F938A0A16800F022F93AA0E168DA
:1028E00000F01EF93CA0216900F01AF93EA06169D0
:1028F00000F016F940A0A16900F012F942A0E169C8
:1029000000F00EF944A0216A00F00AF946A0616BBC
:1029100000F006F948A0A16B00F002F94AA0E16BB3
:1029200000F0FEF8287810F0040F06D000F08AFDC1
:10293000014649A000F0F4F802E04FA000F0F0F8E2
:10294000287810F0100F02D152A000F0E9F8FEE74D
:1029500070BD0000940000207073723A203078251A
:102960003038780A000000007230303A2030782584
:102970003038780A000000007230313A2030782573
:102980003038780A000000007230323A2030782562
:102990003038780A000000007230333A2030782551
:1029A0003038780A000000007230343A2030782540
:1029B0003038780A000000007230353A203078252F
:1029C0003038780A000000007230363A203078251E
:1029D0003038780A000000007230373A203078250D
:1029E0003038780A000000007230383A20307825FC
:1029F0003038780A000000007230393A20307825EB
:102A00003038780A000000007231303A20307825E2
:102A10003038780A000000007231313A20307825D1
:102A20003038780A000000007231323A20307825C0
:102A30003038780A00000000206C723A2030782587
:102A40003038780A000000002070633A2030782582
:102A50003038780A00000000686172642066617591
:102A60006C74206F6E207468726561643A202573FF
:102A70000D0A0D0A0000000068617264206661752D
:102A80006C74206F6E2068616E646C65720D0A0D47
:102A90000A00000046505520616374697665210D77
:102AA0000A00000030B40546101D20F00700A0F118
:102AB000440420460022DFF82CC040F822C0521CFB
:102AC000112AFAD3416200218162C162016341632C
:102AD0008363C5634FF0807202640160204630BC9E
:102AE00070470000EFBEADDE10B5FDF793FB044963
:102AF0000A78521C0A70BDE81040FDF78FBB000039
:102B00002800002010B5FDF785FB04490A78521E05
:102B10000A70BDE81040FDF781BB000028000020CE
:102B20000FB408B503AB00937F210548029A00F06B
:102B3000D7FE0348FFF786FE01B05DF814FB0000E6
:102B4000F80200202DE9F047002809D0C01C20F031
:102B500003053E4EF068854205D90020BDE8F087A8
:102B60000020BDE8F0870C2D00D20C254FF0FF317E
:102B7000374800F0FEF9D6F808C03168ACEB010028
:102B8000F7687B1B83425BD90C186288002A54D1FA
:102B90006268121A0C3AAA424FD3626805F1180310
:102BA000121A0C3A4FF001094FF4F5589A4223D308
:102BB000421902F10C03CA18A2F800804FF0000A73
:102BC000A2F802A0D4F804A0C2F804A09060636048
:102BD000A4F80290506807F10C02904202D001F173
:102BE000080283503069324628440C303061536902
:102BF00083420DD250610BE0A4F802906068621A23
:102C0000801A3269104430617269824200D2706168
:102C1000A4F80080644503D008E040680844B06030
:102C2000B068428812B172689042F6D1084800F04C
:102C300074F904F10C00BDE8F08760688342A3D802
:102C4000034800F06AF90020BDE8F0872C0000205E
:102C500078030020034601F0FF0C042A1CD310F077
:102C6000030F19D101464CEA0C2343EA0343102A0F
:102C70000AD341F8043B41F8043B41F8043B41F8D6
:102C8000043B103A102AF4D2042A04D341F8043B3E
:102C9000121F042AFAD20B46511E05D30CF0FF0274
:102CA00003F8012B491EFBD270472DE9F04106467F
:102CB0000F46304600F054F80546E868FFF742FF3B
:102CC0000446E4B100212046EA68FFF7C3FF2672FC
:102CD0000020607208223946204600F015FAFDF700
:102CE00099FA291D04F10C020B685A600B681360F5
:102CF0000A605160FDF792FA2046BDE8F08100209D
:102D0000BDE8F08110B5044600202072FDF782FA7C
:102D100004F10C010B684A685A604B680A681A6033
:102D200049600960FDF77AFA2046BDE81040FFF7D8
:102D300001BD10B5044600202072FDF76BFA014674
:102D400004F10C00036842685A60436802681A6024
:102D500040600060BDE810400846FDF75FBA000023
:102D60000021074A02EB01131B78834202D102EBD8
:102D700001107047491C0329F4DB00207047000054
:102D8000440000202DE9F04105460E461746304626
:102D9000FFF7E6FF0446FFF7A3FC6068211D8842A9
:102DA00002D000688842FCD1FFF7A8FC46F0800002
:102DB000287208223946284600F0A6F9FDF72AFABB
:102DC0000246201D05F10C010368596003680B6081
:102DD00001604860BDE8F0411046FDF71FBA007A77
:102DE00010F0800F01D001207047002070470000D4
:102DF00070B5FDF70FFA0546134C6088A8B9A068B6
:102E0000FFF7A4F9421E114850F83200A0F1140156
:102E10006368994209D0227061600D48007848B11A
:102E20001C3103F11C00FDF7FCF92846BDE8704099
:102E3000FDF7F4B91C3103F11C00FDF7F2F9284647
:102E4000BDE87040FDF7EAB9740000209803002047
:102E50002800002010B50446FDF7DCF9024694F87E
:102E6000340020F00F0040F0010084F8340094F8A2
:102E700035000A4901EBC00104F114004B681860E9
:102E80004B684360486001600548A16B8368194343
:102E90008160BDE810401046FDF7C0B998030020DE
:102EA0007400002010B50446FDF7B4F9024604F1A1
:102EB00014010B68486858604B68086818604960DE
:102EC000096094F835000A4901EBC00001688142AD
:102ED00001D1012000E0002028B10648A16B8368E1
:102EE00023EA01018160BDE810401046FDF796B964
:102EF000980300207400002070B5044615461E4655
:102F00000A4602212046FFF73DFF04F11401496003
:102F10000960A5836672002070BD70B50446002567
:102F2000FDF778F9064604F114000168814201D1E9
:102F3000012000E0002038B1A08B4FF6FF718842DD
:102F40000DD2401CA08304E0A1F1140000F056FA59
:102F500001253046FDF762F9012D06D007E0304625
:102F6000FDF75CF96FF0020070BDFFF741FF002034
:102F700070BD2DE9F3410746FDF74CF90646B88BC5
:102F800028B1401EB8833046FDF748F958E0019853
:102F900070B100F057FA05460020286307F11404C9
:102FA0007F7A284600F08BFA57B1012F33D110E019
:102FB0003046FDF733F96FF0010002B0BDE8F08153
:102FC00005F1140061680860616841606060046038
:102FD00021E02168A14214D095F83520A1F1140018
:102FE00090F835309A4209D2143005F11402436842
:102FF0001A60436853604260106002E00968A142B1
:10300000ECD1A14207D105F1140061680860616844
:103010004160606004600198002809DD01AA002178
:1030200005F1440000F068FB05F1440000F0C6FB28
:103030003046FDF7F3F8FFF7DBFE286B0028BCD124
:1030400002B00020BDE8F08108B509A0FFF768FDD7
:103050000AA0FFF765FD12A00090052301220321BD
:1030600012A0FFF75DFDBDE8084018A0FFF758BDAE
:103070000A205C207C202F0A000000002D205254E2
:10308000202D2020202020546872656164204F701C
:1030900065726174696E672053797374656D0A0097
:1030A0004D6172202037203230323300202F207CB7
:1030B000205C202020202025642E25642E256420DD
:1030C0006275696C642025730A000000203230307C
:1030D00036202D203230323020436F70797269678C
:1030E00068742062792072742D746872656164203E
:1030F0007465616D0A000000014600E0491C0A7811
:10310000002AFBD1081A7047002A09D0034611F89B
:1031100001CB03F801CBBCF1000F02D0521EF6D157
:103120007047511EFCD0002203F8012B491EFBD131
:103130007047000010B50A46C11C21F0030122F0BF
:103140000303182B22D9A3F1180C8C451ED3124C63
:10315000581A1838E06021604FF4F5530B8000F1E5
:103160000C024A600020886048804868084460601B
:10317000038001214180426082600023012207A177
:103180000848FFF7B9FE2068A06010BD0146BDE801
:10319000104005A0FFF7C4BC2C00002068656170DA
:1031A00000000000780300206D656D20696E697471
:1031B0002C206572726F7220626567696E2061648F
:1031C000647265737320307825782C20616E6420DA
:1031D000656E64206164647265737320307825784D
:1031E0000A0000000B4B4FF0000CA3F802C00020B7
:1031F000094A02EBC00149600960401C2028F8DB45
:103200001F201870C3F804C0C3F808C0034840600A
:1032100000607047740000209803002080000020A8
:1032200010B5074CA068FEF791FF401E054951F804
:10323000300014386060BDE810401C30FDF737B82E
:1032400074000020980300200020044A02EBC00113
:1032500049600960401C0028F8D070478C000020AD
:1032600070472DE9F04784B080460D9D0C9C89463F
:1032700092461E4641460120FFF717FD07463800DB
:1032800011D03046FFF75EFC88B1009053464A46A5
:1032900041460196039502943846FEF78BFF04B031
:1032A0003846BDE8F08704B00020BDE8F087384616
:1032B000FFF728FD04B00020BDE8F08700F0C8B893
:1032C00070B515480468FCF7A5FF05462046FEF7D3
:1032D000C3FF2046FFF7E6FD042084F8340004F124
:1032E000440000F033FA2046FFF779FD01280FD0A3
:1032F0000A4904F114000A6850600A680260086014
:103300004160FFF775FD2846BDE87040FCF786BFB9
:103310002046FFF70EFDF4E7780000208000002033
:1033200000F002F8FCE7000070B5134C17E0012133
:1033300000E00021D9B12168A1F114060A684868AB
:1033400050604A680868106049600960B06AFFF719
:10335000F1F93046FFF7D6FC2846FCF75FFFFCF793
:1033600059FF0546044908688842E2D0DFE728464D
:10337000BDE87040FCF752BF8000002000B585B06A
:103380002020C2001F21084B00930192029103905C
:103390000023064A06A1084800F010F805B00648C8
:1033A0005DF804EB00F076B8F80100202133000846
:1033B0007469646C65000000800100202DE9F04F05
:1033C00085B00EAC8146F0CC884692469B4642467C
:1033D00001214846FFF7D6FC8DE8F0005B465246D7
:1033E00041464846FEF7E6FE05B0BDE8F08F10B551
:1033F00000F0D2F8BDE8104000F02AB870B50446DD
:1034000094F8340000F00F00022802D04FF0FF3093
:1034100070BDFCF7FFFE054604F114010A68486818
:1034200050604A68086810604960096004F144000F
:1034300000F02CFA2846FCF7F1FE2046FFF70AFDC3
:10344000002070BD0148006870470000780000202F
:1034500031B5FCF7DFFE05460D480468204600F054
:103460002EF86A46002104F1440000F045F904F109
:10347000440000F0A3F92846FCF7D0FEFFF7B8FCA3
:10348000206B10F1020F01D100202063002038BD15
:103490007800002010B590F8361080F83510012221
:1034A00002FA01F18163022180F83410FFF7A6FFD0
:1034B000FFF7C8FF08B1FFF79BFC002010BD70B5F7
:1034C000044694F8340000F00F00012802D04FF0B9
:1034D000FF3070BDFCF79EFE05462046FFF7E2FC7C
:1034E00094F8340020F00F0040F0020084F834001B
:1034F00004F1440000F0CAF92846FCF78FFE0020D2
:1035000070BD10B56FF00101016300F114010B688B
:103510004A685A604B680A681A6049600960FFF798
:1035200099FCBDE81040FFF763BC000010B5FCF744
:1035300071FE1749096891F8342002F00F02012A40
:1035400021D1D1F814C08B699C451CD001F1140223
:10355000CCF80430D2F804C01368CCF800305260C4
:10356000126091F835200B4B143103EBC202536803
:10357000196053684B6051600A60FCF74FFEFFF71B
:1035800037FC002010BDFCF749FE002010BD0000F4
:103590007800002098030020002802DA4FF0FF3066
:1035A00070474FF47A7190FBF1F24A4390FBF1F3CC
:1035B00001FB130000EB4003C3EBC0104B1E03EBF9
:1035C000C00090FBF1F01044704700000148006813
:1035D000704700002400002010B509480168491C0C
:1035E0000160FFF72FFF016C491E016419B9C16B1F
:1035F0000164FFF79BFFBDE8104000F003B8000036
:10360000240000202DE9F04182B06846019000902E
:10361000FFF7DCFF8046FCF7FDFD074635480168F3
:10362000814201D1012000E0002000285CD1314D11
:103630006FF000462868A0F11404A06AA8EB00000F
:10364000B04251D22246002002EBC0011431D1F821
:1036500000C04B68CCF80430D1F804C00B68CCF83B
:10366000003049600960401C0128EDDB607A10F0F1
:10367000020F02D120F001006072694604F11400CB
:10368000009A5060009A026000904160E169206AEF
:103690008847FFF79BFF804668460099814201D129
:1036A000012000E00020B0B904F114000268416874
:1036B000516042680168116040600060607A10F0FB
:1036C000020F08D010F0010F05D020F00100607249
:1036D000204600F073F807480168814201D10120BB
:1036E00000E000200028A5D03846FCF797FD02B086
:1036F000BDE8F0818C00002070B504460E461546EA
:10370000FCF788FD052E1DD2DFE806F00603090E42
:103710001300616A296015E02968616212E0617A2C
:1037200021F0020161720DE0617A41F002016172E3
:1037300008E0617A11F0010F02D00121296001E057
:1037400000212960FCF76AFD002070BD70B50546B8
:10375000FCF760FD2C46002204EBC2011431D1F8C5
:1037600000C04B68CCF80430D1F804C00B68CCF82A
:10377000003049600960521C012AEDDB697A21F0B2
:1037800001016972FCF74AFD2846FFF7D2FA0020D2
:1037900070BD2DE9F8438046089D099C16461F46DA
:1037A0000A460A214046FFF7EDFA2B463A463146D3
:1037B00040460094FEF73CFDBDE8F8832DE9F84350
:1037C0000446FCF727FD05462246002002EBC00117
:1037D0001431D1F800C04B68CCF80430D1F804C0E3
:1037E0000B68CCF8003049600960401C0128EDDB13
:1037F000607A20F001006072FFF7E8FE616A00EB7A
:10380000010CC4F828C01F4F009700216FF000483A
:10381000684607EBC10350F821205E68B2420FD022
:1038200050F821201268A2EBC1035B69634503D005
:10383000A3EB0C03434503D340F82120B242EFD160
:1038400029B150F8212008324B1C40F82320491C94
:103850000029DED00C480168491C0160009804F181
:1038600014010268516002680A6001604860607A71
:1038700040F0010060722846FCF7D0FC0020BDE853
:10388000F88300008C0000208800002070B50446FA
:10389000607A10F0010F1FD0FCF7BCFC03462046F5
:1038A000002200EBC20114310D68D1F804C0C5F844
:1038B00004C04D68D1F800C0C5F800C04960096077
:1038C000521C012AEDDB607A20F00100607218467C
:1038D000FCF7A4FC002070BD4FF0FF3070BD00006D
:1038E0002DE9FF4F83B006460F461446F5193046C2
:1038F000854203D24FF0FF35C6F1FF37217800290A
:1039000000F05C816FF02F094FF020084FF0250A7E
:103910002178252905D0A84200D20170401C00F072
:1039200048B90021641C23782D2B1ED02B2B1FD0CF
:10393000202B20D0232B21D0302B22D04FF0FF3250
:1039400094F800C0ACF1300CBCF10A0F1CD200227C
:10395000234602EB82021B7809EB4202641C1A44E4
:103960002378303B0A2BF3D31AE041F01001D9E75A
:1039700041F00401D6E741F00801D3E741F020010E
:10398000D0E741F00101CDE72A2B09D1641C069B49
:1039900053F8042B0693002A02DA524241F0100138
:1039A0004FF0FF3B23782E2B22D1641C2378A3F108
:1039B000300CBCF10A0F0FD24FF0000B23460BEB7B
:1039C0008B0C1B7809EB4C0C641C03EB0C0B237861
:1039D000303B0A2BF2D306E02A2B04D1641C069B51
:1039E00053F804BB0693BBF1000F01DA4FF0000B54
:1039F0004FF0000E2378682B01D06C2B01D19E462E
:103A0000641C0A2394F800C0BCF16F0F7ED011DC57
:103A1000BCF1630F27D006DCBCF1250F77D0BCF1D9
:103A2000580F13D1ABE0BCF1640F71D0BCF1690F3A
:103A30000CD1A8E0BCF1700F6BD0BCF1730F35D086
:103A4000BCF1750F66D0BCF1780F7BD0A84201D2D3
:103A500080F800A0401C2178002974D0A84200D230
:103A60000170401CA5E011F0100F0AD1521E002A6F
:103A700007DDA84201D280F80080401C521E002AB7
:103A8000F7DC069911F8043B0691D9B2A84200D29E
:103A90000170401C511E002953DDA84201D280F85C
:103AA0000080401C491E0029F7DC82E0DDF818C0C8
:103AB0005CF8043BCDF818C003B952A34FF0000CDA
:103AC00001E00CF1010C944504D013F80CE0BEF1B8
:103AD000000FF6D1BBF1000F02DDDC4500DDDC4656
:103AE00011F0100F0CD11146521E614508DDA8429D
:103AF00001D280F80080401C1146521E6145F6DC60
:103B00000021BCF1000F10DDA84204E035E02EE0FA
:103B100039E019E039E003D293F800B080F800B042
:103B2000401C5B1C491C6145EEDB511E624540DDBB
:103B3000A84201D280F80080401C0A46491E624516
:103B4000F6DC36E01DE03FE0B2F1FF3F02D1082293
:103B500041F00101CDF804B00291069900921023C2
:103B600051F8042B06912946FEF7CAFC21E0A84231
:103B700001D280F800A0401C1BE0082305E041F0C2
:103B80004001102301E041F00201BEF16C0F1DD095
:103B9000BEF1680F21D0DDF818E05EF804CBCDF857
:103BA00018E000920291CDF804B062462946FEF773
:103BB000A7FC641C217800297FF4AAAEEFB1002194
:103BC000A84218D2017018E0641EF2E7DDF818E090
:103BD0005EF804CBCDF818E0E3E7DDF818C03CF858
:103BE00004EBCDF818C01FFA8EFC11F0020FD8D0EC
:103BF0000FFA8CFCD5E705F8011C07B0801BBDE867
:103C0000F08F0000284E554C4C29000000207047D2
:103C100000207047002070470020704710B5FCF767
:103C2000F9FAFEF7F3FDFFF70FFAFFF70DFBFFF7C9
:103C3000D9FAFEF71DFDFFF713FBFFF79FFBFFF718
:103C4000EFFA002010BD000010B50B4809490160D3
:103C50004FF4E131416000218160C16001610C22BB
:103C600042618161C161FDF713FD00B1FEE70020F3
:103C700010BD000000380140984000200100020003
:103C80000400060008000A000C001000200040009C
:103C90008000000101010103070100000804020483
:103CA00008010101000000000000000001020304FF
:103CB00006070809000000000102030400000100DB
:103CC00002000100030001000200010004000100E5
:103CD00002000100030001000200010005000100D4
:103CE00002000100030001000200010004000100C5
:103CF00002000100030001000200010006000100B3
:103D000002000100030001000200010004000100A4
:103D10000200010003000100020001000500010093
:103D20000200010003000100020001000400010084
:103D30000200010003000100020001000700010071
:103D40000200010003000100020001000400010064
:103D50000200010003000100020001000500010053
:103D60000200010003000100020001000400010044
:103D70000200010003000100020001000600010032
:103D80000200010003000100020001000400010024
:103D90000200010003000100020001000500010013
:103DA0000200010003000100020001000400010004
:103DB0000200010003000100020001003031323333
:103DC00034353637383961626364656600303132C4
:103DD00033343536373839414243444546000000D4
:103DE000193C0008113C0008493C00080D3C000843
:103DF000153C0008143E000800000020A40000004C
:103E000094210008B83E0008A4000020844400006B
:103E1000A4210008000000000000000000000000D5
:103E2000000000001400000010000000010000006D
:103E3000000000000024F40000000000000000006A
:103E40000000000000000000000000000000000072
:103E500000000000000000000100000048000020F9
:103E600048000020780000000200000058000020F8
:103E700058000020200000000A0000006800002018
:103E8000680000202C00000000000000000000007E
:103E90000000000000000000000000000000000022
:103EA0000000000000000000000000000000000012
:083EB00000000000000000000A
:04000005080001D915
:00000001FF
