:020000040800F2
:10000000A0490020810200082B330008A10300084A
:1000100029330008A50B0008733D0008000000000C
:100020000000000000000000000000009302000833
:10003000A70B000800000000EF02000805370008C9
:100040009B0200089B0200089B0200089B0200081C
:100050009B0200089B0200089B0200089B0200080C
:100060009B0200089B0200089B0200089B020008FC
:100070009B0200089B0200089B0200089B020008EC
:100080009B020008000000009B0200089B02000881
:100090009B0200089B0200089B0200089B020008CC
:1000A0009B020008113800089B0200089B02000810
:1000B0009B0200089B0200089B0200089B020008AC
:1000C0009B0200089B0200089B0200089B0200089C
:1000D0009B0200089B0200089B0200089B0200088C
:1000E0009B0200089B0200089B0200089B0200087C
:1000F0009B0200089B0200089B0200080000000011
:10010000000000009B020008000000009B020008A5
:100110009B020008000000009B0200089B020008F0
:100120009B0200089B0200089B0200089B0200083B
:100130009B02000800000000000000009B02000875
:100140009B0200089B020008000000000000000065
:10015000000000000000000000000000000000009F
:100160000000000000000000000000009B020008EA
:100170009B020008000000000000000000000000DA
:10018000000000009B0200080000000000000000CA
:10019000000000000000000000000000000000005F
:1001A00000000000000000009B0200089B02000805
:1001B0009B0200089B0200089B0200080000000050
:1001C000000000009B02000800000000000000008A
:1001D0009B0200089B02000800F002F800F041F8C2
:1001E0000AA090E8000C82448344AAF10107DA4592
:1001F00001D100F036F8AFF2090EBAE80F0013F0A3
:10020000010F18BFFB1A43F0010318475880000084
:1002100078800000103A24BF78C878C1FAD8520715
:1002200024BF30C830C144BF04680C607047000070
:100230000023002400250026103A28BF78C1FBD8EF
:10024000520728BF30C148BF0B607047642900F0D7
:100250009181002070471FB506F075FC1FBD10B5D9
:1002600010BD00F07CFB1146FFF7F5FF00F0B1FB7D
:1002700000F09AFB03B4FFF7F2FF03BC00F0A2FB0F
:100280000948804709480047FEE7FEE7FEE7FEE72A
:10029000FEE7FEE7FEE7FEE7FEE7FEE70448054966
:1002A000054A064B7047000001380008D9010008D4
:1002B000A0430020A0490020A0450020A045002028
:1002C000EFF3108072B6704780F310887047424A8F
:1002D0001368012B04D04FF0010313603F4A1060F4
:1002E0003F4A11603F484FF0805101607047EFF383
:1002F000108272B63848016851B34FF000010160B6
:100300003648016891B1EFF309811EF0100F08BF64
:1003100021ED108B21E9F00F4FF000041EF0100FBB
:1003200008BF012441F8044D006801602C490968A8
:10033000096808C9B1E8F00F002B18BFB1EC108BA9
:1003400081F309884EF0100E002B18BF2EF0100E0E
:1003500082F310884EF0040E704721490860EFF3D5
:10036000148222F0040282F314881C494FF000002A
:10037000086019494FF0010008601B481B49D0F87C
:10038000002041EA0201016016484FF080510160EF
:1003900017480068006880F3088861B662B6704745
:1003A0001EF0040F0CBFEFF30880EFF3098020E983
:1003B000F00F40F804ED40F804ED1EF0040F0CBF00
:1003C00080F3088880F3098800B505F0DBF95DF853
:1003D00004EB4EF0040E7047D8000020D00000203F
:1003E000D400002004ED00E020ED00E00000FFFF5D
:1003F00008ED00E053EA020C00F069802DE9F04BB3
:100400004FF00006002B1FBFB3FA83F503FA05F483
:1004100024FA05F65E4012BF1643B2FA82F502FADC
:1004200005F4C5F120051EBF22FA05FC44EA0C04C0
:10043000203556EA044C4FEA144418BF641C4FF0B0
:1004400000084FF00009904271EB030C39D30029EA
:1004500019BFB1FA81F701FA07F6B0FA80F700FA8E
:1004600007F6C7F120071EBF20FA07FC46EA0C0674
:100470002037B6FBF4FCA7EB0507103F07F01F0B76
:10048000CBF120060CFA0BFB2CFA06F644BFB34660
:100490000026202FA4BF5E464FF0000B5BEA060C3F
:1004A00008BF4FF0010B19EB0B09ABFB027C48EBCB
:1004B0000608C01B06FB02CC0BFB03CC71EB0C0146
:1004C000C1E70B46024641464846BDE8F08B13B5EE
:1004D0004FF000004FF00001AFF30080BDE81C407A
:1004E000704700000FB41CB5074B06AA7B44694651
:1004F0000090059800F01BFA0020694600F02AFAE7
:100500001CBC5DF814FB0000650400002DE9F041FF
:100510000E460446002020622046E168884730B33A
:10052000252805D0D4E901219047206A401CF2E734
:10053000E168204600278847050018D0A5F1410052
:10054000192802D820354FF4006732462946204644
:100550002760FFF77BFE40B1012804D0F61D26F08E
:1005600007060836D8E7361DD6E72846DAE7206AB8
:10057000BDE8F0812DE9F041064600241068752998
:10058000314616A510D0AFF30080002802DA4042B1
:1005900013A507E031688A0701D512A502E04907D3
:1005A00004D511A5012401E0AFF3008000210A2247
:1005B00006F1240709E0B0FBF2FCB0FBF2F302FB0A
:1005C0001C00303078541846491C0028F3D12346CB
:1005D0002A463046BDE8F04100F04BB9000000006B
:1005E0002D0000002B0000002000000040EA010365
:1005F000024630B59B0710D14FF0013400E008C22D
:1006000008C91D1B9D4315EAC41FF8D013F0FF0154
:1006100002F8011B0DD01B0AF8E711F8013B002B73
:1006200002F8013B05D011F8013B002B02F8013B19
:10063000F3D130BD10B5431C02E010F8011B71B1BD
:100640008107FAD14FF0013202C88C1A8C4314EAA8
:10065000C211F9D0C01A0A0603D0C01E10BDC01ABC
:1006600010BD0A0401D0801E10BD0902FCD0401E3E
:1006700010BD40EA010370B59B072ED14FF0013643
:10068000042A2AD308C810C99D1B9D43121F15EACE
:10069000C61517D0D8B2E1B2401A50EA056110D1A0
:1006A00098B2A1B2401A50EA05410AD123F07F4026
:1006B00024F07F41401A50EA052102D1180EA0EB28
:1006C000146070BDA342DBD018BA21BA884201D9A8
:1006D000012070BD4FF0FF3070BD0AB9002070BD21
:1006E00010F8013B11F8014B63B1A3420AD1521E2D
:1006F00008D010F8013B11F8014B1BB1A34201D106
:10070000521EEDD1181B70BD421E12F8013F002B86
:10071000FBD111F8013B002B02F8013BF9D17047E6
:1007200010B5203AC0F00B80B1E81850203AA0E88C
:100730001850B1E81850A0E81850BFF4F5AF5FEAC0
:10074000027C24BFB1E81850A0E8185044BF18C973
:1007500018C0BDE810405FEA827C24BF51F8043B1A
:1007600040F8043B08BF7047D20728BF31F8023B6E
:1007700048BF11F8012B28BF20F8023B48BF00F802
:10078000012B70474FF000020429C0F0128010F0D6
:10079000030C00F01B80CCF1040CBCF1020F18BF5D
:1007A00000F8012BA8BF20F8022BA1EB0C0100F0F0
:1007B0000DB85FEAC17C24BF00F8012B00F8012BC3
:1007C00048BF00F8012B70474FF0000200B51346F8
:1007D00094469646203922BFA0E80C50A0E80C5061
:1007E000B1F12001BFF4F7AF090728BFA0E80C5012
:1007F00048BF0CC05DF804EB890028BF40F8042B0B
:1008000008BF704748BF20F8022B11F0804F18BF77
:1008100000F8012B704710B5044610F0030F08BF15
:1008200011F0030F40F015804FF0013E121FC0F28F
:100830000E8051F8043BA3EB0E0C2CEA030C1CEACF
:10084000CE1C08BF40F8043BF0D0A1F1040102F136
:100850000402521E08DB11F8013B002B00F8013B9B
:10086000F7D11146FFF78EFF204610BD7047704745
:1008700070472DE9F0470D4699469246044600F12F
:1008800024080168880604D5E06921F01001216080
:1008900000E00120A84201DD471B00E00027A1691C
:1008A0007A1902EB0900081AA0612078C00602D468
:1008B0002046AFF30080002608E0D4E901211AF8B1
:1008C00006009047206A401C761C20624E45F4DBEF
:1008D0002078C0060AD52046AFF3008006E0D4E9B0
:1008E000012130209047206A401C2062381EA7F169
:1008F0000107F4DC07E0D4E9012118F8050090476E
:10090000206A401C2062281EA5F10105F3DC204668
:10091000AFF300802078000602D50220BDE8F08702
:100920000120FBE701694A1C02610878704700B5A5
:100930008FB0CDE901310021059105497944CDE918
:10094000031011466846FFF7E1FD0FB000BD00003F
:10095000E5FFFFFF0A6802F8010B0A607047754661
:1009600000F02CF8AE4605006946534620F007001B
:10097000854618B020B5FFF791FCBDE820404FF048
:1009800000064FF000074FF000084FF0000B21F079
:100990000701AC46ACE8C009ACE8C009ACE8C00946
:1009A000ACE8C0098D46704710B50446AFF300802F
:1009B0002046BDE81040FFF75DBC000000487047CE
:1009C0003C43002001491820ABBEFEE72600020090
:1009D000704710B505F0A0FF002010BD2DE9F041D3
:1009E000044600270D46006802F01CFB06462068FE
:1009F00002F014FB30435DD02068C1682E4E89019F
:100A000005D5617F012902D1217F01290BD0022D5B
:100A10001DD0206802F006FBB8B120688168C1F3E0
:100A2000400169B111E00125244902E08F4232D230
:100A30007F1C0268D2435206F8D440210160E8E7E7
:100A40008168314041F010018160012D11D0206892
:100A500002F0E4FA48B120688168C1F3400121B98D
:100A60008168314041F020018160022D08D0032DC2
:100A700004D0042500F0ECFE064617E00C25F9E74B
:100A80000825F7E700F0E4FE801B05280ED9206852
:100A9000806828420AD0E06D40F01000E065206ECA
:100AA00040F0010020660120BDE8F08120688068E8
:100AB0002842E7D10020F7E7C0FFFF7F000040A3F6
:100AC00070B50446006881688268C1F3400112F085
:100AD000010F28D039BB816801F00D01012914D123
:100AE0008168124A1140891C8160216803200860D6
:100AF00000F0AEFE054612E000F0AAFE401B022800
:100B00000DD920688068C00709D0E06D40F0100062
:100B1000E065206E40F001002066012070BD206875
:100B20008068C007E8D1002070BD0000C0FFFF7FD3
:100B300070B504460068816811F0010F2DD18168FD
:100B4000174A11421AD18168D5432940491C816056
:100B500000F07EFE06461BE0816811F0010F03D114
:100B600081682940491C816000F072FE801B0228C8
:100B70000ED920680068C043C00709D0E06D40F07E
:100B80001000E065206E40F001002066012070BD7D
:100B900020680168C943C907DED1002070BD00008C
:100BA0003F000080FEE77047002240F6B83306E0C1
:100BB0000021491C89B29942FBD3521C92B2824255
:100BC000F6D3704772B6FEE72DE9F047044690F879
:100BD00058009CB00E464FF00009012815D00120A6
:100BE00084F8580000251795189520684FF0A04804
:100BF00040450ED1284F0097384602F017FA82463A
:100C0000206802F013FA60B10EE002201CB0BDE8CB
:100C1000F087E06D40F02000E06584F85850012036
:100C2000F4E7BAF1000F09D0E06D40F02000E06574
:100C30004FF0010984F858504846E7E717483268F2
:100C400040F61F71002A826822F4604216D094F8A0
:100C5000383042EA433273681A438260D8F8082079
:100C6000BB6802F0010203F001031A43E2D1B3684A
:100C700032681A4383688B431A430BE08260D8F8CA
:100C80000820BB6802F0010203F001031A43D1D12E
:100C900082688A438260CDE7000100500003005063
:100CA0002DE9F84F00270446009790F85800DFF828
:100CB000D8930D46B846012811D0012684F8586013
:100CC000206802F0AFF960B1E06D40F02000E0650F
:100CD0005FF0010784F858803846BDE8F88F02209D
:100CE000FBE7D5E900210C23206803EA911318449F
:100CF000036B01F01F014FF01F0C0CFA01FCC2F353
:100D0000846223EA0C038A4013430363206802F0E1
:100D100089F98246206802F081F95AEA00003CD144
:100D2000AA6829682068B2F1004F37D002F08AF92A
:100D30002068416921F00041416120686969C26809
:100D4000C2F3C102520091402A69042A31D000EB5B
:100D500082002B68026EDFF834C303F0F84302EA26
:100D60000C020B431A4342F00041016620682A69D5
:100D7000A96900EB8200026E22F080720A430266CB
:100D8000297F22682869012910D0002102EB800008
:100D9000026E22F000720A4302667DE0002202F039
:100DA00051F92068416941F00041C5E74FF00071F9
:100DB000ECE7002102F02CF9400320684FF000011D
:100DC00072D002F025F990FAA0F0B0FA80F128680C
:100DD00042036ED090FAA0F0B0FA80F0814204D1C4
:100DE00000221146206802F03CF90121206802F03F
:100DF0000FF9400320684FF001015DD002F008F9BF
:100E000090FAA0F0B0FA80F12868420359D090FA25
:100E1000A0F0B0FA80F0814204D1002201212068C4
:100E200002F01FF90221206802F0F2F84003206866
:100E30004FF0020148D002F0EBF890FAA0F0B0FABF
:100E400080F12868420344D090FAA0F0B0FA80F014
:100E5000814204D100220221206802F002F903211C
:100E6000206802F0D5F8400320684FF0030133D02A
:100E700002F0CEF890FAA0F0B0FA80F128684203B0
:100E80002FD090FAA0F0B0FA80F0814204D1002275
:100E90000321206802F0E5F82068816811F0010F55
:100EA00022D0A8E000E004E002F0B2F8C0F38461D0
:100EB0008DE7C0F3846091E702F0AAF8C0F3846183
:100EC000A2E7C0F38460A6E702F0A2F8C0F3846151
:100ED000B7E7C0F38460BBE702F09AF8C0F384611F
:100EE000CCE7C0F38460D0E7EB6829684B4550F845
:100EF000B03FC1F3120101D10B4300E08B4303600B
:100F0000E868484577D1286841031CD090FAA0F1E1
:100F1000B1FA81F1491C01F01F0109294FEA403162
:100F200032D8002912D000BF90FAA0F1B1FA81F1B5
:100F300001F1010101F01F0106FA01F609D100BF1C
:100F4000C0F3846109E0C0F38461E3E7C0F3846126
:100F5000EEE790FAA0F1B1FA81F101F1010101F09F
:100F60001F0146EA816102D1C0F3846003E090FA78
:100F7000A0F0B0FA80F000F1010000F01F0000EBDB
:100F8000400041EA005132E000290ED090FAA0F171
:100F9000B1FA81F101F1010101F01F0106FA01F638
:100FA00006D100BFC0F3846106E0C0F38461F1E7BD
:100FB00090FAA0F1B1FA81F101F1010101F01F01F4
:100FC00046EA816102D1C0F3846003E090FAA0F0A8
:100FD000B0FA80F000F1010000F01F002C4A00EB95
:100FE000400002EB005041EA000141F00071AA68A4
:100FF000206802F027F827482A6802423FF46AAEC8
:1010000025488168254B01F0E0719A4202D0244BBB
:101010009A421CD10B021AD42268B2F1A04F7FF47D
:1010200059AE826841F4000122F0E0720A43826006
:101030001C481D490068B0FBF1F0401C00EB40006B
:10104000800000E0401E00900028FBD142E6174DD2
:10105000174BAA4207D1CD0105D422689A42F5D098
:1010600041F0807109E0134DAA42EFD14A02EDD45C
:1010700022689A42EAD041F48001826822F0E0724C
:101080000A43826026E6000000007F4000F0FF0374
:10109000000020FE0000088000030050000021C373
:1010A0001000C09038000020400D0300000052C71F
:1010B00000010050000084CB0068006C7047000005
:1010C000F8B54FF0000504002E46009502D0E06D03
:1010D00010B107E00120F8BD204600F0EFF82666C9
:1010E00084F8586020688168C1F3407119B1816843
:1010F0006A4A1140816020688168C1F3007189B932
:101100008168674A114041F08051816065486649B5
:101110000068B0FBF1F04000801C00E0401E009031
:101120000028FBD120688168C1F3007141B9E16DED
:1011300041F01001E165216E41F0010121660125B8
:1011400001F070FFE16DC90600D430B1E06D40F0F0
:101150001000E06501252846F8BDE06D20F48070A0
:1011600040F00200E0652068806810F0010F11D1A6
:101170004FF0A04080684D4900F00100896801F0FF
:101180000101084306D14A486168826822F47C1252
:101190000A438260E168E06B627F0843A16841EA2C
:1011A0004231084394F8241040EA0140012904D157
:1011B000218D404A02EB41410843E16A29B101F423
:1011C0007871226B014342EA01002168CA683A4BF8
:1011D0001A400243CA6020680169626B21F04061D5
:1011E00011430161206801F01DFF0646206801F0EF
:1011F00015FF30432ED1207F94F83810800340EA49
:1012000041022068C16844F2020399431143C1605E
:1012100020690028206801690AD041F48031016109
:10122000206850F8C01F22696FF30D01114307E0D9
:1012300021F480310161206850F8C01F6FF30D0167
:10124000016094F8400001280CD02068016921F069
:1012500001010161606901282068016B21F00F0123
:1012600011D013E0D4E911010843D4E9131211435A
:10127000084321680A6940F2FC739A43104340F026
:1012800001000861E6E7226A521E11430163E06D26
:1012900020F0020040F00100E0655CE7C0FFFF5F66
:1012A000C0FFFF7F38000020400D03000001005008
:1012B000000300500000FEFF0740F0FF2DE9F0435F
:1012C00097B00446142111A8FFF77EFA442168461E
:1012D000FFF77AFA4FF0005021682D4D0327DFF811
:1012E000B49086132C4C4FF00008B1F1A04F10D0F1
:1012F0002A4A914248D100960F90684600F0C8FBF8
:1013000008B1FFF75FFC2868401C2860012824D042
:101310002BE000960F90684600F0BAFB08B1FFF78B
:1013200051FC2868401C2860012807D1E06C40F47B
:101330000050E064E06C00F400501690E06C40F067
:101340000200E064E06C11A900F0020016904FF476
:10135000805081E88101484614E0E06C40F4005080
:10136000E064E06C00F400501690E06C40F0020085
:10137000E064E06C11AA00F00200169082E8C0015F
:1013800011A9484600F036F917B0BDE8F083000017
:101390002800002000040048001002400001005016
:1013A0002DE9F04104463B480F46816801F01F05D6
:1013B000A16908290FD085B1052D0ED0092D0CD0BB
:1013C000806800F4604060B1E06D40F02000E065AE
:1013D0000120BDE8F081082604E02068C068C0074D
:1013E000F1E7042600F034FA804615E0781C13D0AB
:1013F00000F02EFAA0EB0800B84200D867B92068C8
:101400000068304208D1E06D40F00400E065002043
:1014100084F858000320DCE7206800683042E5D0FB
:10142000E06D40F40070E065206801F003FE80B1DB
:10143000607F70B92068006800070AD5E06D20F46D
:101440008070E065E06DC00403D4E06D40F0010001
:10145000E065114A20684FF0A041904201D10B464F
:1014600000E00346834210D07DB1052D0DD0092D3B
:101470000BD0904200D00146C968082E07D049041D
:1014800001D40C2101600020A3E7C168F5E7082121
:10149000F8E7000000030050000100502DE9F04182
:1014A00004463848806800F01F05206801F0BAFD46
:1014B00018B102210846BDE8F08194F858000128CF
:1014C0000CD0012084F858002046FFF731FB0100C2
:1014D0004FF0000304D084F85830EBE70220EAE72D
:1014E000E06D40F60162904340F48070E065264A6A
:1014F00020684FF0A046904201D1374600E00746F1
:10150000874200D01DB9E76D27F48017E765E76DC6
:10151000FF0404D5276E27F00607276600E0236640
:101520001C27076084F858302068904201D1334668
:1015300000E00346834215D0A5B1052D12D0092D38
:1015400010D0E36D43F48013E365904200D1304640
:10155000C0688001AED5E06D20F4005040F48050AA
:10156000E065A7E7C268920105D5E26D22F400525A
:1015700042F48052E2658268044B1A40121D826078
:1015800098E700000003005000010050C0FFFF7FFB
:1015900010B5044690F85800012808D0012084F8BE
:1015A000580003212046FFF719FA10B10BE0022082
:1015B00010BD2046FFF784FA28B9E16D21F4885167
:1015C00041F00101E165002184F8581010BD0000D0
:1015D00070B5044600F03CF90546601C02D0044892
:1015E0004068044400F034F9401BA042FAD370BDB7
:1015F0002C0000202DE9F04FDFF820920023012677
:101600000324A9F1040B85B00F2709F1040AABF1FB
:10161000040EFAE006FA03F52A407CD091F804C0E3
:101620000CF0030CBCF1010F02D0BCF1020F26D16B
:10163000D0F808C0CDF800C04FEA430C04FA0CF80B
:10164000CDF810C0DDF800C02CEA080CCDF800C0C1
:10165000D1F80C80DDF810C008FA0CF8DDF800C0F5
:1016600048EA0C08C0F80880D0F804C02CEA050C41
:101670000D79C5F300159D4045EA0C0545600D79CF
:10168000ED43AD070ED0C5684FEA430804FA08FCE5
:1016900025EA0C05D1F808C00CFA08FC4CEA050C48
:1016A000C0F80CC00D7905F00305022D16D1DD0838
:1016B00000EB850CCDF808C0DCF820805D074FEA10
:1016C000D56C07FA0CF528EA05080D6905FA0CF542
:1016D000DDF808C045EA0805CCF8205005684FEA57
:1016E000430CCDF808C004FA0CFC25EA0C0591F86F
:1016F00004C00CF00308DDF808C008FA0CF848EA4A
:101700000508C0F800804D6815F4403F7CD0444D7A
:10171000D5F860C000E077E04CF0010CC5F860C07F
:101720002D6E23F0030C05F0010500953D4D654439
:101730000295AD684FEA837C4FEA1C7807FA08FCF3
:1017400025EA0C05B0F1904F06D0DFF8DCC060450B
:1017500005D14FF0010C20E04FF0000C1DE0DFF848
:10176000CCC0604502D14FF0020C16E0DFF8C0C0DB
:10177000604502D14FF0030C0FE0DFF8B8C06045C0
:1017800002D14FF0040C08E0DFF8ACC0604502D194
:101790004FF0050C01E04FF0060C0CFA08FC4CEA87
:1017A000050C029DC5F808C0D9F80050CC46D1F808
:1017B000048095435FEAC82800D51543CCF8005053
:1017C000DAF80050D446D1F8048095435FEA8828BF
:1017D00000D51543CCF80050DBF80050DC46D1F8BA
:1017E000048095435FEA883800D51543CCF8005053
:1017F000DEF80050F446D1F8048095435FEAC8381B
:1018000000D51543CCF800505B1C0A6832FA03F58A
:101810007FF400AF05B0BDE8F08F00000804014080
:101820000010024000000140000400480008004889
:10183000000C0048001000480014004800690840EF
:1018400000D0012070470AB1816170478162704702
:1018500001488068704700002C0000200248816821
:1018600042681144816070472C00002010B50024AC
:10187000032000F095F80F2000F008F808B10124CB
:1018800001E000F047F8204610BD000030B50546E5
:101890001B4887B0016E41F400610166006E06A925
:1018A00000F40060009001A800F024FB00F05AFB57
:1018B0001449154AB0FBF1F11448491E0260416019
:1018C00040F2E7320021C0E90321816000F003FE0D
:1018D000040012D10D4800F043FE04000DD1192080
:1018E00000F030F8102D07D200222946192000F010
:1018F00037F80748056000E0012407B0204630BDF6
:101900000010024040420F00002C0140BC020020A9
:101910002C0000200A4882B0016E41F001010166EE
:10192000016E01F001010091816D41F080518165EE
:10193000806D00F08050009002B000F0A1B800006F
:1019400000100240002809DB00F01F020121914035
:101950004009800000F1E020C0F80011704700004D
:10196000F0B40E4B1B680C46C3F30223C3F107050A
:10197000042D00D90425191D072901D2002300E0F8
:10198000DB1E012606FA05F1491E214099409E40C2
:10199000761E16403143F0BC02F0ECB90CED00E0CD
:1019A000064900F0070208684FF6FF03184040EAB6
:1019B0000220034A10430860704700000CED00E06D
:1019C0000000FA052B492C4B0A6832214A432B4967
:1019D00040B1B0F5007F086829D020F4C06040F421
:1019E00080602CE00868C0F34120022804D051F840
:1019F000800F20F4807022E0D1F8800020F4807005
:101A0000C1F88000086820F4C06040F400700860ED
:101A1000B2FBF3F0401C00E0401E4A69520501D5BC
:101A20000028F9D1486940050AD503207047C0F362
:101A30004120022806D051F8800F40F480700860E1
:101A400000207047D1F8800040F48070C1F8800019
:101A5000086820F4C06040F400700860B2FBF3F046
:101A6000401C00E0401E4A695205DBD50028F9D130
:101A7000D8E700003800002040420F00007000400E
:101A80000248816841F480418160704700700040E5
:101A90002DE9F8430446006800269D4D00035ED5FD
:101AA000A86D0027C00008D4A86D40F08050A8653C
:101AB000A86D012700F080500090DFF85892D9F807
:101AC000001041F48071C9F80010FFF7C1FE804694
:101AD00006E000BFFFF7BCFEA0EB080002282BD8F1
:101AE000D9F80000C005F5D5D5F8900010F4407085
:101AF00014D0216C814211D0D5F89000D5F8901007
:101B000020F4407041F48031C5F89010D5F8901061
:101B100021F48031C5F89010C5F89000C00711D0AD
:101B2000FFF796FE804641F2883907E0FFF790FE06
:101B3000A0EB0801494501D903260BE0D5F8900038
:101B40008007F3D5D5F89000216C20F4407008434D
:101B5000C5F890001FB1A86D20F08050A8652078CE
:101B6000C00707D0D5F88800616820F0030008435B
:101B7000C5F888002078800707D5D5F88800A168C7
:101B800020F00C000843C5F888002078400707D5EE
:101B9000D5F88800E16820F030000843C5F88800D7
:101BA0002078000707D5D5F88800216920F0C0000B
:101BB0000843C5F888002078800607D5D5F8880046
:101BC000616920F440600843C5F888002078400629
:101BD00007D5D5F88800A16920F440500843C5F81E
:101BE00088002078000607D5D5F88800E16920F440
:101BF00040400843C5F888002088C00507D5D5F8BF
:101C00008800216A20F440300843C5F88800208805
:101C1000800507D5D5F88800616A20F44020084384
:101C2000C5F88800208840050FD5D5F88800A16A3E
:101C300020F440100843C5F88800A06AB0F5801F62
:101C400003D1E86840F48010E860208800050FD5D3
:101C5000D5F88800E16A20F440000843C5F8880000
:101C6000E06AB0F5800F03D1E86840F48010E860C6
:101C70002088C0040FD5D5F88800216B20F0407073
:101C80000843C5F88800206BB0F1807F03D1E86875
:101C900040F48010E86020884FF0006180040ED589
:101CA000D5F88800626B20F040601043C5F88800CA
:101CB000606B884203D1E86840F48010E8602088B7
:101CC00040040ED5D5F88800A26B20F04060104388
:101CD000C5F88800A06B884203D1E86840F4801002
:101CE000E860208800040FD5D5F88800E16B20F06B
:101CF00040500843C5F88800E06BB0F1805F03D125
:101D0000E86840F48030E8603046BDE8F8830000C1
:101D100000100240007000402DE9F0470E4605001B
:101D20004FF0000725D0DFF8AC81D8F8000000F0B4
:101D30000F00B0420CD2D8F8001021F00F0131434F
:101D4000C8F80010D8F8000000F00F00B04210D121
:101D50002968614CC80741F2883A5AD06868DFF8B0
:101D60007C91032808D0022820682DD04005002847
:101D70002CDB0120BDE8F08720688001F9D5E06800
:101D800000F00302E068C0F30310401C032A19D0DE
:101D9000534A00BFB2FBF0F0E268C2F306225043A0
:101DA000E268C2F34162521C5200B0FBF2F04845B7
:101DB00017D9A06810F0F00F0CD0880711D5A868CB
:101DC00040B10EE0474AE5E78003D0E700F0DCF8D9
:101DD000484506D9A06820F0F00040F08000A060DF
:101DE0008027A068696820F003000843A060FFF71F
:101DF0002FFD814606E000BFFFF72AFDA0EB090199
:101E000051453AD8A068696800F00C00B0EB810F2A
:101E1000F2D12868810714D5400703D5A06840F4A3
:101E2000E060A0602878000705D5A06820F4605025
:101E300040F4E060A060A068A96820F0F0000843CA
:101E400004E0802F03D1A06820F0F000A060D8F853
:101E50000010404601F00F01B14216D9016821F08F
:101E60000F0131430160FFF7F3FC074607E000BFB5
:101E7000FFF7EEFCC11B514501D903207AE7D8F8E2
:101E8000000000F00F00B042F2D12878400705D5DD
:101E9000A068E96820F4E0600843A06028780007A3
:101EA00006D5A068296920F4605040EAC100A0600E
:101EB00000F06AF8A1680C4AC1F30311515C01F00B
:101EC0001F01C8400949086009480068BDE8F0479B
:101ED000FFF7DCBC002002400010024000B4C40444
:101EE0000024F40000366E01487D00083800002010
:101EF0002C0000200F2202600C4A936803F00303B9
:101F00004360936803F0F0038360936803F4E06335
:101F1000C36092684FF4E06303EAD20202610448AE
:101F2000006800F00F0008607047000000100240D9
:101F3000002002400148006870470000380000207F
:101F40000548064900688968054AC1F30221515CC9
:101F500001F01F01C8407047380000200010024007
:101F6000587D00080548064900688968054AC1F39C
:101F7000C221515C01F01F01C840704738000020A9
:101F800000100240587D0008184910B58868C0F359
:101F900081021748012A0BD08A68164BC2F38102CE
:101FA000022A06D08A68C2F38102032A03D00020E5
:101FB00010BD184610BDCA6802F00304CA68C2F317
:101FC0000312521C032C02D0B0FBF2F001E0B3FB71
:101FD000F2F0CA68C968C2F306225043C1F34161F6
:101FE000491C4900B0FBF1F010BD00000010024098
:101FF0000024F40000366E012DE9F84304007AD085
:102000002078FA4DC00747D0A868E96800F00C00B6
:1020100001F003010C2802D0082817D001E00329A1
:1020200014D06068B0F5803F17D0B0F5A02F2868B5
:1020300017D020F480302860286820F480202860A1
:102040006068E0B1FFF704FC064614E028688003EE
:1020500022D560680028D2D01EE0286840F4803085
:10206000EDE740F480202860F7E700BFFFF7F0FBC2
:10207000801B642870D828688003F7D50CE0FFF730
:10208000E7FB064605E000BFFFF7E2FB801B642884
:10209000F0D828688003F7D4207880074CD5A8684A
:1020A000E96800F00C0001F003010C2802D00428BC
:1020B0000DD001E002290AD0E068002828682BD062
:1020C00040F480702860FFF7C3FB064619E02868DB
:1020D000400502D5E068002891D06868217C20F096
:1020E000FE4040EA01606860C1480068FFF7CEFB2F
:1020F000002800D120E076E1FFF7AAFB801B022830
:10210000B8D828684005F7D56868217C20F0FE40E3
:1021100040EA016068600FE020F480702860FFF7FB
:1021200097FB064605E000BFFFF792FB801B0228E5
:10213000A0D828684005F7D42078000729D5606921
:102140000028D5F8940013D040F00100C5F89400A1
:10215000FFF77EFB064606E090E000BFFFF778FB46
:10216000801B022886D8D5F894008007F6D510E0A9
:1021700020F00100C5F89400FFF76AFB064604E072
:10218000FFF766FB801B022878D8D5F894008007FB
:10219000F6D42078400761D5A86D0026C00008D489
:1021A000A86D40F08050A865A86D012600F0805011
:1021B000009090480168C90511D40168804641F437
:1021C00080710160FFF744FB074604E0FFF740FB26
:1021D000C01B022852D8D8F80000C005F6D5A06868
:1021E000012815D00528D5F8900016D020F0010060
:1021F000C5F89000D5F8900020F00400C5F89000D4
:10220000A06841F28838B8B1FFF722FB07460EE01C
:10221000D5F8900040F00100F0E740F00400C5F868
:102220009000F5E7FFF714FBC11B414526D8D5F810
:1022300090008007F6D50CE0FFF70AFB074604E0A4
:10224000FFF706FBC11B414518D8D5F89000800761
:10225000F6D41EB1A86D20F08050A86520788006C5
:1022600029D5A0690028D5F8980013D040F00100C6
:10227000C5F89800FFF7ECFA064606E077E000BFE5
:10228000FFF7E6FA801B022877D8D5F89800800778
:10229000F6D510E020F00100C5F89800FFF7D8FA55
:1022A000064604E0FFF7D4FA801B022865D8D5F86B
:1022B00098008007F6D4E069F0B3A968C1F3810102
:1022C000032961D00228286820F0807028600BD094
:1022D000E86820F00300E860E86847490840E860E3
:1022E000FFF7B6FA04464BE0FFF7B2FA064604E001
:1022F000FFF7AEFA801B02283FD828688001F7D488
:10230000F4E908016FF00F0202EB01110843218A82
:102310005204490802EB4151A26841EA02210843F4
:10232000217D4FF07E42490802EB41610843217B49
:1023300040EAC160E96800E062E0304A11400843C9
:10234000E860286840F080702860E86840F080709D
:10235000E860FFF77DFA044605E000BFFFF778FA72
:10236000001B022809D828688001F7D548E004E05E
:10237000FFF76EFA001B022802D90320BDE8F8839C
:1023800028688001F4D43BE00128F7D0E868226A8D
:1023900000F00301914226D1616A00F0F0020901C8
:1023A000103991421FD1A26A00F4FE41B1EB022F15
:1023B00019D194F82C2000F07841B1EBC26F12D102
:1023C000218E00F4C00249084905A1F5001191428F
:1023D00009D194F8341000F0C06049084906A1F111
:1023E000007181420CD00120C8E7000000100240BB
:1023F0002C00002000700040FFFFEEFE0C809F01CB
:102400000020BBE710B5401EB0F1807F01D3012052
:1024100010BD4FF0E02460610F21601701F0AAFCAD
:102420000020A06107202061002010BD7047704788
:102430007047704770477047F0B590F83C20012A0C
:102440003AD0012580F83C50022280F83D200368F4
:102450005A689C68194E1A4FB34201D0BB4204D14E
:1024600022F4700C4A6842EA0C02DFF858C002EA13
:102470000C02D1F800C04CEA020CC3F804C0026898
:10248000B2420DD0B2F1804F0AD00F4B9A4207D022
:102490000E4B9A4204D0BA4202D00D4B9A4204D15C
:1024A000896824F080031943916080F83D50002131
:1024B00080F83C100846F0BD0220F0BD002C014021
:1024C000003401408FFFFFFD000400400008004081
:1024D00000400140704710B5040003D094F83D005F
:1024E00010B107E0012010BD002084F83C00204618
:1024F00000F022F8022084F83D00211D206801F040
:102500008DF9012084F8480084F83E0084F83F00EB
:1025100084F8400084F8410084F8420084F84300C5
:1025200084F8440084F8450084F8460084F84700A5
:1025300084F83D00002010BD08B5006806498842B7
:1025400008D10648816D41F010018165806D00F071
:102550001000009008BD0000001000400010024074
:1025600090F83D10012901D001207047022180F828
:102570003D100168CA6842F00102CA600068104953
:1025800088420ED0B0F1804F0BD00E49884208D05F
:102590000D49884205D00D49884202D00C49884235
:1025A00007D181680B4A1140062906D0B1F5803F5A
:1025B00003D0016841F00101016000207047000074
:1025C000002C01400004004000080040003401409D
:1025D0000040014007000100704770B504460068E4
:1025E00001694FF00005C943890715D4C168C94383
:1025F000890711D4E91E01610120207720688069D4
:102600008007204602D0FFF7E7FF04E000F0E3F880
:10261000204600F0E1F8257720680169C9434907A1
:1026200017D4C168C943490713D46FF0040101618D
:10263000022020772068806910F4407F204602D075
:10264000FFF7CAFF04E000F0C6F8204600F0C4F827
:10265000257720680169C943090716D4C168C943B1
:10266000090712D46FF00801016104202077206867
:10267000C0698007204602D0FFF7AEFF04E000F0FB
:10268000AAF8204600F0A8F8257720680169C94318
:10269000C90617D4C168C943C90613D46FF0100125
:1026A0000161082020772068C06910F4407F20462F
:1026B00002D0FFF791FF04E000F08DF8204600F013
:1026C0008BF8257720680169C943C90708D1C1681B
:1026D000C943C90704D1891E0161204600F07EF874
:1026E00020680169C943090609D4C168C9430906BC
:1026F00005D46FF0800101612046FFF798FE206845
:102700000169C943C90509D4C168C943090605D48B
:102710006FF4807101612046FFF788FE206801692F
:10272000C943490609D4C168C943490605D46FF0B5
:1027300040010161204600F05BF820680169C9434F
:10274000890609D4C168C943890605D46FF0200100
:1027500001612046FFF76CFE20680169C943C90288
:1027600009D4C168C943C90205D46FF4801101615D
:102770002046FFF75FFE20680169C943890209D43A
:10278000C168C943890205D46FF400110161204674
:10279000FFF74FFE20680169C943490209D4C168A7
:1027A000C943490205D46FF4800101612046FFF757
:1027B00042FE20680169C94309020BD4C168C943BC
:1027C000090207D46FF4000101612046BDE87040A2
:1027D000FFF780BE70BD7047704700000068034976
:1027E000884201D1FFF73AB870470000002C014041
:1027F000704790F88010012918D0012180F88010CE
:102800002421C0F8841050F8641B0A680B6823F078
:1028100001030B6022F000510022026050F8643C7A
:10282000196020210162027710467047022070472C
:1028300070B5044690F8800001281DD0012084F86E
:1028400080002420C4F8840020680568026822F013
:10285000010202602068826822F060620A4382609E
:10286000204601F033F8206805602020C4F8840079
:10287000002084F8800070BD022070BD70B5044651
:1028800090F8800001281DD0012084F880002420C9
:10289000C4F8840020680568026822F00102026022
:1028A0002068826822F060420A438260204601F07C
:1028B0000DF8206805602020C4F88400002084F80A
:1028C000800070BD022070BD10B5040003D0D4F8A4
:1028D000840010B107E0012010BD002084F88000C2
:1028E000204600F027F82420C4F8840020680168FE
:1028F00021F001010160204601F09EF80128EBD093
:10290000A06A10B1204601F003F82068416821F464
:10291000904141602068816821F02A01816020682F
:10292000016841F0010101602046BDE8104001F05E
:1029300053B8000010B598B00446142111A8FDF753
:1029400043FF44216846FDF73FFF1749206888424E
:1029500028D101200024CDE900046846FFF798F84B
:1029600008B1FEF72FF91148016E41F4804101666C
:10297000016E01F480411691C16C41F00101C16406
:10298000C06C11A900F0010016904FF4C0601190C6
:102990000220CDE912040720CDE914404FF0904009
:1029A000FEF728FE18B010BD0038014000100240AC
:1029B0002DE9F8430446D0F884001F4616460D461C
:1029C000202851D1DDB1D6B194F8800001284BD038
:1029D000012084F880004FF00008C4F88C8021208A
:1029E000C4F884001834FEF733FFA6878146E687D3
:1029F00054F8100C183CB0F5805F03D004E00120BF
:102A0000BDE8F883206920B12E46002584F8808037
:102A100010E00026FAE78021204601F047F9B8B916
:102A2000C6B116F8010B21688862B4F85600401E42
:102A3000A4F85600B4F856004B464FF00002009739
:102A40000028E8D14FF04001204601F02FF930B1C5
:102A50000320D5E735F8020BC0F30800E3E7202098
:102A6000C4F884000020CBE70220C9E73E4D3F4C6C
:102A70004FF09047207820B1012828D002286FD14C
:102A800044E001212846FEF7D9FEC0B1002602210C
:102A90002846FEF7D3FEA0B10020064304212846B5
:102AA000FEF7CCFE78B10020064301213846FEF740
:102AB000C5FE50B10020064352D001204FE0012650
:102AC000E5E70120E9E70120EEE70120F3E7012136
:102AD0002846FEF7B3FE4FF0020190B12846FEF7FC
:102AE000ADFE4FF0040160B12846FEF7A7FE28B105
:102AF00001213846FEF7A2FE10B105E0082100E0F2
:102B00001021E06902F01AFD022028E00121284688
:102B1000FEF794FED0B1002602212846FEF78EFE75
:102B2000B0B10020064304212846FEF787FE88B195
:102B30000020064301213846FEF780FE60B10020E8
:102B400006430BD0A0680A30A06009E00126E3E745
:102B50000120E7E70120ECE70120F1E700202070E9
:102B60000A2003F01AFB85E7000400480800002053
:102B700000B585B014216846FDF726FE4FF6FF70BC
:102B8000009000200321CDE902010190694602482E
:102B9000FEF730FD05B000BD0008004800B585B067
:102BA00014216846FDF710FE4FF6FF7000900120DB
:102BB0000190032003900020029069460248FEF72E
:102BC00019FD05B000BD00000008004870B50024E4
:102BD00006462146204600F003F900F041F94FF483
:102BE0009635304600F010F9641CAC42F9D370BD44
:102BF00030B587B014216846FDF7E6FD1E48C16C6C
:102C000041F00401C164C16C01F004010591C16C83
:102C100041F00101C164C16C01F001010591C16C79
:102C200041F00201C164C06C012500F00200059072
:102C30004FF44870CDE900050024039469460294DE
:102C40000E48FEF7D7FC280203940090CDE901540A
:102C50004FF0904469462046FEF7CCFCFFF79EFFFC
:102C6000A06940F48070A06104481830016841F404
:102C70000871016007B030BD001002400004004838
:102C8000203AD2B2034B02EB420203EB021200F0F5
:102C900019B80000506B0008F0B50E460746002535
:102CA00040F23F1407E021463846FFF7E9FF103CA9
:102CB0006D1CA4B2761C3278002A01D0142DF2D3F8
:102CC000F0BD00002DE9F04791468A4600260446F3
:102CD00000F086F8DFF84080012700BF00F0C0F860
:102CE0005FF0000539F8160007FA05F10842404682
:102CF00001D1408800E0008800F086F86D1C102D9E
:102D0000F0D3641CE4B25146204600F069F8761C0A
:102D1000182EE3D3BDE8F0870000002010B5FFF7C0
:102D200067FF002000F014F8084CA080A088A0F5F0
:102D30000241303906D000F082FB002000F008F894
:102D4000A08010BD00F0F2FAF7E7000000000020BC
:102D500070B51D490A6842F400720A600A6842F4BC
:102D600080720A60184C103C226842F020022260F7
:102D7000164A1060086840F02000086000BF00BFDD
:102D800000BF206840F020002060206840F4807080
:102D90002060FFF7EDFE4FF09041886A40F48070AC
:102DA000886200BF00BF00BF0848001F006885B2EE
:102DB000886940F480708861FFF7F0FE206840F475
:102DC00000702060284670BD2804004814080048A0
:102DD00001B5BDF800000149488008BD0000002091
:102DE00010B50C460146202000F068F82146BDE8E9
:102DF0001040212000F062B801B5BDF80000014983
:102E0000088008BD00000020134A116841F40071D9
:102E10001160114910390B6843F480730B600B6823
:102E200043F020030B600D4B1860106840F0200049
:102E3000106000BF00BF00BF086840F020000860BD
:102E4000086840F48070086000BF00BF00BF0868D9
:102E500040F40070086070472804004814080048D7
:102E60001449086840F400700860086840F48070F5
:102E7000086010481038026842F0200202600E4BD1
:102E800022221A600A6842F020020A6000BF00BFD6
:102E900000BF016841F020010160016841F48071C8
:102EA000016000BF00BF00BF016841F40071016014
:102EB000704700002804004814080048184B10B55B
:102EC0001A6842F400721A601A6842F480721A603A
:102ED000134A103A146844F020041460114C206026
:102EE000186840F02000186000BF00BF00BF1068E5
:102EF00040F020001060106840F480701060216085
:102F0000186840F02000186000BF00BF00BF1068C4
:102F100040F020001060106840F48070106010BD18
:102F2000280400481408004810B501224FF47F41DE
:102F30000748FEF788FC074C012204212046FEF7D3
:102F400082FC20460022BDE810400421FEF77BBC35
:102F500000080048000C0048431E4FF4807202FA3B
:102F600003F1C0F11100C2400A4810B51143828834
:102F7000114389B2818008480160084C0122042174
:102F80002046FEF760FC20460022BDE810400421E8
:102F9000FEF759BC0800002014080048000C004847
:102FA000431E4FF6FF6202FA03F1C0F11100C24066
:102FB0000A4810B511438288114081800848016099
:102FC000084C012204212046FEF73DFC2046002249
:102FD000BDE810400421FEF736BC000008000020C8
:102FE00014080048000C0048084D4FF4FA74012002
:102FF000FFF7D6FF012208212846FEF724FC2046D1
:1030000003F05AF9204603F057F9F0E700040048AE
:1030100000EB8100006E00F0F84070478068C0F35C
:10302000C00070478068C0F3800070478068C0F3BC
:1030300080007047C06810F4406F01D000207047D6
:1030400001207047042303EAD15310B518444369A3
:10305000C1F3045107248C40A3438A4013434361C6
:1030600010BD00EB8100016E21F0004111430166AB
:103070007047000030B58BB00024089409942021DB
:1030800068460A94FDF7A0FB1C484FF0A0410425B8
:1030900001604FF40031C0E90114C4600461C0E96B
:1030A0000545047744770121016280F82440C46219
:1030B000046380F83840C46380F84040FEF700F8AD
:1030C00008B1FDF77FFD08A90C480894FDF77CFDC9
:1030D00008B1FDF777FD0A4800900620CDE901040C
:1030E0007F200594CDE9030569460448FDF7D8FD26
:1030F000002801D0FDF766FD0BB030BD08010020AF
:103100000008302E30B589B020216846FDF75CFB01
:1031100019481849002401604902C0E90114C4603B
:1031200004250461C0E90545047744770121016263
:1031300080F82440C462046380F83840C46380F897
:103140004040FDF7BDFF08B1FDF73CFD0B48009086
:103150000620CDE901047F200594CDE903056946E9
:103160000548FDF79DFD002801D0FDF72BFD09B0B6
:1031700030BD000000010050740100200080F03ECE
:103180002DE9F04186B014216846FDF71DFB364855
:10319000C16C41F00401C164C16C01F004010591EE
:1031A000C16C41F02001C164C16C01F020010591A6
:1031B000C16C41F00101C164C16C01F001010591D4
:1031C000C16C41F00201C164C16C01F002010591C2
:1031D000C16C41F00801C164C06C244E00F00800CD
:1031E0004FF47F440590002221463046FEF72BFB2A
:1031F0001F4F002204213846FEF725FBDFF87480BC
:10320000002208214046FEF71EFB0125CDE90045BE
:1032100000240294694630460394FEF7EBF9CDE9A9
:10322000005469464FF090400294FEF7E3F90720FE
:10323000CDE90004694640460294FEF7DBF904201C
:103240000090CDE90154694638460394FEF7D2F95F
:1032500008200090CDE90154694640460394FEF7EA
:10326000C9F906B0BDE8F08100100240000800482E
:10327000000C0048000400483EB500240F480094AC
:1032800001940D49029401604F21C0E9011442F2FA
:103290000F718461C160FFF71EF908B1FDF792FC60
:1032A0000094694605480294FFF7C6F8002801D04B
:1032B000FDF788FC3EBD000000100040E00100204A
:1032C000184810B5164901604FF4E1314160002102
:1032D00081600C22C160C0E904128161C161016298
:1032E00041628162FFF7F0FA08B1FDF76BFC002143
:1032F0000C48FFF7C3FA08B1FDF764FC0021094848
:10330000FFF796FA08B1FDF75DFC0648FFF771FA82
:10331000002803D0BDE81040FDF754BC10BD0000EC
:10332000003801402C020020FEE7FEE730B5012105
:103330000020FFF7C3FD4FF47A70FDF735FC002144
:103340000120FFF7BBFD41F290711020FFF7B6FDA1
:103350004FF41C516020FFF7B1FD01216120FFF700
:10336000ADFD02214620FFF7A9FD48F21001132010
:10337000FFF7A4FD48F2FE011220FFF79FFD4FF476
:10338000A0610220FFF79AFD41F230010320FFF710
:1033900095FD40F2033421463020FFF78FFD214692
:1033A0003120FFF78BFD21463220FFF787FDE51E18
:1033B00029463320FFF782FD03213420FFF77EFDED
:1033C00021463520FFF77AFD14213620FFF776FDE0
:1033D00021463720FFF772FD21463820FFF76EFDAA
:1033E00021463920FFF76AFD29463A20FFF766FD9E
:1033F00003213B20FFF762FD21463C20FFF75EFDE5
:103400004FF4A0513D20FFF759FD4FF40071922079
:10341000FFF754FD21469320FFF750FD40F60D01C4
:103420009020FFF74BFD41F218010320FFF746FD06
:10343000BDE8304040F273110720FFF73FBD10B5E3
:1034400043F20801E320FFF739FD1221E720FFF7DF
:1034500035FD41F23121EF20FFF730FD0021012041
:10346000FFF72CFD4FF4E0610220FFF727FD41F24A
:1034700030010320FFF722FD00210420FFF71EFD8D
:1034800040F207210820FFF719FD00210920FFF76E
:1034900015FD00210A20FFF711FD00210C20FFF788
:1034A0000DFD00210D20FFF709FD00210F20FFF782
:1034B00005FD00211020FFF701FD07211120FFF776
:1034C000FDFC00211220FFF7F9FC00211320FFF77B
:1034D000F5FCC820FEF77CF841F290611020FFF760
:1034E000EDFC40F227211120FFF7E8FC3220FEF727
:1034F0006FF81D211220FFF7E1FC3220FEF768F87B
:103500004FF400611320FFF7D9FC14212920FFF7A5
:10351000D5FC0B212B20FFF7D1FC3220FEF758F809
:1035200000212020FFF7CAFC00212120FFF7C6FC64
:1035300007213020FFF7C2FC40F207713120FFF76E
:10354000BDFC06213220FFF7B9FC40F204713520A2
:10355000FFF7B4FC41F604713620FFF7AFFC0421FD
:103560003720FFF7ABFC00213820FFF7A7FC40F223
:1035700006713920FFF7A2FC40F201713C20FFF7F1
:103580009DFC0F213D20FFF799FC00215020FFF703
:1035900095FCEF215120FFF791FC00215220FFF70D
:1035A0008DFC40F23F115320FFF788FC4FF41C5173
:1035B0006020FFF783FC01216120FFF77FFC0021E1
:1035C0006A20FFF77BFC00218020FFF777FC0021B9
:1035D0008120FFF773FC00218220FFF76FFC0021A0
:1035E0008320FFF76BFC00218420FFF767FC00219C
:1035F0008520FFF763FC10219020FFF75FFC00217E
:103600009220FFF75BFC03219320FFF757FC4FF458
:1036100088719520FFF752FC00219720FFF74EFCA0
:1036200000219820FFF74AFC41F218010320FFF720
:1036300045FCBDE8104040F273110720FFF73EBC87
:103640002DE9FC4100211DA001F000FF1E4C0421CA
:10365000E06101F073FF14250326CDE900654FF406
:1036600080773B460022194919A002F072FD606183
:1036700002F06EFECDE900653B460022174918A016
:1036800002F067FDA06102F063FECDE900653B46F4
:103690000022174917A002F05CFDE06002F058FE1E
:1036A000CDE900653B460022144915A002F051FD0A
:1036B0002061BDE8FC4102F04BBE00006B65795F04
:1036C0006576656E7400000008000020AD440008B7
:1036D0006B65795F74687265616400006D2A00082B
:1036E0004B65795363616E5F746872656164000055
:1036F0004569000873656E6400000000E92F00084A
:103700004C45440010B502F067F902F0B9FEBDE87F
:10371000104002F06FB900B593B038216846FDF74C
:1037200053F814210EA8FDF74FF84FF40070FEF780
:1037300049F90220C1010391402104910121CDE901
:10374000080100900A21CDE90A1007900C900D9015
:103750006846FEF751FC08B172B6FEE70F200E90E6
:1037600003200F90002010901190129002210EA8BB
:10377000FEF7D2FA002801D072B6FEE713B000BD02
:1037800030B51A4881681A4B01F00C021949042A15
:1037900005D0194C082A04D00C2A1BD103E00B6079
:1037A00018E00C6016E0C26802F00305C268C2F3BC
:1037B0000312521C022D16D0B4FBF2F2C368C3F3FD
:1037C00006235343C268C2F34162521C5200B3FB4A
:1037D000F2F20A608068094AC0F30310105C0A68BC
:1037E000C2400A6030BDB3FBF2F2E7E700100240CE
:1037F0000024F4003800002000366E01487D0008E7
:103800000248016841F470010160704788ED00E0F2
:103810000148FEF7E2BE0000BC0200202DE9F043A3
:103820000268234B234D244E244C4FF0804998428C
:1038300007D0484505D0A84203D0B04201D0A042ED
:1038400003D122F070074A683A431D4FDFF874C075
:10385000DFF8748098420DD048450BD0A84209D0BB
:10386000B04207D0A04205D0B84203D0604501D095
:10387000404503D122F44075CA682A434D6922F0BD
:1038800080022A4302608A68C2620A6882629842A1
:1038900007D0A04205D0B84203D0604501D04045D2
:1038A00001D10969016301214161BDE8F083000094
:1038B000002C01400004004000080040003401409A
:1038C00000400140004401400048014030B5416ED5
:1038D000B9B1026891689268C1F342610B4B520F13
:1038E0009C5CE50003F10804A25CB5FBF2F2A0F8D1
:1038F0006A205A5C615CD200B2FBF1F1A0F868105A
:1039000030BD0121A0F86A10F8E70000387D0008FA
:1039100090F82810C90706D001684A68C36A22F4E3
:1039200000321A434A6090F82810890706D50168CA
:103930004A68036B22F480321A434A6090F82810D8
:10394000490706D501684A68436B22F480221A436E
:103950004A6090F82810090706D501684A68836B09
:1039600022F400421A434A6090F82810C90606D58E
:1039700001688A68C36B22F480521A438A6090F807
:103980002810890606D501688A68036C22F4005263
:103990001A438A6090F82810490611D501684A68D0
:1039A000436C22F480121A434A60416CB1F5801FC7
:1039B00006D101684A68836C22F4C0021A434A6047
:1039C00090F82810090606D501684A68C06C22F4F0
:1039D000002202434A607047F8B500260446C0F84A
:1039E0008C60FDF735FF0546206800686FF07E4764
:1039F000000708D52B4600224FF4001120460097FF
:103A000000F054F960B92068006840070AD52B46D9
:103A100000224FF480012046009700F047F908B1DA
:103A20000320F8BD2020C4F88400C4F8880044F8BE
:103A30006C6F00202675F8BD2DE9F0410446016841
:103A400080682269E3691043626900251A431043C4
:103A5000DFF82CC20A688B4B1A4002430A602068C8
:103A60004168E26821F44051114341602168A06936
:103A7000614501D0226A10438A68834B1A40024391
:103A80008A602068C16A626A21F00F011143C16235
:103A90007E4923687E488B420DD1D0F8880010F013
:103AA000030006D0012855D0022842D003283FD178
:103AB00052E001203DE077498B420BD1D0F88800DD
:103AC00010F00C0035D0042833D0082840D00C2842
:103AD0002ED141E070498B420BD1D0F8880010F014
:103AE000300026D0102835D0202831D030281FD1E2
:103AF00032E06A498B420BD1D0F8880010F0C00048
:103B000017D0402826D0802822D0C02810D123E00A
:103B100063450DD1D0F8880010F4406009D0B0F5AD
:103B2000806F17D0B0F5006F12D0B0F5406F13D092
:103B300010205B495B4F00264FF4004263453BD1A8
:103B400060B1022813D004280BD0082872D10DE0F0
:103B50000220EEE70420ECE70820EAE7FEF7F0F9A0
:103B600001E0FEF711FA010001D17CE01146606A24
:103B700037F810206768B1FBF2F007EB4703834288
:103B800070D8B0EB073F6DD8002308461946FCF704
:103B900031FC090241EA10610202780810187141F3
:103BA0003A460023FCF726FC3F4AA0F540719142BB
:103BB00058D82168C86056E0E3694FF6EF78934221
:103BC0002CD109284ED2DFE800F00508114D0D4D2B
:103BD0004D4D1000FEF7B4F901E0FEF7C3F9010006
:103BE00004D140E0FEF7D0F9F9E71146606A37F8F2
:103BF0001000B1FBF0F04100606801EB5001B1FB37
:103C0000F0F0A0F1100141452CD84FF6F0710140C1
:103C1000C0F3420001432068C16024E0092821D29A
:103C2000DFE800F0050912200E2020201100FEF729
:103C300087F902E016E0FEF795F9010004D112E0E1
:103C4000FEF7A2F9F9E71146606A37F81000B1FBF8
:103C5000F0F1606801EB5001B1FBF0F0A0F1100150
:103C600041450AD901250120A4F86A0024F8680F0B
:103C70002846A660E660BDE8F08180B299E70000C2
:103C800000800040F369FFCFFFF4FF1100380140CE
:103C9000001002400044004000480040004C00403A
:103CA0000024F400207D0008FFFC0F002DE9F04700
:103CB0009A4617460E4604464FF000094FF020087A
:103CC000089D4AE0681C48D0FDF7C2FDA0EB0A0041
:103CD000A8422AD84DB32068016849073DD5C0697C
:103CE000C043000539D421684FF4006008622068A1
:103CF00050E8001F21F4D07140E80012002AF6D1EC
:103D00002068083050E8001F21F0010140E800124F
:103D1000002AF5D144F8848FC4F80480C4F80880E0
:103D200004F8049C0320BDE8F087216851E8000FE7
:103D300020F4D07041E80002002AF6D12068083053
:103D400050E8001F21F0010140E80012002AF5D1DF
:103D500044F8848FC4F80480E2E72068C06936EA3A
:103D6000000004D00020B842ACD00020DBE70120E6
:103D7000F9E7FEE70907090E002804DB00F1E0205F
:103D800080F80014704700F00F0000F1E02080F888
:103D9000141D7047002807D00E4910F0FF0F04D003
:103DA00051FA80F00078401C704710F47F4F04D027
:103DB000C0F30720085C0930704710F47F0F04D06F
:103DC000C0F30740085C1130704701EB10600078C9
:103DD00019307047607D00082DE9F04F89B0924698
:103DE0008B460646002400E0641C305D202803D08A
:103DF000092801D05C45F7D34FF0FF387CB3194850
:103E000004F10609184F056811E0062217A1286879
:103E1000FCF72FFC50B9286822463146801DFCF77C
:103E200028FC18B9296811F8090020B10C35386848
:103E30008542EAD314E0AC688CB120216846FCF7D7
:103E4000C3FC6A465946304601F07CF938B16946F0
:103E5000A047CAF80000002009B0BDE8F08FFFE7D6
:103E60004046F9E7DC000020E00000205F5F636D62
:103E7000645F00002DE9FC411F460446DDE908317E
:103E8000DDE90A65143040600060C4E90827C4E930
:103E90000A310A46232118461C3401F0C5FED4E934
:103EA00003014218D4E901010D4B121F01F076FD08
:103EB0002060A67666760020A562E061E56260611A
:103EC0002076E06520661C3C009023460190054A60
:103ED000194604F14C0002F067FB0020BDE8FC81AC
:103EE000A1610008BF63000810B5029C24F0010422
:103EF0004472C0E907120021C0E909311430406062
:103F0000006010BD143001F0F4BD70B50546FCF73B
:103F1000D7F9A96F044609B1284688472046BDE86D
:103F20007040FCF7D1B9000010B51BA001F09AFD5C
:103F30001C4C21781CA001F095FD2078C00702D010
:103F40001FA001F08FFD2078800702D51FA001F08F
:103F500089FD2078400702D51FA001F083FD20785D
:103F6000000702D520A001F07DFD2078C00602D513
:103F700020A001F077FD2078000607D509480F3012
:103F80000168BDE810401DA001F06CBDBDE8104007
:103F90001EA001F067BD0000627573206661756C3C
:103FA000743A0A0029ED00E05343425F43465352FE
:103FB0005F424653523A3078253032582000000094
:103FC000494255534552522000000000505245438B
:103FD0004953455252200000494D505245434953E0
:103FE0004552522000000000554E53544B4552524A
:103FF0002000000053544B45525220005343422DA1
:104000003E424641523A253038580A000A00000024
:1040100010B500F0B3FB002010BD10B500F0EEFCB1
:10402000002010BD104810B5416991F82110890792
:1040300003D40E490020087013E0016921B18022E9
:104040000A48FCF7E8FB0CE001F07AF808B108A197
:1040500000E009A10548FCF7C9FA09A10348FCF7EB
:1040600053FB024810BD0000DC000020B8420020D5
:104070006D7368200000000066696E7368200000A0
:104080003E0000000349496911F8212F60F3410205
:104090000A707047DC000020014AC2E90001704745
:1040A000DC0000207CB516491648FFF7F5FF7821A3
:1040B000012001F093F9144C6061D0B10A21152060
:1040C000CDE900014FF480630022104910A002F0F6
:1040D00040F8054600231A460FA1606901F0CCFEA6
:1040E0000120FFF7CFFF15B1284602F031F900207B
:1040F0007CBD0BA001F0B6FC4FF0FF307CBD000092
:104100006482000880810008DC000020394100083A
:10411000747368656C6C000073687278000000004E
:104120006E6F206D656D6F727920666F7220736897
:10413000656C6C0A00000000984D686910F8211F3A
:1041400041F001010170FFF76DFF01F08BFC0026CB
:1041500001F0E0FA0400FBD41B2C07D0686990F84A
:104160002010012907D002290ED017E0696901202B
:1041700081F82000ECE75B2C02D080F820600DE095
:10418000022180F82010E3E780F82060412CDFD086
:10419000422CDDD0442C38D0432C43D0002CD7D037
:1041A000FF2CD5D0092C4ED07F2C75D0082C73D085
:1041B0000D2C70D00A2CFCD0B0F87210502901D30D
:1041C000A0F87260B0F87430B0F872108B427DD2F3
:1041D000CA1A00F1220123301944184401F00AFDE3
:1041E0006869B0F8741022300C54686990F8211096
:1041F000C90706D0B0F874102230014468A001F05D
:1042000031FC6869B0F87440A5E0B0F8740000288B
:104210009ED064A001F026FC686930F8741F491E26
:10422000018095E7B0F87410B0F8722091428FD2F7
:104230002230095C5CA001F015FC696931F8740F4B
:10424000401C088084E7002403E056A001F00AFC2B
:10425000641C6869B0F87400A042F6DC6C6953A075
:10426000223401F0FFFB00F06BFF012802D1204651
:1042700000F0A2FEFFF7D6FE014622464CA001F058
:10428000F1FB68692230FCF7D5F9696921F8720FF2
:1042900048805DE700E03DE0B0F87420002AC0D01F
:1042A000B0F87210521E491E89B293B2A0F8721073
:1042B000A0F87430994224D9CA1A00F1230122309F
:1042C0001944184401F096FC686900E049E0B0F830
:1042D000721022300E546869B0F874102230014414
:1042E00035A001F0BFFB6869B0F8744003E02DA071
:1042F00001F0B8FB641C6869B0F87200A04290DB62
:10430000F5E72FA001F0AEFB6869B0F8721022301B
:104310000E541DE700F014FF01280DD1686990F8D4
:104320002100C00702D021A001F09CFB6869B0F811
:104330007210223000F096FEFFF774FE01F092FB3F
:10434000686950212230FCF71DFA686922E015A047
:1043500001F088FB641C6869B0F87200A042F6DCCA
:104360000AE022300C54686990F82100C00703D09D
:1043700021460DA001F076FB6869B0F87210491C67
:1043800089B2A0F87210B0F87420521CA0F8742002
:104390005029BED320F8726F4680D9E6DC00002099
:1043A0002573000008000000256300000A000000DB
:1043B00025732573000000000825732020080000E5
:1043C0000820080010B50848FDF768F802210648E3
:1043D000FCF7E6FF0448FCF76FFE84B20248FDF7E5
:1043E000D7F8204610BD00007401002010B5084821
:1043F000FDF754F802210648FCF7D2FF0448FCF709
:104400005BFE84B20248FDF7C3F8204610BD0000F1
:104410000801002010B5124C2068800702D511A0B9
:1044200001F020FB2068400011D50D48C01E007827
:1044300008B1FFF779FD0A48001F007808B100F0C5
:104440004FFD0748801E008808B102F00FFB20686E
:10445000002804DABDE8104008A001F003BB10BD3D
:104460002CED00E06661696C656420766563746FAD
:10447000722066657463680A0000000064656275F6
:1044800067206576656E740A0000000010B502A012
:1044900001F0E8FA002010BD48656C6C6F205254A2
:1044A0002D546872656164210A0000001CB51B4C24
:1044B0001B4F01AD4FF0FF360095334606221E21FB
:1044C000E06900F0D3FF0198022806D0042820D02C
:1044D00008280DD0102814D01BE0607820B10020EF
:1044E000607018B10FA009E00120F9E711A005E004
:1044F000002208213846FDF7A6F912A001F0B2FA11
:1045000007E013A001F0AEFA012208213846FDF7BA
:104510009AF90A2001F041FECEE7000008000020D1
:1045200000040048BDE7C3E631A3BAB5E7D1B90A34
:1045300000000000BDE7C3E632A3BAE3D0D6B50A57
:1045400000000000B7E4C3F9C6F7CFEC0A00000092
:10455000B7E4C3F9C6F7C3F00A00000070B50CA0B9
:1045600001F080FA0F48104D04680BE002220FA101
:104570002068FCF77EF820B1D4E900120CA001F00D
:1045800071FA0C3428688442F0D3002070BD00001A
:104590002D2D46756E6374696F6E204C6973743A85
:1045A0000A000000DC000020E00000205F5F000047
:1045B000252D313673202D2D2025730A0000000093
:1045C0002DE9F04194B000262BA408230BAA042166
:1045D00005A800F08DF8082080460146224628A054
:1045E00001F040FA404600F015FE2EA001F03AFA24
:1045F00005A9304600F08EF80646002533E00BA8EA
:1046000050F825400C3CFBF75BFE217A9DF81C20FE
:1046100021F08001914202D0FBF756FE22E0FBF729
:1046200053FE04F1140061690746814212D03846F6
:1046300001F044FAE169CDE9001023460822414621
:1046400020A001F00FFA384602F0CAF914A001F0D8
:1046500009FA07E0E06900902346082241461FA0BE
:1046600001F000FA6D1C0998A842C8DC002EBFD1E9
:1046700014B00020BDE8F0816576656E740000001E
:10468000252D2A2E732020202020207365742020C1
:10469000202073757370656E642074687265616440
:1046A0000A00000020202D2D2D2D2D2D2D2D2D2DFE
:1046B000202D2D2D2D2D2D2D2D2D2D2D2D2D2D0A5A
:1046C00000000000252D2A2E2A7320203078253066
:1046D000387820253033643A00000000252D2A2E3A
:1046E0002A73202030782530387820300A000000E6
:1046F0002DE9F04104461E4617460D46084601F0D6
:1047000001FB001D2060257200206760C4E9036082
:10471000BDE8F0812DE9F0410D4600212961E968ED
:1047200091B1297A81B12E6888B10446FBF7C8FDA2
:104730000146A4F10C002A7A007A20F08000904211
:1047400009D00846FBF7C0FD0020BDE8F0813446E3
:10475000FBF7B6FD0146686800272468B44201D122
:10476000002404E010C0EA687F1CBA42F5D1084674
:10477000FBF7AAFD20462F61E7E7000010B5074CC4
:1047800007A0E16801F06EF90AA0216901F06AF959
:104790006169BDE810400CA001F064B9440000203C
:1047A000746F74616C206D656D6F72793A20256449
:1047B0000A00000075736564206D656D6F72792065
:1047C0003A2025640A0000006D6178696D756D20DE
:1047D000616C6C6F6361746564206D656D6F727977
:1047E0003A2025640A000000F0B595B0002623A405
:1047F00008230DAA032107A8FFF77AFF08272246FE
:10480000394620A001F02EF9384600F003FD26A01D
:1048100001F028F907A93046FFF77CFF064600257E
:1048200023E00DA850F825400C3CFBF749FD217A08
:104830009DF8242021F08001914202D0FBF744FD35
:1048400012E0FBF741FD04F1140001F037F9E17FBC
:10485000226A0823CDE90032CDE90210234608225E
:10486000394619A001F0FEF86D1C0B98A842D8DC5F
:10487000002ECFD115B00020F0BD00006D7574651D
:1048800078000000252D2A2E732020206F776E657A
:10489000722020686F6C642073757370656E64207D
:1048A0007468726561640A00202D2D2D2D2D2D2D2B
:1048B0002D202D2D2D2D202D2D2D2D2D2D2D2D2D42
:1048C0002D2D2D2D2D0A0000252D2A2E2A73202571
:1048D0002D382E2A7320253034642025640A0000E8
:1048E0002DE9F04194B000262CA408230BAA022144
:1048F00005A8FFF7FDFE08208046014622462AA0B3
:1049000001F0B0F8404600F085FC2EA001F0AAF8B6
:1049100005A93046FFF7FEFE0646002535E00BA848
:1049200050F825400C3CFBF7CBFC217A9DF81C206D
:1049300021F08001914202D0FBF7C6FC24E0FBF796
:10494000C3FC606904F11407B842384611D001F085
:10495000B5F8A18BCDE900102346082241461FA0DF
:1049600001F080F8384602F03BF815A001F07AF823
:104970000AE001F0A3F8A18BCDE90010234608223C
:1049800041461AA001F06EF86D1C0998A842C6DCD9
:10499000002EBDD114B00020BDE8F08173656D61BB
:1049A00070686F7265000000252D2A2E7320762016
:1049B000202073757370656E64207468726561641D
:1049C0000A000000202D2D2D202D2D2D2D2D2D2DDB
:1049D0002D2D2D2D2D2D2D0A00000000252D2A2EE8
:1049E0002A7320253033642025643A00252D2A2E91
:1049F0002A7320253033642025640A002DE9F04114
:104A0000B6B000263CA408232EAA012128A8FFF74F
:104A10006FFE0820804601462246394801F022F800
:104A2000404600F0F7FB37A001F01CF828A93046FB
:104A3000FFF770FE0646002554E02EA850F82540EA
:104A40000C3CFBF73DFC0746207A9DF8A81020F0AF
:104A50008000884203D03846FBF736FC41E08022D4
:104A6000214604A8FBF75CFE3846FBF72DFC94F8C2
:104A70003500009023460822414632A000F0F2FFA4
:104A800094F8340000F00F00012807D0022807D066
:104A900040B1042808D0032808D00AE02CA006E082
:104AA0002EA004E030A002E032A000E034A000F02C
:104AB000D9FFA06A014600E0401C0278232AFBD0FF
:104AC000E26A401A101A64235843B0FBF2F3276BD2
:104AD000A06CCDE90007E069081A81182BA000F04E
:104AE000C1FF6D1C2C98A842A7DC002E9ED136B0C9
:104AF0000020BDE8F0810000746872656164000008
:104B0000847E0008202D2D2D20202D2D2D2D2D2DA6
:104B10002D202D2D2D2D2D2D2D2D2D2D202D2D2DDF
:104B20002D2D2D2D2D2D2D20202D2D2D2D2D2D20DC
:104B3000202D2D2D2D2D2D2D2D2D2D202D2D2D0AE2
:104B400000000000252D2A2E2A7320253364200022
:104B50002072656164792020000000002073757365
:104B600070656E640000000020696E69742020206A
:104B70000000000020636C6F7365202000000000BF
:104B80002072756E6E696E67000000002030782517
:104B90003038782030782530387820202020253093
:104BA00032642525202020307825303878202530A3
:104BB00033640A00F0B593B0002626A408230BAA9C
:104BC0000A2104A8FFF794FD08272246394623A0AE
:104BD00000F048FF384600F01DFB2AA000F042FF1D
:104BE00004A93046FFF796FD0646002524E00BA8F1
:104BF00050F825400C3CFBF763FB217A9DF8182008
:104C000021F08001914202D0FBF75EFB13E0FBF73D
:104C10005BFBD4E90901CDE90001234608223946AE
:104C200021A000F01FFF607AC00701D024A000E09F
:104C300026A000F017FF6D1C0898A842D7DC002EB4
:104C4000CED101F017FC014624A000F00BFF13B0F9
:104C50000020F0BD74696D6572000000252D2A2EBC
:104C6000732020706572696F646963202020746905
:104C70006D656F757420202020202020666C616790
:104C80000A000000202D2D2D2D2D2D2D2D2D2D2018
:104C90002D2D2D2D2D2D2D2D2D2D202D2D2D2D2D51
:104CA0002D2D2D2D2D2D0A00252D2A2E2A73203055
:104CB000782530387820307825303878200000008A
:104CC0006163746976617465640A00006465616398
:104CD000746976617465640A00000000637572721D
:104CE000656E74207469636B3A3078253038780AC1
:104CF0000000000010B5FCF7B9FDFEF70CFDFEF753
:104D00003FFAFEF7B7F9FEF7FDF9FEF7B5FAFEF741
:104D1000D7FA012208213348FCF795FD0120FEF760
:104D20001BF9FEF701F9FDF7F9FF0020FDF74EFF33
:104D30001F20FEF761F80020FEF74AF82AA10020A4
:104D4000FDF7AAFF2EA11820FDF7A6FF32A1302003
:104D5000FDF7A2FF30A14820FDF79EFF2EA16020A5
:104D6000FDF79AFF2CA17820FDF796FF2AA190204D
:104D7000FDF792FF28A1A820FDF78EFF26A1C020F5
:104D8000FDF78AFF24A1D820FDF786FF28A000F0B8
:104D900069FE30A000F066FE25A000F063FE2DA0A5
:104DA00000F060FE22A000F05DFE2AA000F05AFE96
:104DB00028A000F057FE27A000F054FE25A000F028
:104DC00051FE2BA000F04EFE29A000F04BFE28A0C3
:104DD00000F048FE2FA000F045FE33A000F042FE98
:104DE000002010BD00040048202020202020205456
:104DF00045535420202020202020202000000000A7
:104E0000202020202052545F546872656164202065
:104E10002020202000000000202020202020202012
:104E20002020202020202020202020200000000002
:104E300052545F546872656164D7DBBACFB2E2CA7C
:104E4000D4BDF6CFDE323033C4DAB2BFBDBBC1F75A
:104E50000A0000002020202020C7D0BCC7A3BA2011
:104E6000202020BDFBD6B9B4ABD4C4A3A10A000056
:104E70002A2A2A2A2A2A2A2A2A2A2A2A2A2A2A2A92
:104E80002A2A2A2A2A2A2A2A2A2A2A2A2A2A2A2A82
:104E90002A0A00002020202020C8E7B9FBCDACD290
:104EA000E2A3BA0A000000002020202020C7EBCA9D
:104EB000E4C8EBC3FCC1EE5374617274546573743F
:104EC0002CBFAACABCB2E2CAD4A3A10A0000000047
:104ED00010B500F09FFABDE81040FFF70BBF0000CF
:104EE00010B518A000F0BEFD1B4C21781BA000F0EF
:104EF000B9FD2078C00702D01EA000F0B3FD2078D5
:104F0000800702D51EA000F0ADFD2078000702D575
:104F10001EA000F0A7FD2078C00602D51EA000F05C
:104F2000A1FD2078000607D50B480C300168BDE8CC
:104F300010401CA000F096BDBDE810401D4800F0D8
:104F400091BD00006D656D206D616E6167652066C5
:104F500061756C743A0A000028ED00E05343425F2B
:104F6000434653525F4D4653523A307825303258BB
:104F7000200000004941434356494F4C20000000A7
:104F80004441434356494F4C200000004D554E5379
:104F9000544B4552522000004D53544B4552522021
:104FA000000000005343422D3E4D4D41523A253002
:104FB00038580A00DC6A00082DE9F04780460025D1
:104FC00000782C4618B12248224F066831E0BDE82F
:104FD000F0470021084600F077B806221EA130688D
:104FE000FBF747FB20BB306800F106094046FBF7A2
:104FF00021FB024649464046FBF73BFBC0B925B9B9
:105000004C464846FBF716FB05464946204601E05C
:10501000401C491C02781AB10B780BB19A42F7D0A8
:10502000001BA84200DA054649460DA000F01AFD13
:105030000C3638688642D0D3002C06D02A4621464A
:105040004046BDE8F04700F0E5BFBDE8F08700004E
:10505000DC000020E00000205F5F636D645F000003
:1050600025730A0038B5044601E0491E641C59B195
:1050700020782028F9D00928F7D06A462046FEF784
:10508000ABFE18B1204604E0002038BD009838BDC2
:10509000401C0178202901D00029F9D1002101709C
:1050A000214603A000F0DEFC4FF0FF3038BD0000C9
:1050B00025733A20636F6D6D616E64206E6F74208E
:1050C000666F756E642E0A0070B50EA000F0CAFC03
:1050D0001348144D04680CE0062213A12068FBF766
:1050E000C8FA28B9D4E9001211A0891D00F0BAFC51
:1050F0000C3428688442EFD310A000F0B3FC0020E9
:1051000070BD000052542D5468726561642073684C
:10511000656C6C20636F6D6D616E64733A0A00009C
:10512000DC000020E00000205F5F636D645F000032
:10513000252D313673202D2025730A000A0000002A
:105140000120704770B5002315461C461A464BE0F7
:1051500000F8012B5B1C0678202E01D0092E01D10E
:105160008B42F5D3082C11D321A000F07BFC002644
:1051700006E000BF55F8261025A000F073FC761C51
:10518000A642F7D321A000F06DFC2FE08B422DD278
:10519000F6B2222E03D045F82400641C1BE0401C0C
:1051A00045F824005B1C641C08E05C2E04D14678A2
:1051B000222E01D1401C5B1C401C5B1C0678222E59
:1051C00001D08B42F1D38B4210D200F8012B5B1C33
:1051D0000AE0401C5B1C0678202E03D0092E01D06B
:1051E0008B42F6D38B4201D28B42B4D3204670BDA2
:1051F000546F6F206D616E7920617267732021207A
:105200005765206F6E6C79205573653A0A0000006F
:105210002573200010B5044602E003A000F022FC34
:10522000641EFAD210BD00002D00000030B51349F5
:1052300043680A68134402F1080498420DD05D885F
:105240005DB94D68AB4208D08D689D4200D1886041
:105250005D6845605B68851A1D518368134483420D
:105260000BD05D88002D08D18D68854200D18B6000
:10527000416859604068991A015130BD44000020CE
:105280002DE9F04F85B09946DDE90EA5109CAB469F
:10529000630602D5DFF814C103E0DFF810C1ACF1FA
:1052A000110CE30601D524F00104E30701D03023FB
:1052B00000E0202300260493A3070BD5002A02DA7E
:1052C0002D26524206E0630701D52B2602E0230774
:1052D00000D520260023EE4622B930228DF800208A
:1052E00001230CE0B9F10A0F14D002F00F081209E3
:1052F0001CF808800EF803805B1C002AF2D1AB4238
:1053000000DD1D46AAEB050214F0110F4FF0200737
:1053100008D015E00A27B2FBF7F807FB1828B2FB04
:10532000F7F2E5E73EB1002A05DD521E03E08842B0
:1053300000D20770401CB2F1000CA2F10102F6DCB1
:1053400026B1884200D20670401C521EE40605D5E4
:1053500008E0884201D2049C0470401C141EA2F193
:105360000102F6DC30242E466D1E9E420ADD884284
:1053700000D20470401CF6E7884201D2E55C05705B
:10538000401C00E074461D1EA3F1010307DDBBF1C4
:10539000000FF1D103E0884200D20770401C131EB9
:1053A000A2F10102F7DC05B0BDE8F08F717E0008C4
:1053B0001CB514210A20CDE900014FF480630022BE
:1053C000034904A000F0C5FEBDE81C4000F0C0BFCA
:1053D000D14E00086D61696E0000000070B5484351
:1053E000044600F08FFB050003D02246002100F0A8
:1053F0001BFC284670BD000070B5044C044D02E053
:1054000020688047241DAC42FAD370BD6C8100082F
:105410007481000870B5044C044D02E02068804798
:10542000241DAC42FAD370BD748100087C81000851
:1054300010B5FAF745FF044A5188491C5180BDE870
:105440001040FAF741BF0000AC00002010B50C4638
:105450000146042000F00BFC002806D0447200F145
:105460001401816141610021C16110BD2DE9FF4737
:105470000546DDF8308017460E004FF0FF3052D061
:1054800000F040FF044600202063FAF719FF814630
:10549000F80704D0E86936EA000005D016E0B8073E
:1054A00014D5E869304211D0B8F1000F03D0E86993
:1054B0003040C8F80000E8693040E06384F840708C
:1054C00078072CD5E869B043E86128E0039868B311
:1054D000E66384F840706A7A214605F1140000F012
:1054E00097FA0398002809DD04F14C0003AA002173
:1054F000054601F021F8284601F06AF84846FAF717
:10550000E3FE00F041FC206B00280CD1FAF7D8FE36
:105510008146B8F1000F02D0E16BC8F80010484690
:10552000FAF7D2FE206B04B0BDE8F0876FF00105FA
:1055300048462563FAF7C8FE2846F4E72DE9F0410E
:1055400005460C004FF0FF302BD00027FAF7B8FECD
:105550008046E86905F114062043E8616C69B442AD
:1055600016D130E094F82C10A4F11400CA071AD018
:10557000C16BEA69914324D190F84010246849072F
:1055800003D5E969C26B9143E96100F09CFE0127F4
:10559000B442E7D14046FAF797FE0FB100F0F4FBB2
:1055A0000020BDE8F081890705D5C16BEA6911408B
:1055B00007D0C163E0E74046FAF786FE6FF00900C6
:1055C000EFE72468E4E74046FAF77EFEE8E70000EC
:1055D00010B5FAF775FE0B4C6188491E09B261805F
:1055E00000290ADC00216180FAF76EFE606800285D
:1055F00007D0BDE8104000F0C7BBBDE81040FAF787
:1056000063BE10BDAC00002070B5002833D01A4D29
:10561000296888422FD3696888422CD2A0F10C04F3
:105620004FF0FF31154800F05EFC60884FF4F556EE
:1056300010B12088B04208D011A000F013FA2388DE
:105640006288214615A000F00DFA002060802680B7
:10565000A868844200D2AC6029686068611A401A68
:105660002969081A28612046FFF7E0FDBDE870406F
:10567000024800F013BC70BD440000200805002063
:10568000746F2066726565206120626164206461C8
:10569000746120626C6F636B3A0A00006D656D3A4D
:1056A000203078253038782C207573656420666C3E
:1056B00061673A2025642C206D6167696320636F00
:1056C00064653A203078253034780A000048704705
:1056D00028060020004870472842002010B5FCF73B
:1056E000C5F8FEF718F8FEF74BF8FCF723FC4FF46B
:1056F0007A71B0FBF1F0FCF785FEFFF77DFEFFF756
:10570000E9FF0446FFF7E2FF2146BDE8104000F044
:1057100095BC0000084810B500684FF0FF34C1691F
:10572000C943890602D4406AC4B202E00A2000F0EC
:10573000C3FDE0B210BD000028420020F8B50646C7
:105740000D200F498DF80000002481F8804030467C
:1057500000F058FC05460FE0305D0A2805D1012312
:105760001A4669460648FDF723F9012331191A46FE
:105770000348FDF71DF9641CAC42EDD3F8BD0000F1
:105780002842002070B531490546283009682C1D93
:1057900011B18847002857D02DA0216C00F062F984
:1057A0002FA0616A00F05EF931A0A16A00F05AF9F9
:1057B00033A0E16A00F056F935A0216B00F052F9F0
:1057C00037A0616800F04EF939A0A16800F04AF9ED
:1057D0003BA0E16800F046F93DA0216900F042F9E4
:1057E0003FA0616900F03EF941A0A16900F03AF9DB
:1057F00043A0E16900F036F945A0216A00F032F9D2
:1058000047A0616B00F02EF949A0A16B00F02AF9C6
:105810004BA0E16B00F026F92878400708D500F08E
:1058200071FD01464AA000F01DF9FFF7E7F802E01C
:105830004FA000F017F92878C00602D453A000F05A
:1058400011F9FEF7E7FDFEE770BD0000CC00002077
:105850007073723A203078253038780A00000000E2
:105860007230303A203078253038780A0000000055
:105870007230313A203078253038780A0000000044
:105880007230323A203078253038780A0000000033
:105890007230333A203078253038780A0000000022
:1058A0007230343A203078253038780A0000000011
:1058B0007230353A203078253038780A0000000000
:1058C0007230363A203078253038780A00000000EF
:1058D0007230373A203078253038780A00000000DE
:1058E0007230383A203078253038780A00000000CD
:1058F0007230393A203078253038780A00000000BC
:105900007231303A203078253038780A00000000B3
:105910007231313A203078253038780A00000000A2
:105920007231323A203078253038780A0000000091
:10593000206C723A203078253038780A0000000058
:105940002070633A203078253038780A0000000053
:1059500068617264206661756C74206F6E20746873
:10596000726561643A2025730D0A0D0A000000007B
:1059700068617264206661756C74206F6E20686166
:105980006E646C65720D0A0D0A00000046505520C9
:10599000616374697665210D0A00000070B50446E4
:1059A000121D22F0070000220A4D443840F8225010
:1059B000521C112AFAD3416200218162C16200F1B6
:1059C0003402016382E81A004FF0807303640160BF
:1059D00070BD0000EFBEADDE10B5FAF771FC044AF1
:1059E0001178491C1170BDE81040FAF76DBC000039
:1059F0004000002010B5FAF763FC044A1178491EF4
:105A00001170BDE81040FAF75FBC000040000020B4
:105A10002DE9F041064614460D46084600F0AEFC5E
:105A200005F11407B4B1012C18D134680EE000BFA1
:105A300095F8351094F82120A4F11400914204D275
:105A40003946143000F033F802E02468B442EFD154
:105A5000B44203D13946304600F029F80020BDE8B1
:105A6000F08100000FB47F2110B503AB0448029A07
:105A700000F008FE0248FFF761FE10BC5DF814FB61
:105A8000880400200268516002680A600160486072
:105A900070470268516002680A60016048607047A0
:105AA0000268516002680A6001604860704742689D
:105AB000116042684A6041600860704702460021F8
:105AC00000E0491C00689042FBD108467047D0E9CD
:105AD00000124A60D0E90012116040600060704717
