:020000040800F2
:10000000B8460020F1010008E3270008F5020008C7
:10001000E1270008850600084D2E000800000000BA
:1000200000000000000000000000000003020008C3
:10003000870600080000000043020008E5270008CA
:100040000B0200080B0200080B0200080B0200085C
:100050000B0200080B0200080B0200080B0200084C
:100060000B0200080B0200080B0200080B0200083C
:100070000B0200080B0200080B0200080B0200082C
:100080000B020008000000000B0200080B02000831
:100090000B0200080B0200080B0200080B0200080C
:1000A0000B0200080B0200080B0200080B020008FC
:1000B0000B0200080B0200080B0200080B020008EC
:1000C0000B0200080B0200080B0200080B020008DC
:1000D0000B0200080B0200080B0200080B020008CC
:1000E0000B0200080B0200080B0200080B020008BC
:1000F0000B0200080B0200080B02000800000000C1
:10010000000000000B020008000000000B020008C5
:100110000B020008000000000D2900080B02000877
:100120000B0200080B0200080B0200080B0200087B
:100130000B02000800000000000000000B02000895
:100140000B0200080B020008000000000000000085
:10015000000000000000000000000000000000009F
:100160000000000000000000000000000B0200087A
:100170000B0200080000000000000000000000006A
:10018000000000000B02000800000000000000005A
:10019000000000000000000000000000000000005F
:1001A00000000000000000000B0200080B02000825
:1001B0000B0200080B0200080B0200080000000000
:1001C000000000000B02000800000000000000001A
:1001D0000B0200080B020008DFF810D000F056F9FF
:1001E00000480047B1040008AFF30080B846002083
:1001F0000648804706480047FEE7FEE7FEE7FEE7C1
:10020000FEE7FEE7FEE7FEE7FEE7FEE7FD28000863
:10021000D9010008EFF3108072B6704780F31088A0
:100220007047424A1368012B04D04FF0010313605A
:100230003F4A10603F4A11603F484FF080510160D3
:100240007047EFF3108272B63848016851B34FF02F
:10025000000101603648016891B1EFF309811EF099
:10026000100F08BF21ED108B21E9F00F4FF00004B3
:100270001EF0100F08BF012441F8044D0068016012
:100280002C490968096808C9B1E8F00F002B18BFAC
:10029000B1EC108B81F309884EF0100E002B18BFC3
:1002A0002EF0100E82F310884EF0040E7047214994
:1002B0000860EFF3148222F0040282F314881C49D0
:1002C0004FF00000086019494FF0010008601B481A
:1002D0001B49D0F8002041EA0201016016484FF0A6
:1002E0008051016017480068006880F3088861B693
:1002F00062B670471EF0040F0CBFEFF30880EFF3F7
:10030000098020E9F00F40F804ED40F804ED1EF0FC
:10031000040F0CBF80F3088880F3098800B504F04F
:10032000E5F95DF804EB4EF0040E7047BC000020C8
:10033000B4000020B800002004ED00E020ED00E053
:100340000000FFFF08ED00E02DE9F05F054600200A
:1003500092469B4688460646814640241BE0284636
:1003600041464746224600F081F853465A46C01A95
:10037000914110D311461846224600F068F82D1A14
:1003800067EB01084F4622460120002100F05FF88C
:1003900017EB00094E41201EA4F10104DFDC4846A2
:1003A00031462A464346BDE8F09F40EA01039B07D9
:1003B00003D009E008C9121F08C0042AFAD203E0DA
:1003C00011F8013B00F8013B521EF9D27047D2B23E
:1003D00001E000F8012B491EFBD270470022F6E72E
:1003E00010B513460A4604461946FFF7F0FF2046AB
:1003F00010BD421E12F8013F002BFBD111F8013B4A
:1004000002F8013B002BF9D1704710B5044604E017
:100410000B7800F8013B03B1491C521EF8D220466C
:1004200010BD421C10F8011B0029FBD1801A704737
:1004300030B505460020034600E05B1C934205D220
:10044000EC5CC85C201A01D1002CF6D130BD202A0A
:1004500004DB203A00FA02F1002070479140C2F11B
:10046000200320FA03F3194390407047202A04DB4D
:10047000203A21FA02F00021704721FA02F3D0401D
:10048000C2F120029140084319467047064C074DBF
:1004900006E0E06840F0010394E807009847103454
:1004A000AC42F6D3FFF79CFE486600086866000879
:1004B00010B505F03DFD002010BD00002DE9F04114
:1004C000044600270D46006802F006F8064620683C
:1004D00001F0FEFF30435DD02068C1682E4E8901D7
:1004E00005D5617F012902D1217F01290BD0022D81
:1004F0001DD0206801F0F0FFB8B120688168C1F319
:10050000400169B111E00125244902E08F4232D255
:100510007F1C0268D2435206F8D440210160E8E70C
:100520008168314041F010018160012D11D02068B7
:1005300001F0CEFF48B120688168C1F3400121B9C4
:100540008168314041F020018160022D08D0032DE7
:1005500004D0042500F072FE064617E00C25F9E7EA
:100560000825F7E700F06AFE801B05280ED92068F1
:10057000806828420AD0E06D40F01000E065206EEF
:1005800040F0010020660120BDE8F081206880680D
:100590002842E7D10020F7E7C0FFFF7F000040A31B
:1005A00070B50446006881688268C1F3400112F0AA
:1005B000010F28D039BB816801F00D01012914D148
:1005C0008168124A1140891C8160216803200860FB
:1005D00000F034FE054612E000F030FE401B022819
:1005E0000DD920688068C00709D0E06D40F0100088
:1005F000E065206E40F001002066012070BD20689B
:100600008068C007E8D1002070BD0000C0FFFF7FF8
:1006100070B504460068816811F0010F2DD1816822
:10062000174A11421AD18168D5432940491C81607B
:1006300000F004FE06461BE0816811F0010F03D1B3
:1006400081682940491C816000F0F8FD801B022868
:100650000ED920680068C043C00709D0E06D40F0A3
:100660001000E065206E40F001002066012070BDA2
:1006700020680168C943C907DED1002070BD0000B1
:100680003F000080FEE7704772B6FEE72DE9F047B5
:10069000044690F858009CB00E464FF0000901281F
:1006A00015D0012084F8580000251795189520686A
:1006B0004FF0A04840450ED1284F0097384601F032
:1006C0000FFF8246206801F00BFF60B10EE00220B0
:1006D0001CB0BDE8F087E06D40F02000E06584F8D4
:1006E00058500120F4E7BAF1000F09D0E06D40F056
:1006F0002000E0654FF0010984F858504846E7E7CC
:100700001748326840F61F71002A826822F460425E
:1007100016D094F8383042EA433273681A43826044
:10072000D8F80820BB6802F0010203F001031A4365
:10073000E2D1B36832681A4383688B431A430BE0F3
:100740008260D8F80820BB6802F0010203F00103C0
:100750001A43D1D182688A438260CDE700010050FC
:10076000000300502DE9F84F00270446009790F849
:100770005800DFF8E0930D46B846012811D0012655
:1007800084F85860206801F0A7FE60B1E06D40F089
:100790002000E0655FF0010784F858803846BDE826
:1007A000F88F0220FBE7D5E900210C23206803EA3B
:1007B00091131844036B01F01F014FF01F0C0CFA4A
:1007C00001FCC2F3846223EA0C038A4013430363EF
:1007D000206801F081FE8246206801F079FE5AEA25
:1007E00000003CD1AA6829682068B2F1004F37D0D8
:1007F00001F082FE2068416921F0004141612068DA
:100800006969C268C2F3C102520091402A69042A90
:1008100031D000EB82002B68026EDFF83CC303F09E
:10082000F84302EA0C020B431A4342F0004101660E
:1008300020682A69A96900EB8200026E22F08072AA
:100840000A430266297F22682869012910D0002105
:1008500002EB8000026E22F000720A4302667DE025
:10086000002201F049FE2068416941F00041C5E7DE
:100870004FF00071ECE7002101F024FE40032068F6
:100880004FF0000172D001F01DFE90FAA0F0B0FA16
:1008900080F1286842036ED090FAA0F0B0FA80F0A0
:1008A000814204D100221146206801F034FE01216A
:1008B000206801F007FE400320684FF001015DD081
:1008C00001F000FE90FAA0F0B0FA80F1286842032F
:1008D00059D090FAA0F0B0FA80F0814204D1002201
:1008E0000121206801F017FE0221206801F0EAFDD5
:1008F000400320684FF0020148D001F0E3FD90FA78
:10090000A0F0B0FA80F12868420344D090FAA0F039
:10091000B0FA80F0814204D100220221206801F067
:10092000FAFD0321206801F0CDFD400320684FF05F
:10093000030133D001F0C6FD90FAA0F0B0FA80F1C7
:10094000286842032FD090FAA0F0B0FA80F08142DC
:1009500004D100220321206801F0DDFD20688168B8
:1009600011F0010F22D0ACE000E004E001F0AAFD9C
:10097000C0F384618DE7C0F3846091E701F0A2FDCC
:10098000C0F38461A2E7C0F38460A6E701F09AFD9A
:10099000C0F38461B7E7C0F38460BBE701F092FD68
:1009A000C0F38461CCE7C0F38460D0E72A7B296878
:1009B00050F8B03FC1F3120C23EA0C0302F0180CFC
:1009C000664A22FA0CF20A4013430360E96849457B
:1009D00077D1286841031CD090FAA0F1B1FA81F1D7
:1009E000491C01F01F0109294FEA403132D8002982
:1009F00012D000BF90FAA0F1B1FA81F101F101012A
:100A000001F01F0106FA01F609D100BFC0F38461AD
:100A100009E0C0F38461E3E7C0F38461EEE790FA94
:100A2000A0F1B1FA81F101F1010101F01F0146EAE3
:100A3000816102D1C0F3846003E090FAA0F0B0FAC3
:100A400080F000F1010000F01F0000EB400041EADF
:100A5000005132E000290ED090FAA0F1B1FA81F1F4
:100A600001F1010101F01F0106FA01F606D100BFF4
:100A7000C0F3846106E0C0F38461F1E790FAA0F16D
:100A8000B1FA81F101F1010101F01F0146EA816132
:100A900002D1C0F3846003E090FAA0F0B0FA80F0D5
:100AA00000F1010000F01F002D4A00EB400002EBB6
:100AB000005041EA000141F00071AA68206801F08D
:100AC0001BFD28482A6802423FF466AE264881682A
:100AD000264B01F0E0719A4202D0254B9A421CD17C
:100AE0000B021AD42268B2F1A04F7FF455AE82688F
:100AF00041F4000122F0E0720A4382601D481E4961
:100B00000068B0FBF1F0401C00EB4000800000E00A
:100B1000401E00900028FBD13EE6184D184BAA421B
:100B200007D1CD0105D422689A42F5D041F08071F9
:100B300009E0144DAA42EFD14A02EDD422689A424C
:100B4000EAD041F48001826822F0E0720A438260B8
:100B500022E6000000007F4000F0FF03FFFF0700D7
:100B6000000020FE0000088000030050000021C3A8
:100B70001000C0902C000020400D0300000052C760
:100B800000010050000084CB0068006C704700003A
:100B9000F8B54FF0000504002E46009502D0E06D38
:100BA00010B107E00120F8BD204600F0EFF82666FE
:100BB00084F8586020688168C1F3407119B1816878
:100BC0006A4A1140816020688168C1F3007189B967
:100BD0008168674A114041F08051816065486649EB
:100BE0000068B0FBF1F04000801C00E0401E009067
:100BF0000028FBD120688168C1F3007141B9E16D23
:100C000041F01001E165216E41F0010121660125ED
:100C100001F062FCE16DC90600D430B1E06D40F036
:100C20001000E06501252846F8BDE06D20F48070D5
:100C300040F00200E0652068806810F0010F11D1DB
:100C40004FF0A04080684D4900F00100896801F034
:100C50000101084306D14A486168826822F47C1287
:100C60000A438260E168E06B627F0843A16841EA61
:100C70004231084394F8241040EA0140012904D18C
:100C8000218D404A02EB41410843E16A29B101F458
:100C90007871226B014342EA01002168CA683A4B2D
:100CA0001A400243CA6020680169626B21F040610A
:100CB00011430161206801F00FFC0646206801F035
:100CC00007FC30432ED1207F94F83810800340EA8F
:100CD00041022068C16844F2020399431143C16094
:100CE00020690028206801690AD041F4803101613F
:100CF000206850F8C01F22696FF30D01114307E00F
:100D000021F480310161206850F8C01F6FF30D019C
:100D1000016094F8400001280CD02068016921F09E
:100D200001010161606901282068016B21F00F0158
:100D300011D013E0D4E911010843D4E9131211438F
:100D4000084321680A6940F2FC739A43104340F05B
:100D500001000861E6E7226A521E11430163E06D5B
:100D600020F0020040F00100E0655CE7C0FFFF5F9B
:100D7000C0FFFF7F2C000020400D03000001005049
:100D8000000300500000FEFF0740F0FFF0B587B001
:100D9000044614216846FFF721FB214B26680024F6
:100DA0001A6803251F482049521CB6F1A04F06D0EF
:100DB0001E4FBE4231D11A60012A16D01DE01A60C2
:100DC000012A07D1CA6C42F40052CA64CA6C02F408
:100DD00000520592CA6C42F00202CA64C96C01F06A
:100DE000020105914FF4805111E0CA6C42F40052A7
:100DF000CA64CA6C02F400520592CA6C42F0020244
:100E0000CA64C96C01F0020105914FF40041CDE9BB
:100E100000150294694600F023F907B0F0BD000008
:100E20001C00002000040048001002400001005097
:100E30002DE9F04104463B480F46816801F01F054B
:100E4000A16908290FD085B1052D0ED0092D0CD030
:100E5000806800F4604060B1E06D40F02000E06523
:100E60000120BDE8F081082604E02068C068C007C2
:100E7000F1E7042600F0E2F9804615E0781C13D073
:100E800000F0DCF9A0EB0800B84200D867B9206890
:100E90000068304208D1E06D40F00400E0650020B9
:100EA00084F858000320DCE7206800683042E5D071
:100EB000E06D40F40070E065206801F015FB80B142
:100EC000607F70B92068006800070AD5E06D20F4E3
:100ED0008070E065E06DC00403D4E06D40F0010077
:100EE000E065114A20684FF0A041904201D10B46C5
:100EF00000E00346834210D07DB1052D0DD0092DB1
:100F00000BD0904200D00146C968082E07D0490492
:100F100001D40C2101600020A3E7C168F5E7082196
:100F2000F8E7000000030050000100502DE9F041F7
:100F300004463848806800F01F05206801F0CCFAAC
:100F400018B102210846BDE8F08194F85800012844
:100F50000CD0012084F858002046FFF759FB01000F
:100F60004FF0000304D084F85830EBE70220EAE7A2
:100F7000E06D40F60162904340F48070E065264ADF
:100F800020684FF0A046904201D1374600E0074666
:100F9000874200D01DB9E76D27F48017E765E76D3C
:100FA000FF0404D5276E27F00607276600E02366B6
:100FB0001C27076084F858302068904201D13346DE
:100FC00000E00346834215D0A5B1052D12D0092DAE
:100FD00010D0E36D43F48013E365904200D13046B6
:100FE000C0688001AED5E06D20F4005040F4805020
:100FF000E065A7E7C268920105D5E26D22F40052D0
:1010000042F48052E2658268044B1A40121D8260ED
:1010100098E700000003005000010050C0FFFF7F70
:1010200010B5044690F85800012808D0012084F833
:10103000580003212046FFF741FA10B10BE00220CF
:1010400010BD2046FFF7ACFA28B9E16D21F48851B4
:1010500041F00101E165002184F8581010BD000045
:101060002DE9FC4FDFF8A0A1002301250AF1040BB4
:1010700003244FF00F0C0BF1040EBDE005FA03F64C
:1010800032406FD04F68012F05D0022F03D0112FAF
:1010900001D0122F17D1D0F808905F0004FA07F89A
:1010A00029EA08090097D1F80C8008FA07F848EAFD
:1010B0000908C0F808804768B7430E79C6F30016E0
:1010C0009E403E434660C6684FEA430804FA08F76C
:1010D000BE4301978F6807FA08F73743C7604E6829
:1010E000022E01D0122E13D1DE0800EB86060096E8
:1010F000366A5F07FF0E0CFA07F926EA0906D1F8EF
:10110000109009FA07F949EA0609009EC6F82090EE
:101110000668019FBE430F7907F0030707FA08F737
:10112000374307604E68F60065D5384E376E47F096
:1011300001073766366E23F0030706F001060096B6
:10114000334E3E44B146B6689F074FEA17780CFA13
:1011500008F7BE43B0F1904F05D02E4FB84204D1EE
:10116000012717E047E0002714E02B4FB84201D1D8
:1011700002270FE0294FB84201D103270AE0284F88
:10118000B84201D1042705E0264FB84201D1052716
:1011900000E0062707FA08F73743C9F80870DAF8BD
:1011A00000605746D1F8048096435FEAC83800D5FE
:1011B00016433E60DBF800605F46D1F8048096433A
:1011C0005FEA883800D516433E60DEF80060774657
:1011D000D1F8048096435FEAC82800D516433E60E4
:1011E000094F0C373E68D1F8048096435FEA88289F
:1011F00000D516433E605B1C0A6832FA03F67FF4A2
:101200003DAFBDE8FC8F000000040140001002402B
:10121000000001400004004800080048000C00489D
:1012200000100048001400480069084000D0012068
:1012300070470AB1816170478162704701488068D8
:10124000704700002000002010B50024032000F0AB
:1012500073F8002000F008F808B1012401E000F064
:1012600025F8204610BD000070B50E4E054600243E
:10127000706898B14FF47A71B1FBF0F00A490968CF
:10128000B1FBF0F000F06AFD40B9102D06D200224B
:101290002946501E00F030F8356000E00124204659
:1012A00070BD0000200000202C0000200A4882B001
:1012B000016E41F001010166016E01F00101009132
:1012C000816D41F080518165806D00F0805000900B
:1012D00002B000F0A1B8000000100240002809DBB5
:1012E00000F01F02012191404009800000F1E02040
:1012F000C0F8001170470000F0B40E4B1B680C469C
:10130000C3F30223C3F10705042D00D90425191DD9
:10131000072901D2002300E0DB1E012606FA05F1B1
:10132000491E214099409E40761E16403143F0BC34
:1013300001F08DBD0CED00E0064900F007020868E1
:101340004FF6FF03184040EA0220034A10430860AA
:10135000704700000CED00E00000FA052B492C4B13
:101360000A6832214A432B4940B1B0F5007F086832
:1013700029D020F4C06040F480602CE00868C0F3FD
:101380004120022804D051F8800F20F4807022E020
:10139000D1F8800020F48070C1F88000086820F443
:1013A000C06040F400700860B2FBF3F0401C00E045
:1013B000401E4A69520501D50028F9D14869400507
:1013C0000AD503207047C0F34120022806D051F807
:1013D000800F40F48070086000207047D1F88000D2
:1013E00040F48070C1F88000086820F4C06040F4C8
:1013F00000700860B2FBF3F0401C00E0401E4A6938
:101400005205DBD50028F9D1D8E700002C000020D8
:1014100040420F00007000400248816841F4804162
:1014200081607047007000402DE9F8430446006871
:1014300000269D4D00035ED5A86D0027C00008D48E
:10144000A86D40F08050A865A86D012700F080507D
:101450000090DFF85892D9F8001041F48071C9F873
:101460000010FFF7EBFE804606E000BFFFF7E6FE48
:10147000A0EB080002282BD8D9F80000C005F5D54C
:10148000D5F8900010F4407014D0216C814211D036
:10149000D5F89000D5F8901020F4407041F48031D8
:1014A000C5F89010D5F8901021F48031C5F890104F
:1014B000C5F89000C00711D0FFF7C0FE804641F28A
:1014C000883907E0FFF7BAFEA0EB0801494501D9CA
:1014D00003260BE0D5F890008007F3D5D5F89000EF
:1014E000216C20F440700843C5F890001FB1A86D2E
:1014F00020F08050A8652078C00707D0D5F8880074
:10150000616820F003000843C5F888002078800750
:1015100007D5D5F88800A16820F00C000843C5F86D
:1015200088002078400707D5D5F88800E16820F0CA
:1015300030000843C5F888002078000707D5D5F8A3
:101540008800216920F0C0000843C5F88800207891
:10155000800607D5D5F88800616920F4406008430B
:10156000C5F888002078400607D5D5F88800A1691D
:1015700020F440500843C5F888002078000607D5BD
:10158000D5F88800E16920F440400843C5F8880098
:101590002088C00507D5D5F88800216A20F440309E
:1015A0000843C5F888002088800507D5D5F888004D
:1015B000616A20F440200843C5F88800208840056F
:1015C0000FD5D5F88800A16A20F440100843C5F86B
:1015D0008800A06AB0F5801F03D1E86840F480104D
:1015E000E860208800050FD5D5F88800E16A20F46E
:1015F00040000843C5F88800E06AB0F5800F03D1C9
:10160000E86840F48010E8602088C0040FD5D5F861
:101610008800216B20F040700843C5F88800206BDB
:10162000B0F1807F03D1E86840F48010E860208842
:101630004FF0006180040ED5D5F88800626B20F071
:1016400040601043C5F88800606B884203D1E868A9
:1016500040F48010E860208840040ED5D5F888005A
:10166000A26B20F040601043C5F88800A06B884250
:1016700003D1E86840F48010E860208800040FD5AA
:10168000D5F88800E16B20F040500843C5F8880089
:10169000E06BB0F1805F03D1E86840F48030E8602F
:1016A0003046BDE8F88300000010024000700040A2
:1016B0002DE9F0470E4605004FF0000725D0DFF872
:1016C000AC81D8F8000000F00F00B0420CD2D8F87E
:1016D000001021F00F013143C8F80010D8F80000C5
:1016E00000F00F00B04210D12968614CC80741F2E8
:1016F000883A5AD06868DFF87C91032808D002281D
:1017000020682DD0400500282CDB0120BDE8F087A3
:1017100020688001F9D5E06800F00302E068C0F3BA
:101720000310401C032A19D0534A00BFB2FBF0F04B
:10173000E268C2F306225043E268C2F34162521CDF
:101740005200B0FBF2F0484517D9A06810F0F00F36
:101750000CD0880711D5A86840B10EE0474AE5E7EC
:101760008003D0E700F0BCF8484506D9A06820F017
:10177000F00040F08000A0608027A068696820F039
:1017800003000843A060FFF759FD814606E000BF53
:10179000FFF754FDA0EB090151453AD8A0686968EC
:1017A00000F00C00B0EB810FF2D12868810714D54E
:1017B000400703D5A06840F4E060A06028780007E7
:1017C00005D5A06820F4605040F4E060A060A068F7
:1017D000A96820F0F000084304E0802F03D1A0683E
:1017E00020F0F000A060D8F80010404601F00F0192
:1017F000B14216D9016821F00F0131430160FFF7B2
:101800001DFD074607E000BFFFF718FDC11B51454E
:1018100001D903207AE7D8F8000000F00F00B042A9
:10182000F2D12878400705D5A068E96820F4E06087
:101830000843A0602878000706D5A068296920F42D
:10184000605040EAC100A06000F04AF8A1680C4A6C
:10185000C1F30311515C01F01F01C8400949086040
:1018600009480068BDE8F047FFF7FEBC00200240D1
:101870000010024000B4C4040024F40000366E01DD
:10188000A26100082C000020200000200148006810
:10189000704700002C000020054806490068896850
:1018A000054AC1F30221515C01F01F01C840704795
:1018B0002C00002000100240B261000805480649D3
:1018C00000688968054AC1F3C221515C01F01F011B
:1018D000C84070472C00002000100240B261000890
:1018E000184910B58868C0F381021748012A0BD047
:1018F0008A68164BC2F38102022A06D08A68C2F3B4
:101900008102032A03D0002010BD184610BDCA680A
:1019100002F00304CA68C2F30312521C032C02D063
:10192000B0FBF2F001E0B3FBF2F0CA68C968C2F3A1
:1019300006225043C1F34161491C4900B0FBF1F05C
:1019400010BD0000001002400024F40000366E01BB
:101950002DE9F84304007AD02078FA4DC00747D02B
:10196000A868E96800F00C0001F003010C2802D01F
:10197000082817D001E0032914D06068B0F5803F33
:1019800017D0B0F5A02F286817D020F48030286039
:10199000286820F4802028606068E0B1FFF74EFCE2
:1019A000064614E02868800322D560680028D2D05B
:1019B0001EE0286840F48030EDE740F48020286085
:1019C000F7E700BFFFF73AFC801B642870D828684F
:1019D0008003F7D50CE0FFF731FC064605E000BFB9
:1019E000FFF72CFC801B6428F0D828688003F7D40C
:1019F000207880074CD5A868E96800F00C0001F059
:101A000003010C2802D004280DD001E002290AD0DD
:101A1000E068002828682BD040F480702860FFF729
:101A20000DFC064619E02868400502D5E06800284C
:101A300091D06868217C20F0FE4040EA0160686037
:101A4000C1480068FFF710FC002800D120E076E1D3
:101A5000FFF7F4FB801B0228B8D828684005F7D5AB
:101A60006868217C20F0FE4040EA016068600FE079
:101A700020F480702860FFF7E1FB064605E000BF18
:101A8000FFF7DCFB801B0228A0D828684005F7D4AC
:101A90002078000729D560690028D5F8940013D074
:101AA00040F00100C5F89400FFF7C8FB064606E0C9
:101AB00090E000BFFFF7C2FB801B022886D8D5F854
:101AC00094008007F6D510E020F00100C5F89400DE
:101AD000FFF7B4FB064604E0FFF7B0FB801B0228CB
:101AE00078D8D5F894008007F6D42078400761D5DF
:101AF000A86D0026C00008D4A86D40F08050A865ED
:101B0000A86D012600F08050009090480168C9053A
:101B100011D40168804641F480710160FFF78EFBAB
:101B2000074604E0FFF78AFBC01B022852D8D8F80A
:101B30000000C005F6D5A068012815D00528D5F805
:101B4000900016D020F00100C5F89000D5F8900064
:101B500020F00400C5F89000A06841F28838B8B1C0
:101B6000FFF76CFB07460EE0D5F8900040F001004F
:101B7000F0E740F00400C5F89000F5E7FFF75EFBE2
:101B8000C11B414526D8D5F890008007F6D50CE05A
:101B9000FFF754FB074604E0FFF750FBC11B41452C
:101BA00018D8D5F890008007F6D41EB1A86D20F0A3
:101BB0008050A8652078800629D5A0690028D5F82E
:101BC000980013D040F00100C5F89800FFF736FBED
:101BD000064606E077E000BFFFF730FB801B0228D7
:101BE00077D8D5F898008007F6D510E020F00100EE
:101BF000C5F89800FFF722FB064604E0FFF71EFB3E
:101C0000801B022865D8D5F898008007F6D4E069D3
:101C1000F0B3A968C1F38101032961D002282868C3
:101C200020F0807028600BD0E86820F00300E860A6
:101C3000E86847490840E860FFF700FB04464BE0CE
:101C4000FFF7FCFA064604E0FFF7F8FA801B0228CB
:101C50003FD828688001F7D4F4E908016FF00F023B
:101C600002EB01110843218A5204490802EB415159
:101C7000A26841EA02210843217D4FF07E424908D3
:101C800002EB41610843217B40EAC160E96800E062
:101C900062E0304A11400843E860286840F08070F4
:101CA0002860E86840F08070E860FFF7C7FA0446F3
:101CB00005E000BFFFF7C2FA001B022809D8286818
:101CC0008001F7D548E004E0FFF7B8FA001B0228CE
:101CD00002D90320BDE8F88328688001F4D43BE0F2
:101CE0000128F7D0E868226A00F00301914226D16A
:101CF000616A00F0F0020901103991421FD1A26A15
:101D000000F4FE41B1EB022F19D194F82C2000F021
:101D10007841B1EBC26F12D1218E00F4C0024908A4
:101D20004905A1F50011914209D194F8341000F051
:101D3000C06049084906A1F1007181420CD0012020
:101D4000C8E70000001002402000002000700040A2
:101D5000FFFFEEFE0C809F010020BBE710B5401E88
:101D6000B0F1807F01D3012010BD4FF0E02460610D
:101D70000F21601701F06BF80020A061072020619F
:101D8000002010BD7047704770477047704770471C
:101D9000F0B590F83C20012A3AD0012580F83C505B
:101DA000022280F83D2003685A689C68194E1A4F39
:101DB000B34201D0BB4204D122F4700C4A6842EA1B
:101DC0000C02DFF858C002EA0C02D1F800C04CEA5D
:101DD000020CC3F804C00268B2420DD0B2F1804FC9
:101DE0000AD00F4B9A4207D00E4B9A4204D0BA4207
:101DF00002D00D4B9A4204D1896824F08003194324
:101E0000916080F83D50002180F83C100846F0BDFC
:101E10000220F0BD002C0140003401408FFFFFFD87
:101E2000000400400008004000400140704710B529
:101E3000040003D094F83D0010B107E0012010BD6C
:101E4000002084F83C00204600F022F8022084F8AC
:101E50003D00211D206800F05FFD012084F848004E
:101E600084F83E0084F83F0084F8400084F8410084
:101E700084F8420084F8430084F8440084F8450064
:101E800084F8460084F8470084F83D00002010BD27
:101E900008B500680B49884212D10B48816D41F0AA
:101EA00010018165806D002200F010000090114645
:101EB0003620FFF721FABDE808403620FFF70EBABA
:101EC00008BD0000001000400010024090F83D10D6
:101ED000012901D001207047022180F83D100168DE
:101EE000CA6842F00102CA600068104988420ED0F8
:101EF000B0F1804F0BD00E49884208D00D4988427E
:101F000005D00D49884202D00C49884207D181682A
:101F10000B4A1140062906D0B1F5803F03D0016875
:101F200041F001010160002070470000002C0140D9
:101F3000000400400008004000340140004001401F
:101F400007000100704770B50446006801694FF052
:101F50000005C943890715D4C168C943890711D44D
:101F6000E91E0161012020772068806980072046F2
:101F700002D0FFF7E7FF04E000F0E3F8204600F0AE
:101F8000E1F8257720680169C943490717D4C1687A
:101F9000C943490713D46FF004010161022020777F
:101FA0002068806910F4407F204602D0FFF7CAFF06
:101FB00004E000F0C6F8204600F0C4F82577206859
:101FC0000169C943090716D4C168C943090712D476
:101FD0006FF008010161042020772068C069800744
:101FE000204602D0FFF7AEFF04E000F0AAF820463A
:101FF00000F0A8F8257720680169C943C90617D4FD
:10200000C168C943C90613D46FF0100101610820EB
:1020100020772068C06910F4407F204602D0FFF787
:1020200091FF04E000F08DF8204600F08BF8257752
:1020300020680169C943C90708D1C168C943C907F4
:1020400004D1891E0161204600F07EF820680169F4
:10205000C943090609D4C168C943090605D46FF00C
:10206000800101612046FFF78EFE20680169C943A7
:10207000C90509D4C168C943090605D46FF4807144
:1020800001612046FFF77EFE20680169C9434906C9
:1020900009D4C168C943490605D46FF04001016104
:1020A000204600F05BF820680169C943890609D41D
:1020B000C168C943890605D46FF02001016120463B
:1020C000FFF762FE20680169C943C90209D4C168EB
:1020D000C943C90205D46FF4801101612046FFF79E
:1020E00055FE20680169C943890209D4C168C94302
:1020F000890205D46FF4001101612046FFF745FE07
:1021000020680169C943490209D4C168C943490229
:1021100005D46FF4800101612046FFF738FE206886
:102120000169C94309020BD4C168C943090207D434
:102130006FF4000101612046BDE87040FFF776BEF4
:1021400070BD704770470000034900680968884205
:1021500001D100F035B97047B0010020704790F808
:102160008010012918D0012180F880102421C0F8A6
:10217000841050F8641B0A680B6823F001030B609D
:1021800022F000510022026050F8643C19602021C6
:1021900001620277104670470220704770B504460E
:1021A00090F8800001281DD0012084F880002420B0
:1021B000C4F8840020680568026822F00102026009
:1021C0002068826822F060620A438260204600F044
:1021D000FBFB206805602020C4F88400002084F800
:1021E000800070BD022070BD70B5044690F880007C
:1021F00001281DD0012084F880002420C4F8840028
:1022000020680568026822F0010202602068826886
:1022100022F060420A438260204600F0D5FB20682D
:1022200005602020C4F88400002084F8800070BD80
:10223000022070BD10B5040003D0D4F8840010B1A2
:1022400007E0012010BD002084F88000204600F047
:1022500027F82420C4F884002068016821F00101D7
:102260000160204600F066FC0128EBD0A06A10B1A6
:10227000204600F0CBFB2068416821F4904141608A
:102280002068816821F02A0181602068016841F09E
:10229000010101602046BDE8104000F01BBC0000B9
:1022A00010B586B0044614216846FEF797F8134926
:1022B000206888421FD11248016E41F480410166B6
:1022C000016E01F480410591C16C41F00101C164CE
:1022D000C06C694600F0010005904FF4C0600090AA
:1022E00002200190002002900390072004904FF0FC
:1022F0009040FEF7B5FE06B010BD0000003801406A
:10230000001002402DE9F8430446D0F884001F462F
:1023100016460D46202851D1DDB1D6B194F8800083
:1023200001284BD0012084F880004FF00008C4F849
:102330008C802120C4F884001834FEF77FFFA68724
:102340008146E68754F8100C183CB0F5805F03D046
:1023500004E00120BDE8F883206920B12E46002565
:1023600084F8808010E00026FAE78021204600F003
:102370001BFDB8B9C6B116F8010B21688862B4F824
:102380005600401EA4F85600B4F856004B464FF0D5
:10239000000200970028E8D14FF04001204600F0ED
:1023A00003FD30B10320D5E735F8020BC0F3080078
:1023B000E3E72020C4F884000020CBE70220C9E72F
:1023C0002DE9F0413D4C3E4D012660784FF090489C
:1023D00010B30027012837D0022833D10121284625
:1023E000FEF722FF002865D002212846FEF71CFFD9
:1023F00000285FD004212846FEF716FF002859D098
:1024000001214046FEF710FF002853D06770206975
:10241000BDE8F04102F03DBF01212846FEF704FF70
:1024200078B102212846FEF7FFFE50B1042128466C
:10243000FEF7FAFE28B101214046FEF7F5FE00281E
:1024400000D16670BDE8F08101212846FEF7ECFE60
:1024500080B102212846FEF7E7FE58B10421284644
:10246000FEF7E2FE30B101214046FEF7DDFE08B185
:102470006770E7E70227677001212846FEF7D4FE60
:1024800090B102212846FEF7CFFE78B104212846FC
:10249000FEF7CAFE60B101214046FEF7C5FE0028E6
:1024A000D0D104202070CDE72670CBE72770C9E794
:1024B0000320F7E760690A306061C3E7000000208D
:1024C0000004004800EB8100006E00F0F840704707
:1024D0008068C0F3C00070478068C0F38000704718
:1024E0008068C0F380007047C06810F4406F01D06E
:1024F0000020704701207047042303EAD15310B530
:1025000018444369C1F3045107248C40A3438A4013
:102510001343436110BD00EB8100016E21F00041C7
:10252000114301667047000030B58BB00024089459
:102530000994202168460A94FDF750FF1D484FF08A
:10254000A041042501604FF40031C0E90114C460CA
:102550000461C0E90545047744770121016280F8F0
:102560002440C462046380F83840C46380F840406B
:10257000FEF70EFB08B1FEF787F808A90D4808948E
:10258000FEF784F808B1FEF77FF80B4800900620AC
:102590000190072002907F200594CDE9030569464C
:1025A0000448FEF7DFF8002801D0FEF76DF80BB005
:1025B00030BD0000D80000200008302E30B589B0B2
:1025C00020216846FDF70AFF1948184900240160D8
:1025D0004902C0E90114C46004250461C0E905454D
:1025E000047744770121016280F82440C4620463C7
:1025F00080F83840C46380F84040FEF7C9FA08B15B
:10260000FEF742F80B480090062001900720029048
:102610007F200594CDE9030569460548FEF7A2F839
:10262000002801D0FEF730F809B030BD000100509D
:10263000440100200080F03E2DE9F04186B01421D5
:102640006846FDF7CBFE3648C16C41F00401C16419
:10265000C16C01F004010591C16C41F02001C1641D
:10266000C16C01F020010591C16C41F00101C16410
:10267000C16C01F001010591C16C41F00201C1641E
:10268000C16C01F002010591C16C41F00801C16407
:10269000C06C244E00F008004FF47F4405900122E6
:1026A00021463046FEF7C5FD1F4F01220421384662
:1026B000FEF7BFFDDFF87480012208214046FEF7D7
:1026C000B8FD0125CDE90045002402946946304655
:1026D0000394FEF7C5FCCDE9005469464FF09040E5
:1026E0000294FEF7BDFC0720CDE900046946404690
:1026F0000294FEF7B5FC04200090CDE90154694630
:1027000038460394FEF7ACFC08200090CDE9015454
:10271000694640460394FEF7A3FC06B0BDE8F0818D
:102720000010024000080048000C00480004004867
:102730003EB500240F48009401940D4902940160B5
:102740004F21C0E9011442F20F718461C160FFF7AB
:102750006EFB08B1FDF798FF0094694605480294A6
:10276000FFF716FB002801D0FDF78EFF3EBD0000ED
:1027700000100040B0010020184810B51649016053
:102780004FF4E1314160002181600C22C160C0E959
:1027900004128161C161016241628162FFF74AFDF9
:1027A00008B1FDF771FF00210C48FFF71DFD08B1CE
:1027B000FDF76AFF00210948FFF7F0FC08B1FDF7BB
:1027C00063FF0648FFF7CBFC002803D0BDE81040AC
:1027D000FDF75ABF10BD000000380140FC01002089
:1027E000FEE7FEE710B502F0B3F803F07FF8BDE8AE
:1027F000104002F0BBB810B5A4B038216846FDF710
:10280000EDFD14211FA8FDF7E9FD44210EA8FDF7F9
:10281000E5FD4FF40070FEF7A1FD012000900004DB
:10282000019002200324CDE907041421CDE90A1008
:102830000C900D9009946846FFF78AF808B172B6BB
:10284000FEE70F20CDE91F040024219422940221E9
:102850001FA82394FEF72CFF08B172B6FEE748F2DA
:102860000100CDE90E0440071D900EA8FEF7DCFD27
:10287000002801D072B6FEE724B010BD30B51A486A
:1028800081681A4B01F00C021949042A05D0194C31
:10289000082A04D00C2A1BD103E00B6018E00C605E
:1028A00016E0C26802F00305C268C2F30312521CAC
:1028B000022D16D0B4FBF2F2C368C3F306235343D0
:1028C000C268C2F34162521C5200B3FBF2F20A60CA
:1028D0008068094AC0F30310105C0A68C2400A60AD
:1028E00030BDB3FBF2F2E7E7001002400024F40031
:1028F0002C00002000366E01A26100080248016829
:1029000041F470010160704788ED00E00148FFF775
:102910001ABB0000B00100202DE9F0430268234BF0
:10292000234D244E244C4FF08049984207D048450F
:1029300005D0A84203D0B04201D0A04203D122F07A
:1029400070074A683A431D4FDFF874C0DFF874809F
:1029500098420DD048450BD0A84209D0B04207D0CC
:10296000A04205D0B84203D0604501D0404503D114
:1029700022F44075CA682A434D6922F080022A4336
:1029800002608A68C2620A688262984207D0A042E6
:1029900005D0B84203D0604501D0404501D1096956
:1029A000016301214161BDE8F0830000002C01407A
:1029B0000004004000080040003401400040014095
:1029C000004401400048014030B5416EB9B1026891
:1029D00091689268C1F342610B4B520F9C5CE50019
:1029E00003F10804A25CB5FBF2F2A0F86A205A5C7D
:1029F000615CD200B2FBF1F1A0F8681030BD01219A
:102A0000A0F86A10F8E700009261000890F828101A
:102A1000C90706D001684A68C36A22F400321A4323
:102A20004A6090F82810890706D501684A68036B48
:102A300022F480321A434A6090F82810490706D5DC
:102A400001684A68436B22F480221A434A6090F876
:102A50002810090706D501684A68836B22F40042F2
:102A60001A434A6090F82810C90606D501688A689A
:102A7000C36B22F480521A438A6090F828108906AA
:102A800006D501688A68036C22F400521A438A60F2
:102A900090F82810490611D501684A68436C22F461
:102AA00080121A434A60416CB1F5801F06D101685B
:102AB0004A68836C22F4C0021A434A6090F82810D6
:102AC000090606D501684A68C06C22F40022024358
:102AD0004A607047F8B500260446C0F88C60FEF7DF
:102AE000ADFB0546206800686FF07E47000708D5FB
:102AF0002B4600224FF400112046009700F054F9B5
:102B000060B92068006840070AD52B4600224FF4C0
:102B100080012046009700F047F908B10320F8BD76
:102B20002020C4F88400C4F8880044F86C6F0020AA
:102B30002675F8BD2DE9F0410446016880682269D8
:102B4000E3691043626900251A431043DFF82CC281
:102B50000A688B4B1A4002430A6020684168E268A9
:102B600021F44051114341602168A069614501D0C1
:102B7000226A10438A68834B1A4002438A602068A5
:102B8000C16A626A21F00F011143C1627E49236864
:102B90007E488B420DD1D0F8880010F0030006D09B
:102BA000012855D0022842D003283FD152E001200D
:102BB0003DE077498B420BD1D0F8880010F00C0033
:102BC00035D0042833D0082840D00C282ED141E03D
:102BD00070498B420BD1D0F8880010F0300026D01D
:102BE000102835D0202831D030281FD132E06A4952
:102BF0008B420BD1D0F8880010F0C00017D04028CD
:102C000026D0802822D0C02810D123E063450DD1E2
:102C1000D0F8880010F4406009D0B0F5806F17D06C
:102C2000B0F5006F12D0B0F5406F13D010205B4AA2
:102C30005B4F00264FF40041634539D160B1022853
:102C40000DD004280DD0082831D10EE00220EEE787
:102C50000420ECE70820EAE7FEF71EFE03E0114639
:102C600003E0FEF73DFE01007DD0606A37F81020DA
:102C70006768B1FBF2F007EB470383426CD8B0EB17
:102C8000073F69D8002308461946FDF75DFB090296
:102C900041EA106102027808101871413A46002397
:102CA000FDF752FB3F4AA0F54071914259D953E0DC
:102CB000E3694FF6EF788B422DD109284CD2DFE83B
:102CC00000F005080D4B274B4B4B0E00FEF7E4FDC3
:102CD00001E0FEF7F3FD010001D144E01146606A16
:102CE00037F81000B1FBF0F04100606801EB5001D3
:102CF000B1FBF0F080B2A0F1100141452CD84FF6A5
:102D0000F0710140C0F3420001432068C1602AE035
:102D1000FEF7E6FDDFE709281ED2DFE800F0050830
:102D20000D1D1F1D1D1D0E00FEF7B6FD01E0FEF777
:102D3000C5FD010001D116E01146606A37F81000A8
:102D4000B1FBF0F1606801EB5001B1FBF0F080B233
:102D5000A0F11001414504D9012504E0FEF7C0FDB2
:102D6000E7E72168C8600120A4F86A0024F8680F2A
:102D70002846A660E660BDE8F081000000800040C3
:102D8000F369FFCFFFF4FF1100380140001002404B
:102D90000044004000480040004C00400024F40083
:102DA0007A610008FFFC0F002DE9F0479A461746AC
:102DB0000E4604464FF000094FF02008089D39E008
:102DC000681C37D0FEF73AFAA0EB0A00A84222D8D6
:102DD0000DB32068016849072CD5C069C0430005C0
:102DE00028D421684FF4006008622068016821F44B
:102DF000D07101602068816821F001018160C4F810
:102E00008480C4F88880C4F88C8000BF84F88090E7
:102E10000320BDE8F0872068016821F4D0710160CB
:102E20002068816821F001018160C4F88480C4F8C1
:102E30008880EBE72068C06936EA000004D00020F3
:102E4000B842BDD00020E4E70120F9E7FEE709071A
:102E5000090E002804DB00F1E02080F80014704720
:102E600000F00F0000F1E02080F8141D7047000012
:102E7000002807D00F4910F0FF0F05D0C0B2085C42
:102E8000401C70470020704710F47F4F04D0C0F3FF
:102E90000720085C0930704710F47F0F04D0C0F39E
:102EA0000740085C1130704701EB10600078193062
:102EB00070470000BA61000802E008C8121F08C18C
:102EC000002AFAD170477047002001E001C1121FAB
:102ED000002AFBD17047F0B589B004460D4616466E
:102EE000002100E0491C635C202B03D0092B01D09A
:102EF000A942F7D3C9B1204601F0CAF80746C7B1C5
:102F00000021009101910291039104910591069194
:102F100007916A462946204601F028F968B16946BA
:102F2000B847306009B00020F0BD09B04FF0FF3065
:102F3000F0BD09B04FF0FF30F0BD09B04FF0FF30E9
:102F4000F0BD000070B582B011469C46089E099DF8
:102F5000069B079A044604F1140040600060216259
:102F6000C4F824C0A362E2622321184601F033FEB4
:102F7000E16AA06A104B0844021F616A206A01F0EE
:102F8000C5FCE06184F8366084F835600020A063F9
:102F9000E5632564206384F834002067606700904F
:102FA00001902346054A214604F1440002F07BFDCE
:102FB00002B0002070BD0000D55500081758000869
:102FC000DDF800C02CF0010C80F809C0C16102627C
:102FD00000218162436200EBC10214325260126030
:102FE000491C0129F7DB704770B50446FDF712F95B
:102FF0000546216F09B1204688472846BDE8704044
:10300000FDF70CB910B51DA001F0F6FC1E4C21789F
:103010001EA001F0F1FC207810F0010F02D021A0D9
:1030200001F0EAFC207810F0020F02D020A001F09D
:10303000E3FC207810F0040F02D020A001F0DCFCAB
:10304000207810F0080F02D020A001F0D5FC2078E5
:1030500010F0100F02D020A001F0CEFC207810F06C
:10306000800F06D01E480168BDE810401DA001F089
:10307000C3BCBDE810401FA001F0BEBC6275732048
:103080006661756C743A0A0029ED00E05343425FB3
:10309000434653525F424653523A307825303258B5
:1030A00020000000494255534552522000000000C4
:1030B000505245434953455252200000494D505209
:1030C000454349534552522000000000554E535489
:1030D0004B4552522000000053544B4552522000A1
:1030E00038ED00E05343422D3E424641523A2530EE
:1030F00038580A000A00000010B500F0EBFA002072
:1031000010BD10B500F07EFC002010BD70B5144855
:10311000144C4FF00005416991F8211011F0020F95
:1031200007D0016941B180222046FDF76EF92046A3
:1031300070BD25700B4870BD01F016F820B10AA0D3
:1031400000682060257105E009A001682160808881
:10315000A080A57108A10348FDF74BF9014870BD97
:10316000C0000020344200206D7368200000000081
:1031700066696E73682000003E00000001F07EBAB0
:103180000449496991F8212060F3410281F8212026
:1031900070470000C0000020014A10605160704775
:1031A000C000002030B583B016491748FFF7F4FF80
:1031B0007821012001F082F9144D6861D8B10A200C
:1031C0001521009101904FF480630022104911A055
:1031D00002F0D1F9044600231A4610A1686902F0F2
:1031E00047F80120FFF7CCFF14B1204602F0DCFACB
:1031F00003B0002030BD0BA001F0FEFB03B04FF088
:10320000FF3030BD4866000888650008C000002017
:103210003D320008747368656C6C000073687278E6
:10322000000000006E6F206D656D6F727920666F13
:1032300072207368656C6C0A000000009F4E706914
:1032400090F8211041F0010180F82110FFF75EFF96
:1032500001F0D2FB01274FF002080025FFF78EFF97
:1032600004462000FAD41B2C07D0736993F8200081
:10327000012806D002280CD015E0706980F8207073
:10328000ECE75B2C02D083F820500CE083F8208020
:10329000E4E783F82050412CE0D0422CDED0442CCF
:1032A00046D0432C52D0002CD8D0FF2CD6D0092C9D
:1032B0005FD07F2C7CD0082C7AD00D2C76D00A2CB5
:1032C00074D0B3F87200502801D3A3F87250B3F849
:1032D0007400B3F87210884269D20A1A03F122010D
:1032E00001442333184401F05BFC7069B0F874109A
:1032F00022300C54706990F8211011F0010F06D0A3
:10330000B0F87410223001446DA001F075FB7069B3
:10331000B0F87440B0F87200A0427DDD69A001F001
:103320006BFB641C7069B0F87200A042F6DCB1E07F
:10333000B3F87400002891D062A001F05DFB7069C1
:10334000B0F87410491EA0F8741087E7B3F8740041
:10335000B3F87210884281D203F12201415C5AA075
:1033600001F04AFB7069B0F87410491CA0F87410A1
:1033700074E70024B3F87400002808DD51A001F0C0
:103380003BFB641C7069B0F87400A042F6DC706905
:10339000223002F021FE70692230FDF742F8716997
:1033A000A1F87200A1F8740058E701E043E064E07E
:1033B000B3F8740000283FF451AFB3F87210491EFF
:1033C00089B2A3F87210401E80B2A3F87400814243
:1033D00028D90A1A03F1230101442233184401F0C9
:1033E000DFFB7069B0F8721022300D547069B0F8CC
:1033F00074102230014435A001F0FEFA7069B0F873
:103400007440B0F87200A042FFF628AF2DA001F082
:10341000F3FA641C706900E03CE0B0F87200A0426E
:10342000F4DA1BE72BA001F0E7FA7069B0F872102C
:1034300022300D5412E700F097FE01280ED170697A
:1034400090F8210010F0010F02D023A001F0D4FA6F
:103450007069B0F87210223000F0E8FDFFF756FEF8
:1034600001F0CAFA706950212230FCF7B7FF706989
:10347000A0F87250A0F87450F0E603F122000C544A
:10348000706990F8210010F0010F03D021460EA0C2
:1034900001F0B2FA7069B0F87210491C89B2A0F854
:1034A0007210B0F87420521CA0F874205029FFF458
:1034B000D5AEA0F87250A0F87450CFE6C00000203E
:1034C0002573000008000000256300000825732014
:1034D00020080000082008000A00000010B5084875
:1034E000FDF724FD02210648FDF7A2FC0448FDF784
:1034F0004BFB84B20248FDF793FD204610BD00004F
:103500004401002010B50848FDF710FD02210648CF
:10351000FDF78EFC0448FDF737FB84B20248FDF747
:103520007FFD204610BD0000D800002010B5124CD1
:10353000206810F0020F02D010A001F05DFA2068A0
:1035400010F0804F0ED01348007808B1FFF75AFDF5
:103550001148007808B100F0A3FC1048008808B1B9
:1035600002F098FD206810F0004F04D0BDE8104034
:103570000BA001F041BA10BD2CED00E06661696C52
:10358000656420766563746F722066657463680A8B
:103590000000000029ED00E028ED00E02AED00E049
:1035A0006465627567206576656E740A00000000C8
:1035B00010B502A001F020FA002010BD48656C6C27
:1035C0006F2052542D546872656164210A00000016
:1035D00070B50DA001F010FA10480468104D28686D
:1035E00084420ED202220FA12068FCF721FF20B1F5
:1035F0000DA06268216801F0FFF90C34286884424C
:10360000F0D3002070BD00002D2D46756E637469E7
:103610006F6E204C6973743A0A000000C0000020ED
:10362000C40000205F5F0000252D313673202D2D52
:103630002025730A000000002DE9F04104460D46E4
:1036400016461F46284601F037FD001D20602572F2
:103650006660E76000202061BDE8F0812DE9F0415F
:103660000D46002600212961E968002909D0297A40
:1036700039B12F6840B10446FCF7CCFD014636B1A4
:1036800013E00020BDE8F0813C460126F4E7A4F1F8
:103690000C002A7A007A20F08000904205D008467B
:1036A000FCF7BCFD0020BDE8F081002668682468B6
:1036B000BC4201D1002405E0761C40F8044BEA68C6
:1036C000B242F4D10846FCF7A9FD2E612046BDE8C0
:1036D000F081000010B5074C07A0E16801F08CF9FB
:1036E0000AA0216901F088F96169BDE810400CA0C9
:1036F00001F082B938000020746F74616C206D6530
:103700006D6F72793A2025640A0000007573656454
:10371000206D656D6F7279203A2025640A000000E3
:103720006D6178696D756D20616C6C6F6361746536
:1037300064206D656D6F72793A2025640A0000007F
:103740002DE9F04190B000273BA4082302AA0621EE
:103750000AA8FFF771FF4FF008082246414639A03A
:1037600001F04AF907243E4801F046F9641EFAD2F6
:103770003CA001F041F902AE0AA93846FFF76EFFFE
:10378000074600250E98002833DD56F82500A0F1E5
:103790000C04FCF73FFD217A9DF8302021F08001D8
:1037A000914202D0FCF73AFD1FE0FCF737FD04F12F
:1037B0001400D0F800C0844501D1012000E00020B1
:1037C000E8B104F1140100200A468C4504D01268C7
:1037D000401C13688B42FAD1A18C009101902346C2
:1037E0000822414625A001F007F96D1C0E98A84259
:1037F000CBDC002FC0D110B00020BDE8F08104F177
:10380000140000230246844504D012685B1C116832
:103810008142FAD1A08C01930090234608224146B0
:103820001BA001F0E9F804F1140002F0F1FB1DA067
:1038300001F0E2F8D9E700006D7367717565756591
:1038400000000000252D2A2E7320656E74727920E9
:1038500073757370656E64207468726561640A00C4
:10386000303B0008202D2D2D2D20202D2D2D2D2DF0
:103870002D2D2D2D2D2D2D2D2D0A0000252D2A2EFF
:103880002A732025303464202025640A00000000BB
:10389000252D2A2E2A732025303464202025643AD1
:1038A000000000000A0000002DE9F04190B0002760
:1038B0003BA4082302AA02210AA8FFF7BDFE4FF08D
:1038C00008082246414639A001F096F807243E48F0
:1038D00001F092F8641EFAD23CA001F08DF802AE1D
:1038E0000AA93846FFF7BAFE074600250E980028B9
:1038F00033DD56F82500A0F10C04FCF78BFC217A8F
:103900009DF8302021F08001914202D0FCF786FC26
:103910001FE0FCF783FC04F11400D0F800C08445DC
:1039200001D1012000E00020E8B104F114010020E1
:103930000A468C4504D01268401C13688B42FAD1A9
:10394000A18B0091019023460822414625A001F059
:1039500053F86D1C0E98A842CBDC002FC0D110B0DC
:103960000020BDE8F08104F11400002302468445E4
:1039700004D012685B1C11688142FAD1A08B0193BC
:1039800000902346082241461AA001F035F804F1C0
:10399000140002F03DFB0BA001F02EF8D9E7000067
:1039A00073656D6170686F7265000000252D2A2EA9
:1039B00073207620202073757370656E64207468A0
:1039C000726561640A000000303B0008202D2D2D37
:1039D000202D2D2D2D2D2D2D2D2D2D2D2D2D2D0A47
:1039E00000000000252D2A2E2A7320253033642064
:1039F00025640A00252D2A2E2A73202530336420C1
:103A000025643A002DE9F043ADB0002745A4082312
:103A100020AA012128A8FFF70FFE4FF00808224630
:103A20004146424800F0E8FF072441A000F0E4FFCF
:103A3000641EFAD23FA000F0DFFF20AE28A938466E
:103A4000FFF70CFE074600252C98002864DD56F889
:103A50002500A0F10C04FCF7DDFB8146207A9DF8DF
:103A6000A81020F08000884203D04846FCF7D6FB1F
:103A70004EE07822214602A8FCF797FC4846FCF766
:103A8000CDFB94F83500009023460822414639A02A
:103A900000F0B2FF94F8340000F00F01012907D0C4
:103AA000022909D061B104290ED0032910D012E0F7
:103AB00033A000F0A1FF0EE034A000F09DFF0AE06B
:103AC00035A000F099FF06E036A000F095FF02E077
:103AD00037A000F091FFA16A8C469CF800002328D3
:103AE00003D11CF8010F2328FBD0E26AACEB0100E4
:103AF000101A64235843B0FBF2FC236B206C019333
:103B00000090E0696346081A81182CA000F074FF49
:103B10006D1C2C98A8429ADC002F8FD12DB000206C
:103B2000BDE8F0837468726561640000DC620008BF
:103B30002D000000202D2D2D20202D2D2D2D2D2D63
:103B40002D202D2D2D2D2D2D2D2D2D2D202D2D2DBF
:103B50002D2D2D2D2D2D2D20202D2D2D2D2D2D20BC
:103B6000202D2D2D2D2D2D2D2D2D2D202D2D2D0AC2
:103B700000000000252D2A2E2A7320253364200002
:103B80002072656164792020000000002073757345
:103B900070656E640000000020696E69742020204A
:103BA0000000000020636C6F73652020000000009F
:103BB0002072756E6E696E670000000020307825F7
:103BC0003038782030782530387820202020253073
:103BD0003264252520202030782530387820253083
:103BE00033640A002DE9F04190B000272BA408238C
:103BF00002AA0A210AA8FFF71FFD4FF00808224673
:103C0000414628A000F0F8FE0724304800F0F4FEFA
:103C1000641EFAD22EA000F0EFFE02AE0AA93846CA
:103C2000FFF71CFD074600240E9800282ADD56F8F1
:103C30002400A0F10C05FCF7EDFA297A9DF830205C
:103C400021F08001914202D0FCF7E8FA16E0FCF77F
:103C5000E5FAA96A686A019100902B46082241465C
:103C600024A000F0C9FE687A10F0010F03D027A04D
:103C700000F0C2FE02E028A000F0BEFE641C0E9818
:103C8000A042D4DC002FC9D101F02AFE014626A0B3
:103C900000F0B2FE10B00020BDE8F08174696D65DF
:103CA00072000000252D2A2E732020706572696F26
:103CB00064696320202074696D656F75742020200D
:103CC00020202020666C61670A000000303B00085D
:103CD000202D2D2D2D2D2D2D2D2D2D202D2D2D2D2E
:103CE0002D2D2D2D2D2D202D2D2D2D2D2D2D2D2D11
:103CF0002D2D0A00252D2A2E2A73203078253038C4
:103D000078203078253038782000000061637469AD
:103D100076617465640A0000646561637469766144
:103D20007465640A0000000063757272656E742029
:103D30007469636B3A3078253038780A00000000E7
:103D40002DE9FC41FEF778FCFEF7F2FCFEF714FDCE
:103D5000FEF7EAFBFEF732FC2148FEF7B7F821A098
:103D600000F04AFE28A000F047FE002201212FA00B
:103D700001F06EFA304C206110B130A000F03CFE32
:103D800000231422282134A000F050FFE06010B17D
:103D900033A000F031FE14250320CDE900054FF4D7
:103DA000007633460022344934A001F0E4FB4FF0A2
:103DB000FF37606088B101F0F7FC0220CDE9000513
:103DC000334600222F4930A001F0D5FBA06020B17E
:103DD00001F0EAFC0020BDE8FC813846FBE700006A
:103DE000B0010020D5E2CAC7D2BBB8F65254542065
:103DF000B6FED6B5D0C5BAC5C1BFCDACB2BDCAB589
:103E0000D1E9A3A10A000000CDA8B9FDB6FED6B540
:103E1000D0C5BAC5C1BFB6D4B0B4BCFCD7B4CCAC65
:103E2000BDF8D0D0B1EABCC7A3A10A004B65794662
:103E30006C61675F73656D0000000020B0B4BCFC6E
:103E4000B1EAD6BED0C5BAC5C1BFB4B4BDA8B3C966
:103E5000B9A6A3A10A0A0000746573745F6D7100AE
:103E6000CFFBCFA2B6D3C1D0B4B4BDA8B3C9B9A655
:103E7000A3A10A0A000000001D44000872656365E2
:103E8000697665005D5F000873656E640000000080
:103E900010B500F031FBBDE81040FFF751BF000046
:103EA00010B51AA000F0A8FD1D4C21781DA000F04F
:103EB000A3FD207810F0010F02D020A000F09CFD9F
:103EC000207810F0020F02D01FA000F095FD20789E
:103ED00010F0080F02D01FA000F08EFD207810F027
:103EE000100F02D01EA000F087FD207810F0800F88
:103EF00006D01E480168BDE810401DA000F07CBD42
:103F0000BDE810401EA000F077BD00006D656D207B
:103F10006D616E616765206661756C743A0A0000B8
:103F200028ED00E05343425F434653525F4D4653F2
:103F3000523A30782530325820000000494143433E
:103F400056494F4C200000004441434356494F4CD2
:103F5000200000004D554E53544B45525220000056
:103F60004D53544B455252200000000034ED00E008
:103F70005343422D3E4D4D41523A253038580A00A8
:103F80000A0000002DE9F04781460025002699F837
:103F9000000000280ED020480468DFF88080D8F8A0
:103FA000000084422DD206221DA12068FCF740FAB1
:103FB00010BB05E0BDE8F0470021084600F096B8C8
:103FC0002068871D4846FCF72CFA024639464846C9
:103FD000FCF72EFA80B925B93E463046FCF721FAA7
:103FE00005463946304602F02BF8A84200DA05466D
:103FF00039460DA000F000FD0C34D8F800008442D2
:10400000D1D3002E06D02A4631464846BDE8F047B7
:1040100001F004BABDE8F087C0000020C400002011
:104020005F5F636D645F000025730A0038B5054665
:1040300001E06D1C491E21B128782028F9D00928FB
:10404000F7D031B16A462846FEF745FF18B12C4635
:1040500004E0002038BD009838BD641C207820287A
:1040600001D00028F9D100202070294602A000F0DC
:10407000C3FC4FF0FF3038BD25733A20636F6D6D80
:10408000616E64206E6F7420666F756E642E0A0018
:104090002DE9F04781468846002610480468104FF5
:1040A0003868844215D208F1060506220DA1206861
:1040B000FCF7BEF948B920684246801D4946FCF726
:1040C000B7F910B92068405D30B10C3438688442CB
:1040D000EBD33046BDE8F087A668FAE7C0000020C1
:1040E000C40000205F5F636D645F000070B50FA0C7
:1040F00000F082FC14480468144D286884420FD2F2
:10410000062213A12068FCF793F928B92068626899
:10411000811D11A000F070FC0C3428688442EFD39C
:1041200010A000F069FC002070BD000052542D5416
:104130006872656164207368656C6C20636F6D6D77
:10414000616E64733A0A0000C0000020C4000020C1
:104150005F5F636D645F0000252D313673202D2075
:1041600025730A000A0000000120704770B515464B
:1041700000230024002950D9002602E00670401CCC
:104180005B1C90F800C0BCF1200F02D0BCF1090FFD
:1041900001D18B42F2D3082C0FD321A000F02CFCCC
:1041A000002627A055F8261000F026FC761CA64213
:1041B000F7D322A000F020FC2FE08B422DD2027812
:1041C000222A03D045F82400641C1BE0401C5B1C21
:1041D00045F82400641C08E05C2A04D14278222AB5
:1041E00001D1401C5B1C401C5B1C0278222A01D0C0
:1041F0008B42F1D38B4210D20670401C5B1C0AE04C
:10420000401C5B1C0278202A03D0092A01D08B4273
:10421000F6D38B4201D28B42B3D3204670BD00004F
:10422000546F6F206D616E79206172677320212059
:104230005765206F6E6C79205573653A0A0000004F
:104240002573200010B4DFF860C04168DCF800205E
:10425000114402F10803884210D04C8874B9DCF88C
:104260000440A1420AD0DCF808408C4201D1CCF8CD
:1042700008004C6844604968841ACC508168114435
:1042800081420FD04C88002C0CD1DCF808408442CD
:1042900001D1CCF80810D0F804C0C1F804C04068BF
:1042A000891AC15010BC7047380000202DE9F04F2A
:1042B00086B0DDF83CC0109D119CA846CDF800C02A
:1042C00014F0400F02D0DFF848A101E0DFF844A16C
:1042D00014F0100F01D024F0010414F0010F02D0EB
:1042E0004FF0300901E04FF02009002614F0020FD2
:1042F0000DD0002A02DA2D26524208E014F0040FF5
:1043000001D02B2603E014F0080F00D020264FF038
:10431000000C0DF1040B2AB930224FF0010C8DF87E
:1043200004200DE00A2B16D002F00F0712091AF82C
:1043300007E067460CF1010C0BF807E0002AF1D109
:10434000AC4500DD6546009A521B14F0110F4FF08A
:1043500020070DD01CE0304FA7FB02E74FEAD70E35
:10436000CEF1000707EB870702EB47077246DEE74F
:1043700016B1002A00DD521E131EA2F1010207DD54
:10438000884200D20770401C131EA2F10102F7DC24
:1043900026B1884200D20670521E401C14F0100F45
:1043A0000CD1131EA2F1010208DD884201D280F86F
:1043B0000090401C131EA2F10102F6DC6B1E654545
:1043C0000FDD3024884200D20470401C1D465B1E65
:1043D0006545F7DC05E0884202D21BF80C3003701B
:1043E000401CBCF10003ACF1010C02DDB8F1000F80
:1043F000F1D1531E002A07DD884200D20770401C0D
:104400001A1EA3F10103F7DC06B0BDE8F08F00002F
:10441000CB620008BA620008CDCCCCCC08B50B4CFE
:104420004FF0FF352B4604226946E06800F041FC5E
:10443000010007D006A000BF00F0DEFAC82001F09E
:10444000C7F8EFE70AA00099F6E700000000002097
:10445000CAFDBEDDBDD3CAD5B3F6B4EDA3ACB4ED91
:10446000CEF3B4FAC2EBA3BA30782531780A000053
:10447000B1BEB4CEBDD3CAD5B5BDB5C4CAFDBEDDCF
:10448000CAC7A3BA2025640A0000000000B583B0A3
:1044900014200A21009101904FF480630022044906
:1044A00004A001F068F803B05DF804EB01F07CB9FA
:1044B000913E00086D61696E0000000070B54843D0
:1044C000044600F0ABFA0546280003D0224600213E
:1044D00000F081FB284670BD70B5054C054DAC421F
:1044E00004D220688047241DAC42FAD370BD00007E
:1044F000746500087C65000870B5054C054DAC423C
:1045000004D220688047241DAC42FAD370BD00005D
:104510007C6500088465000810B5FBF77BFE044944
:104520004A88521C4A80BDE81040FBF777BE000065
:104530009000002010B5FBF76DFE0B4C6188491E02
:1045400009B2618000290ADC00216180FBF766FE68
:104550006068002807D0BDE8104000F0F5BDBDE858
:104560001040FBF75BBE10BD9000002070B5002826
:1045700034D01B4D2968884230D3696888422DD2D7
:10458000A0F10C044FF0FF31164800F0AEFE608839
:1045900018B12088B0F5F55F08D013A000F02CFA10
:1045A00023886288214617A000F026FA0020608048
:1045B0004FF4F5502080A868844200D2AC6029688E
:1045C0006068611A401A2969081A28612046FFF7B5
:1045D00039FEBDE87040034800F05BBE70BD0000CE
:1045E0003800002084040020746F20667265652006
:1045F0006120626164206461746120626C6F636B2E
:104600003A0A00006D656D3A203078253038782CF4
:10461000207573656420666C61673A2025642C20E0
:104620006D6167696320636F64653A203078253077
:1046300034780A0000487047A405002000487047FD
:10464000A441002010B5FCF7FFFDFEF7D4F8FEF7FB
:1046500015F9FDF71BF94FF47A71B0FBF1F0FDF796
:104660007DFBFFF739FFFFF7E9FF0446FFF7E2FFA5
:104670002146BDE8104000F0E7BE000010B54FF045
:10468000FF3407480068C16911F0200F02D0406A6A
:10469000C4B202E00A2001F034F8E0B210BD00001C
:1046A000A4410020F8B5054600240D2000900E49D5
:1046B000002081F88000284600F0A8FE0646300061
:1046C00011D0285D0A2805D101231A4669460648FB
:1046D000FDF718FE012329191A460348FDF712FEBB
:1046E000641CB442EDD3F8BDA441002070B505466A
:1046F00005F128002C1D31490968002902D088479E
:10470000002859D02EA0216C00F076F930A0616A03
:1047100000F072F932A0A16A00F06EF934A0E16AEB
:1047200000F06AF936A0216B00F066F938A06168E4
:1047300000F062F93AA0A16800F05EF93CA0E168DF
:1047400000F05AF93EA0216900F056F940A06169D5
:1047500000F052F942A0A16900F04EF944A0E169CD
:1047600000F04AF946A0216A00F046F948A0616BC2
:1047700000F042F94AA0A16B00F03EF94CA0E16BB9
:1047800000F03AF9287810F0040F08D000F0E4FFA8
:1047900001464BA000F030F9FFF734F902E050A0D9
:1047A00000F02AF9287810F0100F02D153A000F081
:1047B00023F9FEF7BBFEFEE770BD0000B00000204D
:1047C0007073723A203078253038780A0000000083
:1047D0007230303A203078253038780A00000000F6
:1047E0007230313A203078253038780A00000000E5
:1047F0007230323A203078253038780A00000000D4
:104800007230333A203078253038780A00000000C2
:104810007230343A203078253038780A00000000B1
:104820007230353A203078253038780A00000000A0
:104830007230363A203078253038780A000000008F
:104840007230373A203078253038780A000000007E
:104850007230383A203078253038780A000000006D
:104860007230393A203078253038780A000000005C
:104870007231303A203078253038780A0000000054
:104880007231313A203078253038780A0000000043
:104890007231323A203078253038780A0000000032
:1048A000206C723A203078253038780A00000000F9
:1048B0002070633A203078253038780A00000000F4
:1048C00068617264206661756C74206F6E20746814
:1048D000726561643A2025730D0A0D0A000000001C
:1048E00068617264206661756C74206F6E20686107
:1048F0006E646C65720D0A0D0A000000465055206A
:10490000616374697665210D0A00000030B40546C4
:10491000101D20F00700A0F1440420460022DFF81B
:104920002CC040F822C0521C112AFAD34162002147
:104930008162C162016341638363C5634FF080722A
:1049400002640160204630BC70470000EFBEADDE5F
:1049500010B5FBF75FFC04490A78521C0A70BDE8E9
:104960001040FBF75BBC00003400002010B5FBF7E3
:1049700051FC04490A78521E0A70BDE81040FBF74A
:104980004DBC00003400002070B504460D461646AC
:10499000284600F01EFF16B1012E2BD108E005F1CC
:1049A000140061680860616841606060046021E033
:1049B0002068A04214D095F83510A0F1140292F8A6
:1049C0003530994209D2143205F1140351680B6055
:1049D0005168596053601A6002E00068A042ECD14F
:1049E000A04207D105F11400616808606168416068
:1049F00060600460002070BD0FB408B503AB009385
:104A00007F210548029A01F0F5F80348FFF74AFEB6
:104A100001B05DF814FB0000040400202DE9F0470C
:104A2000002809D0C01C20F003053E4EF0688542E6
:104A300005D90020BDE8F0870020BDE8F0870C2DE7
:104A400000D20C254FF0FF31374800F04EFCD6F86D
:104A500008C03168ACEB0100F7687B1B83425BD96F
:104A60000C186288002A54D16268121A0C3AAA42C1
:104A70004FD3626805F11803121A0C3A4FF001097E
:104A80004FF4F5589A4223D3421902F10C03CA1885
:104A9000A2F800804FF0000AA2F802A0D4F804A007
:104AA000C2F804A090606360A4F80290506807F117
:104AB0000C02904202D001F1080283503069324664
:104AC00028440C303061536983420DD250610BE0B1
:104AD000A4F802906068621A801A3269104430614A
:104AE0007269824200D27061A4F80080644503D0EC
:104AF00008E040680844B060B068428812B172684B
:104B00009042F6D1084800F0C4FB04F10C00BDE867
:104B1000F08760688342A3D8034800F0BAFB002006
:104B2000BDE8F087380000208404002010B403465C
:104B3000102A2BD301F0030C03F003045CEA040CED
:104B400024D1D1F800C0C3F800C001F1040C191D34
:104B5000DCF800300B600CF10403D3F800C041F81E
:104B600004CF03F1040C0B1DDCF8001043F8041B08
:104B70000CF10401103A102AE3D2042A06D351F8AA
:104B800004CB43F804CB121F042AF8D2521E05D3DB
:104B900011F801CB03F801CB521EF9D210BC7047BB
:104BA0000346184681420DD201EB020C9C4509D9FF
:104BB0009918521E05D31CF8013D01F8013D521E03
:104BC000F9D27047521EFCD311F801CB03F801CB88
:104BD000521EF9D27047034601F0FF0C042A1CD381
:104BE00010F0030F19D101464CEA0C2343EA0343AA
:104BF000102A0AD341F8043B41F8043B41F8043B36
:104C000041F8043B103A102AF4D2042A04D341F8A4
:104C1000043B121F042AFAD20B46511E05D30CF096
:104C2000FF0203F8012B491EFBD270472DE9F0412A
:104C30000E4615461F460146062000F0E2F90446DE
:104C4000002C2DD0677204F1140040600060F01C4D
:104C50004FF6FC7108402084A9B26184001D4843CE
:104C6000FFF7DCFEE061F0B10022A262E2622263A3
:104C70000020618C00290BDD238CE1691B1D00FBEA
:104C80000311236B0B602163401C618C8142F3DCB8
:104C9000A28404F13400406000602046BDE8F08149
:104CA0002046BDE8F081204600F0D8F90020BDE89C
:104CB000F0812DE9FF4F81B004468B4692460027D4
:104CC00000F04AFD0646FBF7A5FA0090A08C08B953
:104CD000049919B14FF0000940B17BE00098FBF74F
:104CE0009DFA05B06FF00100BDE8F08FC6F8309076
:104CF000049868B194F8098004F11405304600F076
:104D000068FDB8F1000F0CD0B8F1010F34D111E0FB
:104D10000098FBF783FA6FF00100306305B0BDE83F
:104D2000F08F06F114006968086069684160686086
:104D3000056021E02868A84214D096F83520A0F13B
:104D4000140191F835309A4209D2143106F1140257
:104D50004B681A604B6853604A60116002E000685B
:104D6000A842ECD1A84207D106F114006968086096
:104D70006968416068600560049800280CDD00F0F7
:104D8000AFFD074604AA002106F1440000F03EFEF4
:104D900006F1440000F09CFE0098FBF73FFA00F09B
:104DA000D3F9306B18B1306B05B0BDE8F08FFBF76D
:104DB00031FA00900498002809DD00F091FDC71B2E
:104DC0000498C01B0490002801DACDF81090A08C44
:104DD00000288BD0A56A2868A062E06AA84201D1A9
:104DE000C4F82C90A08C401EA0840098FBF716FA03
:104DF000208C504500D282465246291D5846FFF766
:104E000095FEFBF707FA0646206B2860256304F140
:104E100034000168814201D1012000E0002030B15E
:104E20003046FBF7FBF905B00020BDE8F08FA1F19B
:104E3000140000F06DFC3046FBF7F0F900F084F947
:104E400005B00020BDE8F08F0023AFF300802DE90E
:104E5000FF4F81B004468B469246208C504504D2C9
:104E600005B04FF0FF30BDE8F08F002700F074FC74
:104E70000646FBF7CFF90090256B0498284303D032
:104E80002800B94608D07AE00098FBF7C7F905B0CA
:104E90006FF00200BDE8F08FC6F83090049868B15A
:104EA00094F8098004F13405304600F092FCB8F122
:104EB000000F0BD0B8F1010F33D110E00098FBF7D1
:104EC000ADF905B06FF00200BDE8F08F06F11400F7
:104ED00069680860696841606860056021E0286869
:104EE000A84214D096F83520A0F1140191F835307D
:104EF0009A4209D2143106F114024B681A604B68C9
:104F000053604A60116002E00068A842ECD1A842F8
:104F100007D106F11400696808606968416068603B
:104F20000560049800280CDD00F0DAFC074604AAAE
:104F3000002106F1440000F069FD06F1440000F094
:104F4000C7FD0098FBF76AF900F0FEF8306B18B166
:104F5000306B05B0BDE8F08FFBF75CF9009004986A
:104F6000002809DD00F0BCFCC71B0498C01B04909E
:104F7000002801DACDF81090256B002D8CD0286820
:104F800020630098FBF74AF9C5F80090524659464D
:104F9000281DFFF7CBFDFBF73DF90646E06A00B19F
:104FA0000560E562A06A00B9A562A08C4FF6FF71AA
:104FB000884208D2401CA08404F114000168814298
:104FC00009D1012008E03046FBF728F905B06FF061
:104FD0000200BDE8F08F002030B13046FBF71EF92B
:104FE00005B00020BDE8F08FA1F1140000F090FBA7
:104FF0003046FBF713F900F0A7F805B00020BDE834
:10500000F08F2DE9F04106460F46304600F054F887
:105010000546E868FFF702FD0446E4B1002120469A
:10502000EA68FFF7D8FD2672002060720822394630
:10503000204600F0F3F9FBF7EDF8291D04F10C020E
:105040000B685A600B6813600A605160FBF7E6F862
:105050002046BDE8F0810020BDE8F08110B504468F
:1050600000202072FBF7D6F804F10C010B684A68A7
:105070005A604B680A681A6049600960FBF7CEF80D
:105080002046BDE81040FFF771BA10B50446002075
:105090002072FBF7BFF8014604F10C000368426878
:1050A0005A60436802681A6040600060BDE81040C2
:1050B0000846FBF7B3B800000021074A02EB0113D2
:1050C0001B78834202D102EB01107047491C04296E
:1050D000F4DB002070470000500000202DE9F04173
:1050E00005460E4617463046FFF7E6FF0446FFF733
:1050F00013FA6068211D884202D000688842FCD102
:10510000FFF718FA46F08000287208223946284630
:1051100000F084F9FBF77EF80246201D05F10C0132
:105120000368596003680B6001604860BDE8F041A6
:105130001046FBF773B8007A10F0800F01D0012001
:10514000704700207047000070B5FBF763F8054614
:10515000134C6088A8B9A068FDF78AFE421E11486A
:1051600050F83200A0F114016368994209D022700E
:1051700061600D48007848B11C3103F11C00FBF759
:1051800050F82846BDE87040FBF748B81C3103F1E1
:105190001C00FBF746F82846BDE87040FBF73EB818
:1051A00090000020A40400203400002010B5044624
:1051B000FBF730F8024694F8340020F00F0040F07E
:1051C000010084F8340094F835000A4901EBC0016D
:1051D00004F114004B6818604B684360486001603C
:1051E0000548A16B836819438160BDE810401046F3
:1051F000FBF714B8A40400209000002010B504466A
:10520000FBF708F8024604F114010B68486858607F
:105210004B68086818604960096094F835000A49CD
:1052200001EBC0000168814201D1012000E00020B3
:1052300028B10648A16B836823EA01018160BDE8BB
:1052400010401046FAF7EABFA404002090000020A6
:1052500070B50C46154601460220FFF7D2FE002825
:1052600005D000F11401496009608483457270BD66
:1052700070B5044615461E460A4602212046FFF731
:105280002DFF04F1140149600960A58366720020B6
:1052900070BD70B504460025FAF7BCFF064604F160
:1052A00014000168814201D1012000E0002038B1E2
:1052B000A08B4FF6FF7188420DD2401CA08304E002
:1052C000A1F1140000F024FA01253046FAF7A6FFF8
:1052D000012D06D007E03046FAF7A0FF6FF002007C
:1052E00070BDFFF731FF002070BD73B50446FAF7BB
:1052F00091FF0646A08B28B1401EA0833046FAF7E6
:105300008DFF21E0019810B300F026FA0546002039
:105310002863627A294604F11400FFF735FB0198EF
:10532000002809DD01AA002105F1440000F06EFB10
:1053300005F1440000F0CCFB3046FAF76FFFFFF7B1
:1053400003FF286B002800D1002002B070BD30465A
:10535000FAF764FF02B06FF0010070BD08B509A054
:10536000FFF74AFB0AA0FFF747FB12A000900523B6
:105370000122032112A0FFF73FFBBDE8084018A05F
:10538000FFF73ABB0A205C207C202F0A00000000B7
:105390002D205254202D2020202020546872656139
:1053A00064204F7065726174696E672053797374FD
:1053B000656D0A004D61792031352032303233007D
:1053C000202F207C205C202020202025642E256496
:1053D0002E2564206275696C642025730A00000024
:1053E0002032303036202D203230323020436F7062
:1053F0007972696768742062792072742D7468729A
:10540000656164207465616D0A000000014600E07A
:10541000491C0A78002AFBD1081A7047002A09D0D3
:10542000034611F801CB03F801CBBCF1000F02D009
:10543000521EF6D17047511EFCD0002203F8012BFA
:10544000491EFBD17047000010B50A46C11C21F06F
:10545000030122F00303182B22D9A3F1180C8C4569
:105460001ED3124C581A1838E06021604FF4F553DF
:105470000B8000F10C024A60002088604880486878
:105480000844606003800121418042608260002303
:10549000012207A10848FFF7EBFE2068A06010BDBD
:1054A0000146BDE8104005A0FFF7A6BA380000206D
:1054B0006865617000000000840400206D656D2047
:1054C000696E69742C206572726F722062656769FB
:1054D0006E206164647265737320307825782C20A7
:1054E000616E6420656E642061646472657373200C
:1054F000307825780A0000000B4B4FF0000CA3F821
:1055000002C00020094A02EBC00149600960401C4A
:105510002028F8DB1F201870C3F804C0C3F808C0A7
:10552000034840600060704790000020A404002001
:105530009C00002010B5074CA068FDF799FC401EA8
:10554000054951F8300014386060BDE810401C3047
:10555000FAF7ADBE90000020A40400200020044A09
:1055600002EBC00149600960401C0028F8D0704778
:10557000A800002070472DE9F04784B080460D9DBB
:105580000C9C894692461E4641460120FFF739FD94
:105590000746380011D03046FFF740FA88B1009036
:1055A00053464A4641460196039502943846FDF714
:1055B000C9FC04B03846BDE8F08704B00020BDE85F
:1055C000F0873846FFF74AFD04B00020BDE8F087B9
:1055D00000F0C8B870B515480468FAF71BFE054618
:1055E0002046FDF701FD2046FFF708FE042084F861
:1055F000340004F1440000F033FA2046FFF79BFD2D
:1056000001280FD00A4904F114000A6850600A68A2
:10561000026008604160FFF797FD2846BDE87040D2
:10562000FAF7FCBD2046FFF730FDF4E794000020B8
:105630009C00002000F002F8FCE7000070B5134C5D
:1056400017E0012100E00021D9B12168A1F1140681
:105650000A68486850604A680868106049600960D4
:10566000B06AFEF783FF3046FFF7F8FC2846FAF7EA
:10567000D5FDFAF7CFFD0546044908688842E2D017
:10568000DFE72846BDE87040FAF7C8BD9C0000205F
:1056900000B585B02020C2001F21084B0093019265
:1056A000029103900023064A06A1084800F010F872
:1056B00005B006485DF804EB00F076B8040300205E
:1056C000355600087469646C650000008C02002087
:1056D0002DE9F04F85B00EAC8146F0CC884692465D
:1056E0009B46424601214846FFF7F8FC8DE8F00052
:1056F0005B46524641464846FDF724FC05B0BDE8EE
:10570000F08F10B500F0D2F8BDE8104000F02AB8D4
:1057100070B5044694F8340000F00F00022802D05F
:105720004FF0FF3070BDFAF775FD054604F1140126
:105730000A68486850604A680868106049600960F3
:1057400004F1440000F02CFA2846FAF767FD2046E1
:10575000FFF72CFD002070BD014800687047000075
:105760009400002031B5FAF755FD05460D48046850
:10577000204600F02EF86A46002104F1440000F0B3
:1057800045F904F1440000F0A3F92846FAF746FD74
:10579000FFF7DAFC206B10F1020F01D1002020632B
:1057A000002038BD9400002010B590F8361080F825
:1057B0003510012202FA01F18163022180F83410D0
:1057C000FFF7A6FFFFF7C8FF08B1FFF7BDFC0020F9
:1057D00010BD70B5044694F8340000F00F000128A5
:1057E00002D04FF0FF3070BDFAF714FD0546204699
:1057F000FFF704FD94F8340020F00F0040F00200A1
:1058000084F8340004F1440000F0CAF92846FAF79D
:1058100005FD002070BD10B56FF00101016300F1BE
:1058200014010B684A685A604B680A681A6049603C
:105830000960FFF7BBFCBDE81040FFF785BC000026
:1058400010B5FAF7E7FC1749096891F8342002F01F
:105850000F02012A21D1D1F814C08B699C451CD0BC
:1058600001F11402CCF80430D2F804C01368CCF86B
:1058700000305260126091F835200B4B143103EB6D
:10588000C2025368196053684B6051600A60FAF7AE
:10589000C5FCFFF759FC002010BDFAF7BFFC002043
:1058A00010BD000094000020A4040020002802DAAB
:1058B0004FF0FF3070474FF47A7190FBF1F24A439A
:1058C00090FBF1F301FB130000EB4003C3EBC010AE
:1058D0004B1E03EBC00090FBF1F01044704700003A
:1058E00001480068704700003000002010B50948EA
:1058F0000168491C0160FFF72FFF016C491E01641C
:1059000019B9C16B0164FFF79BFFBDE8104000F0BF
:1059100003B80000300000202DE9F04182B0684655
:1059200001900090FFF7DCFF8046FAF773FC074612
:1059300035480168814201D1012000E000200028A3
:105940005CD1314D6FF000462868A0F11404A06AC4
:10595000A8EB0000B04251D22246002002EBC00169
:105960001431D1F800C04B68CCF80430D1F804C031
:105970000B68CCF8003049600960401C0128EDDB61
:10598000607A10F0020F02D120F0010060726946C7
:1059900004F11400009A5060009A02600090416087
:1059A000E169206A8847FFF79BFF804668460099B7
:1059B000814201D1012000E00020B0B904F11400BF
:1059C000026841685160426801681160406000608F
:1059D000607A10F0020F08D010F0010F05D020F00F
:1059E00001006072204600F073F8074801688142A8
:1059F00001D1012000E000200028A5D03846FAF7A8
:105A00000DFC02B0BDE8F081A800002070B504468E
:105A10000E461546FAF7FEFB052E1DD2DFE806F00E
:105A20000603090E1300616A296015E029686162A6
:105A300012E0617A21F0020161720DE0617A41F0B9
:105A40000201617208E0617A11F0010F02D00121B8
:105A5000296001E000212960FAF7E0FB002070BD19
:105A600070B50546FAF7D6FB2C46002204EBC201BE
:105A70001431D1F800C04B68CCF80430D1F804C020
:105A80000B68CCF8003049600960521C012AEDDB3C
:105A9000697A21F001016972FAF7C0FB2846FFF725
:105AA000F4FA002070BD2DE9F8438046089D099C5A
:105AB00016461F460A460A214046FFF70FFB2B46B3
:105AC0003A46314640460094FDF77AFABDE8F8833D
:105AD0002DE9F8430446FAF79DFB054622460020CF
