:020000040800F2
:1000000010460020F101000877190008F5020008E9
:1000100075190008BB040008112100080000000049
:1000200000000000000000000000000003020008C3
:10003000E90400080000000043020008B11A0008AB
:100040000B0200080B0200080B0200080B0200085C
:100050000B0200080B0200080B0200080B0200084C
:100060000B0200080B0200080B0200080B0200083C
:100070000B0200080B0200080B0200080B0200082C
:100080000B020008000000000B0200080B02000831
:100090000B0200080B0200080B0200080B0200080C
:1000A0000B0200080B0200080B0200080B020008FC
:1000B0000B0200080B0200080B0200080B020008EC
:1000C0000B0200080B0200080B0200080B020008DC
:1000D0000B0200080B0200080B0200080B020008CC
:1000E0000B0200080B0200080B0200080B020008BC
:1000F0000B0200080B0200080B02000800000000C1
:10010000000000000B020008000000000B020008C5
:100110000B02000800000000D11B00080B020008C1
:100120000B0200080B0200080B0200080B0200087B
:100130000B02000800000000000000000B02000895
:100140000B0200080B020008000000000000000085
:10015000000000000000000000000000000000009F
:100160000000000000000000000000000B0200087A
:100170000B0200080000000000000000000000006A
:10018000000000000B02000800000000000000005A
:10019000000000000000000000000000000000005F
:1001A00000000000000000000B0200080B02000825
:1001B0000B0200080B0200080B0200080000000000
:1001C000000000000B02000800000000000000001A
:1001D0000B0200080B020008DFF810D000F056F9FF
:1001E00000480047B1040008AFF30080104600202B
:1001F0000648804706480047FEE7FEE7FEE7FEE7C1
:10020000FEE7FEE7FEE7FEE7FEE7FEE7C11B0008AC
:10021000D9010008EFF3108072B6704780F31088A0
:100220007047424A1368012B04D04FF0010313605A
:100230003F4A10603F4A11603F484FF080510160D3
:100240007047EFF3108272B63848016851B34FF02F
:10025000000101603648016891B1EFF309811EF099
:10026000100F08BF21ED108B21E9F00F4FF00004B3
:100270001EF0100F08BF012441F8044D0068016012
:100280002C490968096808C9B1E8F00F002B18BFAC
:10029000B1EC108B81F309884EF0100E002B18BFC3
:1002A0002EF0100E82F310884EF0040E7047214994
:1002B0000860EFF3148222F0040282F314881C49D0
:1002C0004FF00000086019494FF0010008601B481A
:1002D0001B49D0F8002041EA0201016016484FF0A6
:1002E0008051016017480068006880F3088861B693
:1002F00062B670471EF0040F0CBFEFF30880EFF3F7
:10030000098020E9F00F40F804ED40F804ED1EF0FC
:10031000040F0CBF80F3088880F3098800B503F050
:10032000F7F95DF804EB4EF0040E7047D80000209A
:10033000D0000020D400002004ED00E020ED00E01B
:100340000000FFFF08ED00E02DE9F05F054600200A
:1003500092469B4688460646814640241BE0284636
:1003600041464746224600F081F853465A46C01A95
:10037000914110D311461846224600F068F82D1A14
:1003800067EB01084F4622460120002100F05FF88C
:1003900017EB00094E41201EA4F10104DFDC4846A2
:1003A00031462A464346BDE8F09F40EA01039B07D9
:1003B00003D009E008C9121F08C0042AFAD203E0DA
:1003C00011F8013B00F8013B521EF9D27047D2B23E
:1003D00001E000F8012B491EFBD270470022F6E72E
:1003E00010B513460A4604461946FFF7F0FF2046AB
:1003F00010BD421E12F8013F002BFBD111F8013B4A
:1004000002F8013B002BF9D1704710B5044604E017
:100410000B7800F8013B03B1491C521EF8D220466C
:1004200010BD421C10F8011B0029FBD1801A704737
:1004300030B505460020034600E05B1C934205D220
:10044000EC5CC85C201A01D1002CF6D130BD202A0A
:1004500004DB203A00FA02F1002070479140C2F11B
:10046000200320FA03F3194390407047202A04DB4D
:10047000203A21FA02F00021704721FA02F3D0401D
:10048000C2F120029140084319467047064C074DBF
:1004900006E0E06840F0010394E807009847103454
:1004A000AC42F6D3FFF79CFEB8530008D8530008BF
:1004B00010B504F0A3FB002010BDFEE710B501222B
:1004C0001102044800F000F9BDE8104002A003F05A
:1004D00075BA0000000800484C45443120636C6F39
:1004E0007365210A00000000704772B6FEE7000045
:1004F0002DE9FC4FDFF8A0A1002301250AF1040B30
:1005000003244FF00F0C0BF1040EBDE005FA03F6C7
:1005100032406FD04F68012F05D0022F03D0112F2A
:1005200001D0122F17D1D0F808905F0004FA07F815
:1005300029EA08090097D1F80C8008FA07F848EA78
:100540000908C0F808804768B7430E79C6F300165B
:100550009E403E434660C6684FEA430804FA08F7E7
:10056000BE4301978F6807FA08F73743C7604E68A4
:10057000022E01D0122E13D1DE0800EB8606009663
:10058000366A5F07FF0E0CFA07F926EA0906D1F86A
:10059000109009FA07F949EA0609009EC6F820906A
:1005A0000668019FBE430F7907F0030707FA08F7B3
:1005B000374307604E68F60065D5384E376E47F012
:1005C00001073766366E23F0030706F00106009632
:1005D000334E3E44B146B6689F074FEA17780CFA8F
:1005E00008F7BE43B0F1904F05D02E4FB84204D16A
:1005F000012717E047E0002714E02B4FB84201D154
:1006000002270FE0294FB84201D103270AE0284F03
:10061000B84201D1042705E0264FB84201D1052791
:1006200000E0062707FA08F73743C9F80870DAF838
:1006300000605746D1F8048096435FEAC83800D579
:1006400016433E60DBF800605F46D1F804809643B5
:100650005FEA883800D516433E60DEF800607746D2
:10066000D1F8048096435FEAC82800D516433E605F
:10067000094F0C373E68D1F8048096435FEA88281A
:1006800000D516433E605B1C0A6832FA03F67FF41D
:100690003DAFBDE8FC8F00000004014000100240A7
:1006A000000001400004004800080048000C004819
:1006B0000010004800140048426921EA02030A4081
:1006C00043EA0241816170470AB1816170478162EA
:1006D000704700000148806870470000100000204B
:1006E00010B50024032000F073F8002000F008F893
:1006F00008B1012401E000F025F8204610BD0000FB
:1007000070B50E4E05460024706898B14FF47A71AA
:10071000B1FBF0F00A490968B1FBF0F000F06AFDA6
:1007200040B9102D06D200222946501E00F030F8A4
:10073000356000E00124204670BD0000100000205C
:100740001C0000200A4882B0016E41F001010166E0
:10075000016E01F001010091816D41F080518165D0
:10076000806D00F08050009002B000F0A1B8000051
:1007700000100240002809DB00F01F020121914017
:100780004009800000F1E020C0F80011704700002F
:10079000F0B40E4B1B680C46C3F30223C3F10705EC
:1007A000042D00D90425191D072901D2002300E0DA
:1007B000DB1E012606FA05F1491E214099409E40A4
:1007C000761E16403143F0BC01F0A3BC0CED00E0F6
:1007D000064900F0070208684FF6FF03184040EA98
:1007E0000220034A10430860704700000CED00E04F
:1007F0000000FA052B492C4B0A6832214A432B4949
:1008000040B1B0F5007F086829D020F4C06040F402
:1008100080602CE00868C0F34120022804D051F821
:10082000800F20F4807022E0D1F8800020F48070E6
:10083000C1F88000086820F4C06040F400700860CF
:10084000B2FBF3F0401C00E0401E4A69520501D59E
:100850000028F9D1486940050AD503207047C0F344
:100860004120022806D051F8800F40F480700860C3
:1008700000207047D1F8800040F48070C1F88000FB
:10088000086820F4C06040F400700860B2FBF3F028
:10089000401C00E0401E4A695205DBD50028F9D112
:1008A000D8E700001C00002040420F00007000400C
:1008B0000248816841F480418160704700700040C7
:1008C0002DE9F8430446006800269D4D00035ED5DF
:1008D000A86D0027C00008D4A86D40F08050A8651E
:1008E000A86D012700F080500090DFF85892D9F8E9
:1008F000001041F48071C9F80010FFF7EBFE80464C
:1009000006E000BFFFF7E6FEA0EB080002282BD8A8
:10091000D9F80000C005F5D5D5F8900010F4407066
:1009200014D0216C814211D0D5F89000D5F89010E8
:1009300020F4407041F48031C5F89010D5F8901043
:1009400021F48031C5F89010C5F89000C00711D08F
:10095000FFF7C0FE804641F2883907E0FFF7BAFE94
:10096000A0EB0801494501D903260BE0D5F890001A
:100970008007F3D5D5F89000216C20F4407008432F
:10098000C5F890001FB1A86D20F08050A8652078B0
:10099000C00707D0D5F88800616820F0030008433D
:1009A000C5F888002078800707D5D5F88800A168A9
:1009B00020F00C000843C5F888002078400707D5D0
:1009C000D5F88800E16820F030000843C5F88800B9
:1009D0002078000707D5D5F88800216920F0C000ED
:1009E0000843C5F888002078800607D5D5F8880028
:1009F000616920F440600843C5F88800207840060B
:100A000007D5D5F88800A16920F440500843C5F8FF
:100A100088002078000607D5D5F88800E16920F421
:100A200040400843C5F888002088C00507D5D5F8A0
:100A30008800216A20F440300843C5F888002088E7
:100A4000800507D5D5F88800616A20F44020084366
:100A5000C5F88800208840050FD5D5F88800A16A20
:100A600020F440100843C5F88800A06AB0F5801F44
:100A700003D1E86840F48010E860208800050FD5B5
:100A8000D5F88800E16A20F440000843C5F88800E2
:100A9000E06AB0F5800F03D1E86840F48010E860A8
:100AA0002088C0040FD5D5F88800216B20F0407055
:100AB0000843C5F88800206BB0F1807F03D1E86857
:100AC00040F48010E86020884FF0006180040ED56B
:100AD000D5F88800626B20F040601043C5F88800AC
:100AE000606B884203D1E86840F48010E860208899
:100AF00040040ED5D5F88800A26B20F0406010436A
:100B0000C5F88800A06B884203D1E86840F48010E3
:100B1000E860208800040FD5D5F88800E16B20F04C
:100B200040500843C5F88800E06BB0F1805F03D106
:100B3000E86840F48030E8603046BDE8F8830000A3
:100B400000100240007000402DE9F0470E460500FD
:100B50004FF0000725D0DFF8AC81D8F8000000F096
:100B60000F00B0420CD2D8F8001021F00F01314331
:100B7000C8F80010D8F8000000F00F00B04210D103
:100B80002968614CC80741F2883A5AD06868DFF892
:100B90007C91032808D0022820682DD04005002829
:100BA0002CDB0120BDE8F08720688001F9D5E068E2
:100BB00000F00302E068C0F30310401C032A19D0C0
:100BC000534A00BFB2FBF0F0E268C2F30622504382
:100BD000E268C2F34162521C5200B0FBF2F0484599
:100BE00017D9A06810F0F00F0CD0880711D5A868AD
:100BF00040B10EE0474AE5E78003D0E700F0BCF8DB
:100C0000484506D9A06820F0F00040F08000A060C0
:100C10008027A068696820F003000843A060FFF700
:100C200059FD814606E000BFFFF754FDA0EB090126
:100C300051453AD8A068696800F00C00B0EB810F0C
:100C4000F2D12868810714D5400703D5A06840F485
:100C5000E060A0602878000705D5A06820F4605007
:100C600040F4E060A060A068A96820F0F0000843AC
:100C700004E0802F03D1A06820F0F000A060D8F835
:100C80000010404601F00F01B14216D9016821F071
:100C90000F0131430160FFF71DFD074607E000BF6C
:100CA000FFF718FDC11B514501D903207AE7D8F899
:100CB000000000F00F00B042F2D12878400705D5BF
:100CC000A068E96820F4E0600843A0602878000785
:100CD00006D5A068296920F4605040EAC100A060F0
:100CE00000F04AF8A1680C4AC1F30311515C01F00D
:100CF0001F01C8400949086009480068BDE8F0477D
:100D0000FFF7FEBC002002400010024000B4C40403
:100D10000024F40000366E01864E00081C000020FE
:100D20001000002001480068704700001C000020EF
:100D30000548064900688968054AC1F30221515CEB
:100D400001F01F01C84070471C0000200010024045
:100D5000964E00080548064900688968054AC1F3AF
:100D6000C221515C01F01F01C84070471C000020E7
:100D700000100240964E0008184910B58868C0F36C
:100D800081021748012A0BD08A68164BC2F38102F0
:100D9000022A06D08A68C2F38102032A03D0002007
:100DA00010BD184610BDCA6802F00304CA68C2F339
:100DB0000312521C032C02D0B0FBF2F001E0B3FB93
:100DC000F2F0CA68C968C2F306225043C1F3416118
:100DD000491C4900B0FBF1F010BD000000100240BA
:100DE0000024F40000366E012DE9F84304007AD0A7
:100DF0002078FA4DC00747D0A868E96800F00C00D9
:100E000001F003010C2802D0082817D001E00329C3
:100E100014D06068B0F5803F17D0B0F5A02F2868D7
:100E200017D020F480302860286820F480202860C3
:100E30006068E0B1FFF74EFC064614E028688003C6
:100E400022D560680028D2D01EE0286840F48030A7
:100E5000EDE740F480202860F7E700BFFFF73AFC99
:100E6000801B642870D828688003F7D50CE0FFF752
:100E700031FC064605E000BFFFF72CFC801B642810
:100E8000F0D828688003F7D4207880074CD5A8686C
:100E9000E96800F00C0001F003010C2802D00428DE
:100EA0000DD001E002290AD0E068002828682BD084
:100EB00040F480702860FFF70DFC064619E02868B2
:100EC000400502D5E068002891D06868217C20F0B8
:100ED000FE4040EA01606860C1480068FFF710FC0E
:100EE000002800D120E076E1FFF7F4FB801B022808
:100EF000B8D828684005F7D56868217C20F0FE4006
:100F000040EA016068600FE020F480702860FFF71D
:100F1000E1FB064605E000BFFFF7DCFB801B022873
:100F2000A0D828684005F7D42078000729D5606943
:100F30000028D5F8940013D040F00100C5F89400C3
:100F4000FFF7C8FB064606E090E000BFFFF7C2FBD4
:100F5000801B022886D8D5F894008007F6D510E0CB
:100F600020F00100C5F89400FFF7B4FB064604E04A
:100F7000FFF7B0FB801B022878D8D5F894008007D3
:100F8000F6D42078400761D5A86D0026C00008D4AB
:100F9000A86D40F08050A865A86D012600F0805033
:100FA000009090480168C90511D40168804641F459
:100FB00080710160FFF78EFB074604E0FFF78AFBB4
:100FC000C01B022852D8D8F80000C005F6D5A0688A
:100FD000012815D00528D5F8900016D020F0010082
:100FE000C5F89000D5F8900020F00400C5F89000F6
:100FF000A06841F28838B8B1FFF76CFB07460EE0F5
:10100000D5F8900040F00100F0E740F00400C5F88A
:101010009000F5E7FFF75EFBC11B414526D8D5F8E8
:1010200090008007F6D50CE0FFF754FB074604E07C
:10103000FFF750FBC11B414518D8D5F89000800739
:10104000F6D41EB1A86D20F08050A86520788006E7
:1010500029D5A0690028D5F8980013D040F00100E8
:10106000C5F89800FFF736FB064606E077E000BFBC
:10107000FFF730FB801B022877D8D5F8980080074F
:10108000F6D510E020F00100C5F89800FFF722FB2C
:10109000064604E0FFF71EFB801B022865D8D5F842
:1010A00098008007F6D4E069F0B3A968C1F3810124
:1010B000032961D00228286820F0807028600BD0B6
:1010C000E86820F00300E860E86847490840E86005
:1010D000FFF700FB04464BE0FFF7FCFA064604E08E
:1010E000FFF7F8FA801B02283FD828688001F7D460
:1010F000F4E908016FF00F0202EB01110843218AA5
:101100005204490802EB4151A26841EA0221084316
:10111000217D4FF07E42490802EB41610843217B6B
:1011200040EAC160E96800E062E0304A11400843EB
:10113000E860286840F080702860E86840F08070BF
:10114000E860FFF7C7FA044605E000BFFFF7C2FA00
:10115000001B022809D828688001F7D548E004E080
:10116000FFF7B8FA001B022802D90320BDE8F88374
:1011700028688001F4D43BE00128F7D0E868226AAF
:1011800000F00301914226D1616A00F0F0020901EA
:10119000103991421FD1A26A00F4FE41B1EB022F37
:1011A00019D194F82C2000F07841B1EBC26F12D124
:1011B000218E00F4C00249084905A1F500119142B1
:1011C00009D194F8341000F0C06049084906A1F133
:1011D000007181420CD00120C8E7000000100240DD
:1011E0001000002000700040FFFFEEFE0C809F0109
:1011F0000020BBE710B5401EB0F1807F01D3012075
:1012000010BD4FF0E02460610F21601700F081FFF6
:101210000020A06107202061002010BD70477047AA
:101220007047704770477047F0B590F83C20012A2E
:101230003AD0012580F83C50022280F83D20036816
:101240005A689C68194E1A4FB34201D0BB4204D170
:1012500022F4700C4A6842EA0C02DFF858C002EA35
:101260000C02D1F800C04CEA020CC3F804C00268BA
:10127000B2420DD0B2F1804F0AD00F4B9A4207D044
:101280000E4B9A4204D0BA4202D00D4B9A4204D17E
:10129000896824F080031943916080F83D50002153
:1012A00080F83C100846F0BD0220F0BD002C014043
:1012B000003401408FFFFFFD0004004000080040A3
:1012C00000400140704710B5040003D094F83D0081
:1012D00010B107E0012010BD002084F83C0020463A
:1012E00000F022F8022084F83D00211D206800F063
:1012F00075FC012084F8480084F83E0084F83F0023
:1013000084F8400084F8410084F8420084F84300E7
:1013100084F8440084F8450084F8460084F84700C7
:1013200084F83D00002010BD08B500680B498842D4
:1013300012D10B48816D41F010018165806D002252
:1013400000F01000009011463620FFF721FABDE8AA
:1013500008403620FFF70EBA08BD0000001000401C
:1013600000100240704770B50446006801694FF0F4
:101370000005C943890715D4C168C943890711D439
:10138000E91E0161012020772068806980072046DE
:1013900002D0FFF7E7FF04E000F0E3F8204600F09A
:1013A000E1F8257720680169C943490717D4C16866
:1013B000C943490713D46FF004010161022020776B
:1013C0002068806910F4407F204602D0FFF7CAFFF2
:1013D00004E000F0C6F8204600F0C4F82577206845
:1013E0000169C943090716D4C168C943090712D462
:1013F0006FF008010161042020772068C069800730
:10140000204602D0FFF7AEFF04E000F0AAF8204625
:1014100000F0A8F8257720680169C943C90617D4E8
:10142000C168C943C90613D46FF0100101610820D7
:1014300020772068C06910F4407F204602D0FFF773
:1014400091FF04E000F08DF8204600F08BF825773E
:1014500020680169C943C90708D1C168C943C907E0
:1014600004D1891E0161204600F07DF820680169E1
:10147000C943090609D4C168C943090605D46FF0F8
:10148000800101612046FFF7CAFE20680169C94357
:10149000C90509D4C168C943090605D46FF4807130
:1014A00001612046FFF7BAFE20680169C943490679
:1014B00009D4C168C943490605D46FF040010161F0
:1014C000204600F051F820680169C943890609D413
:1014D000C168C943890605D46FF020010161204627
:1014E000FFF79EFE20680169C943C90209D4C1689B
:1014F000C943C90205D46FF4801101612046FFF78A
:1015000091FE20680169C943890209D4C168C943B1
:10151000890205D46FF4001101612046FFF781FEB6
:1015200020680169C943490209D4C168C943490215
:1015300005D46FF4800101612046FFF774FE206836
:101540000169C94309020BD4C168C943090207D420
:101550006FF4000101612046BDE87040FFF7B2BEA4
:1015600070BD704770477047704790F88010012930
:1015700018D0012180F880102421C0F8841050F880
:10158000641B0A680B6823F001030B6022F0005112
:101590000022026050F8643C196020210162027749
:1015A000104670470220704770B5044690F88000DE
:1015B00001281DD0012084F880002420C4F8840074
:1015C00020680568026822F00102026020688268D3
:1015D00022F060620A438260204600F057FB2068D8
:1015E00005602020C4F88400002084F8800070BDCD
:1015F000022070BD70B5044690F8800001281DD00F
:10160000012084F880002420C4F884002068056844
:10161000026822F0010202602068826822F06042C3
:101620000A438260204600F031FB206805602020DC
:10163000C4F88400002084F8800070BD022070BDD2
:1016400010B5040003D0D4F8840010B107E00120E5
:1016500010BD002084F88000204600F027F82420E8
:10166000C4F884002068016821F00101016020466F
:1016700000F0C2FB0128EBD0A06A10B1204600F0B8
:1016800027FB2068416821F490414160206881680F
:1016900021F02A0181602068016841F001010160A8
:1016A0002046BDE8104000F077BB000010B586B0C2
:1016B000044614216846FEF791FE134920688842CB
:1016C0001FD11248016E41F480410166016E01F4A0
:1016D00080410591C16C41F00101C164C06C694653
:1016E00000F0010005904FF4C060009002200190CE
:1016F000002002900390072004904FF09040FEF7E6
:10170000F7FE06B010BD0000003801400010024096
:101710002DE9F8430446D0F884001F4616460D46CE
:10172000202851D1DDB1D6B194F8800001284BD0EA
:10173000012084F880004FF00008C4F88C8021203C
:10174000C4F884001834FEF7C5FFA6878146E687F3
:1017500054F8100C183CB0F5805F03D004E0012071
:10176000BDE8F883206920B12E46002584F88080EA
:1017700010E00026FAE78021204600F077FCB8B997
:10178000C6B116F8010B21688862B4F85600401EF5
:10179000A4F85600B4F856004B464FF000020097EC
:1017A0000028E8D14FF04001204600F05FFC30B146
:1017B0000320D5E735F8020BC0F30800E3E720204B
:1017C000C4F884000020CBE70220C9E72DE9F041EE
:1017D00086B014216846FEF701FE3648C16C41F020
:1017E0000401C164C16C01F004010591C16C41F0B8
:1017F0002001C164C16C01F020010591C16C41F070
:101800000101C164C16C01F001010591C16C41F09D
:101810000201C164C16C01F002010591C16C41F08B
:101820000801C164C06C244E00F008004FF47F44EE
:101830000590012221463046FEF746FF1F4F012248
:1018400004213846FEF740FFDFF8748001220821AA
:101850004046FEF739FF0125CDE9004500240294FA
:10186000694630460394FEF743FECDE900546946CD
:101870004FF090400294FEF73BFE0720CDE90004B4
:10188000694640460294FEF733FE04200090CDE9FD
:101890000154694638460394FEF72AFE082000905A
:1018A000CDE90154694640460394FEF721FE06B097
:1018B000BDE8F0810010024000080048000C00481C
:1018C000000400483EB500240F48009401940D49DF
:1018D000029401604F21C0E9011442F20F7184614A
:1018E000C160FFF7F0FC08B1FEF7FFFD0094694608
:1018F00005480294FFF798FC002801D0FEF7F5FD9B
:101900003EBD000000100040F4000020184810B553
:10191000164901604FF4E1314160002181600C22E1
:10192000C160C0E904128161C161016241628162EA
:10193000FFF786FE08B1FEF7D8FD00210C48FFF73F
:1019400059FE08B1FEF7D1FD00210948FFF72CFE32
:1019500008B1FEF7CAFD0648FFF707FE002803D0CE
:10196000BDE81040FEF7C1BD10BD000000380140C9
:1019700040010020FEE7FEE710B500224FF4807121
:101980000348FEF7A1FEBDE8104002A002F016B821
:10199000000800484C454431206F70656E210A00F4
:1019A00070B50C46022801DA21A020E02BA1606866
:1019B00002F058FB2A4DF0B12AA1606802F052FBF8
:1019C00000B329A1606802F04DFB10B327A1606845
:1019D00002F048FB20B326A1606802F043FB002818
:1019E000E2D14FF480512846FEF766FE21A0BDE803
:1019F000704001F0E3BF4FF480712846FEF75CFEB3
:101A00001FA0F4E74FF400712846FEF755FE1FA013
:101A1000EDE74FF480612846FEF74EFE1EA0E6E794
:101A20004FF400612846FEF747FE1EA0DFE70000E6
:101A3000506C6561736520696E70757420274C6900
:101A40006768745F4C45443C317C327C337C347C29
:101A5000357C367C377C383E270A00003100000098
:101A6000000800483200000033000000340000008D
:101A700035000000B2D9D7F74C454435210A0000A3
:101A8000B2D9D7F74C454431210A0000B2D9D7F773
:101A90004C454432210A0000B2D9D7F74C454433B3
:101AA000210A0000B2D9D7F74C454434210A00007E
:101AB00010B501F05FFF02F06DFDBDE8104001F0D0
:101AC0006BBF30B5A5B038216846FEF787FC1421FE
:101AD0001FA8FEF783FC44210EA8FEF77FFC4FF4FD
:101AE0000070FEF787FE01252804CDE90050022092
:101AF0000324CDE907041421CDE90A100C900D90C0
:101B000009946846FFF770F908B172B6FEE70F2036
:101B1000CDE91F0400242194229402211FA82394BC
:101B2000FFF712F808B172B6FEE7CDE90E540EA821
:101B3000FEF7C6FE002801D072B6FEE725B030BD24
:101B400030B51A4881681A4B01F00C021949042A71
:101B500005D0194C082A04D00C2A1BD103E00B60D5
:101B600018E00C6016E0C26802F00305C268C2F318
:101B70000312521C022D16D0B4FBF2F2C368C3F359
:101B800006235343C268C2F34162521C5200B3FBA6
:101B9000F2F20A608068094AC0F30310105C0A6818
:101BA000C2400A6030BDB3FBF2F2E7E7001002402A
:101BB0000024F4001C00002000366E01864E000850
:101BC0000248016841F470010160704788ED00E04F
:101BD0000148FFF7C8BB0000F40000202DE9F043E6
:101BE0000268234B234D244E244C4FF080499842E9
:101BF00007D0484505D0A84203D0B04201D0A0424A
:101C000003D122F070074A683A431D4FDFF874C0D1
:101C1000DFF8748098420DD048450BD0A84209D017
:101C2000B04207D0A04205D0B84203D0604501D0F1
:101C3000404503D122F44075CA682A434D6922F019
:101C400080022A4302608A68C2620A6882629842FD
:101C500007D0A04205D0B84203D0604501D040452E
:101C600001D10969016301214161BDE8F0830000F0
:101C7000002C0140000400400008004000340140F6
:101C800000400140004401400048014030B5416E31
:101C9000B9B1026891689268C1F342610B4B520F6F
:101CA0009C5CE50003F10804A25CB5FBF2F2A0F82D
:101CB0006A205A5C615CD200B2FBF1F1A0F86810B6
:101CC00030BD0121A0F86A10F8E70000764E000848
:101CD00090F82810C90706D001684A68C36A22F440
:101CE00000321A434A6090F82810890706D5016827
:101CF0004A68036B22F480321A434A6090F8281035
:101D0000490706D501684A68436B22F480221A43CA
:101D10004A6090F82810090706D501684A68836B65
:101D200022F400421A434A6090F82810C90606D5EA
:101D300001688A68C36B22F480521A438A6090F863
:101D40002810890606D501688A68036C22F40052BF
:101D50001A438A6090F82810490611D501684A682C
:101D6000436C22F480121A434A60416CB1F5801F23
:101D700006D101684A68836C22F4C0021A434A60A3
:101D800090F82810090606D501684A68C06C22F44C
:101D9000002202434A607047F8B500260446C0F8A6
:101DA0008C60FEF797FC0546206800686FF07E4760
:101DB000000708D52B4600224FF40011204600975B
:101DC00000F054F960B92068006840070AD52B4636
:101DD00000224FF480012046009700F047F908B137
:101DE0000320F8BD2020C4F88400C4F8880044F81B
:101DF0006C6F00202675F8BD2DE9F041044601689E
:101E000080682269E3691043626900251A43104320
:101E1000DFF82CC20A688B4B1A4002430A60206824
:101E20004168E26821F44051114341602168A06992
:101E3000614501D0226A10438A68834B1A400243ED
:101E40008A602068C16A626A21F00F011143C16291
:101E50007E4923687E488B420DD1D0F8880010F06F
:101E6000030006D0012855D0022842D003283FD1D4
:101E700052E001203DE077498B420BD1D0F8880039
:101E800010F00C0035D0042833D0082840D00C289E
:101E90002ED141E070498B420BD1D0F8880010F070
:101EA000300026D0102835D0202831D030281FD13E
:101EB00032E06A498B420BD1D0F8880010F0C000A4
:101EC00017D0402826D0802822D0C02810D123E067
:101ED00063450DD1D0F8880010F4406009D0B0F50A
:101EE000806F17D0B0F5006F12D0B0F5406F13D0EF
:101EF00010205B4A5B4F00264FF40041634539D107
:101F000060B102280DD004280DD0082831D10EE090
:101F10000220EEE70420ECE70820EAE7FEF708FFDE
:101F200003E0114603E0FEF727FF01007DD0606A61
:101F300037F810206768B1FBF2F007EB47038342E4
:101F40006CD8B0EB073F69D8002308461946FEF766
:101F5000FBF9090241EA1061020278081018714188
:101F60003A460023FEF7F0F93F4AA0F5407191424E
:101F700059D953E0E3694FF6EF788B422DD1092808
:101F80004CD2DFE800F005080D4B274B4B4B0E0001
:101F9000FEF7CEFE01E0FEF7DDFE010001D144E0D8
:101FA0001146606A37F81000B1FBF0F0410060683C
:101FB00001EB5001B1FBF0F080B2A0F110014145FE
:101FC0002CD84FF6F0710140C0F342000143206865
:101FD000C1602AE0FEF7D0FEDFE709281ED2DFE865
:101FE00000F005080D1D1F1D1D1D0E00FEF7A0FEB3
:101FF00001E0FEF7AFFE010001D116E01146606A74
:1020000037F81000B1FBF0F1606801EB5001B1FB53
:10201000F0F080B2A0F11001414504D9012504E09F
:10202000FEF7AAFEE7E72168C8600120A4F86A006D
:1020300024F8680F2846A660E660BDE8F08100003D
:1020400000800040F369FFCFFFF4FF11003801402A
:10205000001002400044004000480040004C004096
:102060000024F4005E4E0008FFFC0F002DE9F0474D
:102070009A4617460E4604464FF000094FF02008D6
:10208000089D39E0681C37D0FEF724FBA0EB0A005E
:10209000A84222D80DB32068016849072CD5C06931
:1020A000C043000528D421684FF40060086220680E
:1020B000016821F4D07101602068816821F001017C
:1020C0008160C4F88480C4F88880C4F88C8000BF24
:1020D00084F880900320BDE8F0872068016821F42F
:1020E000D07101602068816821F001018160C4F82D
:1020F0008480C4F88880EBE72068C06936EA000075
:1021000004D00020B842BDD00020E4E70120F9E768
:10211000FEE70907090E002804DB00F1E02080F843
:102120000014704700F00F0000F1E02080F8141D4B
:1021300070470000002807D00F4910F0FF0F05D0AE
:10214000C0B2085C401C70470020704710F47F4FFD
:1021500004D0C0F30720085C0930704710F47F0FEB
:1021600004D0C0F30740085C1130704701EB1060E9
:1021700000781930704700009E4E000802E008C841
:10218000121F08C1002AFAD170477047002001E0F1
:1021900001C1121F002AFBD17047F0B589B0044677
:1021A0000D461646002100E0491C635C202B03D03D
:1021B000092B01D0A942F7D3C9B1204600F0AAFFEC
:1021C0000746C7B10021009101910291039104914A
:1021D0000591069107916A462946204601F008F8C4
:1021E00068B16946B847306009B00020F0BD09B059
:1021F0004FF0FF30F0BD09B04FF0FF30F0BD09B037
:102200004FF0FF30F0BD000070B582B011469C4623
:10221000089E099D069B079A044604F1140040603D
:1022200000602162C4F824C0A362E2622321184640
:1022300001F07FFCE16AA06A124B0844021F616A48
:10224000206A01F075FBE06184F8366084F835603F
:102250000020A063E5632564206384F834002067D0
:102260006067009001902346074A214604F144002C
:1022700002F073FA0548816809B12046884702B028
:10228000002070BD45420008C1440008AC00002099
:10229000DDF800C02CF0010C80F809C0C1610262B9
:1022A00000218162436200EBC1021432526012606D
:1022B000491C0129F7DB704770B50446FDF7AAFFFA
:1022C0000546216F09B1204688472846BDE8704081
:1022D000FDF7A4BF10B51DA001F070FB1E4C2178C6
:1022E0001EA001F06BFB207810F0010F02D021A09E
:1022F00001F064FB207810F0020F02D020A001F062
:102300005DFB207810F0040F02D020A001F056FBF6
:10231000207810F0080F02D020A001F04FFB2078A9
:1023200010F0100F02D020A001F048FB207810F030
:10233000800F06D01E480168BDE810401DA001F0C6
:102340003DBBBDE810401FA001F038BB6275732093
:102350006661756C743A0A0029ED00E05343425FF0
:10236000434653525F424653523A307825303258F2
:102370002000000049425553455252200000000001
:10238000505245434953455252200000494D505246
:10239000454349534552522000000000554E5354C6
:1023A0004B4552522000000053544B4552522000DE
:1023B00038ED00E05343422D3E424641523A25302B
:1023C00038580A000A00000010B500F015FB002084
:1023D00010BD10B500F0F4FB002010BD70B514481E
:1023E000144C4FF00005416991F8211011F0020FD3
:1023F00007D0016941B180222046FEF706F8204649
:1024000070BD25700B4870BD00F0F0FE20B10AA031
:1024100000682060257105E009A0016821608088BE
:10242000A080A57108A10348FDF7E3FF014870BD36
:10243000DC000020884100206D736820000000004F
:1024400066696E73682000003E00000001F028B944
:102450000449496991F8212060F3410281F8212063
:1024600070470000DC000020014A10605160704796
:10247000DC00002030B583B016491748FFF7F4FFA1
:102480007821012001F028F8144D6861D8B10A20A4
:102490001521009101904FF480630022104911A092
:1024A00001F0A1FE044600231A4610A1686901F05C
:1024B000BDFC0120FFF7CCFF14B1204601F0C0FFA6
:1024C00003B0002030BD0BA001F078FA03B04FF04C
:1024D000FF3030BDB8530008D4520008DC000020A3
:1024E0000D250008747368656C6C00007368727861
:1024F000000000006E6F206D656D6F727920666F51
:1025000072207368656C6C0A000000009F4E706951
:1025100090F8211041F0010180F82110FFF75EFFD3
:1025200001F04CFA01274FF002080025FFF78EFF5B
:1025300004462000FAD41B2C07D0736993F82000BE
:10254000012806D002280CD015E0706980F82070B0
:10255000ECE75B2C02D083F820500CE083F820805D
:10256000E4E783F82050412CE0D0422CDED0442C0C
:1025700046D0432C52D0002CD8D0FF2CD6D0092CDA
:102580005FD07F2C7CD0082C7AD00D2C76D00A2CF2
:1025900074D0B3F87200502801D3A3F87250B3F886
:1025A0007400B3F87210884269D20A1A03F122014A
:1025B00001442333184401F0A1FA7069B0F8741093
:1025C00022300C54706990F8211011F0010F06D0E0
:1025D000B0F87410223001446DA001F0EFF9706979
:1025E000B0F87440B0F87200A0427DDD69A001F03F
:1025F000E5F9641C7069B0F87200A042F6DCB1E045
:10260000B3F87400002891D062A001F0D7F9706986
:10261000B0F87410491EA0F8741087E7B3F874007E
:10262000B3F87210884281D203F12201415C5AA0B2
:1026300001F0C4F97069B0F87410491CA0F8741066
:1026400074E70024B3F87400002808DD51A001F0FD
:10265000B5F9641C7069B0F87400A042F6DC7069CA
:10266000223002F013FB70692230FDF7DAFE716947
:10267000A1F87200A1F8740058E701E043E064E0BB
:10268000B3F8740000283FF451AFB3F87210491E3C
:1026900089B2A3F87210401E80B2A3F87400814280
:1026A00028D90A1A03F1230101442233184401F006
:1026B00025FA7069B0F8721022300D547069B0F8C4
:1026C00074102230014435A001F078F97069B0F837
:1026D0007440B0F87200A042FFF628AF2DA001F0C0
:1026E0006DF9641C706900E03CE0B0F87200A04233
:1026F000F4DA1BE72BA001F061F97069B0F87210F1
:1027000022300D5412E700F071FD01280ED17069DE
:1027100090F8210010F0010F02D023A001F04EF933
:102720007069B0F87210223000F0C2FCFFF756FE5C
:1027300001F044F9706950212230FDF74FFE7069B5
:10274000A0F87250A0F87450F0E603F122000C5487
:10275000706990F8210010F0010F03D021460EA0FF
:1027600001F02CF97069B0F87210491C89B2A0F818
:102770007210B0F87420521CA0F874205029FFF495
:10278000D5AEA0F87250A0F87450CFE6DC0000205F
:102790002573000008000000256300000825732051
:1027A00020080000082008000A00000010B5124CA4
:1027B000206810F0020F02D010A001F0FFF820688E
:1027C00010F0804F0ED01348007808B1FFF782FD5B
:1027D0001148007808B100F0A5FB1048008808B146
:1027E00002F0CAFA206810F0004F04D0BDE8104093
:1027F0000BA001F0E3B810BD2CED00E06661696C40
:10280000656420766563746F722066657463680A18
:102810000000000029ED00E028ED00E02AED00E0D6
:102820006465627567206576656E740A0000000055
:1028300010B502A001F0C2F8002010BD48656C6C14
:102840006F2052542D546872656164210A000000A3
:102850000A46014601A001F0B1B8000066726F6D32
:102860003A202573202D2D3E2020746F3A202573A9
:10287000200A00002DE9F041104E00244FF480653D
:102880004FF49677002229463046FDF71DFF0CA035
:1028900001F094F8384601F0D3FC01222946304675
:1028A000FDF712FF0CA001F089F8384601F0C8FCD2
:1028B000641CE4B20A2CE5D3BDE8F08100080048AE
:1028C000636F6D74726F6C206C6564332C206C6563
:1028D0006433206F6E0D0A0020636F6D74726F6C2D
:1028E000206C6564332C206C656433206F66660D44
:1028F0000A00000070B50DA001F060F810480468EF
:10290000104D286884420ED202220FA12068FDF7E4
:102910008FFD20B10DA06268216801F04FF80C34E2
:1029200028688442F0D3002070BD00002D2D46752C
:102930006E6374696F6E204C6973743A0A0000000C
:10294000DC000020E00000205F5F0000252D313614
:1029500073202D2D2025730A000000002DE9F04181
:1029600004460D4616461F46284601F07FF9001D15
:10297000206025726660E76000202061BDE8F0817C
:102980002DE9F0410D46002600212961E968002962
:1029900009D0297A39B12F6840B10446FDF73AFCD5
:1029A000014636B113E00020BDE8F0813C46012627
:1029B000F4E7A4F10C002A7A007A20F0800090421B
:1029C00005D00846FDF72AFC0020BDE8F08100266E
:1029D00068682468BC4201D1002405E0761C40F8F8
:1029E000044BEA68B242F4D10846FDF717FC2E61A9
:1029F0002046BDE8F081000010B5074C07A06169D2
:102A000000F0DCFF0AA0A16900F0D8FFE169BDE891
:102A100010400CA000F0D2BF30000020746F746131
:102A20006C206D656D6F72793A2025640A00000094
:102A300075736564206D656D6F7279203A20256429
:102A40000A0000006D6178696D756D20616C6C6FB6
:102A50006361746564206D656D6F72793A202564D9
:102A60000A0000002DE9F04190B000273BA40823A4
:102A700002AA02210AA8FFF771FF4FF008082246B8
:102A8000414639A000F09AFF07243E4800F096FF27
:102A9000641EFAD23CA000F091FF02AE0AA93846AB
:102AA000FFF76EFF074600250E98002833DD56F825
:102AB0002500A0F10C04FDF7ADFB217A9DF8302034
:102AC00021F08001914202D0FDF7A8FB1FE0FDF745
:102AD000A5FB04F11400D0F800C0844501D1012009
:102AE00000E00020E8B104F1140100200A468C4502
:102AF00004D01268401C13688B42FAD1A18B00915C
:102B0000019023460822414625A000F057FF6D1C86
:102B10000E98A842CBDC002FC0D110B00020BDE839
:102B2000F08104F1140000230246844504D01268A9
:102B30005B1C11688142FAD1A08B0193009023465F
:102B4000082241461AA000F039FF04F1140002F0F7
:102B5000B9F80BA000F032FFD9E7000073656D6192
:102B600070686F7265000000252D2A2E7320762074
:102B7000202073757370656E64207468726561647B
:102B80000A000000EC2C0008202D2D2D202D2D2DCD
:102B90002D2D2D2D2D2D2D2D2D2D2D0A000000003C
:102BA000252D2A2E2A7320253033642025640A001F
:102BB000252D2A2E2A7320253033642025643A00DF
:102BC0002DE9F043ADB0002745A4082320AA012138
:102BD00028A8FFF7C3FE4FF00808224641464248A6
:102BE00000F0ECFE072441A000F0E8FE641EFAD2DB
:102BF0003FA000F0E3FE20AE28A93846FFF7C0FE54
:102C0000074600252C98002864DD56F82500A0F121
:102C10000C04FDF7FFFA8146207A9DF8A81020F0F9
:102C20008000884203D04846FDF7F8FA4EE078224B
:102C3000214602A8FDF7B9FB4846FDF7EFFA94F8E4
:102C40003500009023460822414639A000F0B6FE28
:102C500094F8340000F00F01012907D0022909D0AF
:102C600061B104290ED0032910D012E033A000F086
:102C7000A5FE0EE034A000F0A1FE0AE035A000F0B1
:102C80009DFE06E036A000F099FE02E037A000F0BD
:102C900095FEA16A8C469CF80000232803D11CF8FD
:102CA000010F2328FBD0E26AACEB0100101A642369
:102CB0005843B0FBF2FC236B206C01930090E06959
:102CC0006346081A81182CA000F078FE6D1C2C9821
:102CD000A8429ADC002F8FD12DB00020BDE8F083F0
:102CE0007468726561640000C04F00082D00000028
:102CF000202D2D2D20202D2D2D2D2D2D2D202D2D38
:102D00002D2D2D2D2D2D2D2D202D2D2D2D2D2D2D00
:102D10002D2D2D20202D2D2D2D2D2D20202D2D2D17
:102D20002D2D2D2D2D2D2D202D2D2D0A00000000B7
:102D3000252D2A2E2A7320253364200020726561F8
:102D400064792020000000002073757370656E6444
:102D50000000000020696E6974202020000000003F
:102D600020636C6F73652020000000002072756E78
:102D70006E696E67000000002030782530387820BA
:102D800030782530387820202020253032642525E1
:102D900020202030782530387820253033640A0010
:102DA0002DE9F04190B000272BA4082302AA0A21A4
:102DB0000AA8FFF7D3FD4FF008082246414628A095
:102DC00000F0FCFD0724304800F0F8FD641EFAD244
:102DD0002EA000F0F3FD02AE0AA93846FFF7D0FDA1
:102DE000074600240E9800282ADD56F82400A0F19A
:102DF0000C05FDF70FFA297A9DF8302021F08001AB
:102E0000914202D0FDF70AFA16E0FDF707FAA96A27
:102E1000686A019100902B460822414624A000F0E8
:102E2000CDFD687A10F0010F03D027A000F0C6FD99
:102E300002E028A000F0C2FD641C0E98A042D4DC81
:102E4000002FC9D101F0A0FB014626A000F0B6FD7D
:102E500010B00020BDE8F08174696D65720000005B
:102E6000252D2A2E732020706572696F6469632096
:102E7000202074696D656F7574202020202020202B
:102E8000666C61670A000000EC2C0008202D2D2DD7
:102E90002D2D2D2D2D2D2D202D2D2D2D2D2D2D2D6F
:102EA0002D2D202D2D2D2D2D2D2D2D2D2D2D0A00AF
:102EB000252D2A2E2A732030782530387820307836
:102EC000253038782000000061637469766174658C
:102ED000640A000064656163746976617465640AFC
:102EE0000000000063757272656E74207469636B14
:102EF0003A3078253038780A0000000010B5FDF728
:102F0000EFFBFEF7DEFDFEF761FCFEF7DBFCFEF7F4
:102F1000FDFC002010BD10B500F0FCFABDE810402B
:102F2000FFF7ECBF10B51AA000F048FD1D4C21784A
:102F30001DA000F043FD207810F0010F02D020A06A
:102F400000F03CFD207810F0020F02D01FA000F02E
:102F500035FD207810F0080F02D01FA000F02EFDE4
:102F6000207810F0100F02D01EA000F027FD20786E
:102F700010F0800F06D01E480168BDE810401DA06B
:102F800000F01CBDBDE810401EA000F017BD000001
:102F90006D656D206D616E616765206661756C742D
:102FA0003A0A000028ED00E05343425F4346535283
:102FB0005F4D4653523A3078253032582000000099
:102FC0004941434356494F4C20000000444143438C
:102FD00056494F4C200000004D554E53544B45521E
:102FE000522000004D53544B455252200000000027
:102FF00034ED00E05343422D3E4D4D41523A2530D1
:1030000038580A000A0000002DE9F04781460025E3
:10301000002699F8000000280ED020480468DFF848
:103020008080D8F8000084422DD206221DA120689D
:10303000FDF7FEF910BB05E0BDE8F04700210846AA
:1030400000F096B82068871D4846FDF7EAF9024669
:1030500039464846FDF7ECF980B925B93E46304679
:10306000FDF7DFF905463946304601F043FEA84238
:1030700000DA054639460DA000F0A0FC0C34D8F863
:1030800000008442D1D3002E06D02A46314648465D
:10309000BDE8F04700F0FABFBDE8F087DC00002093
:1030A000E00000205F5F636D645F000025730A002D
:1030B00038B5054601E06D1C491E21B1287820284D
:1030C000F9D00928F7D031B16A462846FFF765F8EC
:1030D00018B12C4604E0002038BD009838BD641CAF
:1030E0002078202801D00028F9D10020207029461E
:1030F00002A000F063FC4FF0FF3038BD25733A208A
:10310000636F6D6D616E64206E6F7420666F756E97
:10311000642E0A002DE9F0478146884600261048B3
:103120000468104F3868844215D208F1060506225B
:103130000DA12068FDF77CF948B920684246801D42
:103140004946FDF775F910B92068405D30B10C347F
:1031500038688442EBD33046BDE8F087A668FAE7CA
:10316000DC000020E00000205F5F636D645F000012
:1031700070B50FA000F022FC14480468144D2868B4
:1031800084420FD2062213A12068FDF751F928B915
:1031900020686268811D11A000F010FC0C342868C2
:1031A0008442EFD310A000F009FC002070BD0000A5
:1031B00052542D546872656164207368656C6C208C
:1031C000636F6D6D616E64733A0A0000DC0000206D
:1031D000E00000205F5F636D645F0000252D3136E5
:1031E00073202D2025730A000A000000012070477B
:1031F00070B5154600230024002950D9002602E0AE
:103200000670401C5B1C90F800C0BCF1200F02D07F
:10321000BCF1090F01D18B42F2D3082C0FD321A0AE
:1032200000F0CCFB002627A055F8261000F0C6FBC6
:10323000761CA642F7D322A000F0C0FB2FE08B4201
:103240002DD20278222A03D045F82400641C1BE00A
:10325000401C5B1C45F82400641C08E05C2A04D177
:103260004278222A01D1401C5B1C401C5B1C027866
:10327000222A01D08B42F1D38B4210D20670401C1F
:103280005B1C0AE0401C5B1C0278202A03D0092A40
:1032900001D08B42F6D38B4201D28B42B3D320466E
:1032A00070BD0000546F6F206D616E792061726790
:1032B000732021205765206F6E6C79205573653A15
:1032C0000A0000002573200010B41A4B41689A6868
:1032D0001144884218D0B1F802C0BCF1000F13D1DC
:1032E000D3F80CC061450FD0D3F810C08C4500D185
:1032F0001861D1F804C0C0F804C0496802F108049C
:10330000A0EB020C41F804C08168114481420FD047
:10331000B1F802C0BCF1000F0AD1D3F810C0844547
:1033200000D1196143684B60891A406808328150A6
:1033300010BC7047300000202DE9F04F86B0DDF85A
:103340003CC0109D119CA846CDF800C014F0400F61
:1033500002D0DFF848A101E0DFF844A114F0100F1B
:1033600001D024F0010414F0010F02D04FF0300915
:1033700001E04FF02009002614F0020F0DD0002AC2
:1033800002DA2D26524208E014F0040F01D02B2659
:1033900003E014F0080F00D020264FF0000C0DF1D0
:1033A000040B2AB930224FF0010C8DF804200DE0F7
:1033B0000A2B16D002F00F0712091AF807E0674629
:1033C0000CF1010C0BF807E0002AF1D1AC4500DD4F
:1033D0006546009A521B14F0110F4FF020070DD0D4
:1033E0001CE0304FA7FB02E74FEAD70ECEF10007F3
:1033F00007EB870702EB47077246DEE716B1002AA4
:1034000000DD521E131EA2F1010207DD884200D228
:103410000770401C131EA2F10102F7DC26B188429E
:1034200000D20670521E401C14F0100F0CD1131E57
:10343000A2F1010208DD884201D280F80090401C10
:10344000131EA2F10102F6DC6B1E65450FDD302470
:10345000884200D20470401C1D465B1E6545F7DCA7
:1034600005E0884202D21BF80C300370401CBCF10E
:103470000003ACF1010C02DDB8F1000FF1D1531ED5
:10348000002A07DD884200D20770401C1A1EA3F1F3
:103490000103F7DC06B0BDE8F08F0000AF4F000875
:1034A0009E4F0008CDCCCCCC00B583B014200A21AF
:1034B000009101904FF480630022044904A000F0C1
:1034C00092FE03B05DF804EB00F0BABF172F0008BE
:1034D0006D61696E0000000070B54843044600F05D
:1034E0007FFA0546280003D02246002100F021FB88
:1034F000284670BD70B5054C054DAC4204D220681D
:103500008047241DAC42FAD370BD0000C0520008B1
:10351000C852000870B5054C054DAC4204D2206875
:103520008047241DAC42FAD370BD0000C852000889
:10353000D052000810B5FCF76DFE04494A88521CB1
:103540004A80BDE81040FCF769BE000094000020EE
:1035500010B5FCF75FFE0B4C6188491E09B2618013
:1035600000290ADC00216180FCF758FE6068002811
:1035700007D0BDE8104000F0C7BBBDE81040FCF725
:103580004DBE10BD9400002070B50446002C37D00D
:103590001C4D696809B120468847A86884422FD32A
:1035A000E86884422CD20C3C4FF0FF31164800F002
:1035B00083FC608818B12088B0F5F55F08D013A0AF
:1035C00000F0FCF923886288214617A000F0F6F984
:1035D000002060804FF4F55020802869844200D29A
:1035E0002C61A9686068611A401AA969081AA86163
:1035F0002046FFF769FEBDE87040034800F028BC94
:1036000070BD000030000020D8030020746F2066D9
:10361000726565206120626164206461746120626A
:103620006C6F636B3A0A00006D656D3A2030782547
:103630003038782C207573656420666C61673A2099
:1036400025642C206D6167696320636F64653A208F
:103650003078253034780A0000487047F80400209C
:1036600000487047F840002010B5FDF739F8FEF724
:1036700028FAFEF765FAFDF755FB4FF47A71B0FBB7
:10368000F1F0FDF7B7FDFFF735FFFFF7E9FF04465F
:10369000FFF7E2FF2146BDE8104000F00DBD00003D
:1036A00010B54FF0FF3407480068C16911F0200FD2
:1036B00002D0406AC4B202E00A2000F066FEE0B226
:1036C00010BD0000F8400020F8B5054600240D208C
:1036D00000900E49002081F88000284600F0CEFCC2
:1036E0000646300011D0285D0A2805D101231A466C
:1036F00069460648FEF70CF8012329191A460348C3
:10370000FEF706F8641CB442EDD3F8BDF840002083
:1037100070B5054605F128002C1D314909680029BE
:1037200002D08847002859D02EA0216C00F046F91D
:1037300030A0616A00F042F932A0A16A00F03EF9BF
:1037400034A0E16A00F03AF936A0216B00F036F9B6
:1037500038A0616800F032F93AA0A16800F02EF9B3
:103760003CA0E16800F02AF93EA0216900F026F9AA
:1037700040A0616900F022F942A0A16900F01EF9A1
:1037800044A0E16900F01AF946A0216A00F016F998
:1037900048A0616B00F012F94AA0A16B00F00EF98D
:1037A0004CA0E16B00F00AF9287810F0040F08D063
:1037B00000F01EFE01464BA000F000F9FFF700FAF2
:1037C00002E050A000F0FAF8287810F0100F02D1B3
:1037D00053A000F0F3F8FEF7E9FFFEE770BD00002C
:1037E000CC0000207073723A203078253038780A87
:1037F000000000007230303A203078253038780AE6
:10380000000000007230313A203078253038780AD4
:10381000000000007230323A203078253038780AC3
:10382000000000007230333A203078253038780AB2
:10383000000000007230343A203078253038780AA1
:10384000000000007230353A203078253038780A90
:10385000000000007230363A203078253038780A7F
:10386000000000007230373A203078253038780A6E
:10387000000000007230383A203078253038780A5D
:10388000000000007230393A203078253038780A4C
:10389000000000007231303A203078253038780A44
:1038A000000000007231313A203078253038780A33
:1038B000000000007231323A203078253038780A22
:1038C00000000000206C723A203078253038780AE9
:1038D000000000002070633A203078253038780AE4
:1038E0000000000068617264206661756C74206F6E
:1038F0006E207468726561643A2025730D0A0D0AA2
:103900000000000068617264206661756C74206F4D
:103910006E2068616E646C65720D0A0D0A0000000D
:1039200046505520616374697665210D0A000000D8
:1039300030B40546101D20F00700A0F144042046D5
:103940000022DFF82CC040F822C0521C112AFAD302
:10395000416200218162C162016341638363C56387
:103960004FF0807202640160204630BC7047000056
:10397000EFBEADDE10B5FCF74DFC044605490878F6
:10398000421C0A70496801B188472046BDE81040D2
:10399000FCF744BC2400002010B5FCF73BFC0446B7
:1039A00005490878421E0A70896801B18847204697
:1039B000BDE81040FCF732BC240000200FB408B56D
:1039C00003AB00937F210548029A00F079FF03487A
:1039D000FFF77AFE01B05DF814FB000058030020E9
:1039E0002DE9F047002809D0C01C20F00305414E06
:1039F0007069854205D90020BDE8F0870020BDE848
:103A0000F0870C2D00D20C254FF0FF313A4800F022
:103A100053FAD6F810C0B168ACEB010077697B1B94
:103A2000834261D90C186288002A5AD16268121A3E
:103A30000C3AAA4255D3626805F11803121A0C3ADF
:103A40004FF001094FF4F5589A4223D3421902F17D
:103A50000C03CA18A2F800804FF0000AA2F802A0D6
:103A6000D4F804A0C2F804A090606360A4F80290A7
:103A7000506807F10C02904202D001F10802835015
:103A8000B069324628440C30B061D36983420DD20C
:103A9000D0610BE0A4F802906068621A801AB269E3
:103AA0001044B061F269824200D2F061A4F8008053
:103AB000644503D008E040680844306130694288BA
:103AC00012B1F2689042F6D10B4800F0C1F93268A9
:103AD0001AB1294604F10C00904704F10C00BDE82E
:103AE000F087606883429DD8034800F0B1F9002058
:103AF000BDE8F08730000020D803002003461846B8
:103B000081420DD201EB020C9C4509D99918521E35
:103B100005D31CF8013D01F8013D521EF9D2704752
:103B2000521EFCD311F801CB03F801CB521EF9D27F
:103B30007047034601F0FF0C042A1CD310F0030F5A
:103B400019D101464CEA0C2343EA0343102A0AD355
:103B500041F8043B41F8043B41F8043B41F8043B85
:103B6000103A102AF4D2042A04D341F8043B121F5D
:103B7000042AFAD20B46511E05D30CF0FF0203F8BB
:103B8000012B491EFBD270472DE9F04106460F4636
:103B9000304600F06BF80546E868FFF721FF044661
:103BA0000CB300212046EA68FFF7C3FF267200200D
:103BB000607208223946204600F068FA0B48016816
:103BC00009B120468847FCF725FB291D04F10C02AA
:103BD0000B685A600B6813600A605160FCF71EFBAB
:103BE0002046BDE8F0810020BDE8F08150000020B3
:103BF00010B504460D484168002901D02046884789
:103C000000202072FCF706FB04F10C010B684A68E7
:103C10005A604B680A681A6049600960FCF7FEFA4E
:103C20002046BDE81040FFF7AFBC00005000002068
:103C300010B504460C484168002901D02046884749
:103C400000202072FCF7E6FA014604F10C0003683C
:103C500042685A60436802681A6040600060BDE8CC
:103C600010400846FCF7DABA500000200021074A4D
:103C700002EB01131B78834202D102EB0110704763
:103C8000491C0329F4DB0020704700006400002079
:103C90002DE9F04105460E4617463046FFF7E6FF90
:103CA0000446FFF747FC6068211D884202D0006887
:103CB0008842FCD1FFF74CFC46F0800028720822B5
:103CC0003946284600F0E2F90A48016809B1284659
:103CD0008847FCF79FFA0246201D05F10C01036896
:103CE000596003680B6001604860BDE8F041104610
:103CF000FCF794BA50000020007A10F0800F01D039
:103D000001207047002070472DE9F041FCF782FA4E
:103D10000646174F7888D8B9B868FEF70BFA411EE7
:103D2000144850F83100A0F114047D68AC420FD063
:103D300039707C60FA6812B12146284690470E48D7
:103D4000007850B104F11C0105F11C00FCF769FA80
:103D50003046BDE8F041FCF761BA04F11C0105F101
:103D60001C00FCF75EFA3046BDE8F041FCF756BA9D
:103D700094000020F80300202400002010B5044621
:103D8000FCF748FA024694F8340020F00F0040F0A7
:103D9000010084F8340094F835000A4901EBC001B1
:103DA00004F114004B6818604B6843604860016080
:103DB0000548A16B836819438160BDE81040104637
:103DC000FCF72CBAF80300209400002010B504463C
:103DD000FCF720FA024604F114010B6848685860A9
:103DE0004B68086818604960096094F835000A4912
:103DF00001EBC0000168814201D1012000E00020F8
:103E000028B10648A16B836823EA01018160BDE8FF
:103E100010401046FCF702BAF8030020940000207E
:103E20000149C860704700009400002070B5044646
:103E300015461E460A4602212046FFF729FF04F1D7
:103E4000140149600960A5836672002070BD0000FE
:103E500070B5044617480168002901D020468847FC
:103E60000025FCF7D7F9064604F1140001688142E9
:103E700001D1012000E0002038B1A08B4FF6FF7186
:103E800088420DD2401CA08304E0A1F1140000F090
:103E900083FA01253046FCF7C1F9012D06D007E071
:103EA0003046FCF7BBF96FF0020070BDFFF72CFF46
:103EB000002070BD600000202DE9F34106463B481C
:103EC0000168002901D030468847FCF7A3F907466E
:103ED000B08B28B1401EB0833846FCF79FF95CE0F8
:103EE000019890B100F084FA05460020286396F806
:103EF000098006F11404284600F0B8FAB8F1000F62
:103F00000BD0B8F1010F33D110E03846FCF786F939
:103F10006FF0010002B0BDE8F08105F114006168A6
:103F20000860616841606060046021E02168A1422E
:103F300014D095F83520A1F1140090F835309A424C
:103F400009D2143005F1140243681A6043685360C3
:103F50004260106002E00968A142ECD1A14207D1A1
:103F600005F1140061680860616841606060046088
:103F70000198002809DD01AA002105F1440000F0A4
:103F80009FFB05F1440000F0FDFB3846FCF746F9C5
:103F9000FFF7BAFE286B0028BCD10548016809B1BB
:103FA0003046884702B00020BDE8F081580000206C
:103FB0005C00002008B509A0FFF700FD0AA0FFF78C
:103FC000FDFC12A0009005230122032112A0FFF79F
:103FD000F5FCBDE8084018A0FFF7F0BC0A205C2003
:103FE0007C202F0A000000002D205254202D20207C
:103FF000202020546872656164204F70657261747E
:10400000696E672053797374656D0A004D61722083
:104010002031203230323300202F207C205C2020C1
:1040200020202025642E25642E2564206275696C6D
:10403000642025730A0000002032303036202D2005
:104040003230323020436F70797269676874206251
:10405000792072742D746872656164207465616D75
:104060000A00000001E0401C491C027812B10B78E4
:104070009A42F8D000780978401A7047014600E06B
:10408000491C0A78002AFBD1081A7047002A09D077
:10409000034611F801CB03F801CBBCF1000F02D0AD
:1040A000521EF6D17047511EFCD0002203F8012B9E
:1040B000491EFBD17047000010B50A46C11C21F013
:1040C000030122F00303182B22D9A3F1180C8C450D
:1040D0001ED3124C581A18386061A1604FF4F55382
:1040E0000B8000F10C024A6000208860488048681C
:1040F0000844E06003800121418042608260002327
:10410000012207A10848FFF791FEA068206110BDB9
:104110000146BDE8104005A0FFF750BC300000206C
:104120006865617000000000D80300206D656D2097
:10413000696E69742C206572726F7220626567699E
:104140006E206164647265737320307825782C204A
:10415000616E6420656E64206164647265737320AF
:10416000307825780A0000000B4B4FF0000CA3F8C4
:1041700002C00020094A02EBC00149600960401CEE
:104180002028F8DB1F201870C3F804C0C3F808C04B
:10419000034840600060704794000020F80300204E
:1041A000A400002010B5074CA068FDF7C3FF401E17
:1041B000054951F8300014386060BDE810401C30EB
:1041C000FCF775B894000020F80300200020044A92
:1041D00002EBC00149600960401C0028F8D070471C
:1041E000C400002070472DE9F04784B080460D9D43
:1041F0000C9C894692461E4641460120FFF7C4FCAE
:104200000746380011D03046FFF7EAFB88B100902E
:1042100053464A4641460196039502943846FDF7B7
:10422000F3FF04B03846BDE8F08704B00020BDE8D5
:10423000F0873846FFF7DCFC04B00020BDE8F087CB
:1042400000F0DCB870B515480468FBF7E3FF0546DD
:104250002046FEF731F82046FFF7B8FD042084F829
:10426000340004F1440000F055FA2046FFF744FD05
:1042700001280FD00A4904F114000A6850600A6846
:10428000026008604160FFF73FFD2846BDE87040CE
:10429000FBF7C4BF2046FFF7CBFCF4E798000020F3
:1042A000A4000020064D08E055F8240000B1804726
:1042B000641C042CF8D300F005F80024F4E7000097
:1042C0004803002070B5134C17E0012100E00021E5
:1042D000D9B12168A1F114060A68486850604A689B
:1042E0000868106049600960B06AFFF74DF9304610
:1042F000FFF77EFC2846FBF791FFFBF78BFF054697
:10430000044908688842E2D0DFE72846BDE87040EB
:10431000FBF784BFA400002000B585B02020C200B8
:104320001F21084B00930192029103900023064A3B
:1043300006A1084800F010F805B006485DF804EB47
:1043400000F07EB848020020A54200087469646C41
:1043500065000000D00100202DE9F04F85B00EACC3
:104360008146F0CC884692469B464246012148460B
:10437000FFF78EFC8DE8F0005B465246414648460A
:10438000FDF742FF05B0BDE8F08F10B500F0E2F890
:10439000BDE8104000F032B870B5044694F834001F
:1043A00000F00F00022802D04FF0FF3070BDFBF785
:1043B00031FF054604F114010A68486850604A68F4
:1043C000086810604960096004F1440000F048FA90
:1043D0002846FBF723FF2046FFF7D0FC034841683F
:1043E00009B120468847002070BD0000AC000020C5
:1043F00001480068704700009800002031B5FBF7C5
:1044000009FF05460D480468204600F02FF86A466B
:10441000002104F1440000F053F904F1440000F0DD
:10442000B1F92846FBF7FAFEFFF76EFC206B10F19E
:10443000020F01D100202063002038BD9800002029
:1044400010B590F8361080F83510012202FA01F10B
:104450008163022180F83410FFF79EFFFFF7C8FF49
:1044600008B1FFF751FC002010BD000070B50446F4
:1044700094F8340000F00F00012802D04FF0FF3014
:1044800070BDFBF7C7FE05462046FFF79FFC94F87A
:10449000340020F00F0040F0020084F8340004F1F2
:1044A000440000F0DDF92846FBF7B8FE0348016838
:1044B00009B120468847002070BD0000AC000020F4
:1044C00010B56FF00101016300F114010B684A6837
:1044D0005A604B680A681A6049600960FFF74EFC31
:1044E000BDE81040FFF710BC10B5FBF793FE17496D
:1044F000096891F8342002F00F02012A21D1D1F885
:1045000014C08B699C451CD001F11402CCF8043016
:10451000D2F804C01368CCF800305260126091F8F1
:1045200035200B4B143103EBC202536819605368FA
:104530004B6051600A60FBF771FEFFF7E5FB00205E
:1045400010BDFBF76BFE002010BD0000980000209E
:10455000F8030020002802DA4FF0FF3070474FF4D4
:104560007A7190FBF1F24A4390FBF1F301FB1300E7
:1045700000EB4003C3EBC0104B1E03EBC00090FBED
:10458000F1F01044704700000148006870470000D7
:104590002000002010B509480168491C0160FFF7A0
:1045A00027FF016C491E016419B9C16B0164FFF753
:1045B0009BFFBDE8104000F003B800002000002081
:1045C0002DE9F04383B0684601900090FFF7DCFFCF
:1045D0008146FBF71FFE804638480168814201D1C1
:1045E000012000E00020002861D1344E6FF0004728
:1045F000A6F10C053068A0F11404A06AA9EB000034
:10460000B84254D2696809B120468847002004EBBB
:10461000C00114310B684A685A604B680A681A6016
:1046200049600960401C0128F1DB607A10F0020F3C
:1046300002D120F001006072694604F11400009A72
:104640005060009A026000904160E169206A8847EA
:10465000FFF79AFF8146A96809B120468847684656
:104660000099814201D1012000E00020B0B904F19D
:10467000140002684168516042680168116040603E
:104680000060607A10F0020F08D010F0010F05D022
:1046900020F001006072204600F074F807480168BD
:1046A000814201D1012000E000200028A2D0404634
:1046B000FBF7B4FD03B0BDE8F0830000C4000020A8
:1046C00070B504460E461546FBF7A4FD052E1DD217
:1046D000DFE806F00603090E1300616A296015E0A1
:1046E0002968616212E0617A21F0020161720DE0D5
:1046F000617A41F00201617208E0617A11F0010F04
:1047000002D00121296001E000212960FBF786FD2C
:10471000002070BD70B50546FBF77CFD2C460022DD
:1047200004EBC2011431D1F800C04B68CCF804305E
:10473000D1F804C00B68CCF8003049600960521C05
:10474000012AEDDB697A21F001016972FBF766FD50
:104750002846FFF76DFA002070BD2DE9F84380462A
:10476000089D099C16461F460A460A214046FFF747
:104770008FFA2B463A46314640460094FDF788FDB5
:10478000BDE8F8832DE9F8430446FBF743FD0546F1
:104790002246002002EBC0011431D1F800C04B6862
:1047A000CCF80430D1F804C00B68CCF80030496074
:1047B0000960401C0128EDDB607A20F00100607286
:1047C0002448016809B120468847FFF7DDFE616A89
:1047D00000EB010CC4F828C01F4F009700216FF0B8
:1047E0000048684607EBC10350F821205E68B242DA
:1047F0000FD050F821201268A2EBC1035B6963451A
:1048000003D0A3EB0C03434503D340F82120B2426D
:10481000EFD129B150F8212008324B1C40F8232059
:10482000491C0029DED00D480168491C0160009830
:1048300004F114010268516002680A600160486076
:10484000607A40F0010060722846FBF7E7FC002028
:10485000BDE8F8835C000020C4000020B800002000
:1048600070B50446607A10F0010F24D01348016837
:1048700009B120468847FBF7CDFC034620460022BD
:1048800000EBC20114310D68D1F804C0C5F804C0B2
:104890004D68D1F800C0C5F800C049600960521CDD
:1048A000012AEDDB607A20F0010060721846FBF708
:1048B000B5FC002070BD4FF0FF3070BD60000020DF
:1048C0002DE9FF4F83B006460F461446F5193046D2
:1048D000854203D24FF0FF35C6F1FF37217800291A
:1048E00000F05C816FF02F094FF020084FF0250A8F
:1048F0002178252905D0A84200D20170401C00F083
:1049000048B90021641C23782D2B1ED02B2B1FD0DF
:10491000202B20D0232B21D0302B22D04FF0FF3260
:1049200094F800C0ACF1300CBCF10A0F1CD200228C
:10493000234602EB82021B7809EB4202641C1A44F4
:104940002378303B0A2BF3D31AE041F01001D9E76A
:1049500041F00401D6E741F00801D3E741F020011E
:10496000D0E741F00101CDE72A2B09D1641C069B59
:1049700053F8042B0693002A02DA524241F0100148
:104980004FF0FF3B23782E2B22D1641C2378A3F118
:10499000300CBCF10A0F0FD24FF0000B23460BEB8B
:1049A0008B0C1B7809EB4C0C641C03EB0C0B237871
:1049B000303B0A2BF2D306E02A2B04D1641C069B61
:1049C00053F804BB0693BBF1000F01DA4FF0000B64
:1049D0004FF0000E2378682B01D06C2B01D19E463E
:1049E000641C0A2394F800C0BCF16F0F7ED011DC68
:1049F000BCF1630F27D006DCBCF1250F77D0BCF1EA
:104A0000580F13D1ABE0BCF1640F71D0BCF1690F4A
:104A10000CD1A8E0BCF1700F6BD0BCF1730F35D096
:104A2000BCF1750F66D0BCF1780F7BD0A84201D2E3
:104A300080F800A0401C2178002974D0A84200D240
:104A40000170401CA5E011F0100F0AD1521E002A7F
:104A500007DDA84201D280F80080401C521E002AC7
:104A6000F7DC069911F8043B0691D9B2A84200D2AE
:104A70000170401C511E002953DDA84201D280F86C
:104A80000080401C491E0029F7DC82E0DDF818C0D8
:104A90005CF8043BCDF818C003B952A34FF0000CEA
:104AA00001E00CF1010C944504D013F80CE0BEF1C8
:104AB000000FF6D1BBF1000F02DDDC4500DDDC4666
:104AC00011F0100F0CD11146521E614508DDA842AD
:104AD00001D280F80080401C1146521E6145F6DC70
:104AE0000021BCF1000F10DDA84204E035E02EE00B
:104AF00039E019E039E003D293F800B080F800B053
:104B0000401C5B1C491C6145EEDB511E624540DDCB
:104B1000A84201D280F80080401C0A46491E624526
:104B2000F6DC36E01DE03FE0B2F1FF3F02D10822A3
:104B300041F00101CDF804B00291069900921023D2
:104B400051F8042B06912946FEF7F6FB21E0A84216
:104B500001D280F800A0401C1BE0082305E041F0D2
:104B60004001102301E041F00201BEF16C0F1DD0A5
:104B7000BEF1680F21D0DDF818E05EF804CBCDF867
:104B800018E000920291CDF804B062462946FEF783
:104B9000D3FB641C217800297FF4AAAEEFB1002179
:104BA000A84218D2017018E0641EF2E7DDF818E0A0
:104BB0005EF804CBCDF818E0E3E7DDF818C03CF868
:104BC00004EBCDF818C01FFA8EFC11F0020FD8D0FC
:104BD0000FFA8CFCD5E705F8011C07B0801BBDE877
:104BE000F08F0000284E554C4C29000000207047E3
:104BF00000207047002070470020704710B5FBF779
:104C000009FBFEF731FDFFF7D5F9FFF7DFFAFFF7F4
:104C1000ABFAFEF749FCFFF7E5FAFFF77DFBFFF77C
:104C2000C1FA002010BD00007CB51148FFF7F8F86C
:104C30000A201425CDE900504FF480663346012246
:104C40000C490DA0FFF7CFFA0D4CA06008B1FFF79B
:104C5000F7FB0520CDE9005033460222054909A0A3
:104C6000FFF7C1FAE06008B1FFF7EAFB00207CBD66
:104C700051280008154D00087468726561643100A0
:104C800000000020746872656164320010B504464B
:104C900009A0FEF793FEFEF7A9FA012802D12046EB
:104CA000FEF7B2F9FDF79AFB22460146BDE8104037
:104CB00002A0FEF783BE00000A00000025732573E2
:104CC0000000000070B505462C68AC420DD0A4F180
:104CD000140106A0FEF772FE2068A84202D004A0CC
:104CE000FEF76CFE2468AC42F1D170BD2573000064
:104CF0002F000000024601E0521C491C92F800C03F
:104D0000BCF1000F03D00B780BB19C45F4D0101A06
:104D10007047000004464FF47A75214603A0FEF761
:104D20004DFE2846FFF731FBF7E700007468726517
:104D300061642025642069732072756E6E696E67E8
:104D40000A00000010B50B48094901604FF4E13139
:104D5000416000218160C16001610C22426181617A
:104D6000C161FCF76DFC00B1FEE7002010BD000042
:104D700000380140F840002010B51BA0FEF71EFED1
:104D80001D4C21881DA0FEF719FE208810F0010F90
:104D900002D020A0FEF712FE208810F0020F02D0F1
:104DA0001FA0FEF70BFE208810F0040F02D01FA0FA
:104DB000FEF704FE208810F0080F02D01DA0FEF7B9
:104DC000FDFD208810F4807F02D01CA0FEF7F6FDC8
:104DD000208810F4007F02D01BA0FEF7EFFDBDE895
:104DE000104004A0FEF7EABD757361676520666137
:104DF000756C743A0A0000002AED00E05343425FEC
:104E0000434653525F554653523A30782530325814
:104E100020000000554E444546494E535452200050
:104E2000494E56535441544520000000494E5650B7
:104E3000432000004E4F435020000000554E414C8F
:104E400049474E454420000044495642595A45526C
:104E50004F20000010B5FFF7ADF8002010BD010095
:104E600002000400060008000A000C0010002000E8
:104E70004000800000010101010307010000080457
:104E8000020408010101000000000000000001020E
:104E900003040607080900000000010203040000E3
:104EA00001000200010003000100020001000400F3
:104EB00001000200010003000100020001000500E2
:104EC00001000200010003000100020001000400D3
:104ED00001000200010003000100020001000600C1
:104EE00001000200010003000100020001000400B3
:104EF00001000200010003000100020001000500A2
:104F00000100020001000300010002000100040092
:104F1000010002000100030001000200010007007F
:104F20000100020001000300010002000100040072
:104F30000100020001000300010002000100050061
:104F40000100020001000300010002000100040052
:104F50000100020001000300010002000100060040
:104F60000100020001000300010002000100040032
:104F70000100020001000300010002000100050021
:104F80000100020001000300010002000100040012
:104F900001000200010003000100020001003031A5
:104FA00032333435363738396162636465660030D0
:104FB000313233343536373839414243444546007F
:104FC000252D2A2E732070726920207374617475E8
:104FD0007320202020202073702020202020737434
:104FE00061636B2073697A65206D617820757365E4
:104FF00064206C656674207469636B20206572722E
:105000006F720A005F5F636D645F6C6564335F633A
:105010006F6E74726F6C006C656433206F6E20610C
:105020006E64206F66662031302074696D65730090
:105030005F5F636D645F4F70656E5F4C4544310028
:105040004F70656E206669727374204C4544005F32
:105050005F636D645F436C6F73655F4C4544310003
:10506000436C6F7365206669727374204C4544000D
:105070005F5F636D645F4F7065726174655F4C451F
:1050800044004F706572617465204C454420617323
:1050900020796F752077616E7421005F5F636D64A6
:1050A0005F7363686564756C65725F686F6F6B00D2
:1050B0007363686564756C65725F686F6F6B20738E
:1050C000616D706C65006C6973745F6D656D006C0B
:1050D000697374206D656D6F727920757361676592
:1050E00020696E666F726D6174696F6E0068656CC1
:1050F0006C6F007361792068656C6C6F20776F72DC
:105100006C640076657273696F6E0073686F7720E8
:1051100052542D5468726561642076657273696FAC
:105120006E20696E666F726D6174696F6E005F5F8D
:10513000636D645F76657273696F6E0073686F7715
:105140002052542D546872656164207665727369CB
:105150006F6E20696E666F726D6174696F6E006C40
:105160006973745F746872656164006C697374203C
:10517000746872656164005F5F636D645F6C69731E
:10518000745F746872656164006C6973742074681C
:1051900072656164006C6973745F73656D006C693E
:1051A00073742073656D6170686F726520696E201D
:1051B00073797374656D005F5F636D645F6C6973B1
:1051C000745F73656D006C6973742073656D6170D5
:1051D000686F726520696E2073797374656D006CF9
:1051E0006973745F74696D6572006C69737420749F
:1051F000696D657220696E2073797374656D005FE7
:105200005F636D645F6C6973745F74696D65720070
:105210006C6973742074696D657220696E2073798E
:105220007374656D006C697374006C6973742061CC
:105230006C6C2073796D626F6C20696E207379736A
:1052400074656D005F5F636D645F68656C700052CC
:10525000542D546872656164207368656C6C2068B5
:10526000656C702E005F5F636D645F7073004C69E6
:105270007374207468726561647320696E20746849
:10528000652073797374656D2E005F5F636D645F75
:10529000667265650053686F7720746865206D6578
:1052A0006D6F727920757361676520696E2074680F
:1052B000652073797374656D2E000000F94B00084A
:1052C000F14B0008454D0008ED4B0008752400081F
:1052D000F54B000804500008175000087528000816
:1052E0003050000840500008791900084F5000085D
:1052F00060500008BD04000870500008825000088B
:10530000A11900089B500008B0500008294C000863
:10531000C6500008CF500008F9290008ED500008D9
:10532000F350000831280008035100080B51000811
:10533000554E00082E5100083C510008554E0008FB
:105340005F5100086B510008C12B0008775100081D
:1053500089510008C12B0008955100089E51000892
:10536000652A0008B7510008C6510008652A0008E0
:10537000DF510008EA510008A12D0008FF51000884
:1053800010520008A12D0008255200082A520008DA
:10539000F5280008445200084F52000871310008F7
:1053A000655200086E520008D32300088A52000894
:1053B00095520008C9230008D853000800000020B7
:1053C000F40000007C210008CC540008F400002008
:1053D0001C4500008C2100080000000014000000A3
:1053E00000000000000000001000000001000000AC
:1053F000000000000024F400000000000000000095
:10540000000000000000000000000000000000009C
:10541000000000000000000000000000000000008C
:10542000000000000000000000000000000000007C
:10543000000000000000000000000000010000006B
:1054400068000020680000207800000002000000D2
:105450007800002078000020200000000A000000F2
:1054600088000020880000202C00000000000000C0
:10547000000000000000000000000000000000002C
:10548000000000000000000000000000000000001C
:10549000000000000000000000000000000000000C
:1054A00000000000000000000000000000000000FC
:1054B00000000000000000000000000000000000EC
:0C54C000000000000000000000000000E0
:04000005080001D915
:00000001FF
